:100000000C94A1240C94C9240C94C9240C94C924E4
:100010000C94C9240C94C9240C94C9240C94C924AC
:100020000C94C9240C94C9240C94C9240C949326D0
:100030000C94C9240C94C9240C94C9240C94C9248C
:100040000C94F5250C94C9240C9461260C943B2641
:100050000C94C9240C94C9240C94C9240C94C9246C
:100060000C94C9240C94C9240C9400000C94000036
:100070000C9400000C9400000000000025002800F3
:100080002B002E0000000000240027002A002D0075
:10009000040404040404040402020202020203032E
:1000A000030303030505050505050503010204080F
:1000B00010204080010204081020010204081020D2
:1000C00002080104104020408184A471A171958E22
:1000D0008190818E8484888074986C956C986098E7
:1000E00065986C88748081848081718E669071714E
:1000F0008E718180886588668E598E60886C886074
:100100008184717484608E6680906084846C8E6C4F
:100110008E658E817184846C9088816590817484F1
:100120008E7484719D6C90668E84748874888090BF
:10013000608E907488658E719D599874846C9874E3
:10014000818190668E8084846695847481848874AD
:100150008880886C8E848481818871848E8181807E
:10016000888184718E8181848881808E71888E805F
:100170008881818184818E74888088808E74887162
:1001800090718874888084808880888084808E7450
:10019000848088748874888181847488818480884C
:1001A0008084808480888088808480848884818121
:1001B0008181818481848088808880848088808413
:1001C00080848188808480888081808880848884FD
:1001D00081818481848188848481848084848884EA
:1001E00080808488848484848184808480888088DA
:1001F00080848184818481818481848184808480DD
:1002000088748880818184808081848181818181DA
:1002100081807F817F817F817F817F817F817E81DE
:100220007E827E827C675A83967A7E7C72C6AAA47E
:1002300092296681787D808B8885797F847E7F8115
:1002400080827C7D7E878782797E7F807D838784A4
:100250007F85807C7B8081847D7F8485808285878B
:10026000837D7F7F7B827E827F84857F7D7F7D7C97
:10027000797E798083837C8282847B7E7D81828685
:100280007D8282837C80798581817F8679847A866C
:1002900078894D25568C5383EFC2ECAB7AAB5775FA
:1002A000944663798D959AA66F5A7FA78D8C4E627E
:1002B000A4AC756C8E67A7966E515C91B1A1927DCE
:1002C000A26A5D5D8598AB995277894E565979A09F
:1002D000A573868A579278877E6A676381849C8437
:1002E000A3967F816F6781858B8A8FAA6A6B638CE7
:1002F0009BA18759625171937D838C837499A6D891
:1003000088B7B75B42D0D2DBDB423A245D546D49FB
:100310006AA5C96E545351968B814C606D75866A7F
:100320008B9071829C848284AD863D46918988BD84
:100330009C6270385A7EB191C57B442F657384B33B
:1003400099A662839BB3AD89604484AE835E9E6848
:100350005E6C90AD729490745A84908096A66A43B5
:100360007C6D6467A797ACA4969D652D4EADA9786A
:100370007F9280382DD5945282448395C7BBB5AE09
:100380002D262EA2DD8DA294255A69A98BB9993DFF
:10039000A2797D649E6959899575446BB6DB60745A
:1003A0006F2260747B4D6F77B3D29F8A6B5175A2B9
:1003B0008291A47E556D6A8CC8CC8C44497591C2DB
:1003C0008FBB97535367C0AB7A854C5EBC9A422C67
:1003D00055AE79819A85725E6D80A0B1766D956912
:1003E0005D6FA9B586757153A5B092A15C33949EDB
:1003F00084A47D7A88A0414B9099798B599D7D8208
:10040000736F888AAE783A54738C7FBCA18D716CFF
:1004100094A3B96F4A406FABB27E6D6B59775B6B3B
:100420009CA7604C7A9C9093866B699E958B6F6DB0
:100430005779A2AB92A57C4A4D3F648EB598A27BBA
:100440006B578B82729393AB9690755B67897081C3
:10045000827B8286A28B7B80596B808386967D7E91
:10046000705855809C8A6D7D98906E7477788799C6
:10047000996B636890A2A99A6E4F616153697D8EF2
:100480009EA1A47E87877A747D7D94728C7C9084F3
:10049000748E8A858E865C7F7C99A474635C588791
:1004A0009F86978B8E685B6F8C8A957C7C707B8A2D
:1004B0007686808C8B946A6C6B7D97726D77707E7C
:1004C00089A690786E788E9E7F6E6E82876C897515
:1004D00081719A9378849D827C92675E796B81A307
:1004E000A28B71695C6F7482998B89987A628E9BFA
:1004F0008D9A966F68728A8284778085947261671C
:100500008D8587797F796F77817F838A72778993E9
:10051000897F5F71706C879F9B876D68839A8872F3
:10052000788F788077887D727C86998A75727285DB
:100530009081797D75848D908270737D716E8E97B8
:100540008A81887E746C777A8B8D818E85867F72A6
:100550007D7C707985979497817278727F7F81888E
:1005600086757F806C757C928E8781756F7A829399
:1005700081827C76787D7C807C8A8E8D8777777986
:10058000778C8275817A848C808B857A787F837E64
:100590007F7F7C8B86858372797772767F93918853
:1005A000737C897B7D7F7F8378777B8B8F84717869
:1005B0007F7E7A848F867E888174757D8486797A41
:1005C000898882838C8C89787E7C76817E827F8507
:1005D0008C7D7D7C7C757378737D8B837980888638
:1005E00078777E7E89897E818A817D7B7685897D0B
:1005F00085877A7F7E827E817B777C817C808A86FC
:1006000089847F847C8084767A7F828485887D79E2
:100610007F888383777A87897F7C837B87857D78D2
:1006200079838986847F867D7A7A81848885787EBD
:10063000827779797E85877E818279837F81807CCC
:100640007C7B80808581868480807D7C80818282A5
:1006500082877D7C7B81858582797B787D838080A4
:1006600082807E8483858082837E7C838484857D72
:100670007C7B7D7D7E7C7E83867F7C7D7C81818092
:100680007C7D7F7F807E81817F808280808083816E
:100690007B7C81818184837E7F7B7D80848185805A
:1006A0007C7B7E7F808482837E80828483817E7C4B
:1006B0008083817E827F7E7F81837F81817F7E8038
:1006C000818081837F7C807F7E7E82828382818223
:1006D0007E7D7E8181808080807E7D82817E807E25
:1006E0008081828282827D7C7D81838081817D7E0A
:1006F0007F818081817D817F807F817F7E80807FFF
:100700007E7F81837F7F7F7D7F7F807E7F7F8182F1
:1007100081807F7E7F81808081807F7F7F808282D9
:10072000807E7E8080828082817F7F7F82818080C8
:100730007F7F82817E7E7F8180808180807F8080BC
:100740008181807F81807F8081818080807F8181A5
:1007500081817F7E80818081808080817F7F808198
:1007600080817F8180808080808081807F7F808089
:1007700080818180807F808181807F7E7F81818078
:100780007F7F7F807F7F80817F7F80808080807F70
:100790007F8080807F7F7F7F80818080807F7F7F60
:1007A0007F80818080807F7F80807F80808180804B
:1007B000807F7F80808080808080808080807F7F3D
:1007C000808080808080807F7F808080808080802B
:1007D00080808080808080807F8181808080807F19
:1007E00081808080807F8080808080807F8080800A
:1007F000808080807F8080808080808080807F80FB
:100800007F7F7E7E7E7E7E7E7D7D7D7E7E7D7D7D0C
:100810007E7E7F7F7E807F808081818181818382D7
:10082000828383838383848383838383828282829C
:1008300082818181807F7F7F7E7F7F7E7E7D7D7DC7
:100840007D7D7C7C7C7B7B7B7A7B7B7A7B7A7B7AF5
:100850007A7A7B7B7C7C7C7D7E7E7F8081828383B9
:1008600084858687878889898A8B8A8B8B8C8C8CF8
:100870008B8B8B8B89898988878786858282828208
:10088000828280807D7B79777676757676767676CD
:10089000747371706F6E6F6F6F707172727272724B
:1008A00072737477787A7C7D7E7F7F818185888C76
:1008B0008F949496918E847F421D11030305121F1D
:1008C00034485E71838E989DA1A1A19E9C9A9794B5
:1008D0008E8A857F7B76797D87929CA8B5C1CDD89D
:1008E000E3EEF7FDFFFFFDF9F3EBE4DBD3CAC1B99B
:1008F000B0A8A19B938B81776E665E59534F4C498C
:1009000047474747484A505B6673818E9AA6B1BBFA
:10091000C4CAD1D4D2CEC7BEB6ABA1978D837B71EA
:100920006A635C57524C453E37302A26211D1B18FE
:1009300016161514151515161C242F3945515D6A08
:10094000747F8A929AA3A9ADAEADA9A6A19B9590FA
:1009500089857F7A7673706E6B67615E5854514CEF
:100960004A48464544444444454546494B515A64E7
:100970006F7C87929DA7B2BAC2CACFD5D9DAD8D533
:10098000D0CAC4BCB6AFA8A29D98938E8B88847E33
:1009900078756F6B66625F5D5A595857565757584E
:1009A00058595A5D656E77818C96A0AAB2BBC3CBAD
:1009B000D1D5DBDEDFDDD9D4CFC8C1BBB4ACA6A1B5
:1009C0009C96918E8B86807A75706A66625F5B59A1
:1009D000575553525251505150515152595F6771AE
:1009E00079848C949DA4ABB2B7BDC1C5C8C8C6C339
:1009F000BEB9B2ADA6A099948E8A8682807D7874A5
:100A00006F6966615E5B575453514F4D4C4B4B4B76
:100A1000494A4B4B4B4C51596269737B838D949C73
:100A2000A4AAB0B6B9BEC0C3C3C2BFBBB5AFAAA566
:100A30009E99938F8A87827F7B79736F6B66625EE4
:100A40005B58565351504F4E4D4C4D4B4B4C4C4CAC
:100A50004E50555A626A7379838A91999FA6ABB0BA
:100A6000B4B7BCBEBFC0BDBBB7B2ADA9A39E99947D
:100A70008F8C8885827F7B76706E6A65625F5B593A
:100A800056545250504E4D4D4C4C4D4C4C4C4D4E7E
:100A900052575E666D757C848A91979DA3A7ABAF14
:100AA000B2B5B7B9B9B9B8B4B0ACA7A39E9A95918D
:100AB0008D8A8784807D7975716D6A686562605EF4
:100AC0005E5B5A59585757565655545555545556B6
:100AD000585D62676F757C82888E93989DA2A7AAE5
:100AE000ADAFB2B3B4B5B5B4B1AEABA7A4A09B984B
:100AF00095928F8D898783807C7A7573706E6C6B0D
:100B000068676665646363626262616160606160B8
:100B1000626163666B6F757B80868A8F94989CA0F8
:100B2000A3A6A8AAABADAEAFB0AFAFADAAA8A4A024
:100B30009E9A9793908F8B8985817F7C797674724A
:100B4000706F6E6C6B6B6B6A696968686767676604
:100B500067666667666667686B6F74787D81868A8C
:100B60008E9297999D9EA1A3A4A5A6A7A7A8A7A783
:100B7000A6A4A29F9D9995938F8C8A86837F7D7A68
:100B80007673716F6D6C6A696868676767666766B8
:100B900067676768676768686868676867696A6CD5
:100BA0007073777B7F84878A8E919397989A9C9DA8
:100BB0009E9EA09F9F9FA0A09E9E9C999693908D85
:100BC0008986837F7B797572706F6D6B69696867E1
:100BD000676768676868686969696A6B6C6C6D6E7D
:100BE0006E6E6F6F706F70717376797C8082868A9B
:100BF0008C8F929497989B9C9C9C9D9E9E9E9F9E62
:100C00009D9C9C9B9B9A989694918F8B8984827EC5
:100C10007A787673726F6D6D6C6B6A6A6A6A6A6AEB
:100C20006B6A6B6C6C6D6D6D6E6F6F6F6F707171E9
:100C3000717272737477797C808386888A8D8F91C4
:100C40009393959596979797989797979696969545
:100C50009494929292908D8C8986827F7D7977751B
:100C60007272706E6E6D6D6D6C6C6C6C6C6C6D6DAB
:100C70006E6E6F7070707271727274747474767755
:100C80007778787A7D7F818386898A8D8F9091921B
:100C90009495959595969596959494939493939110
:100CA000919190908F8E8C898784837F7D7B7976DC
:100CB0007674737271717171707171707171727219
:100CC0007273747475757675757677787879797AC4
:100CD0007B7A7B7B7E7F8082848688898A8B8D8EDF
:100CE0008F918F9190919090908F908E8F8E8E8C0F
:100CF0008C8C8B8B8A898988878583817E7D7B7AA2
:100D000078777575747372737173727273737374A9
:100D1000747576767777777878797A7A7A7B7C7C4F
:100D20007C7C7D7D7D7E7D7F7F80818385868788BD
:100D300089898A8A8B8C8C8C8C8C8C8B8B8A898809
:100D40008987888686858585858584848382818058
:100D50007F7D7B7B7979787776777577767677770D
:100D60007877787879797B7B7B7B7C7D7D7D7E7FD6
:100D70007E7F7F7F80808080808080808080808078
:100D80008181838284848586868786878786868616
:100D9000868686858583848383838282828182811D
:100DA00080808081807F807F7E7D7D7C7C7C7C7B61
:100DB0007A7A7A7B7A7B7C7C7C7C7C7D7E7E7E7E74
:100DC0008080808181818281818181818181818016
:100DD0007F818080807E7F7F7F7F7F7F8081808218
:100DE0008182828282828282828281818080807FEF
:100DF000807F7F807F7F7F7E7F80807F80818180FA
:100E00007F807F8080808180807F818080807F80E4
:100E100080808081808080808080808080808080D1
:100E200080808080808080808080807F80808080C3
:100E300080808080808080807F81808080807F80B3
:100E40008080808080808080807F7F8080808080A4
:100E50008080808080808080808080808080807F93
:100E60008080808081808080808080808080808081
:100E70007F8080807F807F8080807F808080808175
:100E80008080808081808080808180808080807F61
:100E9000808080808080818080808080807F808052
:100EA000807F7F7F7F7F8080808180808180808045
:100EB000808080817F8080808080807F8080808033
:100EC00080807F817F808080808080808080808023
:100ED000817F808180808080808080808080808011
:100EE00081808080807F80807F7F7F8080817F8005
:100EF00080808080808081808180808080808081EF
:100F00008081807F8080807F80807F8080808181E1
:100F1000807F8080808080818080808080808080D1
:100F200080807F81808080808080807F80818080C1
:100F300080808180808081808080808081808080AE
:100F4000818080807F8080807F80808080808080A2
:100F50008080808080807B76726D68645F5B565293
:100F60004C4C55606C7A8798A8B9C9D7E6F3FAFF5C
:100F7000FFFFFDFBF6F1EAE5DFD8D2CDC8C4C0BD66
:100F8000BCBBBBBBBBBCBCBDBEBFBDBCBAB6B3AEBD
:100F9000AAA49F99938C867F7A746F6965615E5C61
:100FA0005856545353515251515150504F4F4D4D2B
:100FB0004D4E5052565A5E6266696D7275777B7EF1
:100FC000808385888A8A8D8E8F9090919191909060
:100FD0008F8C8A888683807E7B797674716E6D6B48
:100FE00068666562615F5E5B585653504E4A48467C
:100FF00043403F3D3B3B3937363635353435353563
:10100000373637393A3A3D3F3F42434546494C4DE2
:101010004F505356595E64686F757A81868D9298E9
:101020009DA2A7ACB0B3B8BBBEC0C3C5C8CACBCC29
:10103000CDCECFCECECECDCCC9C8C5C3C1BFBDBA33
:10104000B8B5B3B0AEABA9A6A3A2A09D9996939054
:101050008D8885827E7D797673716E6E6C69676727
:1010600065646362616161605F5F5F5E5F5E5E5E7B
:101070005E5E5F5F5F6060606162636365676B6E49
:1010800073777B7F84898D9094999DA0A4A7A9AC48
:10109000AFB1B3B5B7B8BABCBDBEBFBFC1C1C1C1A6
:1010A000C1C0C0BEBCBBBAB8B5B3B0AFABA9A6A3F4
:1010B000A09D9B9793918D8986827D7A76726F6BC6
:1010C0006965635F5D5A58565453504E4E4B4A49BA
:1010D00048484746464545454446454646464748AE
:1010E00048494B4D4D5051535355595C6065696F9C
:1010F00074797E83878C9196999DA0A4A7AAABAEA4
:10110000B1B2B4B6B6B9B9BABBBCBCBCBDBDBDBD4D
:10111000BCBBBAB8B5B5B1AFADA9A6A3A09C9A9611
:10112000928E8B87847F7C7875716E696864605E4F
:101130005B59565553514F4D4C4B4A4948474747C9
:1011400046464545464747474848494B4A4B4C4E1B
:10115000504F5252535658585A5C5E606165686BE6
:101160006F73787B7F84898D9094969A9DA0A4A5B7
:10117000A8AAACADAFB1B3B3B4B5B6B7B8B9BABA43
:10118000BBBBBBBCBCBCBCBBB9B8B6B5B3B0AEACEA
:10119000A9A5A3A09D999793908C898682817D7A39
:1011A000787571706D6A6966646260605D5C5A59D9
:1011B0005757565453525252525252515251525200
:1011C0005252535355565858595B5C5D5F60626389
:1011D0006667696B6E7074777B7F82878A8E929563
:1011E0009A9DA0A3A6A9ACAEB0B3B4B6B8B9BABB29
:1011F000BCBDBEBFC0C0C0BFC0C0C0C0C0C0BEBEFE
:10120000BCBBBAB8B6B4B1B0ACA8A5A29E9A96932E
:101210008F8B87837F7B7874726F6C696665626081
:101220005E5D5B5957575454525250504F4F4E4E7B
:101230004D4D4D4C4D4D4D4E4E4F505152545556B7
:101240005759595A5C5F5F616264656769696C6D83
:101250006E717375787B7E8284888B8E8F9496985E
:101260009A9C9FA0A1A3A4A6A7A8A8AAAAABABAB2F
:10127000ACADADAEAEAEAEAEAEAFAEAEADADAEAD94
:10128000ACAAAAA9A8A6A5A3A09D9B9895918E8A71
:101290008784807E7C797673726F6C6A686665631A
:1012A00062615F5E5C5B5A585756565453525151B7
:1012B00050504F4F4E4E4E4F4F4F5051515352542E
:1012C000555657595B5D5F6061636466696A6C6F10
:1012D0006F717376787A7E808386898C8F939698E7
:1012E0009C9DA0A3A4A5A8A9AAACACAEAEAEAFAF7E
:1012F000B0AFB0B0B0B1B1B1B0AFB0AFAFAEADADF7
:10130000ADABABAAA9A9A8A5A4A3A09E9D999794AB
:10131000908E8B888683817E7B7A777574727070ED
:101320006E6C6C6B6A69686766666563636262604F
:10133000605F5F5E5E5E5D5C5C5B5C5B5C5C5C5CDE
:101340005D5E5F5F606162636364656768696A6B65
:101350006B6E6D6F71717373757677797C7D7F823B
:101360008487888C8D90929597979A9C9D9E9FA03C
:10137000A2A2A3A4A4A5A5A5A6A7A6A6A6A6A6A61E
:10138000A6A6A5A6A5A4A4A3A3A2A1A0A09F9F9D35
:101390009C9A99979593908E8B89878481807D7B89
:1013A00078777473716F6E6C6A6968676665656378
:1013B0006261605F5F5F5D5D5D5D5C5C5C5B5B5B54
:1013C0005B5B5C5D5D5D5E5F5F6061616262646628
:1013D000666768696A6B6C6E6F7071737375767728
:1013E00078797A7C7D7E7F8082838587898B8C8EDD
:1013F00091939294969697989A9A9A9B9C9D9D9D6C
:101400009D9E9D9E9E9E9E9F9E9E9E9F9E9F9E9FFA
:101410009F9E9D9D9D9D9D9C9C9B9B9A9998999715
:1014200095949390908D8B8987868481807E7C7B38
:101430007A787675747371706F6E6D6B6B6A6969AB
:101440006766666464646362626060616161606073
:101450006061606162626264636565666768696A4B
:101460006B6C6D6E70717273747577797A7B7C7C3E
:101470007E7F80818283848688888A8C8D8E9091FD
:101480009294949696979698989A99999A99999AE7
:101490009A99999A9A9A99999998989897989897C1
:1014A00096969596959494949493929291908F8F0A
:1014B0008E8D8C8C8A898787858482817F7F7D7DD4
:1014C0007B7B79787877757474727271706F6F6ED8
:1014D0006D6C6B6B6B6B696A686868686768676777
:1014E00067666767666768676868686969696A6A7E
:1014F0006B6B6C6E6D706F717273747575777779D5
:101500007A7B7C7D7E7F808183848587888A8A8CB4
:101510008C8D8F8F909291929494959595959696A7
:10152000969595969595969596969495949494946B
:1015300094939292919190908F8F8F8E8D8D8C8BB2
:101540008A8A8A89888787858583838381807E7E4E
:101550007D7D7C7B7B7A7978787877767676757402
:101560007474747272727171717170716F70706F66
:10157000706F6F6F6F6E6F6E6F6F6F706F6F6F6F7B
:101580007070707070717271737273747375767637
:1015900076777779797B7B7C7C7D7E7F7F81818488
:1015A000848486868788898B8C8C8D8E8E8E908F96
:1015B000909092919292929292939292929293920E
:1015C00091929191919091908F8F8E8E8E8D8C8C27
:1015D0008C8B8B8A8989888787868685848383829A
:1015E00081807F7F7E7E7C7C7C7B7C7A7A79797936
:1015F000787878787878777777767676767576757E
:10160000757575757574757474757475747575758F
:101610007575757575757575767676767576767772
:101620007776787777787978797979797B7A7B7C2E
:101630007C7D7D7D7E7F80808181828384848586A0
:101640008687888989898A8A8B8C8C8C8D8E8D8EF1
:101650008E8D8E8E8E8E8E8E8E8E8E8E8D8D8D8CB0
:101660008D8C8C8C8B8B8B8A8A8A898988888787DA
:101670008685858483838282818180807F7F7E7E50
:101680007D7C7C7C7B7B7B7A7A7B7A7979797A79B1
:101690007979787979797A797A7978797A797A79B8
:1016A0007A797A797979797A7A7A7A797A7A7A79A1
:1016B000797A7A7A7A7A7B7A7B7A7A7B7B7B7A7B85
:1016C0007B7B7C7B7B7C7C7D7D7B7D7C7D7D7E7D57
:1016D0007E7E7F7F7F807F81818181838282838400
:1016E000838484858586868686868686878787879F
:1016F0008888888788888788878887878787878674
:101700008685868685868585858484838383838292
:1017100081828181818180807F7F807F7D7F7E7ECD
:101720007E7D7D7D7D7E7D7C7D7D7C7D7C7C7D7DEB
:101730007D7C7D7D7D7D7E7D7E7E7F7E7E7E7E7ED0
:101740007E7E7F7F7E7F7E7F7E7E7F7F7E7E7F7EB2
:101750007E7E7E7F7E7E7E7F7E7E7E7E7E7E7E7EA7
:101760007E7E7F7E7E7E7E7E7E7E7E7E7E7E7F7E97
:101770007F7F7F7F7F7F7F7F7F808080818281816D
:101780008281818282818183838483838383848431
:10179000838383838383838283838383838382831B
:1017A0008382828281828282828182808081818022
:1017B000808180807F7F7F7F7E7F7F7F7E7F7F7F36
:1017C0007F7F7E7E7E7E7F7F7F7F7E7F7F807F7E2E
:1017D0007F807F7F807F808080808080808081800C
:1017E00080808080808080808080818080808080F8
:1017F0008081807F8080808080807F80807F7F80EC
:101800007F7F7F7F7F7F7F7F7F7F7E7F7F7E7E7FEB
:101810007F7F7F7E7E7E807F807F7F807F808080D5
:1018200080808081818080818081808181818181AF
:101830008181818182828281818182818181818095
:10184000818181818081818181808180808080808F
:1018500080808080807F7F7F807F7F7F807F7F8090
:101860007F7F807F807F7F7F808080807F7F807F81
:101870007F80808081818081808080818180818162
:101880008181818181818182808181818181818049
:101890008180818181808181818080807F80807F43
:1018A0007F80807F7F7F7F7F7F7F7F7F7F7F807F45
:1018B0007F7F7F80807F80807F8080807F8081802D
:1018C0008180808080808081808081818181808111
:1018D00081818181818181818080818181808180FC
:1018E000818080818080807F8081808080808080F6
:1018F0007F807F80807F7F7F7F7F80807F7F807FF2
:10190000807F7F80807F7F807F7F7F7F7F808080E0
:101910007F8081807F80808081807F8080808080C8
:1019200081818180818080818081808081818181AD
:1019300081808181808081808080808180808080A2
:1019400080807F7F808080807F7F7F7F7F7F80809F
:101950007F7F7F7F7F80808080807F8080807F808E
:101960008080808080818080808081808081818172
:10197000818080818080818180808181818080815F
:101980008081808080808080808180807F807F8057
:1019900080807F808080807F7F8080807F8080804B
:1019A0007F807F808080807F80807F8080817F7F3C
:1019B000807F807F81807F80808180818080818026
:1019C0008081808080818181808180808081808011
:1019D000817F807F8180817F8080807F817F807F09
:1019E0008080807F807F7F807F7F807F7F807F7F00
:1019F0007F7F80807F7F808080807F807F7F807FEF
:101A00007F808081817F7F808080808080808080D7
:101A100081818080818080808080818080817F80C2
:101A200080817F808080807F808080807F808080B8
:101A300080808080808080807F807F807F7F8080AA
:101A40007F80807F80807F7F80807F8080807F809C
:101A50007F808180808081818080807F8081808183
:101A60008080808080808181807F80808080818074
:101A70008180818180808080818180807F80808062
:101A80008080807F807F8080807F7F7F7F8080805C
:101A90007F7F8080807F8080808081808484878534
:101AA000878588838E6B2316060200050A15223669
:101AB0004A5F748A9EB1C2D1DAE0E4E5E4E1DCD7A2
:101AC000CEC5B9ACA093887D726A645F5D5C6069C5
:101AD00073808E9CABB9C6D1D7DADCDCD9D6D0CA3C
:101AE000C1B7AB9E9084786D635B544D49484B54AD
:101AF0005C6874828F9BA7AFB4B7B7B7B2AEA8A02B
:101B0000988C807366594E443B332C292624262E0C
:101B100037424F5C6875828E969C9FA19F9D9994D9
:101B20008E877D73675D5349403A332F2C2A2B2BC8
:101B3000313B4653606E7C88949FA8ACB0B0AFAB8D
:101B4000A6A09992897E73695E554D47413D3A3909
:101B5000393A3E47515D6A7884929EA9B3BABEC0B5
:101B6000BFBDB9B4AEA79F968A80776D665F5854A3
:101B7000504F4F4F50565E6974818D99A6B0BBC4CB
:101B8000CACDCDCDC9C4BFB8B0A79D92887C736BB8
:101B9000635C5752504F4F505257616B76838E990A
:101BA000A5AFB8C0C5C8C8C6C3BEB9B1AAA1978DF4
:101BB00083797068615C5754525251525559626C26
:101BC00076818D98A1ABB4BBC1C4C4C3BFBBB4AD57
:101BD000A69E948A7F766D655E57514E4B4B4A4A5E
:101BE0004C4E535B646F79838E98A1A8B0B6B9BA96
:101BF000B9B7B1ADA69F9990867D736B645D57535D
:101C00004F4D4C4C4D4E51545B636D78828C959E7C
:101C1000A6AEB4B9BBBBB9B6B1ABA69E978E867C57
:101C2000736B645D5854514F4E4E4F5152545A622B
:101C30006A737D8890989FA6ACB1B4B5B5B1ADA8D4
:101C4000A29B958D857C736D645F595452504E4EA6
:101C50004F515155585E666F78818B939AA2A8AD0B
:101C6000B1B5B5B4B0ADA7A29C948C847C736C66FE
:101C7000605C565452505050515456585D646C73C9
:101C80007C848C949AA0A5AAACAFAEACA8A5A09970
:101C9000938D857D766E67625D59555353525252CE
:101CA0005457595C61686F78808890979DA3A7AC62
:101CB000AFB1B1B0ACA8A49F98918A837B756E68D0
:101CC000645F5C5B58585859595B5C5F62686F751C
:101CD0007D858C92999EA3A7AAACADAEACAAA5A215
:101CE0009C968F89817A746E6965625F5D5C5C5CCD
:101CF0005D5F616264676D727A818890959BA1A631
:101D0000A9ADAFB1B2B0AFABA7A29C958F88807BD5
:101D1000756F6A676461615F5F5F60626365676A70
:101D200070767C82888F94999EA2A5A8A9ABACAA54
:101D3000A8A5A19D98918A847E78736E6A67646372
:101D40006161626262646567696B6F757B80858CB7
:101D500091969B9EA2A5A7A8A9AAA8A7A4A09B9577
:101D60008F89837D77726E6A66646260606060618D
:101D700061626465676A6E73797F848A8D919699D2
:101D80009D9EA1A1A3A3A19F9B98938E88827C78FE
:101D9000736E6B67656362616161616364656769E6
:101DA0006A6E72777D82868A9092969A9B9D9FA09A
:101DB000A1A1A09E9C97938E88837D77736F6B689B
:101DC00065646261606061626363656667696E73C2
:101DD000777C8286898D9195979A9C9D9FA09F9FE5
:101DE0009E9A96928D89837E7975706E6B6968660E
:101DF000666665666768696A6C6C6F72777B8085FA
:101E0000898D919496999B9D9E9E9F9F9F9D9B9748
:101E1000938D88837E7976716E6B6A686765656578
:101E2000666767686A6C6D6E7074797D81858A8D6E
:101E3000909497999B9C9E9F9FA0A09E9C98938F07
:101E40008A85807C797573706E6D6B6A6A6B6B6B5B
:101E50006C6D6E6F707174767A7E8186898C8F91CD
:101E600093969799999A9A9B9B999894918C888329
:101E70007F7B777471706D6C6C6B6A6B6A6C6D6D67
:101E80006F6F70717376787D8084888A8D9092945C
:101E90009797999A9B9B9B9A9A9895918C88858104
:101EA0007C79767372706E6D6B6B6C6C6C6C6D6E36
:101EB0006F7070717276787B7E828588898C8D9048
:101EC000919293949595959694928F8D8885817E25
:101ED0007C79767371706F6E6E6E6E6F706F7071ED
:101EE0007173747475777A7D808385888A8C8E8F00
:101EF000919293949495959493938F8C8984827EF8
:101F00007B78757371706E6E6D6C6C6C6C6D6E6ED3
:101F10006F7070717275787B7D808386878B8D8DF5
:101F20008F919293949495959593928F8C898682B4
:101F3000807C7B7876757372717170717171727259
:101F400073737475747578797C7E81838687898BC9
:101F50008C8D8F90909190909191908E8C898784A8
:101F6000807E7B7977757474727171717170727320
:101F700074747475757778797B7D7F828487888A9D
:101F80008C8D8F90919192929392929191908D8B52
:101F9000888482807D7B7A787675747373737372AC
:101FA00072737474747575757577797B7D7E8182B3
:101FB000858588898B8B8D8D8E8E8F908F90908E5E
:101FC0008B89888583817E7E7C7A7978777776762F
:101FD0007676767776777776787978787A7C7E7F7A
:101FE0008183858787898A8C8B8C8D8D8D8D8D8D56
:101FF0008D8D8B89868582807F7C7A7977767574E2
:102000007474747474747475757676767877787A77
:102010007B7D7F8182848587888B8B8C8D8D8D8F56
:102020008E8E8D8D8D8C8B88878583807F7C7B7B4E
:102030007A79777777757676767676767676767736
:10204000777878797A7C7E7F80818383858786889C
:10205000888989898A8A8A8A8A898786858382800B
:102060007F7D7C7B7A7A79797878787878787979D5
:102070007979797A7B7B7B7C7E7F7F818384848581
:1020800087878888898A8A8A898B898A8A898786C4
:102090008582807F7E7C7B7A797977767777767692
:1020A0007676777878777878797A7A7B7B7E7F8096
:1020B0008282838586878887898A8B8B8A8A8A8BA6
:1020C0008B8B8A888786858280807E7D7D7C7B7AEB
:1020D000797A797A7978797979797A7A7A79797A6B
:1020E0007B7B7C7D7F7F80828182848485858586E1
:1020F00086878787868787868684848381817F7E9B
:102100007E7D7D7C7B7B7C7A7B7B7B7C7B7B7C7C14
:102110007C7C7D7D7D7E7D7E7F80818382848484C6
:10212000858686878687878787878787868685844B
:102130008181807F7D7C7D7B7B7A797979787978E4
:102140007979797A7A7A7A7A7B7C7B7C7D7E7F80DA
:102150008181838383848586878787888788888829
:1021600087878787858484838180807F7F7E7D7C4D
:102170007C7B7C7B7B7B7B7B7B7B7B7B7B7C7C7CAA
:102180007C7D7D7D7D7E7F807F8081818382838356
:10219000848484858484848485838383828182810A
:1021A000807F7E7F7F7E7E7E7E7D7D7D7D7E7E7E4E
:1021B0007E7F7E7E7E7F7F7E7F7F80808082818229
:1021C00082828483838483838484848485848384D7
:1021D0008382818181807E7E7D7C7D7C7B7C7B7C1B
:1021E0007B7B7B7B7C7C7C7C7D7D7D7D7D7E7E7E28
:1021F0007E808081818182828383848485858685B7
:10220000858584858585858484838282818080809C
:102210007F7F7E7E7F7D7D7D7C7D7D7D7D7D7C7DE8
:102220007C7C7D7C7D7D7C7E7D7E7E7F7F7F807FD4
:102230008180818282828181828282838282838282
:10224000828281828180807F80817F808080807F88
:102250007F7F7F7F7F807F7F7F7F7F80807F808089
:10226000808080818181828181828281818181825D
:10227000828181818181817F7F7F7E7E7F7E7E7E64
:102280007D7D7D7E7E7E7D7E7D7E7E7F7F7E7F7F6F
:102290007F8080808181808081828282828282832D
:1022A000828383838282838283828282838281810A
:1022B00080808181808080807F7F7F7F7E7E7E7F27
:1022C0007D7E7E7E7D7D7E7D7D7E7E7E7E7F7E7E32
:1022D0007F7F7F7F808080808180818181818182FA
:1022E00081828282828182828282818282818281D3
:1022F00081818180808081818180807F80808081D8
:102300008080808080808080808081807F7F8080CE
:102310007F7F807F808180808080807F7F80807FC2
:1023200081817F8080807F7F8080808080818080AD
:10233000808080808080808080808080808080809D
:10234000807F807F8080808180808080808080808E
:1023500080807F7F80807F80807F80808081807F81
:102360008180808080808080808080808080807F6D
:102370008080807F8080808080808080808080805E
:102380008081808080818180807F8080808080804B
:102390008080808180808080807F8080817F80803D
:1023A00080808080807F808080818080817F80802D
:1023B0008180808180808180818081808080808117
:1023C00080807F7F8180808081818080807F817F0D
:1023D0007F8080807F80808080808080807F808000
:1023E00080808080808080818080818081808080EA
:1023F00080818080808080808080808081807F80DC
:10240000808080807F7F80808080808080818080CD
:10241000808083629C6EA9546D6C61839444BB433D
:10242000A26896429643A1457A7A774AA5804B5096
:102430007CA90BA949827E7F8D6F855F882CD32B69
:10244000A26A87548F714C6A9188378033C00CE63A
:1024500000C05997684A6C783D83705DAD466D92B7
:102460002DAE4FA440B23FB326C0575C717440D626
:1024700010A343AE7760628E58808B4BA7568F6F48
:102480009B6F4F988A4389A861865F9444BC5AA485
:1024900040A658814CB23FC04A814EBC29A44FAEE1
:1024A000775F8A8A81546E846C48DE00DA3B9065DF
:1024B0009636988D5E658D64735A817D42B55F86D0
:1024C0007C9A616973808071666BC813B45674918D
:1024D0008264AA696D7D8E5E7E8F5C91AB4EB02862
:1024E000F905CF59BB6A9A577F6E9E6B8374943DF2
:1024F000A6606788817D72878F5D9B70895BAB6BFF
:102500009E498B98649C8D38AA6978A265889363EC
:10251000B77183608E95728CAA449274898A8464A0
:102520009D7280A547AD9C6D8669AB80809A7E7652
:102530007F6F8F757FAD3EAE8D53BD5E8E9270A561
:102540008A7890739C8866AE7E8672859F64828846
:1025500043DE35A36884B85C6183A8598C9D56AA74
:1025600083879971878C8C7888B14F69A3639E9D0E
:10257000646DBC56AF60799974A090708388837D38
:102580008D65C061AB8385786EA166BC854F8D9AE1
:1025900057A9726EB173997983776EB343AD736D3A
:1025A0008584AB5E9664966E68B542AB886F7A8818
:1025B000B746A18F69A377995AB26C8A78A268C48A
:1025C000668F6DA87C8F878E64768B7F8D7D8190E2
:1025D0007C5DBB60B26C8C629D748D8C7BA23AD1A9
:1025E00059838E7F96748D8F9459787E8575A15905
:1025F0009D7A869878846F82B844A26BB85FA64FA4
:10260000CC54C360A067B7617D69BF4F9C7B808954
:102610007F967F9C669A57C348AE826B9A89995978
:10262000C038AC8267AA788F9D39B270808E6FA354
:102630005DA47C8E8B637E8D7B926D916DA870778F
:102640009788799E5AC2448E9E5BBB68826EBE415B
:10265000A3648F6EB842C256AC5CBB5CA15EA2683C
:10266000AC7A84838085819862C4559873A77982F7
:1026700062A28060859A5ACE568E8BA1839C569317
:10268000A0789052AA7B6CBD6895768A89758A83FA
:10269000966A7F8B8B738185867F74978D96857DF7
:1026A0008173A46E958D73858A7C996A959064B3C5
:1026B0005EB835D051A574AD588C958879AF709BB4
:1026C0005EB45B9B8C8A67AF5B9476B44E808387E5
:1026D00075809C778D5C9B53A0748A7B9667857709
:1026E000987E84729384708C87907C8C75A56A85A3
:1026F0006F8E96609882727FAD57B5768FA3659680
:1027000068849E6E9860AA695FAF7F848F599E85AA
:102710008F866F78967A8F905B89749F798968A38A
:1027200072808B77887E738E9F64669B8A66A164B5
:102730009F788D8B60A878868A748B7B9862B44E64
:10274000B161AD38C354AC7F7D728D9591778C8526
:10275000868A906E917A7D928D8A739871917F7638
:10276000AF57908A6B70B946AA6A9E63A65F7D7E5A
:1027700098558BA54BB953AD6FA56E8D8775947623
:10278000817D995F9172827D80876382A765AC7736
:102790007F91888F76759377967B8E8858A0788FF7
:1027A000778E6296748D69858B738A8C7B78847E34
:1027B00087729665AE7272878A7A639E75669B6928
:1027C0008971AC419C698A7C8065A5708D947B83FE
:1027D00074966F6B84926E9983898A77A44FA875DB
:1027E000979E637C9A79888278947D8765807D8CBA
:1027F00074997A7A7C7993769E63976B8C64A162E4
:10280000A56D7E8973827E81797C9066AC459989BD
:1028100065BB4CA34BD04B9D5AB565817A789D5BC7
:10282000B548B36C738870A4688E6EA57085968267
:1028300086757B996F8274957375A2709767AC6883
:10284000A65FB44EAA38CC4E986D7990677A69A786
:102850004BB36492857C718C55B14B9F708A8D55BA
:102860008E7E71A85E9471789F6A7F966E8F846D5C
:102870009158C74BAB669D778F6BA950B75FAC691A
:102880007985856E8F7F897273A052955C98807967
:1028900074865CB1629A659353AE529D6D88609068
:1028A000629D6D80925AA76297608E797F5CAD576A
:1028B000B453A367918A738697817E8B649A64B6BA
:1028C00045A057AC4CA056A16E68A05DB3589B893B
:1028D00072837A8D6FAA549167986D8081777E7C20
:1028E0007E956E907E6F8774A5629F7593648274E7
:1028F000867E6E7F8271888C80857C9D79876497C7
:1029000064945FB36D7B6CA9519C7A7497778C70DB
:102910008F7D89768E71767A7786837A7786856CD5
:102920007B906C9B6C728C70897477857C7F7D71D9
:10293000846F8B6EAE4994737E8767867388788DBB
:102940005E9481758A6B82877B837C8088727D8DA3
:102950007A678D797A8F7D7D6A8D857592669B6E9B
:102960007E8672808A7E7E759C5A92748583798D6C
:102970006C7B947B8C7A9A66807E7F78817B857372
:102980007B96658B6B8669A562868F748A718A7661
:10299000837D8E609F6B8A69A4638B8B679F739620
:1029A0005B9881619C549674887D9070985498507F
:1029B00098678B737A7E835CAD3EB4539A75767656
:1029C0009250A7668668AA569A7D7A9063A243A41D
:1029D0005D8E807E6E6E906E9179837F7E82718235
:1029E0008C84717697788988778C7B847A8E728DC7
:1029F0007C83787785718172817185787688769C01
:102A0000648A6C857C6F887598659C5F8D837192F4
:102A1000787D7580789D608A8D836F9C6A927E6ECA
:102A20008C728283836B9087707E7D747781708EC9
:102A30008071965F8F7F74887F856D8971877287BB
:102A400082737D7987708B628D70838286866494B1
:102A500073836E8776788A8280727888739A6888A2
:102A60007D84819D797A9C66886E937A8A7282824F
:102A70007B997182709D65937498708F6C9A5C9746
:102A80005F806F8D6289776D8C688D847A888173A1
:102A90008875817B78906883758C70798F7A916165
:102AA00086768F798F707F8F679671856F7F7B8039
:102AB0007A757F7F8D7B986B866A947E927B728C11
:102AC000738387659A698184689577747F8B7E7A32
:102AD0007D916C7A8B77816F7689719A6E777A9413
:102AE0006585708C658685817E82757D8B7E71782B
:102AF000817E827D7675878E79827094539E64ACD8
:102B00006F836A827E8A77847D787A7E7A88618410
:102B1000758E7285697E897381877E6F89726EA4D6
:102B20005F925F85728E6295717C7B7B9856A66101
:102B3000A96A7A7D7A6E976AA6757B898B66977B80
:102B4000887F797F8272818187737F718B6B8E5AC8
:102B50008A8277838A6C7F7777887775838F6E8593
:102B6000706A84778A7A807C85788E6F81787F7CA2
:102B7000688A7C817C827A7490729D646290818E76
:102B80008475837A8E758072807490717E7C8D7E60
:102B90009A777788837B739E638C7D83817F8A6F2E
:102BA000877A7F8C719B5A996D83678B5F9C609A43
:102BB00071895E9E5F8A6B8F65995F8D727C827C66
:102BC000837E7A8074877D807B8D6480808B728E1B
:102BD0008089807C789071A0639A608C8882738FE2
:102BE0007E7486887C937C7D7C88758277827C74F9
:102BF000798F7396707C807D7B75837F78857587F0
:102C0000817083808468877B8B81807D75957275E8
:102C10008984718B748C7E7586818072926C977DAD
:102C200076767F7F8D67A0638D6C8B618E788770E1
:102C30007B678B6F898176857287816785837878DA
:102C40007D74807E7E67877A847387818285798DA3
:102C5000896C9965917480858273897F75907C7188
:102C60007884828B7C76807F807E8977809279954C
:102C70007C778582747F817D897C71737F7D75828D
:102C80007A748A6298628B7086797F688A6F8C7397
:102C9000738F6D9465807891659F6590847F7D8842
:102CA0007D827A8581758D80708D7B827F7F738335
:102CB0008E84817B8E728E7B847B8572807D8B740B
:102CC0008A6D79866D8F718B75877886669B659026
:102CD0007B7F8C6E847581796C8182747F858F7324
:102CE00086868D897C897C837191728189788F66D3
:102CF0009B668486747D7F74817C8A7B7D73807EF5
:102D00007E7885798D6E8C73807186798D767F7EE5
:102D1000748473896A93688E78857D7C8F719871CD
:102D2000847E8A847E7980807F8D7873768C6E84B1
:102D30008A6F9C63887F738B88738C847385739090
:102D4000729770807482807D8D7D7E7483786F88A9
:102D500081807B7B88817381708371808B6F8473AA
:102D60008E6294727C7F80786F828086767D886A9E
:102D70009D62AA6480818F837D81818677886D962C
:102D8000638D718D708481728A73826B8487608C8D
:102D90007E82727E7885757B707E80728785817673
:102DA0007C6C71876C8777748A7283718B7686747A
:102DB000847E80807B7B888173817C99718D6B930D
:102DC000738A73817D808585817B8E718282837712
:102DD000798385728A72858E68A56983709E7587EE
:102DE0007579857080768873837F7E8172816D7F2F
:102DF00089737D75808679847B8A7B82737F7480FA
:102E00008782827B99718E6A946B8381817F8C7DAE
:102E10007E89797C80817A7C847386718072827EDF
:102E20007F827B8E73817391727F748777737E84C8
:102E30006F7C767483748B7C6F80877D89828087BA
:102E4000757F866D996690768D78857F8F64907991
:102E500083817487777F7E827C856F798C6D99659D
:102E60009278837F7673897E89897E7E7B7E82716C
:102E70008073837F787B81758877886B7E89817585
:102E8000987675758E75897E7680817977857A9941
:102E9000707F7A837177916F8B6A9A7C8B7B81804C
:102EA0008973827F7E837B8E73986C8A727E757E37
:102EB0007E768E747C7D8B75807B787D876688734B
:102EC0008E7A857778837C8C7F8B6D7E8C867A8EEC
:102ED0007281818671887791708B678C717D788122
:102EE000757F7E8681787A708980747E897986750F
:102EF0008B7D837D81807E82738B7D877F7D718DCD
:102F0000708F708C7783807B7C7F827C84757D74EE
:102F1000887582787E7F817C7C74757C77917C77E4
:102F20008C757F7D887C8471818280708B7A8A81A8
:102F30008283807D857177887F7D82728B70847EAD
:102F40007F8173817D85867F7D8B80807F7F827688
:102F500082867D8B748D7B827D817F8073817F7E75
:102F60008982807E80807C8F847585728A748F7858
:102F700087697A81807C7681807D8B7F8072837D7A
:102F8000827C837C806B97687D8784888077827160
:102F90007F6D86737E807F7F85877B84668E787A5F
:102FA0007978827E817F7D887A708289808287713C
:102FB0008C7E957A7E7E827A7781807E8289866C0D
:102FC0008779897D7F817F8C7B87867D827E8A72EF
:102FD000807090758072827F7A7E85836F8E638623
:102FE0007B7E748671897F817D86857F7F817281FA
:102FF0007E817F807F7F807E7386738579858275F1
:10300000877889807480718280877481827A8F70DA
:103010008E7D7C94747974817A7B8781747F7282CF
:1030200070847E7E856F8D718E7B7F728E777D80C2
:1030300073827C8571907C7C897994818688777F86
:1030400089818F7E797F8A808C7C887E7F867F7F56
:1030500080738F748088737E8A7E85827681817387
:10306000808B89818B747B817F7E768D798671825E
:103070007181748C83807880817E8180797B767D7C
:103080007E827E7E897988738D6F8F6E84867C7C4C
:103090007D8D709380758B818A7582826E8C7E7631
:1030A0007E7E8D7A768572826F8E718D708073854B
:1030B0007D81808876886F8A6E8C728C6E8C818818
:1030C000837F8080807E85878292718C728F7A86E2
:1030D0009074807E8A7087747C807F80807F807F00
:1030E000807F817F7F8276827C7C74807D83778005
:1030F000867F7E817281848177818073817B777EF8
:1031000085708C728E7C7F73847D827E80747C7CE3
:103110008689787E7E827E817E817D8B7F817F80A5
:10312000807E827C8D7F88737D76837E80818A7E9F
:103130007F82747F73817D827D83747E74817C76CF
:10314000817E817D817F8B8078817E7A777F877990
:10315000847C8780728C7C8686807E89827F80805A
:103160007D85708B728D708F7D8C7C80817E80815F
:103170008673857B837C8C738C808A7C80807F8146
:103180007F807B7491718D70847D8082747F738267
:103190007C868680767B8173817F7F827B8D738145
:1031A0007F8C7B878772807F7E768E73828F7F8015
:1031B000807C777A7981807E8180787F8489808124
:1031C0007F8972837F7E827280739071857B7A8122
:1031D000807C7B837A8C708A80807E85867E8080EE
:1031E0007F72877C71916B8E719A7A7F77957586E5
:1031F0008D808B7C83777A827E8B7F7D7486798FBE
:10320000718C70857C827F80807F807F807E8174DE
:103210007E7F73848680787A8172807F7F807C8BCA
:103220007F8B71837C837A8C74807E8B7D7F8370AF
:103230008B718D7C7F74827F7E8A7F82877F7A7795
:1032400084718A7E807E80848D8080807C7A897C77
:1032500080807F7384807C816D7F807F807F807F92
:10326000807E80808871867284827F7F80807A7879
:10327000807F7F807F7F84857F7D8A7F8C8989792D
:103280008B777D7F80807B7A8D6D8C728C7C808348
:10329000857F757D7F757F867D7B757F7E807E8057
:1032A0007F80787080737F74827E80807F807F7F54
:1032B000807871747E7E7885748180747F7E817A57
:1032C00077817E817380897D82767B80897F817919
:1032D0007E807880807E7F73827D807E89808086FC
:1032E0007284747C80808A7A79778182817181800E
:1032F00085757A7A7F8072806E7B7D8881807F8001
:1033000080787E877C817F898186857C7B7F807FBA
:103310008C8C7E7F86737E8081887D807F7F807F9E
:10332000808C7072827E80807E7178817C8A7580CC
:1033300088818B896F8B718C70907884757B817E8E
:103340008972837C827B8B7F8B7D8084857E7F806E
:103350007276807F807E88817280807C897F8D718B
:103360008D7D8B81817583737F807E83877D807E59
:103370008073817B748D758071817D7F827189738B
:1033800081718D7E897E7E83708C6F847C807F7F4F
:10339000807F7F82887D807F807F7F82877F7D8B1B
:1033A0007E8C7D80857E7C738A7D817280877A8524
:1033B00076807D827A758570897F8B7085767A803C
:1033C0007F807F7F807F80807F807F807F809177FC
:1033D0007F73807E7D798A7B817E808088818680F4
:1033E0007B8D718D7C808480758C7F8A7E807F7BD5
:1033F000758F7280727F767A7F8E807F807F7F80EC
:103400007F807E8A707A897B88837473807E8486CD
:103410007F7E81718C7A76827A8D738A7D808187B6
:1034200083847F7F807F80807E87827E7F73838B93
:10343000867C89807F7F807A7683737E7F807F7FA2
:1034400081758383737F807E6D8382807E80748CA0
:103450007C80817B8D718072837D807F807F7E7494
:10346000817F7E88817F8A7E7F817B8D7380728E53
:103470007A817F7E817D8077847B8078808A7D756C
:10348000807E85857C81728B80897D7F8272807E43
:103490007C7B836F7C8B72767D7484757C807F737C
:1034A000767F81767B80808A86769081807F807F20
:1034B0008080819076858A80748B7A837B8A8080F5
:1034C00073817E807F7F807F80807E827485818013
:1034D0007E807F7F8585747F807E728B7884797D06
:1034E00089807B77808174887F81787E816F7D89F8
:1034F0007F81887E80807F807F7F75817E80807FD6
:10350000807F7F80787A7971887F8287807D8470E0
:103510008B728D7A827E7F8174807E807D86847EB0
:103520008080897D817C8881807F896F7C787C77B1
:103530007D7F807F808079788B7E8A7E7B7B887B95
:10354000888A887E81797A7F87817F7E8580797776
:103550007E74807D80818D827E807F7F807A78817D
:103560007F80807F807F807F80757E7E7580807881
:103570007B80807F8A7C817D878374807D76817E5D
:10358000807F807F7F807E81767D7F8A7C76827956
:103590007A817E897F807E807D8880807F807F7F2A
:1035A00085857487887F807B758B767F7E7F73733C
:1035B0007E75877E8A7E8872847B89808080897D03
:1035C000807E807F8080887D807E807D897F8B84E7
:1035D0007E807D8880807F7F84847E80807F807FE6
:1035E0007F807D8273897D807F7B78837480748106
:1035F0007E80807E817480737678817F7F807F80FB
:10360000807B74747D8075828582867C88807F7FD4
:10361000807D85837E807F7F82867E7E8175807FB0
:10362000887D808489897F807C77827D8275807F98
:103630007E76827D8683748075827E80807F807FA7
:103640007D7989798A787F7F7F76827D807E807F91
:103650007E777C79808680807F8A868983838C755B
:10366000897C817E838D76887E817D838A827F7F3F
:10367000807F80807E807D887F8A857E82777D7F47
:103680008075817E7F82768075817D817D85888150
:1036900076807E817D887A7D808088867C87808226
:1036A00075897E897C817F7F87877F7F807D86810A
:1036B000807E887D7F84837F7F807F7D7A89767D11
:1036C000807F80807F807E81767F7F807F807F800B
:1036D0007F807F7E77817E807F7F80877B7B7D88F8
:1036E000797F7E887D8083847E80807F8A807B8BCB
:1036F00080807780867D84847E807F80807E8483C6
:103700007F7E817680818582847E7F807E757B7FCF
:1037100080787E80807E838383827E807782857EB0
:1037200081797D808084787D7A817F7F807F807EB3
:1037300081787E8080878481857C878087857F8073
:103740007F807F8077807E848284827F77797F808C
:103750007A7B807F80878378817F7E8177807E807F
:1037600081797E787F7F7F76867E7B817E80788080
:1037700083807A817E80807C7C847E7E877F80814E
:1037800083768780817780807C7E838480867E7943
:1037900080807E858080777A807E82778480877D36
:1037A00082847E807A76807781807A7D797E7F8040
:1037B0007F7E767C81787F7F807F807F807F7F8027
:1037C0007F807F82847780788785847E807F7F86F4
:1037D00085807E85818580867E817D84827F7F80D5
:1037E0007F7E79817E807F807F777B7F8178807804
:1037F000807E80807E8680867E807E807F7F807FC8
:1038000080807E82838286857F7A867D827C867EAA
:10381000867889837A7E788678817F8478858581A9
:103820007F7E7A867C82797E807F7F80807D7680B5
:103830007E867E7D7C857D80807F807F7F807E818F
:1038400078867E817E807F80807F807F807F807F82
:10385000807980858381837E807F857F807F807F64
:10386000848580807F81858680807F8080847F7D45
:10387000777F7F7F807C7E87817E80797F79817F63
:1038800080807F8080847E807E8580807F7F828331
:103890007F807F7F807F807E8480847F81827A8129
:1038A0007E807A7F7F807F817B7E7F807A867C832B
:1038B000827F807F7F80847E817A7E807F7F807E12
:1038C000817A7F7A8079827A817E7C807A807F801B
:1038D000807F807F847F8185827C797F7F807F80ED
:1038E000807F807F847F807F807F807B7A80847EE2
:1038F000817A8280807A807E807F807F807F7F7CDB
:10390000857D827A807A8080847D817D857A857EBE
:103910008081827F80807F807F807F7F7F807F80AB
:10392000807F807F807F807B847D817E8480847F98
:10393000807E807C7A7E847F807F807F807F808095
:103940007F807F807C7E807B807F7E797E80807F91
:1039500080847C7E7C7E7F8483827A827B7E807F73
:103960007F7B817E817B7F7F8081817C80807E8464
:103970007F7F7B817E807F80807E7C7E7D80807F5C
:10398000807B817E828480807F80807E7D82817B3F
:10399000807B80807D7E7F807B807B80827E817D3E
:1039A0007B7F807F807F807F807F7F7C807F807F28
:1039B0007F807F80807F807F807F7F80827F807F0D
:1039C000838080837F80807F807B807A7D807D7E06
:1039D00080807F807F807F7D7B837F837D7D8080F3
:1039E0007F807F7F7C8081827E807C7F7C807F7FE8
:1039F0008280807F807F8183807F80807F818181C2
:103A0000817F80807F817F7D7F827F807F80807EBD
:103A1000837D7F7F7C81807E7D7E7D7C7F81807DBC
:103A2000807F7F807F7F7C817E817C827F807E7DA6
:103A300082808280807F8082817D7F80807F807F86
:103A40007F807F8080827E7D82807F7F80807F7D7F
:103A500080807F807C837F7E7E83807F807C807F70
:103A6000807F807F807C7D807F81817C827F808061
:103A70007E7E80807D807F7D807F8280807F7F8151
:103A8000807F817F8080817D807F807F8280807F3A
:103A900080807F807F827F807E7E7F7D837D827F2E
:103AA000827F807F7F807F827F81817F8280827F13
:103AB000807E7F7D7F7F827C807F807F7F807F7F15
:103AC0007D807F807D7F7F827F807F80807F817F00
:103AD000808180817F7F807D8080807E807F7F80ED
:103AE0007D7E807F807F817F807F7F81817E7D7DE5
:103AF0007E807F807F807D7E7D7F7E807F80807FD7
:103B0000807F7D80808180807D807F807F81807FBD
:103B1000817F7E817F81807E807F7D7E7F7D807FB3
:103B2000817E817D807F80807F7F7E807F81807F9E
:103B3000807F7F807E7F7E7F7F807F7E817F7F8092
:103B4000807F807F80807F807F80807F7E807F807D
:103B50007F817F807F80807F81807E7F7E807F816C
:103B600080807F7F80818180818080817F80807F55
:103B70007F807F80807F7F7E7F7E807F807F7F8051
:103B800080807F8080807D7F7F807E7E80807F8040
:103B9000807F807E807F807F7F807F80808080802C
:103BA0007F818080807F7F8080807E7F817F80801A
:103BB0007E807F7F7F80807F807F7F80808080800D
:103BC0007F807F7F807F807F807F7F807E808080FE
:103BD0007F7F7F7E7F7E807F7F817F7F7F807F80F2
:103BE0007F80807F807F7F807F80807F7F807F7FDE
:103BF000807F80807F7F80807E8080807F807F80CC
:103C00007F7F807F807F807E807F7F7F7F7F7F7FC1
:103C1000807F7F807F807F807F807F807F7F7F7FAE
:103C20007F807F7F7F807F8080807F807F8080809B
:103C30007F807F807F7F80807F7F7F807F807F808D
:103C400080807F7F807F807F807F807F7F807F807C
:103C50007F807F7F80807F807F7F807F807F80806C
:103C6000807F7F807F7F80807F7F7F807F8080805C
:103C70007F807F807F80807F807F7F80807F807F4C
:103C8000807F7F80807F7F80807F807F807F80803B
:103C90007F807F7F807F807F80807F7F807F7F7F2E
:103CA000808080807F7F7F7F807F80807F7F7F801C
:103CB0007F807F80807F7F807F807F807F7F7F7F0E
:103CC000807F807F7F80808080807F80807F807FFA
:103CD0007F8080807F8080807F807F7F7F807F80EB
:103CE000807F80807F80807F807F7F807F807F7FDC
:103CF00080807F7F7F807F7F8080807F807F7F80CC
:103D00007F7F807F7F807F80807F80807F80807FBB
:103D10008080807F7F80808080807F807F807F80A8
:103D20007F807F80807F807F807F7F7F8080807F9B
:103D3000807F7F7F807F7F80807F7F7F807F7F7F8E
:103D40007F80807F7F7F807F80807F8080807F7F7B
:103D50008080807F807F7F7F807F80807F7F807F6B
:103D6000808080807F807F80807F8080807F7F7F59
:103D70007F807F80807F7F807F7F7F807F7F7F804D
:103D8000807F7F807F807F8080807F7F807F80803A
:103D90007F807F7F80807F807F8080807F807F802A
:103DA0007F807F80807F807F80807F807F807F7F1B
:103DB000807F7F7F7F807F80807F807F807F807F0C
:103DC0007F807F807F807F7F7F807F808080807FFB
:103DD00080807F807F807F8080807F807F808080E8
:103DE0007F80807F80807F8080807F807F7F807FDA
:103DF0007F80807F7F808080807F80807F80807FC9
:103E00007F7F7F80807F807F7F7F7F807F7F807FBD
:103E1000807F7F7F7F7F7F807F80807F7F808080AB
:103E20007F807F8080808080807F80807F7F807F98
:103E3000807F80807F7F80807F807F7F80807F7F8A
:103E40007F807F7F807F807F7F7F807F7F807F807C
:103E50007F807F807F80807F807F807F80807F7F6A
:103E6000807F807F807F807F7F7F807F80807F7F5B
:103E70007F807F807F80807F80807F807F7F808049
:103E8000807F807F808480848484808E6704220089
:103E9000091D3131494E6C62808080A7939D9DD36E
:103EA000B1A28EE298AC89B6AC84A298D8AC934902
:103EB000986C62C97B937B76B693985D67D349AC67
:103EC0009884C9ACC0989D9371679D499380809DEB
:103ED000497B84846C898E7BC967A77198A28E897F
:103EE00089B18058769D53626C804EA2767B4E538A
:103EF0009D5DA7444084585D589380840EB162361E
:103F0000AC40A28E807193982C7B6744A26C407663
:103F10007176767180764E62804971498E5DA26CB1
:103F20005D4049893B58498458936C76AC678E58FC
:103F3000A758718E808E807B67496C846C672C9D3E
:103F40005D36A7539D80629D898976A7984462A2B9
:103F500022CE71678084A79DAC4E6CA2629371677C
:103F6000B144B680BB84626C7B768E7171A776A7F4
:103F70009871AC804EBB7B899393A29D9D80988461
:103F80009384B1988958987662AC71A26C93899D9C
:103F900076848980679D3B9DA744B162B1ACA771CF
:103FA00076AC6C809389A2897B9384848E80938481
:103FB0007B849D847B7698715D89676C8E716C982B
:103FC000937B80809871B18089808E677BA75D84A8
:103FD0008E9380628E896C8E67AC897176988084AE
:103FE0008E848E7B84847B8E80808493898E7B807C
:103FF00080849D8E84766C5D80716C93627B807B07
:1040000080809876987BA27189A78E80988E8E8901
:1040100089988976718E806C8E716C8E769D809376
:1040200084937B8076898E805D719349B16C80A783
:1040300076B17B896C9380767B899371986793893D
:1040400084808E89897B807B848E6C7B768E89933D
:10405000627B8471898476937680938E7B6C80807A
:1040600053898458897B7B847B808E8E807B7B62A6
:1040700089716C89768E71808E7B8E71768E678069
:104080007684937176848962897B719380767B8054
:104090007B98806C7B8071938E7B76718E6C898E21
:1040A0007B7B717B847B988071768476848E71842F
:1040B0006789768993767180847693848E807B80FD
:1040C00089718484846C89847B98718E71847B84EB
:1040D00098847B71937676807B898080937B898EB0
:1040E0008976809371937B84808467A2807B7B7BBD
:1040F0008E768E8E718E848484938E80718E847180
:10410000986C937689898E93847B71807B7B89768A
:1041100080808E8E808E769384719376939893763A
:104120007B897B768980808E8098807B8E84848951
:104130008984848989897B808980897B718976805B
:10414000897B80847B9384897B8084808089718E45
:1041500076768E769884846C8E807B898480807657
:1041600089848084807B7B898984767B807B808442
:104170008089807B8E768080768976898089848923
:104180007B8076848080718080718E7B89847B8443
:10419000718080808E7689808E7B7B7B847B897B1F
:1041A0008476768971847B847B7680768484718042
:1041B000807184847B847B89848076898076808406
:1041C00080807189717B897693767B8089767B7B11
:1041D0007B8084808084807B84848489847B807BD2
:1041E000808080807B7B80807184807684848089DD
:1041F000768480847680847B71897680847B7B84DE
:10420000897B807B847B847B89848476847B7B89A7
:10421000847B897B80807B808084847B7B897B849A
:104220008084848080898980767B7B7B848076848F
:104230007B847B7B847B7B847B7B8976847B89848A
:104240008476897B76847684848480808089768471
:104250007684847B89808089807B80807B7B897B5E
:10426000808089808076808080847B7B897B898048
:10427000808980847B80847B848080898084808422
:10428000808080897B8080807B807B80847B848031
:104290008980808084768484807B8480808089800B
:1042A0007B7B84808484767B807684847B847B841F
:1042B00084847B80847B8089807B848480808089E7
:1042C0007B7B807B8084808080767B808084808004
:1042D000808080807B80808084808476807B7B80EF
:1042E000847B7B7B8080808076807B80807B847BEE
:1042F0008480847B807B80807B807680807B8080D4
:10430000808076847B807B8484847B7B80807B80C0
:1043100080808080807B8980807B807B80807B7BAD
:104320008476847B7B80807B7B8480767B807689AF
:104330007B847B84848080808080808480807B7B81
:10434000847B8480847B807B7B8489808080847B69
:10435000807B80847B847B898484847B8080807B59
:10436000847B847B848080848080847B8080808048
:10437000847B8080808080847B808080808080803F
:10438000808080848080808480808080848080762B
:1043900080808084808480807B847B80807B807B25
:1043A0007B8080807B847B847B80847B8084847B17
:1043B0007B7B80768080808080807B808084807B17
:1043C0007680807B807B808084807B807B80808007
:1043D000807B8080808080807B8480807B7B7B84EE
:1043E000808080808084807B7B808084807B847BD5
:1043F0008084808084807B7B80807B7B807B8084CA
:104400007B847B808084808080807B8084807B84B0
:104410007B8080808080807B7B808080807B8080B0
:10442000807B80807B808080808080848080808092
:10443000807B808080807B807B8080848080808087
:10444000807B7B847B848084807B8080807B807B7E
:10445000847B80807B808480807B80808080808063
:1044600080808084807B807B8080807B8480807B58
:104470008080847B80807B80807B8480807B808048
:10448000807B80807B8480848080808080847B802F
:1044900080807B808480808080807B808080808022
:1044A00080808080808080807B7B8080807B807B20
:1044B000847B8080808080808080808084808080F9
:1044C0008084807B7B80808080808080807B807BFC
:1044D000808080807B808080807B84808080807BE7
:1044E0008080808080807B807B807B8080807B84DC
:1044F0007B84808080807B808080807B80808080C7
:10450000807B847B848080808080808080808080AD
:104510007B7B8080808480808080807B807B807BB0
:10452000808080808084808084808080807B807B8D
:104530008080808080808080807B80807B807B808A
:104540008080808084807B807B808080848080806D
:104550007B807B80847B8480808480807B80808063
:1045600080807B807B80808080807B7B807B808064
:104570008080848080807B80808080808080848038
:104580008080807B8080808080807B80807B80803A
:104590007B80808080847B848080807B807B7B802C
:1045A000807B847B807D7C7D7A7A7979738EC1CAA9
:1045B000CDD1D3D7D9DDE0E4E6E6E6E5E4E4E2E414
:1045C000DBC0A68E77655344393026211C1915159A
:1045D000141312120E0B0905000000000000020562
:1045E000060607090A0B0B0B0B0B0B0D0D0D0D0D22
:1045F0000B0D0A0B0B0A090A0A090A0909090A091B
:104600000A0A0A0A0A0B0E141C212830373F474CAD
:1046100052565A5C616466696D7074787C82868AD1
:1046200090979CA1A7ADB2B9BEC4C9CED4D9DFE4DE
:10463000E9ECF1F7FAFEFEFEFEFEFEFEFEFEFEFED9
:10464000FEFEFEFEFEFEFEFEFEFEFEFEFEFEFEFE8A
:10465000FEFEFEFEFEFEFEFEFEFEFEFEFEFEFEFE7A
:10466000FEFEFEFEFEFEFEFEFEFDFCFCFAF8F7F787
:10467000F4F4F3F1F1EFEFEEE7E2DDD8D3CEC9C405
:10468000BFBAB5B0ABA6A19C98948F8B8782807A75
:1046900077736F6B6764615D5B5755524E4D494749
:1046A00044423F3D3A393532312F2C2A28272521E3
:1046B0001F1E1C1C1918141413120F0E0E0D0B0ABA
:1046C0000909070606060505050404040202040498
:1046D000040505060607090A0B0B0E101012141527
:1046E00017191A1D1F222226272A2C2D3032343664
:1046F000373B3E3E4243444747494C4E4E5152534E
:104700005657585A5C5C5F5F616264666566696AA9
:104710006A6D6D6E6F7072737474757879797A7A68
:104720007C7D8080808181828584868789898B8B4E
:104730008C8C8E8F90909193949495959899999A4A
:104740009A9A9D9D9E9E9F9F9FA1A1A1A2A2A3A474
:10475000A4A4A4A4A6A6A6A6A6A7A7A7A7A7A7A8F9
:10476000A8A8A7A8A8A7A8A7A7A7A7A7A7A6A7A8D4
:10477000A7A6A7A7A7A7A7A6A7A7A7A7A6A7A7A7CC
:10478000A7A6A8A8A8A8A8A8A8A8A9A9ABA9ABA9A2
:10479000A9ACACABABABABABABABABACABABABAB68
:1047A000ACA9ABA9A9A9A8A8A8A8A9A8A7A7A6A782
:1047B000A6A6A4A6A4A3A3A3A2A2A29F9F9F9E9ED7
:1047C0009E9D9D9C9D9A9A9A99989999989797974A
:1047D00095959594949493949393919190909090AF
:1047E0008F8E8E8E8C8C8C8B8A8B8A898687868620
:1047F00085858482818180807D807D7C7A7A7979CB
:104800007878777773747373726F6F6E6E6D6D6B8C
:104810006B6A6A6A69696767666665666564646427
:10482000646262646261626161616161616161616E
:10483000616161616161616161606260626061606A
:10484000606160606061606161616160616161605F
:104850006060616161616162616162616162616246
:1048600062626264646464656666656665676767FC
:1048700067696A6A6B6B6D6E6F6E6F6F7072737360
:1048800073737574777778787879797A797C7C7CAA
:104890007C7D7D7D807D8080818180808081828221
:1048A00082828284828485848485848585858586C8
:1048B000868586868787868787878989898A8A8A7F
:1048C0008A8A8A8C8C8B8C8C8E8E8E8E8E8F90901A
:1048D00090909091909391919391919191919393C4
:1048E00093919391919193919190909190908F90B9
:1048F0008E8F8F8E8E8E8E8E8E8C8C8B8B8A8B89EC
:104900008A8A8A8A89898989898987878787878620
:10491000868685868686868686868586858586853C
:104920008685868585848585848584848484828241
:10493000828281818281818180808080807D7D00F2
:10494000C02A11241FBECFEFD8E0DEBFCDBF11E0DB
:10495000A0E0B1E0EAEEF5E502C005900D92A03AC4
:10496000B107D9F723E0A0EAB1E001C01D92AB374F
:10497000B207E1F714E2C1EAD4E204C02197FE01D4
:104980000E94ED2AC03AD107C9F70E94B8260C94BC
:10499000F32A0C940000AF92BF92CF92DF92EF9275
:1049A000FF920F931F93CF93DF936C017B018B01D9
:1049B000040F151FEB015E01AE18BF08C017D10729
:1049C00059F06991D601ED91FC910190F081E02DB3
:1049D000C6010995892B79F7C501DF91CF911F9108
:1049E0000F91FF90EF90DF90CF90BF90AF90089520
:1049F000FC01538D448D252F30E0842F90E0821BE5
:104A0000930B541710F0CF96089501970895FC0169
:104A1000918D828D981761F0A28DAE0FBF2FB11DC1
:104A20005D968C91928D9F5F9F73928F90E0089519
:104A30008FEF9FEF0895FC01918D828D981731F0D3
:104A4000828DE80FF11D858D90E008958FEF9FEF27
:104A50000895FC01918D228D892F90E0805C9F4FFD
:104A6000821B91098F73992708958EED92E00E9421
:104A7000292521E0892B09F420E0822F089580E088
:104A800090E0892B29F00E94352581110C940000BB
:104A90000895FC01A48DA80FB92FB11DA35ABF4FD3
:104AA0002C91848D90E001968F739927848FA6892D
:104AB000B7892C93A089B1898C91837080648C9381
:104AC000938D848D981306C00288F389E02D808130
:104AD0008F7D80830895EF92FF920F931F93CF9362
:104AE000DF93EC0181E0888F9B8D8C8D98131AC029
:104AF000E889F989808185FF15C09FB7F894EE8910
:104B0000FF896083E889F98980818370806480836C
:104B10009FBF81E090E0DF91CF911F910F91FF90B7
:104B2000EF900895F62E0B8D10E00F5F1F4F0F735F
:104B30001127E02E8C8D8E110CC00FB607FCFACF1A
:104B4000E889F989808185FFF5CFCE010E9449254A
:104B5000F1CFEB8DEC0FFD2FF11DE35AFF4FF082EB
:104B60009FB7F8940B8FEA89FB8980818062CFCF51
:104B7000CF93DF93EC01888D8823B9F0AA89BB8994
:104B8000E889F9898C9185FD03C0808186FD0DC07F
:104B90000FB607FCF7CF8C9185FFF2CF808185FFA0
:104BA000EDCFCE010E944925E9CFDF91CF91089545
:104BB000CF93DF93FC0101900020E9F73197AF011B
:104BC000481B590BBC018EED92E00E94CB24EC01F6
:104BD00042E050E06AE171E08EED92E00E94CB2469
:104BE0008C0F9D1FDF91CF9108951F920F920FB6EA
:104BF0000F9211242F933F938F939F93AF93BF9363
:104C00008091DA029091DB02A091DC02B091DD028A
:104C10003091D90220E4230F2D3728F023EC230F05
:104C20000196A11DB11D2093D9028093DA029093C1
:104C3000DB02A093DC02B093DD028091D50290915B
:104C4000D602A091D702B091D8020196A11DB11D44
:104C50008093D5029093D602A093D702B093D80246
:104C6000BF91AF919F918F913F912F910F900FBE68
:104C70000F901F9018951F920F920FB60F9211244C
:104C80002F933F934F935F936F937F938F939F9354
:104C9000AF93BF93EF93FF938EED92E00E9449256F
:104CA000FF91EF91BF91AF919F918F917F916F9104
:104CB0005F914F913F912F910F900FBE0F901F90DA
:104CC00018951F920F920FB60F9211242F938F9366
:104CD0009F93EF93FF93E091EE02F091EF028081BA
:104CE000E091F402F091F50282FD1BC09081809169
:104CF000F7028F5F8F732091F802821741F0E091E5
:104D0000F702F0E0E252FD4F958F8093F702FF919A
:104D1000EF919F918F912F910F900FBE0F901F9049
:104D200018958081F4CF1F920F920FB60F92112425
:104D30008F93EF93FF938091D402882389F0E091C1
:104D4000A00181E08E0F8093A001F0E0E755FE4FB7
:104D500080818093B3008091D40281508093D402EB
:104D6000FF91EF918F910F900FBE0F901F901895AC
:104D7000CF93DF93CDB7DEB72A970FB6F894DEBF97
:104D80000FBECDBF8091F20080618EBB80E8809322
:104D9000F2009EB39093F2008093610091E09093B3
:104DA00061009091F2009F799EBB8093F2009EB3C8
:104DB0009093F2009091F2009B7F9EBB8093F20053
:104DC0009EB39093F20080936100109261007894FA
:104DD00084B5826084BD84B5816084BD85B5826000
:104DE00085BD85B5816085BD80916E0081608093B1
:104DF0006E0010928100809181008260809381001A
:104E00008091810081608093810080918000816029
:104E1000809380008091B10084608093B100809184
:104E2000B00081608093B000809191008260809397
:104E30009100809191008160809391008091900019
:104E400081608093900080917A00846080937A00E2
:104E500080917A008D7F80937A0080917A008E7F96
:104E600080937A0080917A00806880937A00109213
:104E7000C1008FEF80936600A2E1B1E060E83FEFF0
:104E800073E04D91842F90E0FC01E455FF4F249195
:104E900080579F4FFC018491443009F04FC37093B9
:104EA000A0008823C9F090E0880F991FFC01EC57FF
:104EB000FF4F45915491FC01E858FF4F0591149123
:104EC0009FB7F894FA018081209582238083F801AE
:104ED0008081822380839FBFF1E0A831BF0789F6DC
:104EE000E7EBF0E02491EBE9F0E08491882399F07E
:104EF00090E0880F991FFC01EC57FF4FA591B491EA
:104F0000FC01E858FF4F859194918FB7F894EC918C
:104F1000E22BEC938FBFF89480918100877E8860AC
:104F200080938100809180008C7F809380008091AD
:104F30008100887F81608093810080916F00826012
:104F400080936F0080E991E09093890080938800BE
:104F50008091B6008F798093B6008091B000836015
:104F60008093B0008091B100877F8093B1008091E1
:104F7000B0008F7B80688093B0008091B0008F7C00
:104F80008093B0008091B100887F81608093B100F0
:104F900080E88093B30014BC15BC16BC8FEF87BDAE
:104FA00084B5826084BD85B5856085BD10926E0034
:104FB00080917A00887F80937A0080917A00876060
:104FC00080937A0080E480937C0080917A008064F2
:104FD00080937A00E091EE02F091EF0282E080830C
:104FE000E091EA02F091EB0281E08083E091EC0233
:104FF000F091ED0280EA80831092F602E091F202D5
:10500000F091F30286E08083E091F002F091F102EA
:10501000808180618083E091F002F091F1028081D3
:1050200088608083E091F002F091F10280818068D5
:105030008083E091F002F091F10280818F7D808386
:105040008DE191E00E94D8258BE391E00E94D82564
:105050008DE791E00E94D825789490E2292E97E080
:10506000392E22E7422E2AE1522E38E7632E39E00C
:10507000732E45E4842E4BE0942E6AE171E001E842
:1050800017E0B2ECEB2EB5E0FB2E8AE4C82EDD244F
:10509000D39440E050E08091D4028F3F09F4BDC129
:1050A0001092D3021092D2028091D0029091D1023C
:1050B000009731F1E091CF02EF5BE093CF02E7FF81
:1050C00012C02091CD023091CE02EF77E093CF0253
:1050D0002F5F3F4F3093CE022093CD0201979093E4
:1050E000D1028093D002E091CD02F091CE02EC5536
:1050F000FA4BE491E058FF0BF093D302E093D20215
:105100008091CB029091CC02009761F1E091CA02AC
:10511000E55BE093CA02E7FF12C02091C80230911C
:10512000C902EF77E093CA022F5F3F4F3093C90265
:105130002093C80201979093CC028093CB02E09118
:10514000C802F091C902EC57F14CE491E058FF0B12
:105150008091D2029091D302E80FF91FF093D3020D
:10516000E093D2022091C6023091C7022115310589
:1051700019F18091D2029091D302E091C502EA75B3
:10518000E093C502E091C302F091C4023196F0931E
:10519000C402E093C302215031093093C702209327
:1051A000C602EE5EFB4DE491E058FF0B8E0F9F1F91
:1051B0009093D3028093D2028091C1029091C20257
:1051C000009761F1E091C002E05BE093C002E7FF6D
:1051D00012C02091BE023091BF02EF77E093C0026F
:1051E0002F5F3F4F3093BF022093BE0201979093F1
:1051F000C2028093C102E091BE02F091BF02E65666
:10520000F54EE491E058FF0B8091D2029091D302C9
:10521000E80FF91FF093D302E093D2028091BC0211
:105220009091BD02009761F1E091BB02EC59E093CF
:10523000BB02E7FF12C02091B9023091BA02EF77AA
:10524000E093BB022F5F3F4F3093BA022093B90225
:1052500001979093BD028093BC02E091B902F09156
:10526000BA02EB5AF04FE491E058FF0B8091D20262
:105270009091D302E80FF91FF093D302E093D2028A
:105280008091B7029091B802009761F1E091B60267
:10529000E45CE093B602E7FF12C02091B4023091C3
:1052A000B502EF77E093B6022F5F3F4F3093B50220
:1052B0002093B40201979093B8028093B702E091D3
:1052C000B402F091B502EC52F84FE491E058FF0BB4
:1052D0008091D2029091D302E80FF91FF093D3028C
:1052E000E093D2028091B2029091B302009761F1F3
:1052F000E091B102EA5BE093B102E7FF12C02091B6
:10530000AF023091B002EF77E093B1022F5F3F4FD1
:105310003093B0022093AF0201979093B302809331
:10532000B202E091AF02F091B002EE5EFD4FE49167
:10533000E058FF0B8091D2029091D302E80FF91F41
:10534000F093D302E093D2028091AD029091AE022D
:10535000009761F1E091AC02E55BE093AC02E7FFFE
:1053600012C02091AA023091AB02EF77E093AC0219
:105370002F5F3F4F3093AB022093AA020197909387
:10538000AE028093AD02E091AA02F091AB02E85325
:10539000FF4FE491E058FF0B8091D2029091D3022D
:1053A000E80FF91FF093D302E093D2028091D2026A
:1053B0009091D3029C01359527953093D302209389
:1053C000D2021A9908C095958795959587959093DF
:1053D000D3028093D2028091D2029091D30280585E
:1053E0009F4F8F3F910511F00CF0BCC09093D302FA
:1053F0008093D202F8948091A902E82FF0E0E7555B
:10540000FE4F9091D20290838F5F8093A90280918A
:10541000D4028F5F8093D40278949E012F5F3F4F18
:10542000A1EAB1E0E2E1F1E0FA87E987E985FA85EE
:10543000A190FA87E987FDE0FA1508F096C086B1D9
:1054400090E0E2EFBE2EAB0C02C095958795AA9432
:10545000E2F7817090E019F09C91F1E09F27F9014B
:1054600091939F018D9389859A8568177907F1F645
:105470008981882351F01092CE021092CD02EAE782
:10548000F3E0F093D102E093D0028A81882341F0C7
:105490001092C9021092C8023092CC022092CB0224
:1054A0008885882341F01092C4021092C302509262
:1054B000C7024092C6028C81882341F01092BF023D
:1054C0001092BE027092C2026092C1028F81882344
:1054D00041F01092BA021092B9029092BD028092ED
:1054E000BC028D81882341F01092B5021092B40263
:1054F0001093B8020093B7028E81882341F0109276
:10550000B0021092AF02F092B302E092B2028B812D
:10551000882341F01092AB021092AA02D092AE0200
:10552000C092AD024115510509F4B5CD0E94352553
:10553000882309F4A2CD0E9400009FCD9AEE940F1B
:10554000923018F434BF34BFACCC493109F0A9CC47
:105550009091F00092609EBB6093F0009EB3909398
:10556000F0009FCC8FEF90E041CF87E08A1528F4C0
:1055700083B190E0E8EFAE0E67CF89B190E064CFE1
:10558000EEEDF2E01382128288EE93E0A0E0B0E04C
:1055900084839583A683B78384E091E0918380839D
:1055A00085EC90E09587848784EC90E097878687E8
:1055B00080EC90E0918B808B81EC90E0938B828BE0
:1055C00082EC90E0958B848B86EC90E0978B868BB9
:1055D000118E128E138E148E0895EE0FFF1F0590FC
:0A55E000F491E02D0994F894FFCF38
:1055EA00000000006B25CB24F824B82529250725BF
:1055FA001B2502030405060708090D0A004D6F64FE
:10560A006966696564205B4A616E204F73746D61D7
:10561A006E5D206473702D44383A00687474707338
:10562A003A2F2F6A616E6F73746D616E2E776F7287
:10563A006470726573732E636F6D2F7468652D6461
:10564A0073702D64382D6472756D2D636869702DC1
:10565A00736F757263652D636F64652F0050726591
:10566A00737320617364666A6B6C3B20746F20707D
:10567A006C617920746865206472756D732E000000
:00000001FF
