:100000000C948A150C94B2150C94B2150C94B2157C
:100010000C94B2150C94B2150C94B2150C94B21544
:100020000C94B2150C94B2150C94B2150C947C1768
:100030000C94B2150C94B2150C94B2150C94B21524
:100040000C94DE160C94B2150C944A170C942417D9
:100050000C94B2150C94B2150C94B2150C94B21504
:100060000C94B2150C94B2150C9400000C94000082
:100070000C9400000C9400000000000025002800F3
:100080002B002E0000000000240027002A002D0075
:10009000040404040404040402020202020203032E
:1000A000030303030505050505050503010204080F
:1000B00010204080010204081020010204081020D2
:1000C00002080104104020407F82775552504E4C68
:1000D0004A494A4B5D74848E8AA492A8B09EBCBBE8
:1000E000BBBEBFC8B2BBCC9ABBB0A6A697858A8E52
:1000F0008C745B7A647058575D653F5B583C675100
:1001000056574B5D66455E6D60686D6C806E7976A6
:10011000869296A17F99BAA099C1A0A8C5AEA6BFA4
:10012000A2AAB49F9B989B9D897C827782727267FA
:100130006A5F6A674559655C525961595962625EE6
:100140005B696E74697079737A8A83988584A28BEF
:10015000AC9B9DA59AADA8A8B097A2A9A59D919E7C
:100160008B9391927772827A776C79605E6C65631B
:1001700061666054625F636D526B6D6B766A667B1D
:1001800083787282937C92918793A1909FA193A28E
:1001900099A4A5A097989A949F9A7F938A907D801E
:1001A000826C83677E6E606F6C6966666467636E7F
:1001B000606B675D7D6C657C7375738483788688FE
:1001C0008891918197959A998EA29196A0949B93EC
:1001D00095978C948A8B8A8E7F76827F7A777373D9
:1001E00078646D6D6970716261726B6F69746D6A4C
:1001F000757577797E7E777B8E81908484938F91DD
:10020000919393998D9196998B959491908B8C88DD
:100210008985808483757A80776E7571776E6C744A
:100220006E6E6B706E6E736F70727976777E7A7B9E
:10023000807C838A818D858A8E89968E8D8D90961D
:100240008E8D968D8D8D8A8B88898A8480807B881F
:10025000757B7C727977766C7670776E6F756B7361
:100260007574757577777B7E747D828183838687CD
:1002700089828C8C88918C8A8A90908B8F8D8590C6
:100280008C818D8A7D8584857F7C7E767E7B7A736A
:1002900078796F76747970737675796E777A797A02
:1002A000797F7E76837F8185828B80858A8A858926
:1002B0008D8B8B8A8B8B8D8885878C8586878484B4
:1002C000847F7D827D807B747F79767979757B717F
:1002D000737B747975777878797C7B80797D817F81
:1002E0007F858380868788828A85878E88858A8BAA
:1002F0008A87868C8385898087818083837D7B7FC5
:100300007C7D797C7E757A7A757B76787A7975785A
:100310007A7C7B78807B7C807E83807E85848087EE
:10032000878387848887888A828788888883858668
:1003300083888081857E80817F7E7E7A7C7C7D7BC8
:1003400079777A7B787C79777C7B797C7D7D7B7C07
:100350007F7D808082837E82858582848586868576
:100360008587868686858485868582838380847F4B
:1003700080827E7E807C7D7B7C7D7B7E777C7B79B2
:100380007B7E7A797B7C7D7D7E7D807C80807F8397
:10039000837F838284848386838683878385868420
:1003A000848385838581828380818081807F7F7E35
:1003B0007C7C7E7D7B7E7D7B7A7B7D7C7E7C7A7D7A
:1003C0007F7D7C7F807E7F8280808180828481832C
:1003D00084828484848582838484848383838283E7
:1003E000827F828081817E7E807F7D7D7D7E7E7D1D
:1003F0007A7D7C7E7D7A7C7E7D7E7E7C7F807D802A
:100400007F7F8181808183818381828383838284D2
:1004100083848383838481818481828280807F80BE
:1004200081807E7E7E7E7F7E7C7E7E7D7D7C7D7EED
:100430007D7D7E7F7C7E7E80807E80807F818280CD
:100440008183818083828183838383848283828387
:1004500083818281828182807F817F80807E7F7E96
:100460007E7D7F7F7D7E7E7C7E7E7E7D7E7F7E7EAE
:100470007F7F7F7F80808080808181828081828376
:100480008280828382838281828183828182808151
:1004900080818081807F807F7F807E7F7E7E7F7D68
:1004A0007F7F7E7D7F7E7E7E7E807F7E80807F815F
:1004B000808080808181818281828181828281812C
:1004C00083818381818181818181818081807F801D
:1004D00080807F7E807F7E7E7E7F7E7F7F7E7E7F30
:1004E0007F7F7E7F7F7F807F808080808180818111
:1004F00081818182818281828181818182818280E8
:10050000818181818180808080807F7F7F7F807FEB
:100510007F7F7F7E7F7F7F7F7F7F807F7E7F807FEB
:100520007F80807F808081808081818181808181C6
:1005300082808182818181828181818181818180AA
:100540008080808080807F7F7F7F7F7F807F7F7FB4
:100550007F7F7F7F807F7F7F80807F8080807F81A3
:100560008080808181808081818081818181818181
:100570008181808181808081808081808080808075
:10058000807F7F7F807F7F7F7F7F7F7F7F7F7F8078
:100590007F7F80808080808080807F81808080805D
:1005A000818181818181818081818181818081803E
:1005B0008080808080808080808080807F7F807F3E
:1005C0007F807F7F7F7F7F7F80807F80807F808034
:1005D000808080807F808180808081808081808118
:1005E0008081818081808181818080808081808004
:1005F000807F808080807F807F807F7F7F807F7F03
:1006000080807F7F807F807F8080808080808080EE
:1006100081808081808081808181808080818180D3
:1006200080818080808180808080808080808080C8
:100630008080807F80807F7F7F80808080807F80BF
:1006400080808080808080808080808080808081A9
:100650008180808081818080808081808080808096
:10066000808080808080808080808080808080808A
:100670008080808080807F8080808080808080807B
:10068000808080808080808080808080808080806A
:100690008080818080808080808080808080808059
:1006A000808080808080808080808080808080804A
:1006B000808080808080808080808080808080803A
:1006C0008080808080808080808180808080808029
:1006D000808080808080808080808080808080801A
:1006E000808080808080808080808080808080800A
:1006F00080808080808080808080808080808080FA
:1007000080808080808080808080808080808080E9
:1007100080808080808080808080808080808080D9
:1007200080808080808080808080808080808080C9
:1007300080808080808080808080808080808080B9
:1007400080808080808080808080808080808080A9
:100750008080808080808080808080808080808099
:100760008080808080808080808080808080808089
:100770008080808080808080808080808080808079
:100780008080808080808080808080808080808069
:100790008080808080808080808080808080808059
:1007A0008080808080808080808080808080808049
:1007B0008080808080808080808080808080808039
:1007C0008080808080808080808080808080808029
:1007D0008080808080808080808080808080808019
:1007E0008080808080808080808080808080808009
:1007F00080808080808080808080808080808080F9
:1008000080808080808080808080808080808080E8
:1008100080808080808080808080808080808080D8
:1008200080808080808080808080808080808080C8
:1008300080808080808080808080808080808080B8
:1008400080808080808080808080808080808080A8
:100850008080808080808080808080808080808098
:100860008080808080808080808080808080808088
:100870008080808080808080808080808080808078
:100880008080808080808080808080808080808068
:100890008080808080808080808080808080808058
:1008A0008080808080808080808080808080808048
:1008B0008080808080808080808080808080808038
:1008C0008080808080808080808080808080808028
:1008D00080808080808080808080808080807F8118
:1008E000807F818080808080807F81817F80808008
:1008F000817F8180817F827F7F82807F7F827F82F4
:100900007D827E827F81817F7F81827F807F827EE8
:10091000827D837F817E837F7E83807D82807F82D4
:100920007F837B83818079887C847E817F7F8479CB
:100930008878867E827D82827D8181817E847B83B0
:100940008479867F7C8973897F7E827D8675887FA6
:10095000837A847F7B8B76857C847F7F81827E7E99
:10096000867E7B81857F8574887F7F827E81827D84
:10097000848077897C847D7E81837F79867F7E8871
:100980007682857D817F81847E7B857C847D847E6B
:100990007E8281837A83827D81867A7E8380817E56
:1009A000827E82807D817E867A8184798380818047
:1009B0007D838080807D837F7D857C827F7D847D3B
:1009C000827D837D80827E827E817F8081807F7F29
:1009D00080827E7F817F817D81808080807F7F8219
:1009E0007E817F80808080808080807F808080800A
:1009F000807F817F808080808080808080808080F8
:100A000080808080808080808080808080808080E6
:100A100080808080808080808080808080808080D6
:100A200080808080808080808080808080808080C6
:100A300080808080808080808080808080808080B6
:100CC0008080808080808080808080808091678B21
:100CD0007CA9703DC96B73D102B3A45C7D849A502A
:100CE000D90FBE83637DCD22AD728A8B4FC33EC0C8
:100CF00042B65A86A75F55D542B252A78C40D43B24
:100D0000AD8859D002F75843E612EF24C93DAE80B2
:100D10006E886895AA497F98769159A7628B985DED
:100D20007BB347A87168B07165A45E957D9052A3AE
:100D300074A8566EBD4E8F8D59B0794CC05EA92CEB
:100D4000EA14D36077A151AF3DF201D8606DA8607D
:100D5000829D72699D6F8285845FBC4AB349939C72
:100D600049B5648D9B458EA546C23CD223D05384A1
:100D70009155D90FE233C5508D66BE608267969457
:100D800043D22DC25D8097786A95768683777F9B64
:100D9000558E93787A936D82709B7A6F9974738E67
:100DA0008B6B9C559B8E6E6CB93CAB65BE35A2843B
:100DB00072837C9B5AA94DBD48AD4FAB6D80906C42
:100DC0008289738E788381886485AC44A387777128
:100DD000857B968261968A51A4906E7481A150930E
:100DE0008E78A340A06CA17769977B72A342BE80E6
:100DF0004DA2768264CD3C986FAE567E8592747F0C
:100E0000817D8686747498779D30D35F7C7F9F53F5
:100E1000997D7A9841D453818176959443A49451D5
:100E2000AC64798F9D56995CA47C6C9A59BD47A29D
:100E300065996D9B5B9B7580B218D36D7378A45FC9
:100E40008D8A6C8B895AD01BB5A02BDE31BF4AB579
:100E50004F968A6BA643A283837C8A668776B23ECE
:100E600095A665737DA05FB030C9676BA076797B6E
:100E700080A95679A258B63DC243AF677F8C7F8662
:100E80006F8F698C9749BB7641E12FAE73787E9363
:100E900075827C83838268A17575936C838E875F6E
:100EA0009B6F92738876858A65A7657A9F55AF5642
:100EB0009D71828C6B8E8384678C85886FA15B8B20
:100EC00075967670AA57907B76AE49958C7480782B
:100ED0009A599B7A8B7581769074887D7994689DF8
:100EE00052B35F99746AA761898B7475AA508F8F0A
:100EF0007969AC529D77789F52A85FA259A66886FF
:100F0000876C947D77996682847F9152C142AE6FDF
:100F10007D86788878906995757E897A7F87758DCA
:100F20007385837C847E7A858665A86A858A54BBAE
:100F3000539B708C797A9655B55F7E9960967E6FDB
:100F4000A351A582639175907782896E877E818A8D
:100F50007686867671A06C789A6C897A818281799E
:100F60008A7884817C8F6984917A738E738F75817E
:100F70007F9166907F7A8775916C8F738F6F8E7477
:100F80008D7686798D6F8B8375887D8965A85B9B4F
:100F90006C8D7A867394727C8F708E78876D9E606C
:100FA0009D6A8A8376877F7C808C728878868A7730
:100FB000768B837093777E828184738A8574897639
:100FC000849361966C9A6794728184847F788C6B29
:100FD000976E8B739865A459927F78946496718FFD
:100FE0006D97699279778E79827E84739471877810
:100FF0008D6D907B7C857E7F7C8F6A9967927787E9
:101000007193777A897C8180807F85729B5F9B6EEC
:1010100087827592757D877F7E7F847C837F7E88C3
:10102000738F777C8B7682847A867C7F808B6E8AC6
:1010300083758E778181827F798882788679897CB1
:101040007E847E817E827E837D81837B84807C80A2
:101050008D6C907B788C738D7589738F7584827796
:101060008B7A827C847F7F7E87758A79857D7D8679
:101070007A86788A798082807C84807C86778C7579
:101080008481827883817E81807D867C7D8A6F8F5A
:101090007787788B7483857986807B857D7D8C6E60
:1010A0008F78847C84817B857C847E7F82807E8235
:1010B000807D837D808578867F7D867A857B837E33
:1010C0007F827C857B857B867D7E83817C847C8121
:1010D000837C8876857E847B837F80807F817E850C
:1010E0007A857A857D81807F817E827E817D887808
:1010F000837D84807B887983807F7F81827C8280EE
:101100007F837A867C82807E81807E82817D8579E4
:10111000857D837C837E80817F827E8180808080CC
:101120007F827C857B847D82807F827F8080817EC0
:1011300081807F81807D847C837E80817E827E82AF
:101140007E82807E837D827F7F80807F8080817FA2
:1011500082807E8080827D847D827F817F80807F8F
:10116000817E8280807F827F817F817F818080807D
:101170007F827D827E8180808080807F817F808071
:10118000817F817F817F817F80807F807F817F8061
:1011900080817F827E80807F8080807F817F808051
:1011A0008080807F817F81808080808080807F813F
:1011B0008080817F808080817F818080808080802E
:1011C000808080808080808080808080808080801F
:1011D000808080808080808080808080808080800F
:1011E00080808080808080808080808080808080FF
:1011F00080808080808080808080808080808080EF
:1018800080808080807C8268A3769161A16280B331
:1018900024C062D201E15184A927F91DAF7B6B936B
:1018A0005FBA7F2DCD5FAD3EA87D6F945EBF2ECA1F
:1018B0005A829752B85D827C9B5B9E7663A77B744D
:1018C000926B88B01AD43BCE469D7863C046B93F30
:1018D000B562779C6D76B24AA2648E9846B76896D8
:1018E0005C927896787186887877AC3BCA3BB07505
:1018F000748081A53FB5628B80856DA253A07E7DEB
:101900007A8D609F8D4BB750A7787470B642A782CE
:101910005DA9658887708A896C917394619D6F79E0
:10192000967A816D9C6E868366AA678479878C6CB3
:101930008B6F91916190728686778774995BAD57B2
:1019400091886A9B5D9C876394729076867F6FA373
:101950005C997978868A70808883798B6F7F9564AB
:101960009A787B89737A95875D99738885738B786C
:10197000847D8273A1637D9966946E8C89639C6E6D
:10198000946789887A8187757E887E867688719E3D
:1019900055AA648F74897E76936E8C719D60967360
:1019A000877C817B8B768384768F73877F807C8B2B
:1019B00077857C7C84887A75976B8A7E7A8E699A23
:1019C00073807F81847D837A7E8E71887E7D88742A
:1019D00091699B669770828E6D8A7D7F827E7C8AFC
:1019E000738C77896D9A6A8F7B76926E90728A7704
:1019F0008A76897B7C906D85857B838379857F84DE
:101A0000748F75838574917288778B79827E7F87D6
:101A1000788383778A7B7C887B847B8A72868378D1
:101A2000887C81817B877B867B7E867986817A83B1
:101A300080807F8080817E817F81817E7D858376AD
:101A4000877D817E82807C8189728B798384778790
:101A50007F7D838178897A88788180847A867D7C8D
:101A6000867D7E7F87778878887A847E80827D8372
:101A70007E8181817A877C837B867C847C83827A69
:101A8000857D827D8678887984807C8678877D7E56
:101A9000877A81847A867B847D837E7D8A75887C43
:101AA00080857A83807D837C837C82817C87768934
:101AB0007D7C857C827F827C847D7F837E80817F2C
:101AC0007E8579867D8081807D847C837E80837C19
:101AD0008679867A857C827E8181807D84807D8402
:101AE0007C847D827E827D837E817F808180807FF9
:101AF000827E827F8080847B837F7F837E807F84E1
:101B00007B847E81808080817F81807F817E837ED7
:101B1000827E817F817F807E847C82807E837D83C4
:101B20007C847D81807E82817D827F80807F827DBA
:101B3000837E817F827E80817F80808080807E83A3
:101B40007F7E827E81807F827E81817D837E817F98
:101B500080807F827D847C827F8080817F817F8185
:101B60007F81827C847D837E827E827F7F827E8174
:101B7000807F817F80817E827E817F817F80817E68
:101B8000827E8181807E8180817F81807F817E8253
:101B90007E817E827F80817F81808080817F817F46
:101BA000817E817F80808080817F81807F817F8135
:101BB0007F817F817F818080818080817F80808024
:101BC0008080808080808080808080808081808014
:101BD000817F807F817F80808080808080807F8007
:101BE000817F80807F817F817F817F818080817FF5
:101BF000817F80817F80807F817F817E81808080E6
:101C00007F81808080808080808080817F818080D3
:101C1000807F817F817F817F808080807F818080C5
:101C200080807F817F817F8180808080817F817FB4
:101C300080827A7D85866E49629FC2A6625A7398B9
:101C4000DB8B466674BAB19E4C308E9590834F43C1
:101C50007EA9A37064797EB2AD727077A6A99282D4
:101C6000696765636863556E94A18B868C919BA0B0
:101C7000907F7F8F8A7A716867676C7179797C87CA
:101C80008F8D89898B90949088827B74706E6E7131
:101C9000767B808487888888868380818382807E23
:101CA0007D7C7C7C7D7E7F8081828282828181813D
:101CB00080807F7F7F7F8080808080808080808028
:101CC0008080808080808080808080808080808014
:101CD0008080808080808080808080808080808004
:101CE00080808080808080808080808080808080F4
:101CF000808080808080808080837BAE7D2F86C9BD
:101D0000873575C7933B68C09F445CB8A84E53ADF8
:101D1000B0594DA2B5644996B870478AB87B487FE0
:101D2000B7864B75B390506CAD985664A79F5D5EB7
:101D30009FA4655A97A86E578EA9765785A97F5894
:101D40007DA7865A76A48D5E70A093636A9B98687F
:101D500066959B6E648F9D7462899E7B62829E8174
:101D6000637D9C8665779A8B6873968F6C6F929271
:101D7000706D8E94746B8A95796A85967D6A81956B
:101D8000816B7D94856D7992896F768F8B72738D5F
:101D90008E7572898F787186907C7083907F708049
:101DA0008F82717D8E84737A8D8774788B89767734
:101DB000888A7975868B7B75848B7D75818B807520
:101DC0007F8B82767D8A84777C8985787A87867A0C
:101DD0007986877B7884887D7882887F78818880FF
:101DE000787F8782797E87837A7D86847B7C8585F0
:101DF0007C7B84857D7A82867E7A81867F7A8086E6
:101E0000807B7F85817B7E85827C7D84837C7D83D6
:101E1000847D7C82847E7C82847F7C8184807C80C3
:101E200084807C7F84817D7E83827D7E83827D7EB3
:101E300082837E7D82837F7D81837F7D8083807DA1
:101E40008083807E8082817F8081817F808180808D
:101E50008080808080808080808080808080808082
:101E60008080808080808080808080808080808072
:101E70008080808080808080808080808080808062
:101E80008080808080808080808080808080808052
:1020F000808080808080807F817069606055584ECC
:1021000059584F6597757BACAEB5B7C89EA5C7C388
:10211000849F9F9973966C4D803E7D793A75864970
:1021200082918790A67EB38A98BC87A58BAE627396
:10213000945D587851436B73353F75616B62876767
:10214000929776A288A0BCA27EA1A995A678869037
:10215000867B7B73798C497E82766B82917AA573BC
:10216000888B91A786797A978B7F7C72776975586F
:10217000716950914A579C487E8B6E858F9B7497EE
:1021800084A18C8FA69189839584946D7E88857EA9
:102190007D8E6D69808C818480858387848884832B
:1021A0009C676BA07865817E87575E81747B745ACB
:1021B0006F8575906A718B8F719092878C8CA171ED
:1021C0009A7F91837DA37A8A6F7B8E8283808178C8
:1021D000907283846A8F878580857F7780817991EB
:1021E000617C7A6A827B884E7B8A76638E71848C6E
:1021F00060878A9E68848C9A857A9183839D807893
:102200008C779283867E8C767F838D7F757E7887B0
:10221000937379897081907B638B788F6B6E7F88E5
:10222000707183748467847784847C847D74938DD7
:1022300070888B898588848A82907F78938C777266
:102240008F8A82747F88868A71728C7F8582727988
:102250008A826D847E7875857F708874708D796EC2
:10226000848F6E7286917D718C798C838883838A4A
:102270007D8585927B7D81858B80898272917D743D
:102280008A7D8C7871897E877F718772828A707F60
:102290008170857D758D6D7E807F807E7686886E6F
:1022A000887F7D85838786788F7B8188878B7585FE
:1022B000888385857C7E8E7F76897B8E727D868104
:1022C0008572867E79818470837F7680808373783F
:1022D000867C837E757E897E7A837B8280897C7C06
:1022E0008F7D7C88838780858280887C8089847DBF
:1022F00081848974847F848176877B837C828373E5
:102300007D827E7D817C76837D867874867B8080ED
:102310007F7E86807A798584838182867C867E82B0
:10232000808585828382828382867B798787817795
:1023300088837B7D7E827F7F847A7A807E798581A7
:1023400073887A7A82817A808080817883818181A2
:102350008678857F7B8A817A89837C887C877F8267
:102360008484827A84877A7F8779847F7E857D7A68
:102370007E86798183797E7C7F7E817E7F7E7E7F73
:102380007F8378837E7B867C837F8383788185834C
:1023900084807E82808286837C7F848582817C8229
:1023A0008280807E8283817B81807F818178827C34
:1023B0007E8578807F807E807D8182787E84837A2E
:1023C00081837D8082837D8085817F7E85817D86FE
:1023D00082807F837F838082847B8081837F817FF3
:1023E000847D7D847B7F81807F7F807E7F7E827FF6
:1023F000788180807F807E837E7C837A86817B82E9
:10240000828181818181808480817D84827E8381BB
:10241000827F857D7E8183837C807E827F82807CBB
:102420007F80807F7F8080807D7C847C7E818182B4
:1024300079837F7F817D837D82808080818181819E
:102440007F8182817F837E847F7F857E7F83837E81
:102450007F82817E82807E7E8180807F80807F7D82
:102460007F8081807C82817C7E837E81807D837E73
:102470007F8182808081807F8280818280847E7E55
:10248000838180808081837E81827F837F7F807F44
:10249000817F80827E807F7F81817F7E7E80808041
:1024A000827D7E817E817E80827D8180827F7E8131
:1024B0008182807F808180807F82827F817F808116
:1024C00081827E7E82817F8180807F817F7F7F800D
:1024D000807F807F7F81807E808080817F7D808003
:1024E000827F7E8081817F817F7F81827F808081EA
:1024F00082807F8183807F81818081807E818081D5
:10250000827F7F7F80808080817E7E8080807F81CF
:102510007E7F81807F7F817F81807F8080807F81BF
:102520008080808081808081807F818180817F80A8
:1025300081818081817F8081817E808080817F7F99
:10254000808080807F80807F807F7F817F7F80818F
:10255000807E808080807F81807F80817F8081807D
:1025600081808080808081817F8081808080818067
:102570008081807F8080808081817E7F817F7F805D
:1025800081807E807F81807F817F7F808080817F4E
:102590007F808081807F818080817F81817F818039
:1025A00080808080818080817F807F81808080802A
:1025B000807F8080807F81808080807F80817F801D
:1025C00080808080807F80807F808081807F80810C
:1025D0008081807F818080808080808180808080F9
:1025E00081808081807F81808080808080808081E8
:1025F00080807F80807F8080807F80807F808180DE
:102600008080808080808080808081807F808080CA
:10261000808081808081808080807F8180808080B8
:1026200081808080808180808080808080808080A8
:10263000817F80807F807F8080808080808080809C
:10264000807F808180808180808080808081808088
:10265000808081807F808180808081807F80808079
:1026600080808080808080808080807F808080806B
:102670008080817F808080807F818080808080805A
:102680008080808080808080808080808080808149
:102690008080808080808080808080807F80807F3C
:1026A000808080808080808080808080808080802A
:1026B0008080807F8080808180808080808080801A
:1026C0008080818080808080808180808080808008
:1026D00080808080808080808080808080808080FA
:1026E00080808080808080808080808080808080EA
:1026F00080808080808080808080808080808080DA
:1027000080808080808080808080808080808080C9
:1027100080808080808080808080808080808080B9
:1027200080808080808080808080807F80808080AA
:102730008080808080808080808080808080808099
:102740008080808080808080808080808080808089
:102750008080808080808080808080808080808079
:102760008080808080808080808080808080808069
:102770008080808080808080808080808080808059
:102780008080808080808080808080808080808049
:102790008080808080808080808080808080808039
:1027A0008080808080808080808080808080808029
:1027B0008080808080808080808080808080808019
:1027C0008080808080808080808080808080808009
:1027D00080808080808080808080808080808080F9
:1027E00080808080808080808080808080808080E9
:1027F00080808080808080808080808080808080D9
:1028000080808080808080808080808080808080C8
:1028100080808080808080808080808080808080B8
:1028200080808080808080808080808080808080A8
:102830008080808080808080808080808080808098
:102840008080808080808080808080808080808088
:102850008080808080808080808080808080808078
:102860008080808080808080808080808080808068
:102870008080808080808080808080808080808058
:102880008080808080808080808080808080808048
:102890008080808080808080808080808080808038
:1028A0008080808080808080808080808080808028
:1028B0008080808080808080808080808080808018
:1028C0008080808080808080808080808080808008
:1028D000808080807F84949FA8AFB5B9BDBDB7B11B
:1028E000AAA39B938C847D766F68625C57524E4B93
:1028F0004846444343434446484B4E52565B606609
:102900006B7074787C8083878A8D90929597999B61
:102910009D9FA1A2A4A5A6A7A8A9AAABABABACAC4E
:10292000ACACACABABABAAAAA9A8A7A6A5A4A3A222
:10293000A19F9E9C9B9997959492908D8B8987845B
:1029400082807D7B787674716F6D6B68666463617D
:102950005F5D5C5B59585756555554545353535308
:102960005454545555565758595A5B5C5D5E5F61D7
:102970006263646667686A6B6C6D6F70717374759F
:102980007677797A7B7C7D7E7F8081828384858661
:10299000878788898A8A8B8C8C8D8D8E8E8E8F8F7F
:1029A0008F90909090909090919191909090909025
:1029B00090908F8F8F8F8E8E8E8D8D8C8C8C8B8B3D
:1029C0008A8A89898888878786868585848483839F
:1029D0008282818180807F7F7F7E7E7D7D7C7C7C0A
:1029E0007B7B7B7A7A7A7A79797979787878787852
:1029F000787878777777777777777778787878785F
:102A0000787878787979797979797A7A7A7A7B7B32
:102A10007B7B7C7C7C7C7D7D7D7E7E7E7E7F7F7FE4
:102A20007F80808081818181828282828283838390
:102A3000838384848484848585858585858585854F
:102A40008686868686868686868686868686868626
:102A50008686868686858585858585858585858521
:102A6000848484848484848483838383838383822F
:102A70008282828282828181818181818181808042
:102A800080808080808080807F7F7F7F7F7F7F7F4E
:102A90007F7F7F7F7F7F7F7F7F7F7F7F7F7F7F7F46
:102AA0007F7F7F7F7F7F7F7F7F7F7F7F7F7F7F7F36
:102AB0007F7F7F7F7F7F7F7F7F808080808080801F
:102AC00080808080808080808081818181818181FF
:102AD00081818181818181818181818181818181E6
:102AE00082828282828282828282828282828282C6
:102AF00082828282828282828282828282818181B9
:102B0000818181818181818181807D7B78767471F1
:102B10006F6D7F1B11241FBECFEFD8E0DEBFCDBF8E
:102B200011E0A0E0B1E0E8E6F7E302C005900D9205
:102B3000AE31B107D9F722E0AEE1B1E001C01D929C
:102B4000A93FB207E1F715E1CAE8D5E104C0219732
:102B5000FE010E94AC1BC938D107C9F70E94A1171A
:102B60000C94B21B0C940000AF92BF92CF92DF92F4
:102B7000EF92FF920F931F93CF93DF936C017B0132
:102B80008B01040F151FEB015E01AE18BF08C017C3
:102B9000D10759F06991D601ED91FC910190F08136
:102BA000E02DC6010995892B79F7C501DF91CF91F9
:102BB0001F910F91FF90EF90DF90CF90BF90AF905B
:102BC0000895FC01538D448D252F30E0842F90E033
:102BD000821B930B541710F0CF9608950197089518
:102BE000FC01918D828D981761F0A28DAE0FBF2FE1
:102BF000B11D5D968C91928D9F5F9F73928F90E037
:102C000008958FEF9FEF0895FC01918D828D9817A5
:102C100031F0828DE80FF11D858D90E008958FEFE2
:102C20009FEF0895FC01918D228D892F90E0805CAB
:102C30009F4F821B91098F73992708958CE592E02D
:102C40000E94121621E0892B09F420E0822F0895BA
:102C500080E090E0892B29F00E941E1681110C94CF
:102C600000000895FC01A48DA80FB92FB11DA35A2F
:102C7000BF4F2C91848D90E001968F739927848F9C
:102C8000A689B7892C93A089B1898C9183708064BF
:102C90008C93938D848D981306C00288F389E02D60
:102CA00080818F7D80830895EF92FF920F931F9311
:102CB000CF93DF93EC0181E0888F9B8D8C8D9813EF
:102CC0001AC0E889F989808185FF15C09FB7F894FB
:102CD000EE89FF896083E889F98980818370806447
:102CE00080839FBF81E090E0DF91CF911F910F9192
:102CF000FF90EF900895F62E0B8D10E00F5F1F4FA1
:102D00000F731127E02E8C8D8E110CC00FB607FCAF
:102D1000FACFE889F989808185FFF5CFCE010E943D
:102D20003216F1CFEB8DEC0FFD2FF11DE35AFF4F63
:102D3000F0829FB7F8940B8FEA89FB8980818062CB
:102D4000CFCFCF93DF93EC01888D8823B9F0AA8988
:102D5000BB89E889F9898C9185FD03C0808186FD56
:102D60000DC00FB607FCF7CF8C9185FFF2CF8081A5
:102D700085FFEDCFCE010E943216E9CFDF91CF91D2
:102D80000895CF93DF93FC0101900020E9F731977C
:102D9000AF01481B590BBC018CE592E00E94B415B1
:102DA000EC0142E050E06AE171E08CE592E00E94C3
:102DB000B4158C0F9D1FDF91CF9108951F920F9234
:102DC0000FB60F9211242F933F938F939F93AF933E
:102DD000BF938091580290915902A0915A02B091EC
:102DE0005B023091570220E4230F2D3728F023ECAB
:102DF000230F0196A11DB11D209357028093580205
:102E000090935902A0935A02B0935B0280915302AF
:102E100090915402A0915502B09156020196A11DC5
:102E2000B11D8093530290935402A0935502B09326
:102E30005602BF91AF919F918F913F912F910F902B
:102E40000FBE0F901F9018951F920F920FB60F9202
:102E500011242F933F934F935F936F937F938F939F
:102E60009F93AF93BF93EF93FF938CE592E00E9403
:102E70003216FF91EF91BF91AF919F918F917F910A
:102E80006F915F914F913F912F910F900FBE0F90D7
:102E90001F9018951F920F920FB60F9211242F9327
:102EA0008F939F93EF93FF93E0916C02F0916D02EB
:102EB0008081E0917202F091730282FD1BC09081CB
:102EC000809175028F5F8F7320917602821741F097
:102ED000E0917502F0E0E45AFD4F958F8093750202
:102EE000FF91EF919F918F912F910F900FBE0F90B7
:102EF0001F9018958081F4CF1F920F920FB60F92FA
:102F000011248F93EF93FF9380915202882389F0CD
:102F1000E0911E0181E08E0F80931E01F0E0E95DDB
:102F2000FE4F80818093B300809152028150809344
:102F30005202FF91EF918F910F900FBE0F901F9053
:102F40001895CF93DF93CDB7DEB72A970FB6F894D5
:102F5000DEBF0FBECDBF8091F20080618EBB80E8E6
:102F60008093F2009EB39093F2008093610091E011
:102F7000909361009091F2009F799EBB8093F20044
:102F80009EB39093F2009091F2009B7F9EBB809342
:102F9000F2009EB39093F200809361001092610062
:102FA000789484B5826084BD84B5816084BD85B524
:102FB000826085BD85B5816085BD80916E00816030
:102FC00080936E00109281008091810082608093D6
:102FD00081008091810081608093810080918000D8
:102FE0008160809380008091B10084608093B10003
:102FF0008091B00081608093B000809191008260E8
:1030000080939100809191008160809391008091E4
:10301000900081608093900080917A00846080931A
:103020007A0080917A008D7F80937A0080917A0077
:103030008E7F80937A0080917A00806880937A00F6
:103040001092C1008FEF8093660028E131E0A2E189
:10305000B1E010E85FEF03E06D91862F90E0FC0196
:10306000E455FF4F449180579F4FFC018491643099
:1030700009F0ABC20093A0008823C9F090E0880F4C
:10308000991FFC01EC57FF4F65917491FC01E858C2
:10309000FF4F85919491FFB6F894FB01E080409535
:1030A000E422E082FC01608146234083FFBE2A17B0
:1030B0003B0791F6E7EBF0E02491EBE9F0E0849137
:1030C000882399F090E0880F991FFC01EC57FF4F7F
:1030D000A591B491FC01E858FF4F859194918FB769
:1030E000F894EC91E22BEC938FBFF89480918100DF
:1030F000877E886080938100809180008C7F8093A0
:10310000800080918100887F816080938100809120
:103110006F00826080936F0080E991E09093890056
:10312000809388008091B6008F798093B60080915B
:10313000B00083608093B0008091B100877F80935E
:10314000B1008091B0008F7B80688093B000809147
:10315000B0008F7C8093B0008091B100887F816047
:103160008093B10080E88093B30014BC15BC16BCFA
:103170008FEF87BD84B5826084BD85B5856085BDD0
:1031800010926E0080917A00887F80937A008091FF
:103190007A00876080937A0080E480937C0080913D
:1031A0007A00806480937A0078949DED292E97E0D0
:1031B000392E2BEA422E23E0522E38EB632E3BE0D1
:1031C000732E49EC842E912C6AE171E00EEF13E02E
:1031D000BAE0EB2EB8E0FB2E8BEFC82E83E0D82EA2
:1031E00040E050E0809152028F3F09F45DC110929F
:1031F00051021092500220914E0230914F02809164
:103200004C0290914D0228173907A0F4E0914B022F
:10321000E45EE7FDEEC1E0934B02E0914E02F091D7
:103220004F02EC52F74DE491E058FF0BF09351023E
:10323000E09350022091490230914A028091470266
:103240009091480228173907D0F4E0914602E45ED5
:10325000E7FDDEC1E0934602E0914902F0914A02A7
:10326000E950FF4DE491E058FF0B8091500290919E
:103270005102E80FF91FF0935102E09350022091A0
:1032800044023091450280914202909143022817F6
:103290003907D0F4E0914102E45EE7FDC8C1E09354
:1032A0004102E0914402F0914502E750F34EE4916F
:1032B000E058FF0B8091500290915102E80FF91FE6
:1032C000F0935102E093500220913F02309140026E
:1032D00080913D0290913E0228173907D0F4E09189
:1032E0003C02E45EE7FDB2C1E0933C02E0913F02A4
:1032F000F0914002E05DF34EE491E058FF0B8091C5
:10330000500290915102E80FF91FF0935102E0939F
:10331000500220913A0230913B0280913802909104
:10332000390228173907D0F4E0913702E45EE7FD4F
:103330009CC1E0933702E0913A02F0913B02EB57D7
:10334000F74EE491E058FF0B8091500290915102AA
:10335000E80FF91FF0935102E093500220913502DB
:103360003091360280913302909134022817390748
:10337000D0F4E0913202E45EE7FD86C1E0933202D0
:10338000E0913502F0913602E353F34FE491E058B7
:10339000FF0B8091500290915102E80FF91FF093BA
:1033A0005102E0935002209130023091310280911D
:1033B0002E0290912F0228173907D0F4E0912D02A8
:1033C000E45EE7FD70C1E0932D02E0913002F091E0
:1033D0003102EE52F74FE491E058FF0B809150021A
:1033E00090915102E80FF91FF0935102E0935002BF
:1033F00020912B0230912C028091290290912A0277
:1034000028173907D0F4E0912802E45EE7FD5AC19D
:10341000E0932802E0912B02F0912C02E853FF4F39
:10342000E491E058FF0B8091500290915102E80F17
:10343000F91FF0935102E093500280915002909155
:1034400051029C01359527953093510220935002EB
:103450001A9908C0959587959595879590935102EF
:1034600080935002809150029091510280589F4F5A
:103470008F3F910511F00CF034C19093510280936D
:103480005002F89480912702E82FF0E0E95DFE4FAA
:103490009091500290838F5F809327028091520217
:1034A0008F5F8093520278949E012F5F3F4FAFE170
:1034B000B1E0E2E1F1E0FA87E987E985FA85A190D8
:1034C000FA87E987FDE0FA1508F00EC186B190E0B1
:1034D000E2EFBE2EAB0C02C095958795AA94E2F759
:1034E000817090E019F09C91F1E09F27F901919390
:1034F0009F018D9389859A8568177907F1F68981EF
:10350000882351F010924F0210924E02EEE3F2E047
:10351000F0934D02E0934C028A81882341F010928F
:103520004A021092490230924802209247028B814F
:10353000882341F010923B0210923A0250923902D5
:10354000409238028C81882341F01092360210920A
:10355000350270923402609233028D81882341F0EB
:103560001092400210923F0290923E0280923D02E1
:103570008E81882341F010924502109244021093EC
:103580004302009342028F81882341F010922C0263
:1035900010922B02F0922A02E09229028885882359
:1035A00041F01092310210923002D0922F02C0925C
:1035B0002E024115510509F415CE0E941E168823CE
:1035C00009F402CE0E940000FFCD9AEE960F9230D1
:1035D00018F454BF54BF50CD693109F04DCD9091CE
:1035E000F00092609EBB1093F0009EB39093F000A9
:1035F00043CDEF77E0934B022F5F3F4F30934F0265
:1036000020934E02019790934D0280934C0205CE79
:10361000EF77E09346022F5F3F4F30934A022093AB
:1036200049020197909348028093470215CEEF77A5
:10363000E09341022F5F3F4F3093450220934402B5
:10364000019790934302809342022BCEEF77E09351
:103650003C022F5F3F4F3093400220933F0201977F
:1036600090933E0280933D0241CEEF77E093370284
:103670002F5F3F4F30933B0220933A020197909384
:1036800039028093380257CEEF77E09332022F5FF2
:103690003F4F3093360220933502019790933402C6
:1036A000809333026DCEEF77E0932D022F5F3F4F73
:1036B0003093310220933002019790932F02809330
:1036C0002E0283CEEF77E09328022F5F3F4F309397
:1036D0002C0220932B02019790932A0280932902B7
:1036E00099CE8FEF90E0C9CE87E08A1528F483B198
:1036F00090E0E8EFAE0EEFCE89B190E0ECCEECE5D5
:10370000F2E01382128288EE93E0A0E0B0E08483BE
:103710009583A683B78384E091E09183808385ECD1
:1037200090E09587848784EC90E09787868780EC8B
:1037300090E0918B808B81EC90E0938B828B82EC7C
:1037400090E0958B848B86EC90E0978B868B118E26
:10375000128E138E148E0895EE0FFF1F0590F491B4
:08376000E02D0994F894FFCF5D
:10376800000000005416B415E115A1161216F01544
:0E377800041602030405060708090D0A0000E6
:00000001FF
