:100000000C94A9290C94D1290C94D1290C94D129B0
:100010000C94D1290C94D1290C94D1290C94D12978
:100020000C94D1290C94D1290C94D1290C949B2B9C
:100030000C94D1290C94D1290C94D1290C94D12958
:100040000C94FD2A0C94D1290C94692B0C94432B0D
:100050000C94D1290C94D1290C94D1290C94D12938
:100060000C94D1290C94D1290C9400000C9400001C
:100070000C9400000C9400000000000025002800F3
:100080002B002E0000000000240027002A002D0075
:10009000040404040404040402020202020203032E
:1000A000030303030505050505050503010204080F
:1000B00010204080010204081020010204081020D2
:1000C0000208010410402040847773A868AA32BE59
:1000D0006778877C93836A6BB2688B72886EAC4159
:1000E000CA2FB87A71885DC14CB244C744869375F3
:1000F0008C6BA557958F4CCA3D8EC21BC668797D07
:100100008A9A53C701F5655E9C63B93CAA7A993D0A
:10011000AA85865DAC44C93BB56872BC2ECC2ED195
:1001200056887F7D808E5DAC777C609C7F8B6A7B00
:10013000A355A56A8D77876C9C7364BC5F8A8647DC
:10014000D23EA87A649C74B31FBC83709454D72E9B
:100150008C9F6A8B7A818A59BD715D9F64AC4DA872
:100160006E8460D0408B8D669E6A818A9744C13AC6
:10017000C4666D99708B8A4DB67D6398748070BF2C
:1001800030BB4CB27942DA518A689A7C798277A581
:1001900043A79649A0A328D73CB4578BA339EF199E
:1001A000AF688E876F8C8565B143C722E53F89A410
:1001B00039E02DAF5EAB43D917D2598E805BB7764D
:1001C0006D7A9771836EB734E20BD65974D306E714
:1001D0003C90AD5D62A684757B8270AF6454D04163
:1001E000B6677771959B65728699619778768599E0
:1001F0004FA18E67817B8B75A1637B8980857B6C2A
:100200009E9A3A99A16E7292679F5D9C855BAB5FE7
:10021000A24CBA6B6B9863A66782A931B1826EA5B6
:100220004EBB3BA37A986A6EAA53A777728F67A2D8
:100230006A77928B60B84D73BC33CD46947EB421FF
:10024000B27F8F60A95B76BC27EA12F123B35F8A85
:10025000AE35C935B2903FC3645FD03C8E84985FA1
:10026000878F4ED03ACD437DA1619863A07F669081
:100270007D799863A741C255AB48989958A2659378
:100280007689708B7C8F60A268868D7D79768C767E
:10029000AA567C9B51CC516BB1686AB838C5646969
:1002A000AA7C50A3B00FEF3995869147C446AB6B3B
:1002B0007A9A59BA3DC13FB85A9B6C8F6E956E8D34
:1002C0007D729A65A045CF52799E6F7A848580733E
:1002D0008D7F758E6F908366AE5A828E6CA161950C
:1002E0006989957E716CAE56977F818C57A6726C2A
:1002F000A08D5A8F7B8F5CA4759E4F89A23FC263ED
:10030000868E5ABD417FD212C9776D76B150938CDB
:100310004EDB358E8876966B83828C63B84090A9CD
:100320005889847C896E946E7EAE35CE33CC3CB4D5
:1003300058A26D71A855AA4DAC758D46D338B25CE4
:100340009E66A04CB1853DDA29C0619F6286789790
:10035000678E818273858A70B315E8577C87749D98
:1003600055AE6F6D80A95A9556B25FB14F72C734C2
:10037000BC4DA08076858067C13F9C6C8CA051A845
:100380003DC7618D7E72818D7B728D897F6C936597
:100390009F82816A73AB638288835EBD6C58A87745
:1003A00072927869B95571AE7170A055A25EAC5267
:1003B000B0578C9D40CC43C232B07C708F7783782D
:1003C000937B6B8C8D88589C8160B941AB787B9A0C
:1003D0005982966D94699D637CA952B04CC92C9B3F
:1003E000966F9C36D3605BBB7845D92DB27385740C
:1003F0008D7977A540B9737D69A64EC6389F9A5A04
:100400009D6E7982965DA6688D54D1516CAF677DE3
:100410007D9948D4468294699B727692826E8B67EE
:10042000BA45A3707B8B828B5CAA49C25E7C837FBA
:10043000907567AC657B9F54AB6E738A905AA666C5
:100440009A5DAA4ECA3988B63CB943CE2BCA587EAB
:100450009858A1846CA1529C699C736BBA30D528C2
:10046000BC8C4BA565937E867A7D7E7C7EA25B9E4E
:10047000717094768A709F4CBA5A8F7E8C6388A173
:100480004E9E78955C987875A46866AF5DA37558A4
:10049000A673956A8774878E6A9F57B2625DB77C30
:1004A0005D9E79747D9C669B8247C146B264947B55
:1004B0006A966A8EA2469A7A9A6576A461985BB229
:1004C0004DAB648C80866C9D5D9E7760C838AF595B
:1004D000A7669854B6627C917485759B59B246C0E4
:1004E00039B48656948A6C8A8D54B85F877E896C3D
:1004F0009B698D76926E78A743C4519B5F9C8269FD
:1005000095728F66A46A79879C589576808C748AD8
:100510008A609F6F71AD539D6F868E5EAB579F78DB
:10052000738A6CBA40A37B58D339929A42D736B8B3
:100530003FBB6E72935DA57585817F69966CA845FA
:10054000C64DA053A3826F91747C8D7E61B1639A76
:10055000589D6C93806C97717F9C529B877A7384B3
:100560008E6A927C8869966F91669C86639867957F
:1005700077848484708D69A6608E8B639D6B89738C
:10058000AA5485936F908A43CE4197A533BC669752
:100590006898688C70878F8368908358B07A746F7E
:1005A00099709F5F8689758D6E994BDC2F9C933C6B
:1005B000EC1BC35B8E7D8875769C7862B8527FB5E4
:1005C00026EE03FF1DBA677A9F5C956EA154B54A6B
:1005D000AC5E9E5FB041B86286837298777E69B3E5
:1005E00045AC66917475AB5781A2549D7879945D42
:1005F000AF55947496766BAB3CD04B95826B9282E0
:100600006F8C82757EAE4A879C51C33EAA5EAA64F7
:1006100085856DAA57839186756B9F6F81975F95CE
:100620006F957A689A8B697F87857C7F7A7F8B86C6
:100630007D6D8C8076A2598E7B8E825AA672888FB1
:100640004FA4865E9D72935DB73E9E8C739754A5B2
:100650006990708E788E6896699970818F6C92849B
:1006600061977D6BAE509C7394619E63899B6678A5
:100670009575818C5FAD50BA498B9C5CC91DB77A6A
:100680007190778B718394698389709858BD3EBE51
:1006900049A37B58C95174A177728F729663966192
:1006A000BA4BA4617FBA25D05A808B7C7394835B4C
:1006B000BD459B837882877196609E787E8763A311
:1006C0006E9854AD5B9C7984639E7A8D608C946146
:1006D000A25E977D875BAE55AE5C937575A26C8903
:1006E00068917E8965947B8D729155A6855CAF512A
:1006F0009B86629A7C7C7F8487679B7678905BBDC3
:100700005775AA51AE569C79719A719061908F5924
:10071000B2578C9462B33D9A8B837966A8658C7DC1
:100720007F867295678B85846FA2695CB86F7886C7
:10073000719C6A80897F8E57AB6D74AA49B5509FB2
:100740008061B050A958B045B6667C8F7A69B160B7
:1007500072A4699D4EA95AC12AD83CA06F878E5CAD
:10076000A962A1519F778B6C9B50CA43967387A651
:1007700032CE41A98557AC54A5844CBC51A86A75AA
:10078000A359A65E99718A7B7D8C6B88A04C92A43C
:100790003DC255839D6B729E7372A064878A6E9171
:1007A0008261A8688A79808979827293816F976D56
:1007B0007C90777D8F6C849B599C7A6D9582728634
:1007C000817F7D8967AB56977E739F5D8D86748828
:1007D0007D81867286828C5BB446BA5D7F8F748918
:1007E00079876E9A6E985D957F7D7495788771860E
:1007F0008370A35BA86672AB50A075769B66916C04
:10080000947D789361A5589D7379928274749678DB
:100810007E7E8475A050AC60956E9071878B699ACE
:100820006A975EA5629A64977879906891877772E3
:100830009B678F7B827D7D86847183945BAB5F8DAC
:100840008A61A0717B87886F8E7292788171976FB1
:1008500086886D946F926D8D7399668F728F76878F
:100860007B779866946F926D8D7C876F8D79886E9B
:1008700099757695659A6F8E6F927188807394756D
:100880008674838C777C8A78857F7F7C858666A852
:100890006288817F85729570857C8584778189796E
:1008A00080827D89777E8F69927B817D837C808346
:1008B000798B77827F876D9771897D7C9853A36E42
:1008C0008A80768A768D748C7288817C7C946B8C1D
:1008D000768A778385798772946D897D8E669A6929
:1008E000927782837A88768D6B9B6B8C758B7391F4
:1008F0006F8493648E82798386788A73897D857903
:100900008082877785797F887D86699973847E80E8
:1009100084798A718C7C8088727D926C96717C8CD3
:100920006F9964927D7B80867C7F837D837E8081CE
:10093000807C877C7F847D8084758E77857D7C8CB0
:100940006D957679906B986C8C7A8185768E708FA8
:10095000777F8B6F8D8171947288798679887C7CA2
:10096000887E7C827F817D83837490718C77877A87
:10097000857D7F8678867D82807D847D8085788573
:100980007B8C7383837A887B7F837F81807F837C6A
:10099000837D857A8381827982857B896E8F7B7E58
:1009A000847E817F827A877C857A8280807F818144
:1009B0007F817E827D847B857D81827D80837C8238
:1009C000847A837F84798580807E80837D827E8324
:1009D0007D837A8978857E7D8579887889758A7A1C
:1009E00082807E827F7E847E7E847B86788B738B02
:1009F0007884817D837D827A897981827E7F847B00
:100A0000847D81807F8180807D867A837F81807DE7
:100A1000837D8281817C847F80808180817E827FD2
:100A20007E847A847D847D81807F827E827F8180C6
:100A30007F818080827E817E81817D827F80817EB8
:100A40008081807E827F80817F817F80827E8081A5
:100A50007F81808080808080807F827F7F827E8196
:100A60007F80807F817F80817F817F81807F827E88
:100A7000827E827F817F8080808080807F817E8275
:100A80007E827F817E827E818080817F827F817E67
:100A9000827F80807F818080817F80817F817F8154
:100AA0007F80807F827E817F808080808080808048
:100AB000808080807F817F827F8080808080807F37
:100AC000817F817F80808080807F81807F80808027
:100AD00080808080808080808080807F8080808017
:100AE0008080808080807F81808080808080808006
:100AF000808080808080807F8080808080808080F7
:100B000080808080808080808080808080808080E5
:100B100080808080808080808080808080808080D5
:100B200080808080808080808080808080808080C5
:100B300080808080808080808080808080808080B5
:100B400080808080808080808080808080808080A5
:100B50008080808080808080808080808080808095
:100B60008080808080808080808080808080808085
:100B70008080808080808080808080808080808075
:100B80008080808080808080808080808080808065
:100B90008080808080808080808080808080808055
:100BA0008080808080808080808080808080808045
:100BB0008080808080808080808080808080808035
:100BC0008080808080808080808080808080808025
:100BD0008080808080808080808080808080808015
:100BE0008080808080808080808080808080808005
:100BF00080808080808080808080808080808080F5
:100C000080808080808080808080808080808080E4
:100C100080808080808080808080808080808080D4
:100C200080808080808080808080808080808080C4
:100C300080808080808080808080808080808080B4
:100C400080808080808080808080808080808080A4
:100C50008080808080808080808080808080808094
:100C60008080808080808080808080808080808084
:100C70008080808080808080808080808080808074
:100C80008180817F827F827F827E837F82817D805F
:100C9000867E7A877E8180827D887B82788A827D4B
:100CA0007E847F82827C847D8878857C916C818E35
:100CB0007B86708B8578976587886F986F858A802B
:100CC0007677878B817589759671818C5CAD6A8C1E
:100CD0007B70A85F8782936F739583718F7B8098F9
:100CE0004D9F7D9E59739D8667AA60879345DA392B
:100CF0008DA642A786759D45B8629F51A3768A7AD4
:100D00007D9A3DBE7E7161D12FA6946058E33F8EDF
:100D10009643DA33819592817662B16268BE744BF4
:100D2000B85494A147AD64A1755CB1816D6971C27D
:100D300057AE7A22D9678C7297638D8B7871B364C2
:100D40004CB772966CA822DE43CD4956D04EA166B0
:100D5000C1268ABE5A859049CF37EE01B68F48D456
:100D600025D646B03BB16B9F7A5D8AA95D85889F89
:100D70006842C943D03DB0608E7F789F43B054A194
:100D8000994B93A0597F84956A9C5688986B966D71
:100D90008B62B1597C96797C868852B06C7B985274
:100DA000B26178986A8F73916C8A7B739375887738
:100DB000758D81817086847A8B70788F7981807B44
:100DC000876D898772897A7F827E8276877A857D30
:100DD0007C7F7C8779837C8579808379867C827D22
:100DE0007F7F80817D817E7F807F7F807F807F7F0E
:100DF0007F7F807F7F807F80807F80807F807F7FFC
:100E000080808080808080807F807F80807F807FE6
:100E100080808080808080808080808080808080D2
:100E200080808080808080808080808080808080C2
:100E300080808080808080808080808080808080B2
:100E400080808080808080808080808080808080A2
:10183000808080808080808091678B7CA9703DC98A
:101840006B73D102B3A45C7D849A50D90FBE8363BD
:101850007DCD22AD728A8B4FC33EC042B65A86A759
:101860005F55D542B252A78C40D43BAD8859D002C7
:10187000F75843E612EF24C93DAE806E886895AAFA
:10188000497F98769159A7628B985D7BB347A87181
:1018900068B07165A45E957D9052A374A8566EBD24
:1018A0004E8F8D59B0794CC05EA92CEA14D3607765
:1018B000A151AF3DF201D8606DA860829D72699D13
:1018C0006F8285845FBC4AB349939C49B5648D9B04
:1018D000458EA546C23CD223D053849155D90FE200
:1018E00033C5508D66BE608267969443D22DC25D2B
:1018F0008097786A95768683777F9B558E93787AE2
:10190000936D82709B7A6F9974738E8B6B9C559BD1
:101910008E6E6CB93CAB65BE35A28472837C9B5ADB
:10192000A94DBD48AD4FAB6D80906C8289738E78A8
:101930008381886485AC44A3877771857B968261B7
:10194000968A51A4906E7481A150938E78A340A082
:101950006CA17769977B72A342BE804DA2768264A8
:10196000CD3C986FAE567E8592747F817D8686745D
:101970007498779D30D35F7C7F9F53997D7A98418F
:10198000D453818176959443A49451AC64798F9D0E
:1019900056995CA47C6C9A59BD47A265996D9B5B76
:1019A0009B7580B218D36D7378A45F8D8A6C8B8918
:1019B0005AD01BB5A02BDE31BF4AB54F968A6BA615
:1019C00043A283837C8A668776B23E95A665737D43
:1019D000A05FB030C9676BA076797B80A95679A2E9
:1019E00058B63DC243AF677F8C7F866F8F698C97F7
:1019F00049BB7641E12FAE73787E9375827C8383F9
:101A00008268A17575936C838E875F9B6F927388D4
:101A100076858A65A7657A9F55AF569D71828C6BD6
:101A20008E8384678C85886FA15B8B75967670AA90
:101A300057907B76AE49958C7480789A599B7A8BB7
:101A40007581769074887D7994689D52B35F99749E
:101A50006AA761898B7475AA508F8F7969AC529D82
:101A600077789F52A85FA259A66886876C947D7785
:101A7000996682847F9152C142AE6F7D8678887864
:101A8000906995757E897A7F87758D7385837C844F
:101A90007E7A858665A86A858A54BB539B708C794B
:101AA0007A9655B55F7E9960967E6FA351A5826345
:101AB0009175907782896E877E818A768686767127
:101AC000A06C789A6C897A818281798A7884817C09
:101AD0008F6984917A738E738F75817F9166907F01
:101AE0007A8775916C8F738F6F8E748D7686798DF2
:101AF0006F8B8375887D8965A85B9B6C8D7A8673F7
:101B000094727C8F708E78876D9E609D6A8A8376D2
:101B1000877F7C808C728878868A77768B837093B7
:101B2000777E828184738A85748976849361966CCA
:101B30009A6794728184847F788C6B976E8B73988C
:101B400065A459927F78946496718F6D97699279A4
:101B5000778E79827E8473947187788D6D907B7C8B
:101B6000857E7F7C8F6A99679277877193777A8970
:101B70007C8180807F85729B5F9B6E87827592756A
:101B80007D877F7E7F847C837F7E88738F777C8B4D
:101B90007682847A867C7F808B6E8A83758E77814D
:101BA00081827F798882788679897C7E847E817E35
:101BB000827E837D81837B84807C808D6C907B782A
:101BC0008C738D7589738F758482778B7A827C8410
:101BD0007F7F7E87758A79857D7D867A86788A790A
:101BE0008082807C84807C86778C758481827883F7
:101BF000817E81807D867C7D8A6F8F7787788B74EC
:101C000083857986807B857D7D8C6E8F78847C84CE
:101C1000817B857C847E7F82807E82807D837D80C7
:101C20008578867F7D867A857B837E7F827C857BB7
:101C3000857B867D7E83817C847C81837C887685A0
:101C40007E847B837F80807F817E857A857A857D97
:101C500081807F817E827E817D8878837D84807B88
:101C6000887983807F7F81827C82807F837A867C73
:101C700082807E81807E82817D8579857D837C8363
:101C80007E80817F827E81808080807F827C857B58
:101C9000847D82807F827F8080817E81807F818041
:101CA0007D847C837E80817E827E827E82807E8334
:101CB0007D827F7F80807F8080817F82807E808028
:101CC000827D847D827F817F80807F817E82808013
:101CD0007F827F817F817F818080807F827D827E05
:101CE0008180808080807F817F8080817F817F81F3
:101CF0007F817F80807F807F817F8080817F827EE7
:101D000080807F8080807F817F80808080807F81D5
:101D10007F81808080808080807F818080817F80C3
:101D20008080817F818080808080808080808080B2
:101D300080808080808080808080808080808080A3
:101D40008080808080808080808080808080808093
:101D50008080808080808080808080808080808083
:101D60008080808080808080808080808080808073
:1023F0007C8268A3769161A16280B324C062D2011D
:10240000E15184A927F91DAF7B6B935FBA7F2DCD76
:102410005FAD3EA87D6F945EBF2ECA5A829752B8B8
:102420005D827C9B5B9E7663A77B74926B88B01AFF
:10243000D43BCE469D7863C046B93FB562779C6D6C
:1024400076B24AA2648E9846B768965C927896787F
:102450007186887877AC3BCA3BB075748081A53FA4
:10246000B5628B80856DA253A07E7D7A8D609F8D35
:102470004BB750A7787470B642A7825DA96588876C
:10248000708A896C917394619D6F79967A816D9C45
:102490006E868366AA678479878C6C8B6F91916155
:1024A00090728686778774995BAD5791886A9B5D39
:1024B0009C876394729076867F6FA35C9979788607
:1024C0008A70808883798B6F7F95649A787B897313
:1024D0007A95875D99738885738B78847D8273A1E3
:1024E000637D9966946E8C89639C6E946789887A03
:1024F0008187757E887E867688719E55AA648F74E2
:10250000897E76936E8C719D609673877C817B8BC0
:10251000768384768F73877F807C8B77857C7C84C1
:10252000887A75976B8A7E7A8E699A73807F8184A8
:102530007D837A7E8E71887E7D887491699B669793
:1025400070828E6D8A7D7F827E7C8A738C77896DA6
:102550009A6A8F7B76926E90728A778A76897B7C74
:10256000906D85857B838379857F84748F75838562
:1025700074917288778B79827E7F87788383778A5C
:102580007B7C887B847B8A72868378887C81817B54
:10259000877B867B7E867986817A8380807F808038
:1025A000817E817F81817E7D858376877D817E822C
:1025B000807C8189728B79838477877F7D83817822
:1025C000897A88788180847A867D7C867D7E7F8703
:1025D000778878887A847E80827D837E8181817A03
:1025E000877C837B867C847C83827A857D827D86E2
:1025F00078887984807C8678877D7E877A81847AE2
:10260000867B847D837E7D8A75887C80857A8380C5
:102610007D837C837C82817C8776897D7C857C82BE
:102620007F827C847D7F837E80817F7E8579867DAD
:102630008081807D847C837E80837C8679867A8598
:102640007C827E8181807D84807D847C847D827E8D
:10265000827D837E817F808180807F827E827F8079
:1026600080847B837F7F837E807F847B847E818068
:102670008080817F81807F817E837E827E817F8159
:102680007F807E847C82807E837D837C847D81804C
:102690007E82817D827F80807F827D837E817F823A
:1026A0007E80817F80808080807E837F7E827E812D
:1026B000807F827E81817D837E817F80807F827D1D
:1026C000847C827F8080817F817F817F81827C8406
:1026D0007D837E827E827F7F827E81807F817F80FC
:1026E000817E827E817F817F80817E827E818180EA
:1026F0007E8180817F81807F817E827E817E827FDC
:1027000080817F81808080817F817F817E817F80C9
:10271000808080817F81807F817F817F817F817FB9
:10272000818080818080817F8080808080808080A7
:102730008080808080808080818080817F807F8198
:102740007F80808080808080807F80817F80807F8C
:10275000817F817F817F818080817F817F80817F78
:1027600080807F817F817E818080807F818080806A
:10277000808080808080817F818080807F817F8158
:102780007F817F808080807F81808080807F817F4B
:10279000817F8180808080817F817F8081816D8841
:1027A000838C7225395BD9DDDB702B6356C0FFE764
:1027B000312A5F5FDDE1C09D02017DB09C958124DF
:1027C0001950AFC8B3624D6D7396DCD26C686288E5
:1027D000CBC5A38F6B54575150515A433A6396BBA4
:1027E000A58C8D949BA7B7B2958079919C867665D0
:1027F0005B5455585F677277737E8F9997918E906F
:10280000949CA19F948982786E67626163676E75FC
:102810007C83888C8E8E8E8D898481818485838152
:102820007E7C7A79797A7A7C7D7F808283838383C8
:102830008382828180807F7F7F7F7F7F7F7F808098
:102840008080808080808080808080808080808088
:102850008080808080808080808080808080808078
:102860008080808080808080808080808080808068
:102870008080808080808080808080808080808058
:103350008080808675ACD32D0483FFC72C098BFD3C
:10336000BD2B1093F8B6281998F5AC291F9EF0A52F
:103370002827A2EC9E282FA6E7972935AAE29129B3
:103380003CADDE8B2A43B0D9852C49B2D4802E4F78
:10339000B4CF7B3055B6CA77325BB7C5733460B8EB
:1033A000C06F3765B8BB6C3A6AB8B7693D6FB8B2E1
:1033B000674073B8AE644377B7A962467BB6A56130
:1033C000497EB5A1604C81B49D5E4F84B29A5E5235
:1033D00087B1965D5689AF935D598BAE905C5C8DDD
:1033E000AC8D5D5F8FAA8A5D6191A8875D6492A6AE
:1033F000855D6793A4825E6994A2805F6C95A07ED0
:10340000606E959E7D6171969C7B6273969A7A63DD
:103410007596987864779696776579969476667AB5
:10342000969275677C969174697E958F746A7F9584
:103430008D736B80948C736D81948A736E82938983
:10344000726F83938872708492867272859185728E
:103450007386908472748690837275878F82737678
:10346000878E817377888D807378888C8074798853
:103470008C7F747A888B7E747B888A7E757C888941
:103480007D757C88897D767D88887C767E88877C42
:10349000777E88867C777F88867B787F88857B7837
:1034A0008088857B798088847B798187837B7A811A
:1034B00087837B7A8287827B7A8287827B7B828604
:1034C000827B7B8286817B7C8386817B7C838580FB
:1034D0007B7C8385807B7D8385807C7E8384807DEF
:1034E0007E8383807E7F8282807F808181807F80D7
:1034F00081808080808080808080808080808080CB
:1035000080808080808080808080808080808080BB
:1035100080808080808080808080808080808080AB
:10352000808080808080808080808080808080809B
:10353000808080808080808080808080808080808B
:103F000080808080808080808080807F805449484D
:103F10004A4444443E59274059577C9BA3857CD250
:103F20008EAFD18A9DCCE7A0B3E0EA84C9CAA9CEFE
:103F3000E2B056C2B4ADA475BB60499577736868AA
:103F40004E5783420D9F5405777E440D4F6D52535B
:103F50004D5A7D144D725D7252AA2F409A984DA20F
:103F6000AB3384E48461E76C99C6C7BCB0C6D37E2A
:103F70008ED9D7CF7D92E09E6FB7B4A4958D8B9CE0
:103F800052B25038936C7757675260505B516A5BFE
:103F900014767B016D5F7263179B4F48716F788257
:103FA0003C908F3A928C95959B70A7A9867C9FC177
:103FB000B9A4D49B63C3BDB6AFA9ABAE93A1A49B78
:103FC00095998BB07F4097B348618479678874185E
:103FD0005583822E65713B56596D56516B517060F9
:103FE0007F7F3D487E9D4F72AF754AA79D6CA6723C
:103FF00084AABCAB628EB5B4A3A3ABAB8CAEC473C6
:1040000094D172A99B78A984B57E61888F84A043DE
:10401000578081884953945D3E8E3B6573763A584C
:1040200072686868952E4A8E83745C5D8782888189
:1040300087986F6BB0869D967194C19B7ABD8F9166
:1040400083C9AF6AA6A2A592A28B9B9F81817C8225
:104050008C8C8086737B73914C5E7790674C715328
:104060007D5E825E53646C7D76526567706E93638D
:104070005EA85175898C848686898B8B8F8F978FEC
:1040800091929C92ADA0888080AF9CA48DB57C6CF1
:104090009998B763867D718D9E737C6F767A6093F5
:1040A000696168768E5059776F786C7354636A8A49
:1040B0006D5C7A8C73596E947F717E85848B9C6A5B
:1040C000897A97929C917E929B92A093729D96B5CD
:1040D0007C7CA572A3967F9F6F80A3806F8E817377
:1040E00088865E777C7A758076496B7B7B6C885B93
:1040F00073685582757B6E787079737D8170768672
:104100007F8793677F999F76728F92959095968C13
:104110007AA58185989DA0768686959D7D779287E4
:10412000897F897C858B577B8182777C8D526680E5
:104130007976717371737173757965806D83845746
:104140007280867E807D827E867D9C7A738987954B
:1041500087A28074929F7C978981A19680768C93A8
:104160009F787B92828E896D94816F827C717D8233
:104170007A7D748A666E776B836E78737B756E85D5
:10418000716B7078807F7B7E78887F6B8584888F69
:104190006E8A927388919675938F798F889D8381AB
:1041A0008A9188909177877B899B7D748487897DAC
:1041B00088806E727D857E7E7177797C7D6E737965
:1041C00074866B6B846F7B7A887C647E84777F8255
:1041D000788082818986778F8B777C918A8A839297
:1041E000857E977992907E7C9489897D8B8B769061
:1041F0007A8486817F817E817C7A807F77708875E2
:104200006F8B7671747C79727F797D836E6F817D1F
:104210007E7C86787A797C8B83777D89868C758C99
:10422000897C8881967D7F928D7C808C8A8D7D9023
:10423000847C809184798281858485748680758070
:10424000886F807D757B857F687B7D85707B8175C0
:10425000757B7F7C7D7C7D85796F84808289798187
:104260007F7B848C8B798188897D87888789828F01
:1042700078858B808B7E848E7E7A8D848180788316
:10428000838187777A897A787E7C7C787E8474795A
:104290008078777D80777B8277798082747C808656
:1042A00081767D8084838A797C8B877888877F84F8
:1042B0008290817C86878684858389817E8B827AC1
:1042C000828583887F788080817F7E7E7F857778F6
:1042D000788180757E7D7E7B7C7B7C7C7C83767A1E
:1042E0007F8183757E887A7B857D8188827A8183D0
:1042F000868383857E868184858385838581808B83
:10430000837E8684808088817A8381827F877C75A2
:10431000817F847C7B827C797B7F817C8079787EC5
:104320007F7F7E7B7F7B7B817E86797B81828182A2
:104330007E80807E84838581847B8488808086865D
:104340007D8384858385847C81858286847B807F50
:104350008085827B7E8080827D7B7E83797C827A71
:104360007B827F7A7C7D7F7E7F7D7D7E7E807D846B
:104370007D7A80807F82827D827F8085837F84803A
:104380008383837F82887E838286847C8382868304
:104390007C8183837D83827C827D81837D7D7C8122
:1043A000827C7F7D7B827E7A7D837E7B817B7D7F2D
:1043B000807F7F817F7C7D8182827D7D82818383FE
:1043C0007E8183818380858280837F8283838384CF
:1043D000807F84817F83837F7F83837D83817E7DD4
:1043E000837F7D817E807C7D80827C7A81817C7CE4
:1043F0007F7E7F807E7F807D7D7E82807F82807ECB
:10440000807E818183837E8082818383807F838499
:104410007F828283847F7F8380838180827E83808A
:1044200080808180827F7F7F7D7E80827D7E7F8095
:10443000807C80807C7F807E7F7E817F7D807F7F8F
:10444000808081817E7E817F8081818083807F8367
:104450007F808183847F8082828183837F8081804B
:10446000818281808181807F82817F817E80807E48
:1044700080807D7E80807F7F7F807D7E817E7F7E4D
:104480007E80817E7F80817F7E7F81818180837F2E
:104490007F8280808183808081838080828182810D
:1044A00083807F8380808183807E818081807F8004
:1044B000807F817F7E81807F7F7E7F81807D7E8007
:1044C000807E7F80807D7E81807E7F827F7E8080F7
:1044D00080817F808082807F81818182817F8183D2
:1044E000818082808082827F81828080827F7F82C1
:1044F000817F7F8080817F817F7E807E8080807FC2
:104500007F7F7F817F7F7E7F807F807F80817E7FB6
:104510007E8081807F81817E7F80818081817F809C
:104520008280818180808182827F808181827F8080
:10453000818280807F81817F8181807F7F81808077
:10454000807E7F81807E807F7F8080807F7F7E7F76
:1045500081807F80807F7F81807E808081807F805E
:104560008081808280807F81818081818181828041
:104570007F82808081818080808181807F80817F37
:10458000807F80817F7F80817F7F7F80808080802F
:104590007F807F7F807F808080807E7F817F7F8122
:1045A000807F7F81807F808180818080808080800B
:1045B00081818181818080818181808080808180F2
:1045C0007F8081807F8080808080807F80808080ED
:1045D0007F807F8080807F80807F808080817F7FE0
:1045E000807F7F808081807F8080808081808080CC
:1045F00080808180808080818081808080808081B7
:10460000817F818081817F80808180808180807FA7
:104610008081807F807F808080807F807F807F809E
:104620008080807F807F8080807F8080808080808D
:104630008081808080808080808181808081808076
:104640008080818080808081808180808080808067
:1046500080808080817F80807F80807F8080807F5D
:1046600080807F808080808080808080807F80804C
:1046700080808080807F8081808080808080808139
:104680008080808081808080808080808080808029
:104690008080808080808080807F8080808080801B
:1046A000808080808080808080808080808080800A
:1046B000808080808080808081807F8080818080F9
:1046C00080808080808080808180808080808080E9
:1046D00080808081808080808080808080808080D9
:1046E00080808080808080808080808080808080CA
:1046F00080808080808080808080808080808080BA
:1047000080808080808080808080808080808080A9
:104710008080808080808080818080818080808097
:104720008080808080808080808080808080808089
:104730008080808080807F8080808080808080807A
:104740008080808080808080808080808080818068
:104750008080808080808180808080808180808057
:104760008080808080808080808080808080808049
:104770008080808080808080808080808080808039
:104780008080808080808080808080808080808029
:1047900080808080808080808093AAB9C8D3DEE644
:1047A000EEF4F9FEFFFAF3EAE1D7CDC3B8AEA39871
:1047B0008E84796F665C534A423A322B241E191458
:1047C0000F0C08060402010102030406090C101470
:1047D000191E242A30373E464E555B62686D737849
:1047E0007D82878C9094989CA0A4A7ABAEB1B4B7FF
:1047F000BABDBFC2C4C6C8CACCCED0D1D3D4D5D618
:10480000D7D8D9D9DADADBDBDBDBDBDBDBDADAD909
:10481000D9D8D7D7D6D5D4D2D1D0CFCDCCCAC9C785
:10482000C5C3C2C0BEBCB9B7B5B3B0AEABA8A6A332
:10483000A09D9A9794918E8B8784817E7A777470ED
:104840006D6A6763605D5A5754514E4B484643400A
:104850003E3C3937353331302E2C2B2A2928272658
:1048600025252424232323232424242525262728FF
:10487000292A2B2C2D2F303133343637393B3C3E0F
:104880004041434547484A4C4E5051535557595A59
:104890005C5E6061636567686A6C6D6F7172747588
:1048A00077797A7C7D7E80818384858788898A8CEC
:1048B0008D8E8F90919293949596979798999A9AB6
:1048C0009B9C9C9D9E9E9F9F9FA0A0A1A1A1A1A2F9
:1048D000A2A2A2A2A2A2A2A2A2A2A2A2A2A2A1A1BA
:1048E000A1A1A0A0A0A09F9F9E9E9E9D9D9C9C9BE1
:1048F0009B9A9A9998989797969595949393929155
:1049000091908F8F8E8D8D8C8B8A8A8988888786EF
:104910008685848383828181807F7F7E7E7D7C7C8F
:104920007B7B7A7979787877777676757575747414
:10493000737373727272717171707070706F6F6F68
:104940006F6F6F6F6E6E6E6E6E6E6E6E6E6E6E6E83
:104950006E6E6E6F6F6F6F6F6F6F70707070707163
:104960007171717272727273737374747475757518
:1049700076767677777778787879797A7A7A7B7BB2
:104980007B7C7C7D7D7D7E7E7F7F7F808080818142
:1049900081828282838384848484858585868686D9
:1049A000878787878888888889898989898A8A8A80
:1049B0008A8A8A8B8B8B8B8B8B8B8C8C8C8C8C8C44
:1049C0008C8C8C8C8C8C8C8C8C8C8C8C8C8C8C8C27
:1049D0008C8C8C8C8C8C8C8B8B8B8B8B8B8B8B8B20
:1049E0008A8A8A8A8A8A8A89898989898988888833
:1049F000888888878787878786868686868585854F
:104A0000858585848484848483838383838282826E
:104A10008282828181818181818180808080808089
:104A2000807F7F7F7F7F7F7F7F7E7E7E7E7E7E7E9C
:104A30007E7E7E7E7E7E7D7D7D7D7D7D7D7D7D7DA0
:104A40007D7D7D7D7D7D7D7D7D7D7D7D7D7D7D7D96
:104A50007D7D7D7D7D7D7D7D7E7E7E7E7E7E7E7E7E
:104A60007E7E7E7E7E7E7E7E7F7F7F7F7F7F7F7F5E
:104A70007F7F7F7F8080808080808080808080803A
:104A80008181818181818181818181818282828212
:104A900082828282828282828282828383838383F1
:104AA00083838383838383838383838383838383D6
:104AB00083838383838383838383838383838383C6
:104AC00083838383838383838383838383838383B6
:104AD00083838383838383838383838383838383A6
:104AE00083838382828282828282828282828282A3
:104AF000828282828282828181818181818181819F
:104B00008181818181818181818181818080808099
:104B10008080808080808080808080808080808095
:104B2000808080808080808080808080807F7F7F88
:104B30007F7F7F7F7F7F7F7F7F7F7F7F7F7F7F7F85
:104B40007F7F7F7F7F7F7F7F7F7F7F7F7F7F7F7F75
:104B50007F7F7F7F7F7F7F8080808080808080805C
:104B60008080808080808080808080808080808045
:104B70008080808080808080808080808080808035
:104B80008080808080808080808080808080818123
:104B90008181818181818181818181818181818105
:104BA00081818181818181818181818181818181F5
:104BB00081818181818181818181818181818181E5
:104BC00081818181818181818181818181818181D5
:104BD00081818181818181818180808080808080CC
:104BE00080808080808080808080808080808080C5
:104BF00080808080808080808080808080808080B5
:104C000080808080808080808080808080808080A4
:104C10008080808080808080808080808080808094
:1053400080808080808080808080808080808000DD
:105350008B2F11241FBECFEFD8E0DEBFCDBF11E0F1
:10536000A0E0B1E0E0E8FFE502C005900D92AE31AB
:10537000B107D9F722E0AEE1B1E001C01D92A93F2B
:10538000B207E1F719E2C9EAD9E204C02197FE01A8
:105390000E94B82FC83AD107C9F70E94C02B0C94BD
:1053A000BE2F0C940000AF92BF92CF92DF92EF928B
:1053B000FF920F931F93CF93DF936C017B018B01BF
:1053C000040F151FEB015E01AE18BF08C017D1070F
:1053D00059F06991D601ED91FC910190F081E02D99
:1053E000C6010995892B79F7C501DF91CF911F91EE
:1053F0000F91FF90EF90DF90CF90BF90AF90089506
:10540000FC01538D448D252F30E0842F90E0821BCA
:10541000930B541710F0CF96089501970895FC014F
:10542000918D828D981761F0A28DAE0FBF2FB11DA7
:105430005D968C91928D9F5F9F73928F90E00895FF
:105440008FEF9FEF0895FC01918D828D981731F0B9
:10545000828DE80FF11D858D90E008958FEF9FEF0D
:105460000895FC01918D228D892F90E0805C9F4FE3
:10547000821B91098F73992708958CE592E00E9411
:10548000312A21E0892B09F420E0822F089580E061
:1054900090E0892B29F00E943D2A81110C94000094
:1054A0000895FC01A48DA80FB92FB11DA35ABF4FB9
:1054B0002C91848D90E001968F739927848FA68913
:1054C000B7892C93A089B1898C91837080648C9367
:1054D000938D848D981306C00288F389E02D808116
:1054E0008F7D80830895EF92FF920F931F93CF9348
:1054F000DF93EC0181E0888F9B8D8C8D98131AC00F
:10550000E889F989808185FF15C09FB7F894EE89F5
:10551000FF896083E889F989808183708064808352
:105520009FBF81E090E0DF91CF911F910F91FF909D
:10553000EF900895F62E0B8D10E00F5F1F4F0F7345
:105540001127E02E8C8D8E110CC00FB607FCFACF00
:10555000E889F989808185FFF5CFCE010E94512A23
:10556000F1CFEB8DEC0FFD2FF11DE35AFF4FF082D1
:105570009FB7F8940B8FEA89FB8980818062CFCF37
:10558000CF93DF93EC01888D8823B9F0AA89BB897A
:10559000E889F9898C9185FD03C0808186FD0DC065
:1055A0000FB607FCF7CF8C9185FFF2CF808185FF86
:1055B000EDCFCE010E94512AE9CFDF91CF9108951E
:1055C000CF93DF93FC0101900020E9F73197AF0101
:1055D000481B590BBC018CE592E00E94D329EC01D9
:1055E00042E050E06AE171E08CE592E00E94D3294C
:1055F0008C0F9D1FDF91CF9108951F920F920FB6D0
:105600000F9211242F933F938F939F93AF93BF9348
:105610008091580290915902A0915A02B0915B0278
:105620003091570220E4230F2D3728F023EC230F6D
:105630000196A11DB11D20935702809358029093AB
:105640005902A0935A02B0935B0280915302909149
:105650005402A0915502B09156020196A11DB11DB0
:105660008093530290935402A0935502B093560234
:10567000BF91AF919F918F913F912F910F900FBE4E
:105680000F901F9018951F920F920FB60F92112432
:105690002F933F934F935F936F937F938F939F933A
:1056A000AF93BF93EF93FF938CE592E00E94512A52
:1056B000FF91EF91BF91AF919F918F917F916F91EA
:1056C0005F914F913F912F910F900FBE0F901F90C0
:1056D00018951F920F920FB60F9211242F938F934C
:1056E0009F93EF93FF93E0916C02F0916D028081A4
:1056F000E0917202F091730282FD1BC09081809153
:1057000075028F5F8F7320917602821741F0E091CE
:105710007502F0E0E45AFD4F958F80937502FF917A
:10572000EF919F918F912F910F900FBE0F901F902F
:1057300018958081F4CF1F920F920FB60F9211240B
:105740008F93EF93FF9380915202882389F0E09129
:105750001E0181E08E0F80931E01F0E0E95DFE4F97
:1057600080818093B30080915202815080935202D5
:10577000FF91EF918F910F900FBE0F901F90189592
:10578000CF93DF93CDB7DEB728970FB6F894DEBF7F
:105790000FBECDBF8091F20080618EBB80E8809308
:1057A000F2009EB39093F2008093610091E0909399
:1057B00061009091F2009F799EBB8093F2009EB3AE
:1057C0009093F2009091F2009B7F9EBB8093F20039
:1057D0009EB39093F20080936100109261007894E0
:1057E00084B5826084BD84B5816084BD85B58260E6
:1057F00085BD85B5816085BD80916E008160809397
:105800006E001092810080918100826080938100FF
:10581000809181008160809381008091800081600F
:10582000809380008091B10084608093B10080916A
:10583000B00081608093B00080919100826080937D
:1058400091008091910081608093910080919000FF
:1058500081608093900080917A00846080937A00C8
:1058600080917A008D7F80937A0080917A008E7F7C
:1058700080937A0080917A00806880937A001092F9
:10588000C1008FEF80936600A2E1B1E060E83FEFD6
:1058900073E04D91842F90E0FC01E455FF4F24917B
:1058A00080579F4FFC018491443009F012C37093DC
:1058B000A0008823C9F090E0880F991FFC01EC57E5
:1058C000FF4F45915491FC01E858FF4F0591149109
:1058D0009FB7F894FA018081209582238083F80194
:1058E0008081822380839FBFF1E0A831BF0789F6C2
:1058F000E7EBF0E02491EBE9F0E08491882399F064
:1059000090E0880F991FFC01EC57FF4FA591B491CF
:10591000FC01E858FF4F859194918FB7F894EC9172
:10592000E22BEC938FBFF89480918100877E886092
:1059300080938100809180008C7F80938000809193
:105940008100887F81608093810080916F008260F8
:1059500080936F0080E991E09093890080938800A4
:105960008091B6008F798093B6008091B0008360FB
:105970008093B0008091B100877F8093B1008091C7
:10598000B0008F7B80688093B0008091B0008F7CE6
:105990008093B0008091B100887F81608093B100D6
:1059A00080E88093B30014BC15BC16BC8FEF87BD94
:1059B00084B5826084BD85B5856085BD10926E001A
:1059C00080917A00887F80937A0080917A00876046
:1059D00080937A0080E480937C0080917A008064D8
:1059E00080937A0078945AE1652E51E0752E552403
:1059F000539460E0E62E60E0F62ECC24CA94D12CBD
:105A000008EB1BE0ECE8AE2EE8E0BE2EFBEA8F2EA2
:105A1000F3E09F2E809152028F3F09F4D5C110927E
:105A200051021092500220914E0230914F022115E6
:105A3000310539F180914D02845E80934D0287FFDC
:105A400013C040914B0250914C028F7780934D02CE
:105A50004F5F5F4F50934C0240934B0221503109EE
:105A600030934F0220934E02E0914B02F0914C0292
:105A7000E956F84BE491E058FF0BF0935102E093A4
:105A800050022091490230914A022115310569F1F5
:105A900080914802845E8093480287FF13C0409142
:105AA0004602509147028F77809348024F5F5F4FC5
:105AB00050934702409346022150310930934A02E5
:105AC00020934902E0914602F0914702E55FF04CD5
:105AD000E491E058FF0B8091500290915102E80F41
:105AE000F91FF0935102E09350022091440230914B
:105AF00045022115310569F180914302845E80934E
:105B0000430287FF13C040914102509142028F77B8
:105B1000809343024F5F5F4F509342024093410294
:105B2000215031093093450220934402E091410213
:105B3000F0914202ED5AFC4CE491E058FF0B809149
:105B4000500290915102E80FF91FF0935102E09337
:105B5000500220913F02309140022115310569F138
:105B600080913E02845E80933E0287FF13C0409185
:105B70003C0250913D028F7780933E024F5F5F4F12
:105B800050933D0240933C02215031093093400232
:105B900020933F02E0913C02F0913D02E556F84D22
:105BA000E491E058FF0B8091500290915102E80F70
:105BB000F91FF0935102E093500220913A02309184
:105BC0003B022115310569F180913902845E809391
:105BD000390287FF13C040913702509138028F7706
:105BE000809339024F5F5F4F5093380240933702E2
:105BF0002150310930933B0220933A02E091370261
:105C0000F0913802E051FC4DE491E058FF0B809197
:105C1000500290915102E80FF91FF0935102E09366
:105C2000500220913502309136022115310569F17B
:105C300080913402845E8093340287FF13C04091C8
:105C40003202509133028F77809334024F5F5F4F5F
:105C5000509333024093320221503109309336027F
:105C600020933502E0913202F0913302E85CF74E66
:105C7000E491E058FF0B8091500290915102E80F9F
:105C8000F91FF0935102E0935002209130023091BD
:105C900031022115310569F180912F02845E8093D4
:105CA0002F0287FF13C040912D0250912E028F7753
:105CB00080932F024F5F5F4F50932E0240932D022F
:105CC000215031093093310220933002E0912D02AE
:105CD000F0912E02E058F34FE491E058FF0B8091D1
:105CE000500290915102E80FF91FF0935102E09396
:105CF000500220912B0230912C022115310569F1BF
:105D000080912A02845E80932A0287FF13C040910B
:105D10002802509129028F7780932A024F5F5F4FAC
:105D200050932902409328022150310930932C02CC
:105D300020932B02E0912802F0912902E853FF4FB3
:105D4000E491E058FF0B8091500290915102E80FCE
:105D5000F91FF0935102E09350028091500290910C
:105D600051029C01359527953093510220935002A2
:105D70001A9908C0959587959595879590935102A6
:105D800080935002809150029091510280589F4F11
:105D90008F3F910511F00CF0B0C0909351028093A9
:105DA0005002F89480912702E82FF0E0E95DFE4F61
:105DB0009091500290838F5F8093270280915202CE
:105DC0008F5F8093520278949E012F5F3F4FAFE127
:105DD000B1E062E171E0FB014191BF014E3008F496
:105DE00091C086B190E04E5002C0959587954A9536
:105DF000E2F7817090E011F09C919525F901919363
:105E00009F018D936616770631F78981882341F0CB
:105E100010924C0210924B0210934F0200934E02CC
:105E20008A81882341F01092470210924602B09274
:105E30004A02A09249028B81882341F010923802D5
:105E40001092370290923B0280923A028C81882312
:105E500041F01092330210923202109336020093F6
:105E600035028D81882341F010923D0210923C0250
:105E70001093400200933F028E81882341F01092DC
:105E800042021092410210934502009344028F8116
:105E9000882341F0109229021092280210932C02BC
:105EA00000932B028885882341F010922E021092D5
:105EB0002D021093310200933002E114F10409F431
:105EC000A9CD0E943D2A882309F4A4CD0E94000098
:105ED000A1CD9AEE940F923018F434BF34BFE9CCC0
:105EE000493109F0E6CC9091F00092609EBB60933E
:105EF000F0009EB39093F000DCCCD0925102C0929F
:105F000050024FCF483020F083B190E048506CCF22
:105F100089B190E069CFECE5F2E01382128288EE5D
:105F200093E0A0E0B0E084839583A683B78384E008
:105F300091E09183808385EC90E09587848784EC61
:105F400090E09787868780EC90E0918B808B81EC46
:105F500090E0938B828B82EC90E0958B848B86EC27
:105F600090E0978B868B118E128E138E148E08956F
:105F7000EE0FFF1F0590F491E02D0994F894FFCFE8
:105F800000000000732AD329002AC02A312A0F2AD0
:0E5F9000232A02030405060708090D0A000073
:00000001FF
