:100000000C94B02C0C94D82C0C94D82C0C94D82C88
:100010000C94D82C0C94D82C0C94D82C0C94D82C50
:100020000C94D82C0C94D82C0C94D82C0C94A62E70
:100030000C94D82C0C94D82C0C94D82C0C94D82C30
:100040000C94042E0C94D82C0C94742E0C944E2EDC
:100050000C94D82C0C94D82C0C94D82C0C94D82C10
:100060000C94D82C0C94D82C0000000025002800FB
:100070002B0000000000240027002A0004040404D0
:100080000404040402020202020203030303030342
:10009000010204081020408001020408102001021F
:1000A000040810208080808079B6BF50837B65A0D3
:1000B0001FD09E590FA97A5D8080494F8C3862838A
:1000C0004A5D89B2BA83835081C1C2A1663C6D7515
:1000D000CDBEA4488972708790988E7C89748FA653
:1000E0009B8660B5526E77C7A564A195705085DC7C
:1000F00097AB965C0120D190AE99BE21497390894F
:100100007BC69E76837C7F86AB636B59359892BFA6
:100110009CB95F809488798A778082A4AA71716A79
:100120008B3D637C78888C919B5B7E9FB36290BC97
:10013000684F8DAE75977D8A7744A5AC6E6B9B9B9F
:100140004D86428E609F8E7A485D7A6B9C94965C59
:10015000847B8672A29598797697874D8AA3924977
:100160006CC1796D8CBC463C6290617994A24C67FD
:10017000B8897177745793B8827D5E8E8664733EBA
:100180008177AE698FB35A5665915A6C7A859A6CAD
:10019000AF737F5F5476507187AC94905F7C905AB8
:1001A0003C7A98804BB5987093B9813772918B7077
:1001B00069878385A0A9A45C9A65895E7C8082B3E7
:1001C0007E8DA2A29B67638EA32B77A56E96ACBD96
:1001D0004F536E83385CAEA58C8BAC664297907E95
:1001E00075BE72716972796E9FA09C7F92787A8BCE
:1001F0007453827A7B8FC29B75809671465C854D65
:10020000A2918F8BAD8D427772903A87985D76B0D0
:10021000B58E548C735D42966E68A1A29E628299DF
:100220009056827E7E788786827E8971A38E7362E5
:100230006F937C8080AA6D48AC8A876CB79C328BA8
:10024000947F5CA4A6978888906274A8815777935E
:10025000659A969E64809F667A8B81437ECC969544
:100260008D8C6C448683705DA382839D867A7591A4
:1002700074719A5C7689A68770938E6556A98A6494
:1002800092A57B5B5EB5624EACC95F6B7975767388
:100290009E665C7C88927C878B7E7C8672669C8165
:1002A0009764B8AD735F9B92656CA5A54F84C883B6
:1002B0005A95AC6A5EA15B5576B4A47E999B6A841C
:1002C0007867459797968A978B3F89B87C53829138
:1002D0004761B1A4777BB667696D916890AB796D22
:1002E00085757196BA625E649D6E63A5945F62B80F
:1002F0007D6A8CA1867F758F507F6C8F8E7B8196F7
:1003000075738F6C566971667EBD8D8D737C883F69
:10031000A9966B4B8E897C7AB08B665299524B7A38
:10032000AEA16284746C5ABA9A725C856D5A9B9ABB
:1003300076A08F6F50947C7197A09C5B9A935C59C8
:1003400077885B69B0B2716C934A607FA99A8EA975
:1003500064708B786B75A37A7E8A8E7477967A77C1
:100360005077967294A88E6B5AA6827D83856277A9
:10037000736CAE7E8DB67D755E61617E907A938979
:10038000904BA589625F85AD7976A8975F69C07744
:100390005C7B8F9051A3898776958C7D778C5F7776
:1003A000B3956D7481715A939F63909A954E758839
:1003B00088777EA0887F7A719A7C867A776D489B51
:1003C0009B967EA37F5961759D6277A581926D8F03
:1003D0008874737385797B85A69F688092756D8715
:1003E0007D65898291797C707193778489867C6A36
:1003F000A782885C7C948B7283A24C709A8A8469F1
:100400008A73699D80916A8B72918E696884A368F2
:10041000798A8F7B66B98057628E905493A98569DB
:100420007B9A7C6C74769085898BA35E6F9E8F69B6
:10043000728E7E6986A07B71908E6B786E916D88CE
:1004400082887E7E9278A5828A638697678A879063
:100450006F5E8C89957F8B877C6D74A4876E8E9A76
:100460006F5F8A8D7D5D9E99557F8DB06F88957B7E
:10047000646F9F8079757082788E678FA4687C7AAC
:100480007F717DA47C747991836F976E9D797C7761
:100490008E93817A8874538592857685A86E62954D
:1004A000A8726AAB7D6771868782858F787F7E6E42
:1004B0007EA07F79827B6A4F9A9C7462978F607767
:1004C0009C78747A877872788F906F8D80A3636838
:1004D0007E79807A998E7080778A6F888D7F867416
:1004E000747B889187839370416FA981849C986005
:1004F000647E976E70918F8068838684887CA56403
:100500004F81B4904797AA706185A451549E9A7AFE
:1005100068A78B5C6484856B8A9683688A927588E9
:100520007B7D8F976D487C97A5907E7D5E607CACCF
:10053000856F6E8B865C7F9C84708791746E7694D9
:10054000936287846D6AA59275896F7C7C997A8A9B
:10055000956479878079709F8D7774868A6D83859D
:10056000907C63828C988176826B6569AC88887593
:1005700091855E7C917D6E9C8D625F7C9C88898D6F
:10058000646F7C84928A8A806E83836B899A70837D
:100590005C9B7F6F8997A868718C716587A6836162
:1005A000769795708A81755A8FA87375859D6A6450
:1005B0009A837C7F987076737EA6898F56737A6A49
:1005C0008F99AA7F856F656C81B3789577686F7E08
:1005D0008D7E939F83646A97777DAD906E5FA794BD
:1005E0006A77A185478AA879738CA072848E745F1C
:1005F0006BA28D8568837B7F9E6F8E728C8F6885E2
:1006000071767BA47B79707DA06784978B5C7B9BE4
:1006100080617F93826E8D7A8188748072918176F9
:100620007E81897691806F739F98578982746D98C7
:100630009367717D8C748797628B747A86948176C8
:100640009C7E7758809875919191576A9E7E7F6FB6
:100650009D76628C8E7D69916F65727A9A798F7DB5
:100660007F696F8D7D8F8789855987787B96818299
:1006700063948E7E66859865737FA06189AB8A825C
:10068000668767669B928672946F878A7F7A6D868B
:10069000659893747C74AD8064857B86729789734A
:1006A0007F8D93707F8060797F996A9286747B8E4C
:1006B000935E8E96777771A068708E7A876D93714E
:1006C000926B8E8A6B7178997E7C78849075967B1C
:1006D0007B79849164637F8A779E907D8773676955
:1006E00084A16795996F6B97B75273858C8078A0BA
:1006F0007675888F7A5E887E89708F865EAA677F1E
:100700007E8A8469B887607880806DB282795C82E5
:100710008C8892717D718B7F8B97767B748E7B57E3
:1007200094A0895E96886977978365769B768775AE
:100730009180847C5D977B8A748D7763A7927D70AE
:1007400072AE7481717961929F83816C8E678A9A8F
:10075000677D8F8D5C729B7974989B4F717B977BC3
:100760007D906A6D8485918B81698287698687A176
:1007700061628D937574B0816A90808B5F92907C7A
:100780007B7A747FA582829061627AA787689A8B50
:1007900074629B737968ADA9567371978896A2525B
:1007A000776E7088969C5D99746D6E999067768669
:1007B00080767F9B74827989935E8B8D9277697046
:1007C0008E8B888A776E5084BA7C7D77AC6A6E791E
:1007D000776F8DA48D8D77638C8D79829381528B09
:1007E00087A0658F925F567C96898A9E707A648B0B
:1007F000797A9E7881858B557EA08F6180946E700A
:10080000A5796359B59A8483666F6B9B8884757BE1
:100810007E7A95716094A478538D7F7F78A39951E7
:100820006EA2856A5E9B8981757F84678894A064C7
:10083000799C81585C939C79A27D725A8C8E8F6BC7
:100840007E906B97855E8698836E9187626592A194
:10085000589D877C7482766296A772838780629C9B
:1008600097786D848C588DA1956280A2724586AA76
:100870008156B9826471997D6F947E867385748583
:1008800097776D7C7F7E7BA0797D7597806F70A454
:100890009872767D76879595816B6A6F9C837C795B
:1008A0009C756B8781779294785A8C79828B9D7036
:1008B00067A175626A9C87717D8F6D6895B55E666C
:1008C0007C996D86977D6F889E726D81718D957B09
:1008D0007474A062859077559C9F7E6C9391596546
:1008E000A282708DA8875E7E7B716EA380707F9FD1
:1008F00069689A956F89787D638D919B7E65898300
:10090000896E81837680A57C6466A38A7A839D64E0
:100910005F84A97E6C90886E6D828471A09F5F79E0
:100920007D7E5FAD8B7878906C748F8C76887A83BF
:1009300073838B79837589668A7E887A89886F76D6
:10094000A5766B90A55468938D7C8E9C6C67908D7A
:100950007D7B79696C9A85837E94747B7B876E87B7
:1009600093966D768F8A5F90958B6B718F6781827E
:10097000A67E716B90856B839D7C85718B6685955A
:1009800095716390707B948C84667E897681878F65
:10099000718B757B7092857D6E8D86747E946B8B6A
:1009A00081738D7B7787B56C687099717696926D3F
:1009B0006C988D4D8A8A9B64749F696A86B0607753
:1009C0008D79828D94756E926A8780967380917A04
:1009D0006B6A8A9388927F7C6C768F79877B887329
:1009E000907980807D817B79867899857D63867614
:1009F000828474A97D7E6E8E7A697CA1885975A1E6
:100A000083887093667888767D74908E807E7F78F8
:100A10007D837B7C8B757C6FA580748D8C6C68ABC3
:100A2000944C82858C6D8989737692A2557D7F86E0
:100A30007C899A6465909B7958AE6C7588B36264C2
:100A4000A0867259A69466788D9662709D7D7276A6
:100A5000B27B6E6491867C8C857574719B82758384
:100A60008B866A847F8474957D848263848C808481
:100A7000718F618B8E8C74677F819D878065869A6C
:100A8000698F8382736DA4736F74B4765D7BA0806D
:100A900062AA905E7894945076A4858372866D974E
:100AA000828379767E7F94935D7985AE6865918245
:100AB0007B68A685657FA5805C8D8E6C767C9A753B
:100AC0008A6D977A7A90847F6B89738D837E86771F
:100AD000A46D718D708667A477798086907B717F15
:100AE00085776DA37F81767B99698C748B877090F5
:100AF0009569608BB57D66779558769C9F6E5FA8EB
:100B000086606B989773798E7B589CA563896E92EB
:100B10006182857A8C828E6868829495738F806BEF
:100B20008E86824C95AE8260708C8376997F7C60D5
:100B30008B9379707C937F90727F7478908A7472B3
:100B400076958A7871A17471629F7B6394869267AF
:100B50008D92727D6A889382907E89618D6E898183
:100B60006A858E8B7F71806C8494986D638F838B84
:100B70007B77758985867F6B738497A4616E5F939D
:100B80008992897A9457878F7877849B676C778767
:100B90009F718986865C7A88748B8CAA6B57938D3B
:100BA000857C7E757B86889179787E867A6E708A60
:100BB0008E94837A6F827D9A877E84747D799A85FC
:100BC0007A88746A809E79729580805BA582687944
:100BD0008F935D8390857470A17A59828F94758DFF
:100BE000797C6E9784797274928F7D69748F7C861C
:100BF0008C6E6E7A9B8D775D8D9B87806E877E77FE
:100C00009B7A8069998D737B6C88868B737D7B7CE6
:100C10008D6F7F8F868D7C7E6591908D6A788B75C8
:100C20008B8F7A7072938589726D8C908C708B7FAC
:100C30006D7499936A7F8F8C7E5F977B748BA0779E
:100C400053897F7F8B908E6C7680837E788F7995A9
:100C5000717A7F8488768380817A7A898787847F96
:100C6000747971859D7C78768B7C787D8877829885
:100C70008B63788293797D797D86898F7D7A737F86
:100C80009B886C7B8A7F628F89967189816178925B
:100C900090747C897385818E738F966B656E8D746D
:100CA000A192736B8094756F897E7F7F9970748435
:100CB0008B7B7E7A6D80837F7D81997D6893887739
:100CC0006C9383767D8985787E87847271847D8D2F
:100CD000778C9163798392707D87896D78A1896B18
:100CE000748B8071957E707A8A8B758D796E889DF4
:100CF000795F828F7C808383658598826C82848013
:100D00008386738287847483926A759C95648494C5
:100D100083577FA17A6C978B626FAA87776F9376E0
:100D20007B81758C7B947D7987746C948974768FC4
:100D3000827B7F9A7C6D8081817F807F6E8F8284B1
:100D40008E74727F927F76728F7C7D8B897974929C
:100D50008172876C89828A7A8195786F7D9F6777A7
:100D600095897C779F835986868C70898E7E798D54
:100D700083827B72798F7C7987928C5D94886F698E
:100D800090996875A37F657C967A7787926A899334
:100D90007679848D79797F846985A37D7084838752
:100DA000649A7281758C8C6F7A8A8C7871868B824A
:100DB0006D899066788B9B6E7B7D816B7F8B8F744A
:100DC00092757D787B7E87827E7F7F8F68828D841F
:100DD0006D7D9175699584807590797375967C8425
:100DE000986B6B85847C739787767A8D6F5AA29304
:100DF000876087886F8590786F819A767C7B83780F
:100E00008F8470897B85748495717891837D7890C7
:100E100079816896857E75809074807D8E757898CE
:100E2000896D758E8B6F8283876788967D7C8B7CBE
:100E30006C81817E938779647C96768687866F80C5
:100E40008682728E977F77806E827D967673947697
:100E5000828B8C5F769983677BA4795DA18B7664A6
:100E600096816A739E886F8A877C728188788E7B70
:100E70007A887D89698B818372967F699380818A64
:100E8000758977897884847F7E789272718B8E865B
:100E900071818477878194697D7E897990846B8B59
:100EA000837B8783856F818B78739A8E65807F8A39
:100EB00066908F7D72808B77769D7B8770847A8039
:100EC0009474817A95687C8E727A8E837A6B99801D
:100ED0008172957D6F88807E8183847F85787D8A0D
:100EE0008A81738881846892777F7C87827F7D7E08
:100EF00087767682779D7C7C8F717175A7757C82F1
:100F000089776C928C6D828498678180748C7788E5
:100F10008170848A828481767590748379937280DB
:100F200082867D817C7D7B7E85848C7A73917D73C6
:100F3000807F8F6B957B826E8096837A7E7B8173B8
:100F4000938186798383788A6D848B857A7E7E7A95
:100F50007C9680817088738786877C7D7C7C848783
:100F600080807C867C76888A7D728D78856E93827F
:100F70007A808B806F7C947F8274867B8083868965
:100F80006F8778877B7C87837F807484798A74926B
:100F90007E78768988788288886D788A837A82904C
:100FA000806691877D6E92777F787F817E94827351
:100FB0008879817B8D7A6C82838C718B7A82738144
:100FC0008A7A778984817A87778386837A7E7C7729
:100FD0008B8B827F868671788E7F8175917B8772FD
:100FE0008F85797A8985767D7F83857F88826F80FA
:100FF000838B788374807F86837C7E8D7A84817FE7
:101000006D8D8A7978818A758480886F8389837BE6
:1010100080817F7A8A7D8C75837B7D8B827E7E82C8
:101020007B788B84787C938867817D8671908F7CB8
:1010300067838B817E847C7D758187847F83807DBF
:10104000847B867F807488847E7C857A8F73887C9D
:101050007F76888E7D7E748F7B7C8B7B747D88878A
:101060007C867090838B76817F847A8283796D8E83
:10107000917C7B838875798B8E68898B8771818160
:101080008379867D83728586858581787C7E788468
:1010900081887876928379817E886A8D8488707C55
:1010A0008C857781817C768C897C7288827586813B
:1010B0007F7C8A808079887283888C697C91816D3D
:1010C0008B887B7384927771878D727D8A81798218
:1010D0008489748672867A8782848776748D827218
:1010E0007F8B7D78848D856A877F877A807A8384F9
:1010F000887D8277798089857A788A7A7989817EF4
:101100007B7E7E8477857F887B857F896F78828FE1
:101110007A7C8B7C757D8F8569838F807D83806FE2
:101120008782877A82847C818C757A818D757E84B2
:10113000827981937F747B8D737A88827E867F81AA
:101140007E817A858083738589777A9189737D8A98
:1011500076777F8F8C71887D7E7B8B7C7D84867B90
:101160007D7F807A8A887B718A847987847D758285
:10117000888B718080877D7D808A78807F846F8076
:101180008E857C768C7F76818A7A78838579868154
:101190008D79817A797C8D847D89856D8381807755
:1011A000888F757A7A8E7A8A857F74817B83857F32
:1011B0007E867D887480898176878B727B828A7730
:1011C000808A7C71858581798C76857E837E7A8420
:1011D0007D808580827885857C7C81887883848702
:1011E000727A828281817F84767D878B787F838506
:1011F000747C8D7D81828A7978828382837E7D7BF7
:10120000867A827E887E7B857E76838881767E83E1
:10121000817E7F827A86818179827B818C81747FD5
:101220008B7F7887827C779283727E8884748681B4
:101230007E7C82847B7E837C858188768281797EB8
:1012400083877E7F877C7F7F877F7B7F7A897C8493
:101250007D897B7C84857A77898579848183728492
:10126000887E7B818C76827E8277868C737D847E7D
:10127000807E8F767C84847780897B7C80817D7C76
:1012800086847A817D827A867E8084827A7E887D59
:101290007781877C7691857B79887E758B7D857B50
:1012A00088827C7F7E7F7B86837B867A827B868634
:1012B0007A837C7F7B7F8680817F7C8283807D892F
:1012C000817C7C888279828C7A7682877A7F898316
:1012D000777D897D807E867981877D7C7D867A8019
:1012E000887E807C90747C857F82788A7B7D8281F9
:1012F000817B817F7F8A7A7C83857780877E7C81F2
:10130000887F7884897D797F827A83867F797E7FE2
:10131000837E857C7886807C8482817984807E7FD0
:10132000808979847D817F7F837B867E7D857F84B4
:101330007885827D7F8588777D84817B8387807AAD
:1013400082827F7E82817F7F7F7F82807E82837E9A
:101350007D7E847F7F8281807C817F827C8384808C
:101360007F7C837F81818086768284807D7D887C7E
:101370007C7F87807D847E7D7F84817F827D83806A
:10138000817F7D80847D7E837E7F83837D7B81875B
:10139000807E80807E818182817C7F82807E7E864D
:1013A0007F807D84827B837F827D81817F7F7D843E
:1013B0007E7E8080827D827F837E7F81807F7D8133
:1013C000827F7F817E7E818181827E7E8083807F1D
:1013D00080807D7F83837B7E85817E80807F7E7F12
:1013E000867D7E8281807E827F7F817F807E847EFB
:1013F0008080827E7D857C7E8282827E7F80817FEE
:1014000082817E808082807F7F82808180808180D7
:101410007E81807F7F82807E818080808080807FCF
:101420007F7F81807F80837E8082817F7F7F8081BC
:101430008081817F807F81807F817F8180807F82AA
:101440007F7E81827F7E83827D8180807F8082819A
:101450007E8181808180807F8180807F817F80818B
:10146000817F7F81807F808180808180808080807B
:101470008080718D957D6F7182917676795E769C94
:101480009F767C7F907488B2568C5763C16843D531
:101490007553C2A87D3D29ABE89C4D1535C5E3CAFF
:1014A000AB8248211C40445AE6F6FFC69D691C13D6
:1014B0007989438982A6A3BC999C4E4E935C845A39
:1014C0008A60BE98D19B293A72C29DD086984510F9
:1014D00052799BC787BE8F675E61913788A4BC85B0
:1014E000677170399282B2EEBAA752361D2990C345
:1014F000CCA068BDA7713D5E62606D978BC8D6A712
:101500005C2248C78555B7526997B595AC356B864F
:10151000554CC3BA6888627F6D6792986869B9A3B1
:101520005197838F6B553C6967B4B9DA92AF544DCC
:1015300085465E598094AA59EC8378775C446D4E59
:101540006B76EACA91B56B5A665D54847AABD297D2
:101550008A862D4E63527C9277B2A975579370A2FA
:1015600072265682A98FA774BC404C7075BBCDA261
:101570007B8E405C7B7D49A9D39E9434A85E879383
:10158000629677696BA266935BA1A3988AA776405F
:10159000715B947F6F759167A5BCAB805A2C7E946C
:1015A00055B0A761B8725DC6A258785573897CD6CC
:1015B0005772719F8088A1898D5067888999926A36
:1015C00092874AC471719F67749C6E71A66D936D0A
:1015D0006570C06BA76E4872787693907E7F9D97FA
:1015E000628E60937E786B7774A17C9B73807C5B4A
:1015F000727F908968767D9588887C5B727B858C0C
:10160000895DA39676716A69677C8EA7866E7D6C0C
:101610007F8E6C658A649C94AC8C88615C7E656E00
:1016200090697FC07A918A6454888B7F7888819989
:101630007A778D717B8882818382778588728B71BE
:10164000788E8D8885697C82607B7E9B7798768991
:10165000A66C896481659E6E9E99727E837F72916D
:1016600070A08C7F8886699B7C6C6D7B9895948438
:101670007668677A8F8084708B9E907E6B828557A8
:10168000998890957E85A46E8E7562886A7F6BA717
:10169000938392677B4B86809D8C92887D707F714F
:1016A0007B9866978C7B9C8F72807E6A8188715351
:1016B000A178AF69885F935C6F9D7FA37EA55C8EE8
:1016C00072836D78728D9A7D92817C677A7A618659
:1016D0007A84966A818A846D83789373888A8084F9
:1016E0008B8479886C887E916E758B8A82856B94E9
:1016F000648B96657F7F858E85726F769E6E927104
:101700008B90677C7B8988856E866E8B9297818DA6
:101710007E8B7E56795EB46C79B75E9269837C82EB
:10172000727A7D757F968B86A9558F637D7AAA889C
:101730007F8967966E8571AB6B8E5D918A7C7F60C9
:101740008D668D7EA261978B87847583757D6B888E
:10175000948C857868867D6494766D8D589A7E87A2
:101760007E7C7A798E905E93848E956B957C717970
:101770008B729A678B6F8C6D837C889B8384649457
:101780006D896497738981826C7772A1678E897085
:101790008C85807D7F6E7B8E876B9F7C89856B952A
:1017A000897E9279836E937D867F6D7A826E7B8649
:1017B0006E9499648F7583917785778875807B8D1A
:1017C000718975907F628F6B906D9A738989777537
:1017D0008574888D6B9D7C8B7586857E917A7E8DD8
:1017E0006D9D887483688B828E778E817971856216
:1017F0008F786D8D7683717F77967D89708F747009
:1018000082808686897F817F808292628A768674D2
:1018100087809B737A7E6B8B737F5E9D6D887F90D4
:10182000697A7D7B7F819D699170978B698B5D84DF
:101830007381918377A0797C786794669B78847BA9
:1018400083867E88867A7D81828874768F7B8B8181
:101850007E867A7B7D989A90768F788F779984713F
:10186000828476858098828177719A7B87827C805A
:101870007976987D877E70876E947D78947A96705D
:1018800088966E7D876287937A8F638372867C7B6E
:10189000787E7A8E8A6E7781888D8178787770925B
:1018A0009264887E747A8F72967D6E787D7C768F56
:1018B000639E76698E746D8D8989877C828A906B30
:1018C00088767D848E7B8C6A89808B816E9473751B
:1018D000839378816E81807F83827E76996D838009
:1018E0006E758A7A7A9D639C838D857678858178FA
:1018F0008C8975809666A071798D6D7A76837A7DF4
:101900009F868095668870769F7B8A7F79827E86A7
:101910008D7E875F978C877E75888C79868A7F6CB1
:1019200084837294758F6A976C976A7E8F817C87A7
:10193000827290688D5F9D5C9C748D87787B8878BF
:10194000738E858A6093668E768B8D707C946A8A9E
:101950006B807C848268A17884907869A8648B6E9F
:10196000887B8C817399687E7E8A6D9C7183847A72
:101970006E8D826F8D7B827D966AAB6D7A73827479
:101980008D807D9A768B768D4DA8648C9172917343
:101990007D7196728D75856BAA7D6E9D53A378704F
:1019A00093737E7B9A7776787D68A4659B8D60962D
:1019B0006F84857C828C838277917D8A7E727B8F17
:1019C00072977E7D79807A75887C8C8C7A7A927811
:1019D00081847291727E8B829373AC687D817B89E6
:1019E0007F6D7E9872867B94757F7970906A968100
:1019F0007F848075798668876692778E718E708312
:101A00007B8B7371956C946D927786708A888966EA
:101A100086748D777B8C737984847E8A818968A4AF
:101A200052927F657B8A6E8F787F7E9481749D62EF
:101A300081897B838C7D94718970947188877F8480
:101A4000727C8480848A7990718B7B846B767A8BAC
:101A50008E9079876D83838088717783797E8E8D70
:101A60007D897F6D91767F8982738D6F757F84828A
:101A70008785779B618B7F8883738E7F7F7E767C63
:101A8000877B7E907A8C6F886E8479749C7C8C7650
:101A9000916E8B748C8272828680907C6A887C893D
:101AA0007A886C83758E91986C8768718672A56A46
:101AB000956D97689077798C797E898B6DAA648E05
:101AC000817D817579818F778983748E7F7A8798FC
:101AD0007977867B8A7F8B6F9371808487837690FA
:101AE0006EA26E89748F73808F7B847A84759A6CF2
:101AF00091767D7B89838D777483886C90747896DA
:101B00006B9483847D8862876C897D897A937B85D9
:101B100083727C7C7482947CA271797777649A6DED
:101B2000888B7C8C816478816B9785887C84599ABA
:101B3000788084817A84768F81838263847A8B89AA
:101B400070976E7C8D7A9E6D7E778E7A96748D718D
:101B5000877F7B8F5D9C759671817677778E817B91
:101B6000915E8C7D7E8386868474747E7C7F878B79
:101B700068956F7E8775888E637B8D75A47A777B79
:101B8000816F80827895907CA06C787787718C7358
:101B90008780848B7394648D83916C876C8181833F
:101BA000847C867292747C8A77808B7A7A87727A48
:101BB0007D877D9B808183707E7D787B9C73917D0A
:101BC000718A836C8F88678F70957E8B6B86807926
:101BD00075828A769B7C926A876B91848095807AE5
:101BE000808968926C7A8D7C81957F6B8F70828101
:101BF000827693836E966B79826D8D9B69888970EE
:101C000087868573847282A26C988A767E7F6F8BBA
:101C10008074908D8D70906F84877C7D85797A8CAF
:101C2000847D74847691717C777F7A8E808C7B78CA
:101C300087857D75858283828781886883857D8796
:101C4000848185867D7D7F776D93748A947A7B8588
:101C50006F907B81828391667F6A8B8088748E739C
:101C6000867C8F6D728C6E966982778F7E977A787C
:101C700080867C8287658F6A8A8C847D8C707C8666
:101C8000689573837D867C8C8B78808084798C7357
:101C90008883718A7F7F7F7F6B82828285807C745C
:101CA000887E8879797F8283888283857877857931
:101CB0007A828585937B85827D7D72878888827A0A
:101CC000778E698C897A878588788276847C7D6B2B
:101CD000A181888679777B8A76896E8189927986D7
:101CE000887483747E8A8478997E8A7777798576FA
:101CF0008592827E84737D8F758A807E7787817CD2
:101D0000947270916A7A8B7B90956F7F7B7D7B83D9
:101D100076789B738985777D8374867877898975D2
:101D2000857C777B777886878D8A85727A8A7382BD
:101D30007C76808E86868D737A8274827A7E8083AA
:101D4000778A807E76857582787B92828580827C98
:101D50007C74817B9076977872747F7A84857D8796
:101D6000857F8885777D768081838D79888978885D
:101D70007279857F768B7D8285807A7F7084898871
:101D80007B877F85847983917D848370938470843D
:101D9000816F897B7B898272917F728B77758E814F
:101DA000778F7D887E76758A797F86868C80818024
:101DB0007C76758584887E85828F727F77817F8728
:101DC0007D7E8C797D8C8B79847085807D798F8AFE
:101DD0007585807E7B7D87827C7F7D867A83887A0D
:101DE00081818577788987827E857D78718C8379FA
:101DF0007887848B7D778C7A83818482826E7C8DD8
:101E00007A7D86768185688E85768C818792786FDB
:101E1000897D7B80787787797D8381837E828187C6
:101E2000727C898F7A74827D8777818B7D778E7EB5
:101E30007E887A7B898572827C84917985897770A6
:101E40007D768A7D8B848E816C7F82767F7682839D
:101E50007F83858582807A8683797A87758C798578
:101E60007D807883807F8879867A857F7A7C8D7F74
:101E7000828C827F7C707F8B70848A7788867E815B
:101E8000857F857C80728B7B848981757B887C8251
:101E90007B94888767807375878783947785996E2D
:101EA0007877767C867D858C81838E747B84738243
:101EB0008C70987B887E846F867B8183807F858B06
:101EC000709064747F917C977C81827F748370753D
:101ED0007C818D8F7A8282758E6D7F7A907C917DE8
:101EE0008A7E8876837879807691857979877D86F0
:101EF000718D7F7E768D7F846D82857A847F877EEB
:101F00008E728B7780758F7E84837C7482867B88CB
:101F100077937C80707C7D777A8E80788D86807ACE
:101F20007A77877784808681838A887A777F7A7ABE
:101F300089827788748E8270778B7E79878A7D77A5
:101F400085798A7376888B84898E70857680808483
:101F5000828C8C7E876E817A797A81818889788279
:101F60007E7D71867B8D8283808C77827579847D7E
:101F700080888B80827989788E65837580908D8446
:101F80008176747F7789798F75917B8D8275777B68
:101F90007589887F87787B79828082788D7F847746
:101FA0008D78856E8D8A7C867F807E826F976B8828
:101FB000809674866F83807C817B8074907F897427
:101FC0007C7D8F768B7E8A877D867C6E82807D8B02
:101FD00082847C83807D797281887C87867E8583FC
:101FE0007D7E7C7F7E84758A7180888788857D89E7
:101FF0007C768878777E8D7D877E878D817E7C79E3
:1020000076817C7F8A7B877F80817088807C817FDE
:10201000857E8085777A847D927A84787D84767ACD
:102020008389778E7C9B6988847D6D86797B8774B4
:10203000927F8B7893697C72857D87818881858387
:1020400083796D7A7B847E85847E768E7C877383AC
:102050008389768380737F798F7A8C7C8E7A806F88
:102060008471818A8F7B857D8A7F7A7F7E847E8B57
:102070007B8F6D8B797D77877B89867D8A807A7D62
:1020800083757A82897B868885838A7475717C7B67
:10209000977D8987857D7C7B797E7B888786748A1E
:1020A000847E76808083837C877D737B91817A7F39
:1020B000848777807C7978808E837A778C87858215
:1020C000836E7B79888E7A828B8180717C7B877529
:1020D0008C837D8588827A766D897598808C7880EE
:1020E00074837D7B758D8D83897982737D73857112
:1020F000907D8D7D8A787F7E797A797D8D8B8583C1
:10210000877E737D798173878A907791747D6A80E9
:10211000738F7A8A8E7C7E758A76867192738973C4
:10212000937B87857F7D7B7E73897992878077819A
:10213000817C7E8585857685887F7A84777E7B83A2
:102140008A837D787F7985867E807D87817B7A858D
:102150007B7F8887807A897F827F7D7A8981808270
:1021600085897F78827F74827D7A867B7F8C807D73
:1021700076887B847D80807A7C8086868873848064
:1021800080847D887C7886818076817C8B83837C4B
:10219000847A7F857981788B7F9277827A7F757F49
:1021A0007C7F858187818176887C8676807C82822F
:1021B00083897979857C7C7C8683887C867B827622
:1021C0007B7F8586769185857A8B7282727E80830D
:1021D0007E8D88808275777A78808B7C8080887805
:1021E000847F827D818484817B7F81837A7D7C87EB
:1021F00082877F7E7B7482847C7F837E8186818AD6
:102200007C817E857A8179828B837C7C79818679D9
:1022100085807A7D857886837D7F8E7B847A8181B7
:102220007A7C84827F827D8B817B79867F7F7787B2
:1022300084817E867F817D827E80737F8584868394
:10224000846E81778D7A847F857D837C8284808390
:102250007C7A77897E867E828081807C848281837D
:102260007D807E81818182837B81807986827E7E72
:10227000828085808279857D7B83827B847A857963
:1022800089787F83778080827D8779897F807A8C47
:102290007683878084807A857F7A7D8682797D8047
:1022A0009079777B8571827D8D8377838585728632
:1022B00080817E7B8486857C8981797D7C7E857E1C
:1022C000828983847881768087807D817C7F877E08
:1022D000817F8378808285817F817E777985838104
:1022E0007C82847E7A83847B867B83877B81827FEA
:1022F0007E7F807F837F7B79858A7E837C817E7DE4
:102300007A86807F7F848078797C878188827E83CB
:102310007B7D818081818483847B84837F79837AC0
:10232000827B80867D858286827777887A858482A3
:10233000767C8083887F7A86807C827F808082839F
:1023400088837C777E7F817F83837C7E83837E808E
:102350007D867E7A85827F847880847A7F82847D80
:10236000898481817A7A7E7C857F8880778A857F5F
:102370007D81847F807B7F8C7B87847C7E7D7D8656
:1023800077818084807E7F857D778B7E82797F7E5A
:102390008777888186778481798B76877C837F8332
:1023A0007682778C8082847D7D76847B807D828638
:1023B000857F867B7E7F7E827E807C838180868215
:1023C0007A7E78858280837B7A7E80818086828512
:1023D000837A817A7C7D808185847A80857E817C08
:1023E0007C807B81818285847D85827A80827A88E7
:1023F000817A7F807E7E8480807F807F86797D82E7
:102400008B797D7F7B83857A88827A8282857F83C0
:102410007881808379857A8A84827F7C7F718586C2
:1024200084798D7C847E807F81797A8080808089A8
:1024300086867E7D7D8077817F847C87867F857A96
:1024400081818680847B7C7C897E857E7F7D827D88
:102450008283797A82817B857B8683857D8776827C
:102460007F80827A848285807A7B857C8576887E6F
:102470007D81867B7E7D7E89847D7D847A85817E5B
:1024800081817A86837B7B837A8B7A7E7C7F7E8454
:102490007E7D867C877F837B8577867982887C7E3C
:1024A00081817D82818182817B8677828080818427
:1024B00082867A7D7D7D8A7E8280837C81827A7F1E
:1024C000807C867F79828282818079807A81828015
:1024D0007E8682898278817A807D857D88818481EB
:1024E0007F7A7D7E7D87828680847B8179837F82EF
:1024F000808282867B7F8677807D7F8284828083D4
:102500007B7C7E7C81808089867C847A81807A79DC
:102510008081828B7D887F7A79817B7D81888B80A9
:102520007F7D7C7D7D7D86847F84828282787F7FB3
:102530007E81847D88837E7D817B817B7A897F8497
:102540008584807D76817F7F7D868285817C82798E
:102550007F7B8480857D8681817E8081817F7B8376
:102560007B847F808186797F7F80807F807F857C70
:10257000817E7D82818082817F827F82807C808556
:102580007E7C8180867E817D827C7A868381817D4E
:10259000837E80817E827F7D81807F85807D7F8636
:1025A0007B828079847F7E84867B847E7F7E7D7B38
:1025B000857B83827C85827E80837B837B84827E15
:1025C0007C847D808479847D807E7E81857E80820E
:1025D00081827F7B7D857884867D7F807A8A7C7806
:1025E000837F847F807C887C8282807D837E8185DE
:1025F0007D7F7D8581807B817E8082817D84807FDF
:1026000082807A818080827E7E86837C7E7D8382CA
:1026100082818180837C8082797C838082847983BB
:10262000837D83837C82807B868180818280827AA5
:102630007F837A837E807E847D83807E8180828595
:102640007E7C837A84808181827D827F82807E838A
:10265000827E7C8180857F7E80807E7D847C84817B
:102660007E8180807E807C8480807F82808080806C
:10267000847C7B828081807E85807E7F827D837F5B
:102680008182837B80817D807C84827F7F837E8347
:102690007E7E7D817D828180887E7F7C817A857C43
:1026A00083837F8182817D8079827C8382837D8325
:1026B0007D7B847E7F827F7D857A8680817F817C21
:1026C0007D7F828381817C83787F7F847D8382810B
:1026D0007F7E7F80827F83817D7E837F827E817FFC
:1026E000817F8281807F80827F7F7D8280828083E4
:1026F0007E81807E847F7B83817F857F83807E7DDA
:1027000081817B7F827F828180847B837C80817FCB
:10271000808281817E80827C828083827F7E7F82B4
:102720007C8181817F808283837D827F7F7E807FA9
:10273000827F838281807E80807F807D80847F8491
:102740007D817D8180817F7C7F837F847E7D837D91
:1027500081817F7E8081827F817C807E81817F817B
:102760008181807F7D81807E80807F818080847E6A
:10277000807D807E7F817E82808180827F807D815E
:102780007F827F81817F8081807F837F80807F7E49
:10279000857D827F8080817F7F868080817E7C8432
:1027A0007D81828081808080837D80827F7E818028
:1027B000808180827E837D807F7E8480817E7F8118
:1027C000817D8081817D807F8081807F847D81810A
:1027D0007F7F818080847D827F827C81807F8181F8
:1027E0007D83807E837F7F7F7F8082807F7F827FEB
:1027F000817E817E808281817F837F807F7F8080D8
:102800007F82827E8180807E7F817E8082818281C4
:102810007B81807D80808180817F817F7E807F80C1
:102820007F807E83828080807F807F82817E7E80A9
:10283000827E8180817F8081827D817F80817E8098
:1028400080827F8181817F817E827E818081817F84
:1028500080817F808080837E7F7F837D817F827F78
:10286000807E82807E8380807F8080837B837E8366
:102870007E817F807F808180817D837E827F80805A
:102880008180807F7F7F7F8280827F807F807D814B
:10289000817F82808180807F817E8081817F808135
:1028A0007F818080817F7F81807F818080817D802A
:1028B00080807F82827F7F807F7F8080817F818117
:1028C0008081807F7F80817F8280817F817F808007
:1028D0007F81817F80807F827E8181807E828080F7
:1028E00080817E818080817D7F81807F837E817DEC
:1028F0008081817F817F817F80817E827F808081D6
:10290000807F80827F817F81817D828080808081C5
:10291000827E7F7F817F82817F817F81817F7F81B6
:102920007F7F7F827E81807F81807E81807F817FAB
:1029300081807F808080817F80807F807F81808098
:10294000808080807F817F808080807F8080808089
:102950008080817F7F81807F80807F817F81808078
:102960008080807F7F808080808080808080808069
:1029700080808080808080817F8080807F817F8157
:10298000807F808080807F808180807F817F808049
:1029900080808080808080807B8451628663847C9C
:1029A000C88091A47097D379AEAB7898745C816D30
:1029B00044275B8F646A7A4A908275777C9D7AC1DE
:1029C00089B19CC5414BA84C75A5657DA3928AA28F
:1029D00061632DAA7AABD7617A60978A826E685E4E
:1029E000C08A3853855B775CBFB9CE727F7AB59762
:1029F000698811778FDBB6A48C7A549B638DCC6B7E
:102A000099736A8398825D9C87ACB17F687B4A65C5
:102A100084A45C468E81B56F5571878F85688E73EF
:102A20009B858CDB5260988ECC925798443F5D6CAE
:102A3000C03456842F9A75809E5D7865A3843CAF20
:102A4000907273255E56948A7EB19039918F8C7600
:102A5000748A88B54B74A5436D7454956FAB8278B6
:102A60009B75769556925B56946B6CAE96614C80D6
:102A70005974A69C865A9E347F873F7E7AB6A59F5E
:102A800064524992818AB24798737F716C93703D0A
:102A90007763C1D5A360416071874F7469439B829E
:102AA000836B67606AAE80A78F7343AC766EAA5A59
:102AB000BD7B64B78C95863273969EA73896A85FC7
:102AC000B39BAD6150BA99738D83423D759E757B02
:102AD000837B79D5B58992857A7C82C18F395E678F
:102AE000A75474C4397F85639D9CA29B788ED78838
:102AF000B75EB19647995B9B604D87A396717A58F4
:102B00008EB1B962708D7F9A93BB834C4C479CA168
:102B1000718650AA9FAE9B4DCE7D6AADAAD7772E07
:102B20008A65629931939983CC9AA16F7AAD7C8B37
:102B3000B45E5799557888A4A679A6B4CDA3535905
:102B4000745097AF74877F53927C798C88B37EAF33
:102B50007C4E814A68B8AA9E897998B7717D6C834A
:102B60006C7AB5B39C574B57C5BE71C66574B98BAB
:102B7000A66D646E35BBBC7FA52A936965D0B46A27
:102B80006A4293AB9A8D576E7F90A895A7885C9BFD
:102B900090A28D8F7E3E638C9E90276CA296A96337
:102BA000A0883884899F7B4066728C936F8C985F75
:102BB000906BB5AB43575193AB927CAE56669AA9D6
:102BC000726272477FA07A795D47808A9AB6617493
:102BD00073968F74B15334786A8790656F60678F8E
:102BE000A2B09247716FA0A15B585A6392A0A264F1
:102BF000548081A3856C9E757C608C994368698341
:102C0000BA71837070826E9686676184959E5269F0
:102C1000637DA48EA06772535964858A737A687A3B
:102C2000A18D70804D727FB18F7459376885998AF4
:102C3000718C7A749886575739A1908E9A67845B05
:102C400069AF939F7B5B7861987862544A7083A9DF
:102C5000A37169767792837C975A6366B9844086BC
:102C60007D749C76808F777977905C5FA768819C74
:102C700058956E79915CAE7871865BA37456AC5FA3
:102C8000629C8E915964905E9F8276AD677A789649
:102C900085776F539A7F9C7D835C60948FA57E6A55
:102CA0005AB1898891536F6276A19687706E768546
:102CB00096AA8783756788938A775D5B8784ABADB7
:102CC00060656B97BF958C6756986B75955E85614F
:102CD0006EC98490794E957793AD65926264B27AAD
:102CE0009D7E77976497848275507378839B875F06
:102CF000819A8E889E8C819269A18259886A92708D
:102D0000799276928F77B38255967B898D5E87888C
:102D1000929268976C5B9E6C9C87519E85798874B3
:102D2000B1938099819D7D6B876C66769187738363
:102D30005C978CA0968CA171829387785E51979254
:102D40005EAA81877C769F8E848873837E70898853
:102D5000708C7199A8999D747D7E747D8E746E516E
:102D6000798A91937B8E9393A6898665746D9886F4
:102D70007D826D7E80948E77A27F7A9581897F6B2C
:102D800071828D938E977666837B838A767582793E
:102D900085997E86919189927D7F7681786C846811
:102DA000938E7F89796C95878999638C748C9371E4
:102DB0008588739A6C96A1528E7083916D9574720A
:102DC000867FA081778F75858E8B96666D738096D2
:102DD00074907C7495739F95777E56949B779373CC
:102DE000797B56A98C6F7F5A9C8C8B906E81776E05
:102DF00099908B7F707B83837A787B6E749A829AAA
:102E00007C71928883878477716E78847D84707CEE
:102E10008189A0837E83778894887C6A76807F7698
:102E2000807A7B737596908C7F7A777F8C777A83A4
:102E300081938F6A827D7985717C797C8280987498
:102E40008086788A8381837E6E7278847B8B7181A1
:102E50009C778E7E747D6F927E7C8A5F8773759E71
:102E600082798B7A8D817D78696E797499808B688F
:102E700068A0799E87777A697E877D7A776A7F7284
:102E8000948A8090618487979F7D775D6497808C1A
:102E90007B637E727E9E72826D6C8E959088747854
:102EA0006E808C759683707E6C867D6E7D70839B44
:102EB000758E856B786F917B8596718581717C723B
:102EC0006D7F829080867A7F81747C7A8E848692F0
:102ED000806C836493847490658C80768869847C2C
:102EE000848B84878879776E8971838F6D8A7371FB
:102EF0008B7B8871799774948676826D898B6696C0
:102F0000787991798A7D778078857D847C759272D5
:102F10007E8B6F8D7B787C818A7184826884927FBE
:102F200088796E96888170757C75877F85807084BE
:102F3000808392758D737D8189838B797E6D89897C
:102F40007E8C6C7980708880737C80828C8D88798F
:102F50007C7586877A8679787E847C777C80738F8F
:102F60007B89857886857D847988809B7774737565
:102F700079867F7E7C817C80848687807F86808C3A
:102F800088767F7377827B9584717F788F7E838943
:102F90006F7F8B818F827F7A757F8E7F85667E883B
:102FA000767B807987788E898A8E717A8D7D807A1A
:102FB0007A877E7D7D818374828283848083847C12
:102FC0007F8C83837183828F8678837D78887C8BE6
:102FD00081708482819375857A78927B8D82718EDF
:102FE000768789778773788A7A907B888A6B8B79E2
:102FF0008E89747F797D868B837E7D7F8281807DC3
:103000008E7181897D7F83818A838483837E8180A1
:1030100083747A7E8289787D8489848584828976A6
:103020007F87817E7A7F84897C8881887A827E7B93
:103030008B7C7A807D8085857D82817D8B8081827D
:103040007187758F8A77887F7B8D7C867F7C85747E
:1030500084897A8A717A8B7B8D82828473847A8365
:103060008775837F7F8B83807D797B818B7B7D815F
:103070007E82807F867C80827F89817E8079838149
:103080007D877B7F86788C7A888477857E7A887A3C
:10309000867E7782817D877B837E7E857C85817E2F
:1030A000817F8383817A817E7B867D807F7D877926
:1030B000837F80857E80827F888079867C81818203
:1030C00079827E7C8382798781827D8380817D7C09
:1030D0007C7F797F897C7F837B857B8380808781F0
:1030E00080827E84797D867F81847C817978817AF3
:1030F000857F7B847E88827B8976847F7F867D80C6
:103100008279837A7D80837D7D83847D817C8389C0
:103110007A847C847E76867B7F817782847C847CC3
:103120007D827A8A8383837B818479827D7C847C9F
:1031300085827A817B7D7E7E847F80847E817F8094
:103140007E83837E7F7F81807D77818281827F8382
:10315000807D847D827D7E84817E7E7B817C807D7E
:103160008385807C857E7A7C7A85857F7F7F897E5A
:103170007F817D847F837F7E7E797F807C807E845B
:10318000897C7E817D837F7C867E7D817C847B7D46
:10319000807D84817F897C80827A7F817D86808228
:1031A0007C7F81817C817B818182827E7F7C808526
:1031B0007E857D857F7C8179817F7A85837D827C18
:1031C00081838082807F837D807B7E847D83857DFB
:1031D000877C817E7B7F817F827F827E7E827F81F2
:1031E0007E81827E817F7F7E7D82807D85808281DF
:1031F0007D837D7D8680807F7E807F807E807F81D5
:1032000082807E7F817B81817D867D8280808181BD
:10321000817D81837E7E7F7F7D817D8082827F81B3
:10322000847F847F7F83807E7D81837E7D817C859A
:103230007F7E887D817F7F858081817D877D7C8386
:103240007F808079858080857D817D80827F857F7C
:1032500081827F827F7E7F7D808081837E807F826E
:10326000818082817D837E82827E827D81857B8357
:10327000807F7F7C7F847E82807E857D80847F814D
:103280007C81827F827E807E7F81807F8182837F3E
:1032900081807F8180817F81817E8480807E808328
:1032A00081807E81827E7E7F81828181807F7F801E
:1032B00080847F7D7F8081807F7F828082807E820C
:1032C000807E837F837F7F837F80808082808080F9
:1032D000807F7F7E827F808280837E8082808180EB
:1032E0007F827F80808080807E8082808080827FDD
:1032F0007F8181807E818082807F807F7F817F80CF
:103300007E80827F808080817F828180827F7F80BB
:1033100080808080817F7F8180808080807F8181AC
:1033200080808080808080818180807F81807F809C
:103330007F818080808080808081807F808080818C
:103340007F80807F8080808081817F80808080807E
:103350007F8080808180808080808081807F80806D
:10336000808080808080808080808080808080805D
:103370007F8080808080808080808080808080804E
:10338000808080808080808080808080808080803D
:10339000808080808080808080808080808080802D
:1033A00080808080847B91806096426EDE5187644D
:1033B00063904DBD6D5CC44B99D75136BA959A5CFC
:1033C00083AD9248886D2F85C8556BE8B3577378E5
:1033D000A3DF51D095A39D82B1AA8B9496AF977E1F
:1033E000B4825887312AD4A02A676072D587658D48
:1033F000215E8C1E1755BC5F88706D8B434FAC4FA0
:103400002F8ACB5269697EB4626452817F69976961
:103410007BA76FCC909B67C4653E73386C68697CF2
:10342000966FB0AAB09D729EB9C36F76A18D885772
:103430008C667C6D97484A7D9365547B6F91605B89
:103440006F9373928A5C876B82817173ACBA5B7A7B
:10345000957B978F7291A1AD52A7719496968D59D5
:10346000A1A08959838D6E807466899C9568756A60
:10347000788D5D636E7E7F5F8096B1857598708D67
:103480007B8A7F6B979F9D848582899B6A72B485B6
:10349000736D7F707F847567898C7D776E78877395
:1034A00082866B7E797480887D8397956D89888507
:1034B00081957884A0996B76946F826F7F887F73F3
:1034C0007F709E7F86918B997D7E8C9376937A8296
:1034D000967C6C7E97807C8C7C9383777E73907DCA
:1034E0006F8F8B718C8E6D848F6C7874967B8188D6
:1034F0007F8F7899886B90857C7C818D728D717DB2
:103500007E7A817D8E7D8792896F76808C787C7CB7
:1035100077847A857D757C7D7D7E7D8B7D7F9479BA
:103520008089797F8091887A808B877A868B807872
:10353000818986827F888683808C7D798482858557
:10354000788D807E93877E888883788B8583897742
:1035500076838C787D8186817C80807A807F817A79
:10356000827F86877B837F7F818386778486868739
:103570007E88857C7D82897E79867C7C857E857F40
:10358000818080808080807F807F807E8181825664
:10359000262A2A2D2E3133363C4D7DC8E0E2E2E06A
:1035A000DFDDDBDAD8D6D4D4D3D1D0CECCCAC8C6EE
:1035B000C4C1BCAE843615131316181B1E21293D39
:1035C00077BCCCCFCECDCBCAC8C7C5C4C3C2C1BFE0
:1035D000BEBCBBB9B8B5B4B0ADA286400903010406
:1035E00006080A0C0E1012141517191B1C1E202297
:1035F0002527292B2F35466E9CBECFD3D0C7AD8251
:103600004F342E2C2E30323436383A3B3D4043472F
:103610004E628BBEE2EFF0EEEDEBE9E8E6E5E3E2C9
:10362000E0DFDDDCDAD8D7D5D3D1CFCCC9C5BDAB8F
:10363000927964554A45424244464A4F555C646D0E
:1036400076808A939A9EA09F9A9284715B443128D7
:103650002524252627292B2C2E3031333537393B8D
:103660003D3F4245484D53607796B6D1E3EBEDEDD3
:10367000EBEAE8E6E5E3E2E0DFDDDCDAD8D6D4D158
:10368000CFCCCAC8C7C5C4C3C2C1C0C0BFBEBDBB02
:10369000BAB8B7B6B4B2B0AEACA9A6A29D958979B6
:1036A00067533F2D1E140F0C0B0B0C0D0F10121433
:1036B0001517191B1E202225282B2F33383E454B6A
:1036C00052585D62666A6D6F727476787A7D808416
:1036D000888D92979DA4ABB2B9BFC5C9CDD0D2D3C6
:1036E000D3D3D3D2D1D0CECDCCCAC8C7C5C3C0BE28
:1036F000BBB8B4AFAAA49D958D857D756E67615CDE
:1037000057534F4C4A484645444343424141403F4A
:103710003E3D3C3B3B3A393938383839393A3B3D04
:103720003E404346494D51565C626870777F878FB3
:10373000969DA4AAB0B5B9BCBFC2C3C4C5C5C5C512
:10374000C4C3C2C0BFBDBCBAB8B6B4B2B0AEACAAF6
:10375000A8A6A4A2A09E9C999794928F8C898582FA
:103760007E7A76726D6965615D5855514D4A48455E
:10377000434241404040404142434546494B4E5000
:1037800053565A5D6064676B6E7175787B7E80837B
:1037900086888A8D8F91939597989A9C9E9FA1A2D7
:1037A000A3A4A6A7A7A8A8A9A9A9A9A8A8A7A6A5A8
:1037B000A4A2A19F9D9A989693908E8B8885827FD4
:1037C0007D7A777572706E6C6A6867656463626132
:1037D000616060605F5F5F5F6060606161626363E2
:1037E00064656667686A6B6D6E7071737577797BF7
:1037F0007D7F81838587898B8D8F90929495969715
:1038000098999A9A9A9B9B9B9B9B9A9A999998971D
:10381000969594939291908F8E8D8B8A89888685C8
:10382000848381807F7E7D7B7A79787776757473E7
:10383000727170706F6F6E6E6E6E6E6E6E6E6F6F99
:1038400070707172737475767778797A7B7D7E7F0C
:10385000808182848586878889898A8B8C8D8D8EEC
:103860008E8F8F9090909191919191919191919152
:10387000919090908F8F8E8E8D8C8C8B8A89898879
:10388000878685848483828180807F7E7D7D7C7C29
:103890007B7B7A7A7A797979797979797979797991
:1038A000797A7A7A7B7B7B7C7C7D7D7E7E7F808053
:1038B00081818283838484858686878788888989B5
:1038C0008A8A8A8B8B8B8C8C8C8C8C8C8C8C8C8C41
:1038D0008C8C8B8B8B8B8A8A8A898989888887874D
:1038E00086868585848484838382828181818080A9
:1038F000807F7F7F7E7E7E7E7E7D7D7D7D7D7D7DEA
:103900007D7D7D7D7E7E7E7E7E7F7F7F7F808080D1
:103910008181818282828383838484848485858576
:10392000858686868686868787878787878787872F
:103930008787878787868686868686858585858527
:103940008484848483838382828282818181818052
:10395000808080807F7F7F7F7F7F7F7F7F7F7E7E75
:103960007E7E7E7F7F7F7F7F7F7F7F7F7F7F7F8069
:10397000808080808080818181818181818282823A
:10398000828282828282838383838383838383830D
:103990008383838383838382828282828282828200
:1039A0008281818181818181808080808080807F0F
:1039B0007F7F7F7F7F7F7F7F7F7E7E7E7E7E7E7E1E
:1039C0007E7E7E7E7E7E7E7E7E7E7E7E7E7E7E7E17
:1039D0007E7E7E7F7F7F7F7F7F7F7F7F7F7F7F7FFA
:1039E0007F7F7F7F808080808080808080808080DB
:1039F0008080808080808080808080807F7F7F7FCB
:103A00007F7F7F7F7F7F7F7F7F80808080808180BE
:103A10007B7485DAE6D0994B0A08110D12142455EF
:103A2000CEF0F0E9D1642138A5E7B970279A6995FD
:103A3000E7932B0A191021438C9956CBF8EDEDDA58
:103A40009944371D2E99A32C161C223C5989C5E395
:103A5000DBB16BA0EDB1DDF5EFECEBE0D38D602FCA
:103A60000B132537707D3C6188C3A48E885CAEE360
:103A7000C14D2D528DBD93A9E5C6B7C67358482FC9
:103A8000387EA3839BD7CDD6D7A17A290A111430CB
:103A9000749495A4C5CF92CAE6D8DBD9BB853419F6
:103AA0002C4C8198853C15354D488EB3AFD7E0D36B
:103AB000C6735B715739212A3F4664A4CFD8D7BD5E
:103AC000AA8380A2AF9A7D5E786F5056625A2E28E4
:103AD000254F4F5397B7BFBE8EA0B8B9C8C6BA9B83
:103AE000676CA0B1815849697B826E5C5C3A333166
:103AF0003E69727E7C97B5B8908CB19B9094A09AE9
:103B0000906E5E614A393B4240538A9FB8CED3C81B
:103B1000ADA5988C8E8F82675D5E5F62676B5C235C
:103B2000101C1A33A5EAD9C64C12161E4B937364A7
:103B3000EADDD3EDECE8E6DFE2CAB96C150A070D61
:103B40001922304EBADFE1D59AC5D19594965434F6
:103B50000C193B593687E8D0C0B36E60C4EAE0E385
:103B6000DAD2C6A840060202070A173188AEAD6B4A
:103B700083D8AC88D6E4DDDDCFC49B3A072E2E0B6C
:103B80002C67576F87BFE7D2C26D271814121F3AF0
:103B90007CC2D2D9D5E2B8A4A2877774661B0C1276
:103BA0002778C8D2B2706CB3C677A4CD8C90C1AF61
:103BB0008A808693ACBFB26F1E0E131217162D7932
:103BC0007B5F7A8291BFD9D0CBD2D9C098867F4A09
:103BD00030170A101925426AA4A2A3BED5DDD9C8A0
:103BE00081474F678A8885ADCBA3887D7D8A674BE7
:103BF0004343434830647472553E6197BEBCC1BFB5
:103C0000977283525E7B7F8582828E9892908C859C
:103C100090A5989D99805C585B605D56614C3427F7
:103C20002C3F68877F98C0C6CFC3BDBDAC8B696091
:103C3000372426293144567BA7B2BFC9CECCC7BA98
:103C40009D918F8576726C635E605526161A1B23D4
:103C5000345EA1E6F9F8F7F5F2F0EBE3CFC99A424A
:103C600077DBBDA67D3012080C1414121A1F284AE7
:103C7000AEE4EEF5EFF0E6D573292571D6A8A6BB24
:103C80005F1315181721304CACF4E4C9EEEEDA9648
:103C9000563E5A7373805EABF4D1C7B7A19D583CB2
:103CA00053451A184559A4EFCA99CCDD9A5294DFAE
:103CB000B8C5E8D7C067180E0F252E327BC1B9B83A
:103CC0006A26323D845A2E3E62A1B9D9E6EFE8E871
:103CD000D7D0CEAE8F784C190A161B1A2E5D6BBE4C
:103CE000E5E4DA9D8D9FC0A97C68867597BA8A74D1
:103CF00078653418122C361E3566ABBFCBDCD1CFBD
:103D0000AFA2B6CAC6AFA09172483330361E1E2885
:103D10003446728FA3B8CEC9C9DCBFC4D6CDB46F48
:103D20003F3C261C23252730435482ADBBCCD2C751
:103D3000BAA6BBC2AB817A7C726A757D6D6A8183DB
:103D40007D45112671E0E0E3B44738BCA59CE57CD5
:103D500063B98D28130C0D2C91C8C1B049120F15F1
:103D6000151E554E3C7B9A65A9EAF2EEECE9DFC5DB
:103D7000741C2C241A428B92582B202950AAEADB5F
:103D8000B8E8ECD5DF9AC4B34596B37160BADAA04F
:103D90002D0A183C82B2825F5171450F23369FC3B2
:103DA000E4EAE9A56A5F82D2D0D3944A2B7C4C44E2
:103DB000BFC8DFC29A47353B2D9A854E95DAC15C64
:103DC0005269130D0E1519345AA4E7ECECE4EFE731
:103DD000E9DCCFC08C310808081233A8C77E3D1239
:103DE0001E3477B3BCBD91C8F3E8EBE4D6A7678D6A
:103DF000473E858A8B280A0D16153F88B19A8EB5E5
:103E0000CCC087786B86612C7BC6EAE9E3DED9CC2F
:103E10008E29114B580A0F13265FBFC1A3E7EBE2AF
:103E2000DFDBD1C9957C3D0205040E0D2045B5E7C9
:103E3000E7E4D7A654270F2C361A1A4A86D0EAECA4
:103E4000EDE8E2DAB68E470425561B0A3F76C9E74D
:103E5000D9B5501110101E2D326EC2E1EBD3BEDA6F
:103E6000EBE4DFBE68110B0A1E56A7DEB06C599951
:103E70008D4C374734222A56BDDDE9ECEAC184A1D6
:103E8000E0B66AB9D58964634D113C7BC09D6A9DDB
:103E9000C057475D152C3B4D4580E3D1D4F0E0E0A1
:103EA000C0815323040C0B143B896D4E98D8E9EB69
:103EB000E9E5DEB56459361918161C5F8BC6ECD0DF
:103EC000B87E3F0B0F162C212E68D6EDEEC38594DD
:103ED000BCB54E619BD8D5A25B3323224939224A17
:103EE00098DBECDBC8D9D8BB53395D3F404F477BEB
:103EF000A16A63B1E6D8D9A63B1014161F2B5FBE8A
:103F0000F2F0F0EBE1C477210D0D101B273B484B7D
:103F10004B7B7B7D90C5F9F6F0D3966E5E94E9C934
:103F20006D95C4A6CAD3EBD5C6DDD9BA6825201EC7
:103F3000130C121C4FA1B29688AFC2E3D1AB5C4602
:103F4000ACC3B36A6D7E9ACDBD89582E2310181963
:103F5000162C7BBFCBDFA58CADAFB0ADBDD09D9097
:103F60008963567F809D8E4F3910455C8CE8DDD487
:103F70008E3312121517284C65898597AED5A4CBC0
:103F8000DED27673DDDFE2BD6524232B777EA2804F
:103F90002A27349BCFC1D3E1C3963F1F3FB58D9FE6
:103FA000E7B79937161E3E4A5163452C4E93C2B669
:103FB000504195B8E7B8764C91DFD3ADA3C1CC970B
:103FC0004218170E171E5F602C6F7469A4D5DEC6E9
:103FD000C5EDDFE1D1CB93422E36347D928C92B188
:103FE000B28B32192552A160468BB8CA927E9C8052
:103FF000511F455E8A8D786E8EDBD9D0907D6169C8
:10400000603B6E71482E4C305191A0CBD1D6E0CBA5
:10401000B192B2988D883D2B293962A0B3913C367C
:10402000434276AFB36B80D8D5D7CAC5BFBE8A9698
:10403000BCBC94413B281E202D80885C3A25323D33
:104040006CBAD7BFC3C9AF825B9FC8C3907A97A22F
:10405000A2BCA6674D32272D55646D73AABFC9BB9C
:10406000654B9EA5A1865D61583A1D32465662AAEF
:10407000C7C4904C77999B76A4B5B2C0C1B06741D4
:104080006375756B3C312C2C3F686B5C68B0CED08F
:10409000B6B7CFC8CBC3B88139292D625D2B3A4A58
:1040A00079B09C87987F71898C7787B4B0A0B7ABC3
:1040B0009686958150727D6E59516467603F3C3E93
:1040C000446C888A969BABAFB8BFB0B0A79E888C73
:1040D000899FA187543535323845516CA5C0A38ED0
:1040E000A18B9DB8A78B616E9CA4B1BEA88E637C8A
:1040F000B7B08891A07E624B404B718B7A64606947
:104100006A866E4D4C534B42464D6A7A8F97908B20
:1041100096B4C1BFAF9FA5ADBAB7B4A27649454C1E
:104120003F5D775A41646E82B3B7AC8B91A09C8A95
:104130006563667F5C49474E5B6F7D879CA89B9259
:10414000988A90A39F848C9A91A18E6C564242418A
:104150004F5F7B97ACAAA29B86706E82987D566952
:1041600094ADB3AD9598968A868B8A836E5A7B748C
:10417000595F70627884648B9E9A94778E80736E98
:1041800067808966545E63635B657E807C96A6A2C9
:104190009A94919895A0A68F8B989A948E756F5F3C
:1041A00053636956556D768FA09B9C9D928F81724B
:1041B0008595877E7E7B75696E6E7B6C75938E9F11
:1041C000A39D8E6C5A585E696B728F95959590A0E1
:1041D0009F9884767B7473737377685E5C596266AC
:1041E0007E939593939EA6A29A9E9B8D898B88839E
:1041F0006D5F61666979858B8F8A8385979C998CC1
:104200008882675B5C5C687E7E75748A94908D9111
:1042100090908F969A92847A746561626B7E8C8D91
:104220008B8D918E8376787B77676878818C888D8B
:1042300084808684908B828483877F75746D6762A7
:104240006264666A7883858C93969A9D9A979A9908
:1042500095969184797469686E74716A6E798687AF
:104260008C8D8378848E8986887E7B7D7A7C77743A
:10427000797A76726E797C7D8280787677828C8E80
:1042800093918F8E8B878688857D7F8782808480BF
:104290007D7B7475757675777A7E7F7E7D7B7B7D81
:1042A0007E7F807D7C7B7D8181868D8D8E908F8EC3
:1042B0008C8E8E8B857A73706F6E7275767A818133
:1042C00085898A8C8C898686878484837B767473BF
:1042D0007779787A808183868889888A89878481BA
:1042E0007D7A77787878787C7F7D7E8180818487FD
:1042F00086878786868381807F7B787878777777D3
:10430000797D7F8083858687888888878684828375
:1043100083848484827E7E7C7C7D7D7B7A7B7C7FB3
:104320007F80818181828281828382828281818079
:104330007F7E7D7C7C7D7D7E7E7F8081828281828E
:1043400082828282818180807F7F7F7F7F7F7F806A
:1043500080808080808080808080808080807F815D
:1043600086818287828D80778A887D76857D968317
:104370008A879075AA787796789C6F65918566791B
:10438000878552252F2F1C272329282C2A2F2E32B0
:104390003137363B39413E55628293A6D7C8E4F89F
:1043A000F2EDF6E8E6F3ECEDE9E9E1E7E1E4DBDF85
:1043B000C9AFD19F86A06282603E454B5E2030220D
:1043C0002F2133452C353E3D383345424B544F4722
:1043D000475E5741594B4A444446496250766C8B7C
:1043E0007476B881BCE1BEDAF3EDFEE8ECFDF6F7D9
:1043F000F4F2EFF0EDECE9E8E6E4E2E0DFDDDBD952
:10440000D7D5D3D1D0CDCBC9C6C4C2BA9C9E8B9BC5
:104410005A3E3F433E1A3E1E3718030E0A12121F21
:104420001517171D1F1E203023252A2C292E2E3844
:104430003F5E765458785C787887BABD92CEDEB607
:10444000C5A1ADDDDFD7DEE7D8E1E2E1DDD1DBD527
:10445000D9D8D6D6CED1C7C1D1C9CBBFC5C5C0BEAC
:10446000C0B1BDB1B3B1B49CA3B5A4927B9C736B36
:104470009B83636B385B3E72473656013D664E4602
:1044800021442F2144151A234C3C1F0F205C633418
:104490003D26383E574E122A70510E1B3B521629AC
:1044A000164E2E3A403E602A42585D2B3F5C567DA8
:1044B0009D6E419F8B6DA26A7FB7E0B1ADA9D8AA6E
:1044C000B4D3BDC5C6D7D4D8DADACDD6CFD3D2D4FB
:1044D000CDCBCECCCBC3C9ACC1C7C1C2BDB9BEADBB
:1044E000ADB2A7A29FB3A1A08577907B4D32505863
:1044F0003E3B42512E201D43131530071C1F04451F
:1045000022010F090C0D16191C38172045201A1D01
:104510002121233339384356313C6C3773583A4E96
:1045200076484F8AAA6B6884487495A07CBD8992AE
:10453000C18DC67F70BC97BCA6A0AFB5DAB2D7B2AA
:10454000E0AFB6B69AB9CED792BF9DD19DAFBD931D
:10455000BFB6DCABA8BACCA5B1C481BEA864C39970
:1045600082B05D977F865099A071A38379684D656D
:104570004D4F67504478732D539F564A6439696391
:104580005C3C3A50984A3A36515A3E595A4E456523
:104590004B4D64444C7773394F6C4C494B4E525BD6
:1045A0006E515551986354615D76757B6CA7656C4F
:1045B000A3749C8F62C39675B2699BC1B0D686BA4C
:1045C000ACC3AEC7D0CBEBA1BEC0FEADDEDBD8E046
:1045D000DBC7DAF0C2E2E0D0D9C9DDDAD2DABCD387
:1045E000A0CECFB2C8AED39CAEACA8A6B59C817C01
:1045F000957457996E7B657C4E4D476D52493D369B
:10460000476A746651447C2345584C396E39344AA4
:1046100034445C7A3C4B3D503E5C6B584C64603C8F
:10462000868A5954797162789F64876B6FAD939EC7
:1046300088867B9089927DA9B78DA7B992ACBCC3BF
:104640008F8DA5AFBDC2B5CA9AA6D59EB89ACEC069
:10465000C0CFC89C91A4CDC4B09B97D4C2BBC7891E
:10466000D29B87BA888CB8B89AC2AE809B96807964
:1046700087BB7CA09B6AB07D63866572628E815425
:10468000986175655B9E7F57797C4A675559A1850E
:104690003A6A687E4F58605981697F77646F5243E8
:1046A0006B886F5D61708350A6825D8E366E945FFD
:1046B0005F6E5C8B766C86507B9D72598AAD7E6492
:1046C000859594917B888F9FA4A49D97A7AFAEA852
:1046D000B4AFB594AD9BB4AABBAFAFB28BD0C3C7D8
:1046E000B2A5BFBFA9A4C2BEAC91B7B8A1A8A8C3C8
:1046F0009C7EC88392BA69989C77808482737C8DF3
:10470000778B7783595D667C5F286F70636570482F
:10471000626C2B46596E5068324A7A2A584B526462
:10472000603E71464B5C4A55705364545C6B6284C6
:104730002F6F784D8E83727752877980645B6F8696
:104740008288798BA37583989964A08289A77768FA
:10475000A1B087B1919589A68583AC7CABA980AACD
:104760008E7FA2788DA6A27ABC8E73956B979EA938
:10477000818E96A1AB7C718FAB708E5E91887C5AD6
:1047800089976D806498496C86844C7157625E810C
:10479000895B716A647780497C58687355786F408B
:1047A0007B6057566C5D506F81606C7C54526956CB
:1047B0005F706E5D61836A7178835E429159626C4D
:1047C000628F4266618B57727658806D749B7565F7
:1047D0006173817AAC8B7F966D87717AA3B07E947A
:1047E0006FA991858D71997D9497BE8EA39171B1BA
:1047F000A092987980B89E94859C978C966B9493A0
:10480000A09875A466768E83755B818F6F837465BF
:10481000766E745C68756864634B505B6A845D5C3B
:104820006B425C51885D4B554E6B4A71694D6265B8
:10483000456A5A4F567C656966777C487161527546
:104840007253825E5C6C7A836E86976272887F5642
:104850007D9075868E6782B0828F6182986B8B881F
:104860008684807F9B7C88A27F779F7198957BA0B0
:104870009B8A8DA66B96927A86877C8C7E868E89A3
:104880009A847C77A3917BA5628AA75C7A8C7694C4
:10489000576D87688572875F75617D7F718F5F69EE
:1048A000A27A6A834B8078697A7A6B527E885769DC
:1048B000708E566480687E77686084666974856AE5
:1048C000646572758A92665FAB755B875B7C7460AA
:1048D0007D84686D7C6E758A9D6D66878E78767C2A
:1048E0007C927B7D84A67B917493938C8C949D8227
:1048F000947C7D9CA1A588809C77969BAA9390AE82
:10490000838E90848891AF988C7DA78B8CBB7A998D
:104910009C7C9D6F7C857B8083947273788F927F63
:104920006B7E806080838B63686E6E728F71557250
:10493000766A6C85715D7A886C84785B65748A5E52
:10494000726F846279885D747E895E717B7C7B6D19
:10495000779779698D8C7D6971878D9A9C6B868A32
:10496000827A828EA5797A8E859B868C808E89A0AC
:104970006E8C7A8EAE858F748C87878BA39788A078
:10498000858E988497818E9B79879A7C7B8A9C9D63
:10499000AA99898A8C7A98AA8689747E7E93919640
:1049A0007597757E936D8B756A8CA0778F736F91F9
:1049B0006F7669A2907286878A706C857879746F39
:1049C000868B838D8476758083737B917E7A7768FE
:1049D0009C7D817F7E717A777290838198697E7EDB
:1049E0007F85888188877F8493877E837C7396996F
:1049F0007F7A8D9D76A0938F8D79969E7C899B7E04
:104A00009B888F9C8C8BB1898B8C90A6868A848D99
:104A1000988D97A29F8490AB8B8D927D9C9B7B9E63
:104A20008084819AA278997F74948489757478823D
:104A3000767E859D836A828B6F717670946D787FA8
:104A4000728575817475A9677974668777846D83BB
:104A500073718179807F707D987A8B826A73898D7A
:104A6000738B8A6A927F768379A4797E8E7E8E7E1E
:104A70007492AC7A757C968A74869A9084908783B7
:104A80008A93837C898E9495708B937E948D99778D
:104A9000A38A7B8B8299938787907A879892788F65
:104AA000898B8C8C817E8891998676789B8F708299
:104AB0007E937C90706F8F8777917C70926B847CF3
:104AC0007E876D857D8074777B8D8F8A74767B7809
:104AD000877E7A777E7B9F7C816D847C7D83797DE8
:104AE00077787E9A6E7B86807F807071808D8074EF
:104AF000828E74827F897D728190847E8A867B8695
:104B00008184A56D7C86968D757A7891928884864D
:104B1000958381918981908A7FA49278917B9B92E1
:104B20008189859B83837D8F988C7F7E8F8F7B850A
:104B30007D86877E8A86827D858A6E857D727A7E75
:104B4000798A83706E878C68886E7B926A767C68BF
:104B50008C7A707E71826D6F86837A69767B7082C3
:104B60007F7D66878C70777A8271757C7C8C84708F
:104B70007B73857E7B85747E88829272768E847A42
:104B80008372877F7B837D877B8B8684867D897517
:104B900084818991887B8C8E74778488768D8889CE
:104BA000877591936F837B758A868D89817A9383CC
:104BB00079819478888374867480778580767A8109
:104BC0007A7B8484767F7F7B7D7A84776E7B7C8E14
:104BD0007D71798673747177737A7F7C84808A742F
:104BE0007F84707C787C7E7478856C7581827F711F
:104BF000807B727C8C79717D737B8279707D887EFD
:104C000076727E78828484767E8177817A807C82D7
:104C10008279878B7A7E79798C7D80758B8E72967E
:104C20007C878673808A818181818D8E7D8A808454
:104C30007B7492898A8184877F777F768689818158
:104C40008E7C7682817D7B77737A837F747B7179AA
:104C50007A7A7C837D727E6D7D7E757B786B747DC8
:104C60007B75737A80737B836E7C6D797E797B78BC
:104C7000787A79767376847671817B76767C8574A2
:104C800083807483727B79798076837F7D86867C4E
:104C90007C7C7A867983748281778F7D79818F7726
:104CA0007B7A828A7779849175847F798181837711
:104CB000807B8D8979837E7B7F7A7B8491828476E9
:104CC000848E737E7E8275878278797E8A7A7C75FF
:104CD000767D7F797E7D7A7D767D7C77787E838018
:104CE000787572808078748287747A7F8777717A1A
:104CF0007E7F7E8475768D707C7D737D7D80747EF5
:104D00007C7D7E75787B7676827E7D7C807D6D86EF
:104D10008A7784757D7E7A7980867A7A80867381B7
:104D2000807C7E7C7A8281817B848281838784807F
:104D30007B827F7C89828380888A7D868B7E7E854C
:104D40007A82837C85888389827F8A7E80807B7952
:104D500082837B897B7A83757E7C7F81757B897872
:104D6000797D737F80797A79747B8B737E78737F9A
:104D7000817D757A7974847679817581757B757A90
:104D800080817977837F7C807A777E837D787C8150
:104D90007C7A837D7E7C84797F82738E7E82827A28
:104DA0007F817E7D7C80838584857D837D7E877FFA
:104DB000847F847C7A83888581817F818680817BE2
:104DC000828D7C7E81808280847D818B847F8389BB
:104DD0007B7A8C807E887980817C817C837F857AD8
:104DE00078877B7D7F817D7D797F7D7F857A7D7EE4
:104DF0007E807C7B8B767A827B7D7B84837F787FD1
:104E000083797883847D817E7B7D7C8578837C79C2
:104E1000827F84807D827B837B78827D847D867F98
:104E20007B81837F7C7F817D827B848183837C8681
:104E30008185817E7F8B83817B88887E85827F814F
:104E40008686828287808483828685837F8688881F
:104E50008785827F8A8681858384857F818C7E7E1B
:104E6000867C848081807A8184807E7C7D7E7D7E4C
:104E70007E7F80807B817B7B8082817A7E807C7F4D
:104E8000837F7D7D7F7C84807F837B7D83837B812B
:104E90007D7C80847E7E847F807F7D817C82837F19
:104EA000847C7F808083867E7D84867F7F818085F1
:104EB00080808283848180848282828683837E86CE
:104EC00083808883818480868581847F88838382B0
:104ED000878381858585818385858584877F858294
:104EE00080828786818180857F858380827D8383A0
:104EF0007D827F7F7F7D7E847F817B7F837E7E7FBF
:104F0000827D85807D80887B7F817E837F7F7E819F
:104F10007E857D81807D857E8080808083817F818C
:104F20007D80808480838083817C8282837F808473
:104F30008183818282838281817F82848482828054
:104F40008485848083828284877F8582818582872D
:104F5000838484828384858682828386818585801A
:104F60008684848580818685828285847E83808410
:104F7000837F837E847F80817F80817F7E7F7F812E
:104F80007E7E7F7E7D808081807E7F807E80827E2F
:104F9000817E7F847E7D817C8082817F7E827F8214
:104FA0007F7F81818181827F7F81847F83837E84F3
:104FB00081828182818281828282828281838382D4
:104FC00080838481828284808184848080828481C1
:104FD00082828182848182818082848482828381B0
:104FE000838181838382818283848181828381839F
:104FF000838183828084807F838181817F8181829C
:10500000807E807F8381807F8081827F7F8282809B
:105010007F81808180808083828080818380818085
:105020008281827F7F81838080807F8181817F8078
:105030008182817F80828080827F82808181808165
:10504000818181827E818280818281808182828051
:105050008182808281818282828181848281848036
:1050600082847F848182848082828381828483821D
:105070008383818381828383828182818281828111
:10508000808080808080807F80807F7E7F7F7F7F28
:105090007E7F7F807F7E7F807F7E7E7E807E807E23
:1050A0007F807E807F7F807F7F7F7E8080807F800B
:1050B00080808080808080808080808080808180EF
:1050C00081818080808081818080818081818181D7
:1050D00080818080808180808180808080818080CC
:1050E000807F8081808180808180818180818180BA
:1050F00080808080808080808080807F7F7F7F7FB5
:105100007F7F7F7F7F7F7F7F7E7E7E7E7E7E7E7EB7
:105110007E7D7D7D7D7C7C7C7C7B7B7977543D3B7B
:1051200035363537373A3A3C3D3E3F4041434445BA
:105130004748494B4C4E4F515253555758595B5C59
:105140005E606369738191A2B2BFCBD6DEE3E7E90B
:10515000E9E8E6E5E4E2E1E0DEDDDBDAD9D7D6D462
:10516000D3D2D0CFCECCCBC9C8C7C6C4C3C2C0BFB0
:10517000BEBDBCBAB9B8B6B5B4B2B1AEABA7A19A10
:10518000938A82796F655B52494039332F2B2826E9
:10519000252323242627282A2B2D2E30313334365D
:1051A00037393A3B3D3E40414244454647494A4BE8
:1051B0004C4D4F5051525355565758595A5C5D5E9D
:1051C0005F6062636466686C70767C838A929BA37E
:1051D000ACB4BCC3C9CFD5DADEE1E4E6E7E8E8E980
:1051E000E8E7E5E4E2E1DFDEDCDAD9D7D6D4D2D1F4
:1051F000CFCECCCBC9C8C6C5C3C2C1C0BEBDBBBA69
:10520000B9B7B6B5B4B2B1B0AFAEACABAAA9A8A7A6
:10521000A6A4A3A2A1A09F9E9D9C9C9B9A999897AF
:105220009695949493929190908F8E8D8D8C8B8A7D
:105230008A8988878684817F7C7875716D68635ED2
:105240005A554F4A46403B36312C2824201D1A1708
:10525000151311100F0F0E0E0E0E0F0F0F10101151
:1052600012141617191B1D1F2022242527292A2C4A
:105270002E2F3132343637383A3B3D3E404142449E
:10528000454648494A4C4D4E4F5152535455575834
:10529000595A5B5C5E5F6061636465666768696AF2
:1052A0006C6D6E6F70717273747576777879797AC8
:1052B0007B7C7D7E7F8081828283848586868788D1
:1052C00089898A8B8C8D8E8E9092969A9EA3A8AD9A
:1052D000B3B8BDC2C8CDD1D6DADEE2E6E9ECEEF075
:1052E000F2F3F4F5F6F6F6F6F5F5F4F3F1F0EEED8B
:1052F000EBE9E7E6E4E2E1DFDDDCDAD9D7D5D4D3C8
:10530000D1CFCECCCBC9C8C6C5C4C2C1C0BEBDBC3E
:10531000BAB9B8B7B6B4B3B2B1B0AEADACABAAA976
:10532000A8A7A6A5A4A3A2A1A09F9E9D9C9B9A9975
:105330009998979695949493929190908F8E8D8C46
:105340008C8B8A8A898888878686858584838382F0
:10535000828180807F7F7E7E7D7D7C7C7B7B7A7A74
:1053600079797878777776767575757473737271E5
:10537000706F6E6C6A686663615E5B5854514D4A2B
:1053800046423E3A36322E2A26231F1C1916131087
:105390000E0B0908060504040303030304040405B3
:1053A00006070708090A0B0C0D0F10111315161824
:1053B0001A1C1E1F21232527282A2C2E3031333575
:1053C00037383A3B3D3E404143444647494B4C4EBB
:1053D0004F5152545557585A5B5C5E5F606263642C
:1053E000656768696B6C6D6E7071727374757677D2
:1053F00078797A7B7C7D7E7F8081828283848586BA
:10540000878788898A8B8C8C8D8E8F8F90919192D3
:105410009394949595969797989899999A9B9B9C15
:105420009C9D9D9E9E9F9FA0A0A1A1A2A2A2A3A37E
:10543000A4A4A5A5A6A6A7A8A9ADB1B6BBC0C5CA78
:10544000CFD4D9DDE1E5E9EDF0F3F5F8F9FBFCFDAA
:10545000FDFDFDFDFDFCFCFBFAF8F7F5F3F1F0EEC8
:10546000ECEAE8E7E5E4E2E0DEDCDBD9D7D6D4D24B
:10547000D1CFCECCCBC9C8C6C5C3C2C0BFBDBCBBD3
:10548000BAB8B7B6B5B3B2B1B0AEADACAAA9A8A719
:10549000A6A5A4A3A2A1A09F9E9D9C9B9A99989724
:1054A00096959494939291908F8F8E8D8C8C8B8AFD
:1054B00089898887878686858484838282818080A3
:1054C0007F7F7E7D7D7C7C7B7B7A7A7A7979787828
:1054D0007777777676757574747473737272717189
:1054E0007170706F6F6E6E6D6D6D6C6B6A696765F4
:1054F00063615F5D5A5855524E4B4744403C3834C7
:10550000302C2925221E1B1815120F0D0A0806051E
:10551000040202010101010102020304040506075D
:1055200008090A0C0D0E0F1112141517191B1D1F57
:1055300021232426282A2C2D2F31333536383A3C86
:105540003D3F4042444647494A4C4E4F51525456C3
:1055500057585A5B5D5E60616264656668696A6B34
:105560006D6E6F7072727475767778797A7B7C7DE8
:105570007E7F8081828383848586878888898A8BE1
:105580008B8C8D8D8E8F8F90919192939494959515
:10559000969797989899999A9A9B9B9C9C9D9D9E6B
:1055A0009E9F9F9FA0A0A1A1A2A2A3A3A3A4A4A4E5
:1055B000A5A5A5A6A6A6A6A7A7A8A8A9AAADB2B65E
:1055C000BBC1C6CBCFD4D9DEE2E6E9EDF0F3F5F707
:1055D000F8FAFAFBFBFBFBFAFAF9F8F7F5F4F2F04C
:1055E000EFEDEBE9E7E6E4E2E1DFDDDBDAD8D6D4A4
:1055F000D3D1D0CECCCBC9C8C6C5C3C1C0BFBDBC3A
:10560000BAB9B8B6B5B4B2B1B0AFADACABAAA8A791
:10561000A6A5A4A3A2A1A09F9E9C9C9B9A989897A4
:10562000969594939291908F8E8E8D8C8B8A8A8989
:10563000888787868585848383828181807F7E7E3B
:105640007D7C7C7B7B7A7A797978787777767675CA
:1056500075747473737272717170706F6E6D6C6B40
:105660006A69686666646362615F5E5C5B5957562F
:105670005452504E4C4A484644423F3D3B393735E0
:1056800033312F2E2C2A282726242321201F1E1DAC
:105690001C1B1B1A19191919181818181919191976
:1056A0001A1A1B1B1C1D1D1E1F2021222324252608
:1056B0002728292A2C2D2E2F3132333435363839EC
:1056C0003A3B3C3E3F40414344454648494A4B4DA6
:1056D0004E4F50525354555658595A5B5D5E5F6059
:1056E00062626465666768696A6C6D6E6F7071721C
:1056F000737475767778797A7B7C7D7E7F7F808105
:1057000082838485868788898A8B8C8D8E8F909101
:105710009293949596969798999A9B9C9D9E9FA0FC
:10572000A1A2A3A4A5A6A7A8A9AAABACADAEAFB0F1
:10573000B1B2B3B4B5B6B7B8B9BABBBCBDBEBFC0E1
:10574000C1C1C2C3C4C4C5C6C6C7C7C7C8C8C9C902
:10575000C9C9CACACACACACACACACACACAC9C9C9AE
:10576000C9C9C8C8C8C7C7C7C6C6C5C5C4C4C3C3D6
:10577000C2C1C1C0C0BFBEBEBDBCBBBBBAB9B9B857
:10578000B7B6B6B5B4B3B2B1B1B0AFAEADACABAB0A
:10579000AAA9A8A7A6A5A4A3A3A2A1A09F9E9D9CD9
:1057A0009B9A9998989796959493929291908F8EB0
:1057B0008D8C8C8B8A898888878685858483828274
:1057C0008180807F7E7D7D7C7B7B7A7A797878771B
:1057D000767675747473737272717170706F6F6EA8
:1057E0006E6D6D6C6C6C6B6B6A6A6A69696968680E
:1057F0006867676766666666656565656464646450
:10580000646363636363636362626262626262626F
:105810006262626262626262626262626263636365
:10582000636363636363646464646464656565653A
:1058300065666666666767676768686868696969F4
:10584000696A6A6A6A6B6B6B6C6C6C6D6D6D6D6EA0
:105850006E6E6F6F6F707070717171727272737340
:1058600073737474747575757676767677777778E2
:10587000787878797979797A7A7A7B7B7B7B7C7C8A
:105880007C7C7D7D7D7D7D7E7E7E7E7E7F7F7F7F3D
:105890007F808080808080818181818181828282FD
:1058A00082828282838383838383838383848484C9
:1058B00084848484848484848585858585858585A0
:1058C0008585858585858585868686868686868680
:1058D0008686868686868686868686868686868668
:1058E0008686868686868686868686868686868658
:1058F000868686868686868686868686868685854A
:105900008585858585858585858585858585858547
:105910008585858585848484848484848484848442
:105920008484848484848483838383838383838340
:10593000838383838383838383838282828282823D
:10594000828282828282828282828282818181813B
:10595000818181818181818181818181818089327F
:1059600011241FBECFEFD8E0DEBFCDBF11E0A0E015
:10597000B1E0ECE7F5E602C005900D92A03AB10760
:10598000D9F723E0A0EAB1E001C01D92AB37B2071E
:10599000E1F71CE2C0EBDCE204C02197FE010E94AB
:1059A000B632CF3AD107C9F70E94CB2E0C94BC3245
:1059B0000C940000AF92BF92CF92DF92EF92FF92D1
:1059C0000F931F93CF93DF936C017B018B01040F27
:1059D000151FEB015E01AE18BF08C017D10759F0C3
:1059E0006991D601ED91FC910190F081E02DC60105
:1059F0000995892B79F7C501DF91CF911F910F91FF
:105A0000FF90EF90DF90CF90BF90AF900895FC0192
:105A1000538D448D252F30E0842F90E0821B930B13
:105A2000541710F0CF96089501970895FC01918DB9
:105A3000828D981761F0A28DAE0FBF2FB11D5D96BC
:105A40008C91928D9F5F9F73928F90E008958FEF5E
:105A50009FEF0895FC01918D828D981731F0828D12
:105A6000E80FF11D858D90E008958FEF9FEF089569
:105A7000FC01918D228D892F90E0805C9F4F821BCD
:105A800091098F73992708958EED92E00E94382D29
:105A900021E0892B09F420E0822F089580E090E036
:105AA000892B29F00E94442D81110C940000089547
:105AB000FC01A48DA80FB92FB11DA35ABF4F2C9183
:105AC000848D90E001968F739927848FA689B7897A
:105AD0002C93A089B1898C91837080648C93938D71
