:100000000C94932F0C94BB2F0C94BB2F0C94BB2FF0
:100010000C94BB2F0C94BB2F0C94BB2F0C94BB2FB8
:100020000C94BB2F0C94BB2F0C94BB2F0C948531DC
:100030000C94BB2F0C94BB2F0C94BB2F0C94BB2F98
:100040000C94E7300C94BB2F0C9453310C942D314D
:100050000C94BB2F0C94BB2F0C94BB2F0C94BB2F78
:100060000C94BB2F0C94BB2F0C9400000C9400003C
:100070000C9400000C9400000000000025002800F3
:100080002B002E0000000000240027002A002D0075
:10009000040404040404040402020202020203032E
:1000A000030303030505050505050503010204080F
:1000B00010204080010204081020010204081020D2
:1000C0000208010410402040838082837B85739066
:1000D0007983787799717D97716E9D766DA3786C31
:1000E000868578897F828968898D74799C6A7A91FE
:1000F00072868574848D73857D848577897D7C7A0D
:100100008F767C8E63948674868A718493609688D9
:10011000688486817890727E8C787B8285788D7DEC
:100120007B887A7E847F78878772808F757F8781CE
:1001300080768B7C8182817D886E8190768C826BCB
:100140009083699E7B6D82916E8E82788D6D7B959A
:100150008952B7784AAF728282827B8183719075AF
:10016000838F69888A817A7F936788986674A0678D
:100170007595807089778A87788A7D8283786D9E6D
:10018000847B71967D737E7F78847D8779808D6E88
:100190009783815CB57355A3934E95A43F89968749
:1001A00061997F7E7E789C5F8D9C5F719C88659B4A
:1001B000777A916786887D6C996D8B99687C8E883B
:1001C0005D918976887290835FA38660839E6D645B
:1001D000AC7C58AE6E799B5897867184866F9F6F02
:1001E000689785787C8585815C9CAA4B72C7564B45
:1001F000C38F4E839E894E9AA26169B07B519F76D0
:10020000817D8A72967A7290797E7BA6508F8C77E8
:100210008B659C7E7A7793726AA66C769C657A9AD7
:100220006D7EA27C5DAD6F5E9E85659B7D6A9C6ADE
:100230008880855FB372709A6C7097796CB05B77C9
:10024000A07D5FA57A5FA58359928B756DA8707F9D
:10025000867692786BA36F4EBC903DA29D4E8E7EAB
:10026000A3578078CF4F48F3621DD48E459D7A8581
:1002700080796EA65F9A6C888E6A888E5E97906190
:100280009681924B9F944E98857B84856A71A9795B
:100290007E758D71858077A05D9B7C6D8E6F946B74
:1002A00095806F8F767B8C8473926782A2637AA726
:1002B0006670A56F6DA05B9F6E6EA17379917F765E
:1002C000856B99797F797F878F7B7F8E7366AC6D25
:1002D000709C608D6EB4429F9D37BA718A61908622
:1002E0007F6A95896F8B71AE489F8469A85E8F770E
:1002F0007D9B5A82779B7276997D6F7D977C7498EF
:100300007378906C9B6979819E52A3815DA4815D15
:100310009B76799B817864A25B9073C7377FC232EA
:1003200097B14978AC5F7D9F883CC07F3ACB7A5EBD
:1003300082A96D57B86369A98846BD617793836BBD
:100340009D8545BD5E8A78906E75AA8A4DA77870A6
:100350008A799452A17392669C81707A938956B778
:1003600058898371917B8591529C7C837D69978AA2
:10037000806DA951937C82887D924BA48D599A807F
:100380006D7F9974817D9955A1874CC545997D8B69
:10039000539FA65792806B7F95779745A096636B86
:1003A000B9824A989473738D709E5395AB5083A312
:1003B0007E4F968976799082808E41B88C29CF8E37
:1003C0002BB4985D988658A48473964DB45E7EAE27
:1003D000438FA06466CA48709BAF4A72AD51A16B4F
:1003E0007E9B6677A76095867683955D9A777A740B
:1003F000AA5971B0677769C339B1845790A535960A
:10040000A4686BCC369CA83DB76E8446E810DA5ED3
:100410008178948738FA15A077937376878F7A66F8
:10042000A9608E9B3EC56C609C877F58AA7F649CA8
:100430007677946D916D869B8734BB7564A27872D4
:10044000948256B8558E8082936C7BA87068818D9B
:100450006D8F8E5BA5757083975F9B688F9855B67F
:100460005E65BC4F7EB35E58C67259A770965491B4
:100470008C7569B86576789A8A59B649A272719C6A
:100480005F9D6E829459B48A5679C723C37249CF4F
:100490004190A56167A7697A859F55968771898183
:1004A0008078976776AD6A73AE5A7F907C65B75354
:1004B0006BC032AF7D67C1448697717C899162744D
:1004C0009F7E60A2748474947C8E59C54D60C8422E
:1004D000BC4F71B28351A7757A6E866AB84D8CB5E0
:1004E0005092807A927C60918E637FC73F9980831F
:1004F00060B75970A16B6D936B948D55A9747D662F
:10050000C85F728E8E5F8F976F74907F5FB366A1A6
:10051000656095A94F60DB34819D7879A55B7E93FA
:1005200066A9788F6B838974947E5D98519A757EE5
:10053000A67079968459A1857E43C1765DA48A6EA2
:100540006B9073939055B9545AE63293879D518CB2
:1005500079809650B760A947AD7857CE3BA3699193
:10056000799065839E4D9A799B42BC7F6A7AC32FAE
:100570009C9E50D126B36969A27F67947A6B94756B
:10058000A45B84A75786A260887F6EA2689B53975E
:10059000895AB284637E8C786D899A6D6F95837A5F
:1005A0006CC24089B140D032A161B06D52C3646B5E
:1005B000A36D967C68A85B7D93863ADD3BB6618E21
:1005C0007D6BAB53B0707F6BA85C7984A042AA8F1F
:1005D0006184927377A94E988E6690955DA9568A2C
:1005E0009862935E95787E8487817A897481838E00
:1005F0006E89817292924DBE72669470797CA54527
:10060000B57A6F867B975888888A5585BC627591C4
:10061000A04890B03BA0777AA1756485A543AF94BC
:100620004A69DA4970C0716C827D6CA83CE021B9DE
:10063000728F6990A723C159A944DD2DB865748FC5
:100640007A906BCD01DE6E6773B38049A36EA359B8
:10065000A377598696975B967F698D93876C938372
:1006600058C140958C7E785EA365C418E1546EA194
:10067000698A6A9094853BF63692915E937D836099
:10068000B3714DB9609280A043A0824CCE35CE5557
:100690008A7E57979D67A56976A46270C15A58BB38
:1006A000519069A76C818F776F90738A828F639660
:1006B000954CBE5A8B9B4B7CA078827A9568935B55
:1006C000977567BA667183AB60948078886B8A6926
:1006D000C9564CE82799A24D91AF4C85935F9D79FF
:1006E0006B829B59AB569874988285846E8572870D
:1006F00074B73AB86E5DB1698E956A6D8B8860A2E9
:100700006B7CA4617396924FBF597EA64E93A263F1
:1007100064B06E6996887073B070968954AB4A82E3
:10072000917E6B91826FB740A4659273868E63A8A9
:100730005F966D887D8B89738084817F6F8879A4B3
:100740006D6DA86F7F7AAC4872B0617E8A67AF7BAF
:100750004FED2E69BF62679F9337C760769D58B88B
:100760005A839D569B51B2776C98A1527AB4597FA7
:10077000879B5F73948B5FBE427E986C8B90826880
:10078000A4588397727F718182818180807F7F7E70
:100790007E7E7E7F7F808081828282828282828151
:1007A00080807F7F7E7E7E7E7E7F8080818282824F
:1007B0008282828181807F7F7E7E7E7E7F7F80813C
:1007C000818282838382828181807F7E7D7C7C7C2A
:1007D0007D7E7F808182838383838282807F7E7D12
:1007E0007C7B7B7B7B7C7E7F80828384858584830E
:1007F00082817F7E7C7B7A7A7A7B7D7E8082848513
:10080000868786858482807F7D7B7A797A7B7D7FEF
:10081000818385878888878684827F7D7B797878C5
:10082000797A7C7F828487888989888683807D7AAB
:1008300078767576777A7D8184878A8B8C8B8986AA
:10084000827E7A7674727274777B7F83878B8E8FC9
:100850008F8D8A85807B76726F6F7073777D8388CA
:100860008D919393918D88827B75706C6A6B6F7597
:100870007C848B91959797948F888179716C686748
:10088000696E757D868E94999B9A9790877E746B1E
:10089000656363676D767F8A939B9FA19F9991861D
:1008A0007A6F655E5C5D636D7884909AA1A4A4A064
:1008B000988E8174675D57565B636F7D8B98A2A895
:1008C000AAA7A0958778695D5552555D687786958A
:1008D000A1A9ADACA69C8E7D6C5E534E4E55617049
:1008E0008191A0ACB2B3AEA39382705F524A494EDD
:1008F00059697C90A2B1BABCB8AD9C87715D4D447A
:10090000424754657B91A5B5C0C3BEB19E876F5861
:10091000473D3C4350637990A5B6C2C5C0B29F879E
:100920006E58463C383E4D607890A7BAC6CBC5B6E7
:10093000A1876D564338363D4C617993AABECACE25
:10094000C9BAA28569513E34333C4D647E99B0C228
:10095000CBCDC4B39B7E62493830323E506A859F0E
:10096000B6C8D1CFC3AD91725641363237455973AF
:100970008DA7BDCCD2CCBCA487684C3930303B4E5F
:1009800067839FB8C9D1CFC3AE9274553E312E351F
:1009900046607D9AB3C7D1D1C6B298795A41312CFD
:1009A00033435B7794AEC3CFD1C7B59B7D604635EB
:1009B0002F334056718FABC2D1D4CDBBA07E5E44E5
:1009C000332C303E557190ADC4D3D6CFBC9F7E5FE3
:1009D0004431292C3B537191B0C8D7DAD1BB9D7BF0
:1009E000593E2C262C3E597899B7CEDADBCEB798F3
:1009F00075543928242D415C7D9FBCD2DCDACCB300
:100A0000926D4B2F201F2B436489ACCADDE3D9C5FF
:100A1000A7825D3B22191F3250749ABCD6E5E6D8F6
:100A2000BC976E48291716243F6188ADCCE0E8E1F9
:100A3000CDAC825A3922191F334F7297BAD6E6E8E5
:100A4000DCC29C714B2D1B18233B5D83AACAE0E9D5
:100A5000E4D0AE855C381E141C304F759DC1DCEBB4
:100A6000E9D7B88F6541261A1D2E4B6F96B8D2E094
:100A7000E2D6BB97704C2F1E1E2D45658BB0CFE183
:100A8000E5D9BF99704D3222202D47688CB0CBDB61
:100A9000DED3BC99715034221F2C45668CB0CCDC5F
:100AA000DFD4BC99724E31211E2B45668CB2CFE04B
:100AB000E3D8C09C734A2B1A18253F648EB6D4E63F
:100AC000E9DCC39E744A2918141F3A628DB7D9EF26
:100AD000F3E5C9A17245210D0B1A396596C1E3F5FD
:100AE000F5E4C69B683B1A09091D3F6B9AC6E6F7F9
:100AF000F6E3C09262361405081F4475A6D3F2FFD0
:100B0000F8DEB685522709020F2C5584B3DAF3FBC1
:100B1000EED2A87849220A0411305D91C0E6FAFBB2
:100B2000E8C69865381504082044719FC9E8F5F1B6
:100B3000DBB88C5D33170B11284E7BA9D1ECF5EA9D
:100B4000D0AB7E532E140C19375F8BB6D9EDF1E183
:100B5000C3996C4326161627476F98BFDBE8E4D28B
:100B6000B38B603B22161C34567EA6C8DEE3D9C484
:100B7000A37C55351F1B2944678FB4D1E2E2D1B461
:100B80009068442B212639587DA3C4D9E1D8C2A04E
:100B9000774D302223334F7398B9D1DBD6C3A68467
:100BA00061432D242C426287ABC8D9DACDB5936E50
:100BB0004B31242739577BA1C2D7DDD4BB99734F62
:100BC0003527273753759AB9CFD6D0BC9E7C583C71
:100BD0002B2A364D6C90B0C8D4D1C0A58361453264
:100BE0002E374C688AA9C3D0D1C4AB896649363147
:100BF000384B6687A5BFCDCFC3AC8D6B4D38323730
:100C0000496484A2BBCACCC2AC8F6F523D32354717
:100C10006182A1BBCACDC4AD9070523D3538475FEB
:100C20007E9DB8C9CDC5B09372553F3435455F80C0
:100C3000A0BACACFC7B29573513A2F32435F80A191
:100C4000BCCDD0C5AE906F4F352B31446082A4BF70
:100C5000CFD1C5AD8C6B4E382F34466183A4C0D143
:100C6000D3C8B2906A47312A31456489ACC7D5D51B
:100C7000C6AC8A64422D263148688EAFCAD7D6C525
:100C8000A7825C3B2A29344B6B91B4CEDBD7C3A33C
:100C90007D553726253450759BBDD4DDD3BC9A7560
:100CA00051372929375378A0C0D5DBD1B997704C7B
:100CB0003226283A587EA4C3D6DACEB4916B493096
:100CC000272D405D82A8C7D8D8CAAF8E6A4B362C74
:100CD00030415F84A8C6D7D9CAB08D6849342B315A
:100CE000466587A8C2D1D1C3A987664B3832384838
:100CF0006384A6BECBCBBFA88B6C513E373B4A6505
:100D000084A2BAC9CBBEA7896B5140393D4E6884D5
:100D1000A0B5C1C2B8A48A6E5646404350657F9BB9
:100D2000B2BFC1B7A48A6F59494245546A859EB281
:100D3000BDBEB3A0876D5647424A5A708AA2B4BD61
:100D4000BAAD987F675347454D5D758FA7B6BCB761
:100D5000A99379614E464954667D94A8B4B9B2A36B
:100D60008E7661514A4E596B8297A8B2B5AEA08C6F
:100D70007662524C4E596C8297A8B2B3AA9A85708B
:100D80005C4F4B515F72879AA8AFAEA595826E5C9F
:100D9000514E5462758A9DACB2AEA18F7B685A5297
:100DA0005159697D90A1ACAEA89B8B78665852547E
:100DB0005E6E8295A4ACADA49684726359565A6552
:100DC000758899A5AAA79C8E7E6F625A595F6C7B25
:100DD0008C9BA5A7A39889796A5E595B63718294FD
:100DE000A2A8A79F918171635B59606C7C8D9CA6C2
:100DF000A8A397877769605C5E66748595A0A5A4B3
:100E00009C8F7F70645D5D636D7C8B99A1A39F95C2
:100E100088796B605A5C657382929EA5A49D9081CF
:100E200071645B595E6A7A8B9AA4A7A398897869E2
:100E30005E595B647283939FA6A59E918071645CEA
:100E40005B606C7C8D9AA3A5A09587786B625E61D0
:100E50006A7785929CA09F978B7D716762616772AC
:100E6000808E989E9D978E81756B656469727D8872
:100E700092999B9890857A716A66676D76818C9459
:100E80009898938B80756D68676A727C8791979943
:100E9000968F857A716A67696F79848E9599989231
:100EA0008A7F756C68686D76818C94999A958D832C
:100EB000786F69676A717B8791989A9891887D733A
:100EC0006A65666B737F8A959B9C988F84786E6742
:100ED00064676E78848F979A99948A7F756C686737
:100EE0006B727D87909698958F857B736C6A6B701B
:100EF00079828B9194938F888078716D6D70767EF6
:100F0000878D9293908A837B75706F70757C848BCC
:100F10009091908C857E77726F70747980878D91B7
:100F2000908D88817A74717072777D848A8E908EAC
:100F30008A847E77727071747B82888D8F8F8B86A6
:100F40008079757272757A80868B8E8E8C88827CA1
:100F500076737274777D83898C8E8C89847E7874A5
:100F60007373767A80868B8D8E8B87817B76737296
:100F700074787E84898C8D8C89847E79757475777C
:100F80007B8085898B8B8986817C78757576797E67
:100F90008286898A8A87837F7B787676787C80854B
:100FA000888A8A8885817D7A7877787B7E82858732
:100FB000888886837F7C7978787A7C808385878728
:100FC0008583807D7B79797A7C7F81848586858421
:100FD000827F7D7B7A7B7C7D808284858585838111
:100FE0007F7D7C7B7C7D7F81828485858483817FFE
:100FF0007D7C7C7C7E7F81838484848382807E7DF3
:101000007D7D7D7E80818283838382817F7E7D7CE6
:101010007D7E7F808182828281807F7F7E7E7E7ED8
:101020007E7F80818282828181807F7E7E7E7F80C2
:101030008081828282828180807F7F7F7F7F7F80AC
:10104000818282828281807F7F7F7F7F7F8080819B
:101050008182828181807F7F7E7E7F7F808081818F
:1010600081818180807F7F7F7F7F7F808080818181
:1010700081818180807F7F7F7F7F7F808080818171
:1010800081818180807F7F7F7F7F8080808181815F
:1010900080808080807F7F7F7F8080808081818151
:1010A0008180808080807F8080808080808181813D
:1010B000818080808080808080808080808181812C
:1010C00080808080807F8080808080808080808021
:1010D000808080807F7F8080808080808080808012
:1010E0008080808080808080808080808080808000
:1010F00080808080808080808080808080808080F0
:1011000080808080808080808080808080808080DF
:1011100080808080808080808080808080808080CF
:1014400080808080807F817F817F817F817F817F9D
:10145000817F817F817F7E7F8183708A8B8660A080
:101460007A6A947E91726F779A659E6D91864B8EA3
:10147000B55D47D842658AE143B59952A9625C6679
:10148000F20276A98029FFA73E977E745C9D9BA0FF
:101490002DBF9A5695B6497FAB6845B75E50B58368
:1014A00046778761788FA272888782419B6594799D
:1014B000A24B8C9F63E5D43D3CC11CC66DB4775CE8
:1014C0009879B57CB87689566F5B9A8737AF962D39
:1014D00091AF86526EAD197D94528FB9468EDB5115
:1014E0004BD2A837B8DC4744D8627877A5A25F769C
:1014F000826F49B4603399986A87956D6E97817150
:101500009FD0386DB6625FB88C3ABD8055A0808E92
:10151000828C8B5E647C9A7D8F9C8F2DBA6571A7BF
:101520003B5DC28334D0924C6CB85A966B82975212
:101530008CA792418EB2587B7E894DA5835AEA379B
:1015400078988F54AF9E5EA5A665997A59D6706F2C
:101550009896238FA43F6595827270727E84797B02
:1015600077879F6C7E6CBC7B75BF6F7E5A90847A48
:10157000885F8B85736BC065288F916B75AC9355B5
:1015800076B7996985AD7456B88F69A8A873429AE1
:10159000746698978C4B81785599818977697557CE
:1015A000C19484936F863BB19A5D73A66C44B4A1D9
:1015B0006076AD3B7689765B908C749B807FA2953C
:1015C00080908C7D46A6A890A5A469597D7A9693B3
:1015D00073883E67A86B68B3743F867A5674AE65AD
:1015E0006577817E7897AB4A6FB278618CCF795FEF
:1015F000B4A33F6EC99956A97D40A96896C16E45AE
:10160000736D73C59E6782805F9660A9775F8076F1
:10161000757DB16A8C7750627667BA7179804F9B1D
:101620009FAF56CE4968B3778A96AB25A28A898444
:10163000989267846694619C9D43887B5E7AC56BB3
:1016400083A43481628F7CA4825A926E7E71A56ECF
:10165000948A509C5C8C80799B717F5DA7787CCC50
:10166000786F797D887B978E7B8C7FA28961B66944
:10167000398D8A6E77A46B80786C8A658F876674E3
:10168000656FA389A1856884786E898C6E87879140
:1016900058B4925CB9688A779A75979547A4568D25
:1016A0007C947A8F70658258947AA55077925D7A8F
:1016B0009D8568A3A04CA28189757D97797F5ACCBE
:1016C000726879A9447AB039838E667F9979928F4E
:1016D0008A788B7A8176A688707887936195957CD5
:1016E0005E7881646B8B8691898A618B8861A6960E
:1016F000617FA27A708DAD666F718A6987A5588106
:101700008B746A8E827B8092757C8A787E8A7777EA
:10171000807D9B608D8873806F80699388778C8AC9
:101720007C50A1937B939178658C86A66F9D737B8B
:101730006C7EA65DAD728071876F6DAD5E7A878EAF
:101740005284AD6E97797D60799781916D7B7B6EC8
:1017500081906D7F81677B899066AB9C6778959758
:101760004EB0906E9C8C8172AF747E8C5F5D85856F
:10177000688D7E745C71996579A0705B8AA9619AA5
:101780009D6478A06B75AC7C6F749C7485779C7538
:101790006489926F6892A266819B69817BB9618C32
:1017A00075727887AA887859816B8E9D915F83774F
:1017B00065948697677B60938E65AE6B7F7F855758
:1017C0007E9280808E925B996997858B85638385F5
:1017D0009663A18670768E8A619383777C9C7178FC
:1017E0009F5B84827D71878C6F9D737D69778F93FA
:1017F00075649F857375A178699667887C997F74F5
:10180000886A896382928581859372749D71908ABA
:101810007D76719D7A838E7969887B81878A7D77D1
:10182000766E8E7381918966709A6F8796846E70DA
:1018300070847A8593817B729578877E91706F88AA
:101840009F7F8B976784838A75829083648B6C7F7C
:1018500082877A728974737C9081767F8A67997A9D
:10186000957685726F96789C6F867176838D778278
:10187000897A6F8C88769777858489767A89847F50
:10188000807A7D7678987D8B68778D6B87749D7D67
:10189000818868997496807D80669A83927680802C
:1018A00060818485847C6E917474779280758A756A
:1018B0007E7C917D8480837589867F798A7785880F
:1018C0007D81729769878789727F877E82887E771C
:1018D00087729B787F84817E748C7F8973758D7508
:1018E0007D82847D78747A98767A8682787D927803
:1018F00082867F737D8C7E768D83728E75807A82F0
:101900008080997683868780868A707E8B7C7E8FA6
:10191000867D7881756F8780707F81727E7F8A7601
:10192000818873758C8C838C837D81887A907C7E92
:101930007F869070858774707E8578847E88786FC6
:10194000858294758C87747486907D8B82817D816D
:101950007385857F7A75847084847976827D7798A3
:10196000826D788F76828F7E87807D848B7A80856A
:10197000867D7A867A7C82817D7B82837D848B766C
:101980007C8D7F7C887D8286758D88727D85757E55
:1019900081827D797881817E7B848A698182868358
:1019A0008B82847F7B8580838380728487807C8C1C
:1019B0007D767B86847E7F7C807A84868281877731
:1019C0007F8A7582847A8083837D78838280768122
:1019D000876B838A7C817B8180798C85857D818200
:1019E0007986848288787F8A79848283827B7D82EB
:1019F0007C867E7F7F768979867F7C817A7B7F87F4
:101A0000807E807E81807F85837E7C827C89817BD5
:101A1000897E7C818579818D777987767E868284BF
:101A20007C827B8383827D7E817D7E868878817CBB
:101A30007E7D8A7D7C85817E787E8783807C827FA7
:101A40007B86828978827384807E85808775877C97
:101A500079828C7C7D867E7A87897B83827C7D837C
:101A60008080827E7F857E7E7D81797B87817B7B86
:101A7000847B7E82807B7D817F83847D7E867D7E6C
:101A800088877A8086787F888184807E79877F8343
:101A900085778778828186807D7B7E86817E808245
:101AA00077887F7C827F7981847982857D83867F38
:101AB0007A7E827B8282847A7C867F7C818B787A34
:101AC0007F7F857D8B7E7D82837F808A7A7F858004
:101AD000808282827C7C8383827A827D787D80850D
:101AE000787E817E7A84838182828278807E8381FF
:101AF00086837D85827C8087797B867880867C7DE5
:101B00007F807D86817F7E7F80828281847E7E80D1
:101B1000847E818280807F7D807D7F827E7E7F80CB
:101B20007C8282837E7F81828081827E827F8385A8
:101B30007F7A887F7981837D7E827E837B838481A7
:101B4000787F827C8286847F847C7F7E817F7D8695
:101B50007E7F81807E7F827985817E7D7F7B82848E
:101B600081847F807C8381827C877C818381827A6F
:101B7000847E847E827E7E7E7C83817F81817C8167
:101B800084837C80817B7F828381807B84837A8352
:101B9000867E7D7F7B857C7F84837C7F827C807F4B
:101BA000817F827C7E827F83837E83817B86827D30
:101BB00083847E82807D82827F80827C7E81807F22
:101BC0007E7E7F8081827E7E827F7F84807F847D17
:101BD00080827E8280817D837E7F837F817C817F06
:101BE0007E80837E7E82807D83837C7F81817D81F8
:101BF000818182847D7C897F7E85817B7F888080D6
:101C000080817E7F82817E7E807F837F7E827D7BDE
:101C100083827F7F7F7F7F828180807D807E8180C5
:101C200082817F817F8180827D7D7F857A84887CAF
:101C30007E82817B85807C84837E8181837E7D849E
:101C40007E817E807E81827F7F7F807E8081807F9B
:101C50007F82817F847B7F847E7E84827884827C85
:101C60007D838579837F7E817F857D8282827D846D
:101C7000847B817F837F7F8180817E7E83817A7E6A
:101C8000837F7E83807A80827E7F87807C82817F53
:101C90007F80817E7D837F7F82867B83827A818342
:101CA0007C7E857E8180817F847E7F818080828131
:101CB000817F807D82817E817F827C817F827F8126
:101CC0007E7E817D817F818084817E82807F827D16
:101CD0008080827F84817D837C807F817D81837E03
:101CE0007F8280807F7F817C85817E81827F7E81F3
:101CF0007E7F7E80807F837C8081827E7F807F7EEE
:101D000080847F837E8182807D84807C7E82827DD0
:101D1000867D81807E7F827F80807F847D7F8381BE
:101D20007D837F7E83817E7F837E808081807F7FB5
:101D30008083817D82827D8080807E7F81847F7DA3
:101D4000827D7E8082807F807F7C81827F82808294
:101D50007C81847F7F82817F8280817F817E82807F
:101D60007D8083807C82827C7C84817C80827D817A
:101D7000837D81817E81807E80817E7F8180808065
:101D800081827F7E81807F8183808082808180814B
:101D9000817F8080817E80817E82807F7F80807F46
:101DA0008080817E807F7F827F80827C8081827F35
:101DB00080817E7F81827E8282808081817F80801F
:101DC000807F7F837F7E82817E80817E7D80808117
:101DD0007E82817D83807E7F81808081847E7E8003
:101DE00083807F857C7F83807E8281807F7E837EEF
:101DF000817E82817E827F817F817E80817F817FE3
:101E00007F7F817F7E81807C82827E81807F8082D5
:101E10007F7F80817E81827F83807F8181807F81BF
:101E20007F818080827F7F82807C82817E818381AE
:101E30007D7F80807F827F7E7E7F837E81828180A6
:101E40007D81827D7F83807E817F81817F80808094
:101E5000808081817E80837E8082808080827F807E
:101E60008082817D80827E7F82817E7F847F80816F
:101E70007F807F807E7F8181817F817E7C80817F6A
:101E80007F80827F7F81827F80837E8182807F844A
:101E90007F7E82817E7F837D80837F7E81817D8145
:101EA000817E817E8083827E80837F7E80837C7F33
:101EB00081807F80817D837F7D8180808080808123
:101EC0008082817F81817E8082808081817F807F0E
:101ED00080807F81817F81837D80827E7E827F7F03
:101EE00082807F80827D7F82817F7F827F7E8280F1
:101EF0007F817F817F81807F808080817F808180E2
:101F00007F7F817F7F82817D8083807F8081807ED3
:101F10008082817E817F7E82817E7E847E7D8180C3
:101F2000818081807F817F8181817E81827F8181AB
:101F3000807E83807E8281807F7F807F80817F7FA3
:101F400080807E81807F80807F8181807F80808093
:101F500080808081808080808080827E80817F817F
:101F60007E80807F808081807F81817F7F827F7F74
:101F7000837F808180807E82817E7F82807E82815D
:101F80007F7F82827D81817E8080817F807F818052
:101F90007E827F817F7F8180807F83807E81837E40
:101FA0007E83807E80827F7E81807E7E81827E7F36
:101FB000827F80808182807F80827F81817F80811B
:101FC0008080808080807F7F807F81817F7F818013
:101FD00081808180807F8081807E82807D847E8000
:101FE00080807F80807F817F8081807F7F818080F3
:101FF0008080817F7F817F7F82817F808080827DE2
:1020000082827D80847E7C84807E8182807D8183CB
:102010007F7D7F837D7F827F7D80827D81827F7FC8
:10202000808080808081817E80837F8180818180AB
:102030007E82837C80847F7E81807E8280807F7FA1
:10204000817E808180807F808081807F827F7E8191
:10205000817E80817F817E8080817F81827D81837E
:102060007F7F82807E82827F807F827F808080806F
:102070007F837F7E81807F81807F807F80817E8162
:10208000807F8080808181807E81817F817F817F50
:10209000808081817F8080807F8080807F7F817F42
:1020A0007F8180807F8180808080827F7F82817E2F
:1020B00081827F7E83807E81808080807F81817F1E
:1020C00080807F80808080807F808280808081800F
:1020D000808082807E8081807F81817D7F817F7F03
:1020E00080817E8081807E7F82807F808180807FF2
:1020F00081807F808180808080817F8082817E7FDF
:10210000827F7F81817F80807F808080807E8180D0
:102110007F8181807E82817E818180808082807EBD
:1021200081807F8081807F80808080808081807FAF
:1021300081817E81808081807F80817E82817E7F9F
:1021400082807F8180807F80817F8081807E81828C
:102150007F7E82817E81808080817F81807F808080
:102160007F80827F7F81807F817F7F81818081806E
:102170007F81817F8081807F81827F7F81807F825C
:102180008080817F8081817F81807F8181807F824B
:10219000807E82807F80807F7F808080817F82813F
:1021A0007D7F807F7F83817F80817F7F8281817F30
:1021B00081807F808181808080807E80817F7F811F
:1021C000807F8080817F80827F7F8181808081800D
:1021D00080807F81807F80817F7F81807E817F8002
:1021E0007F80817F81808081807F8081817F8180ED
:1021F00081807F82807F80817F8081807E82817FDD
:1022000080817F7F817F7F81807F81808080807ED1
:1022100080817F808080808081817F7F81807F82BC
:102220008080807F808180808081808080808080AD
:102230008080807F80817F7F7F81807F80817F7EA3
:1022400081807F80827F7F8181807F82817F7F818B
:10225000817F80827F8082807E7F82807E80817F7E
:102260007F81807F8081807F81817F7F82817F806D
:1022700081807E81817E7F82807E80817F7E818061
:102280007E8082807E81827F7F81817F808180804D
:102290008081807E81817E8082807F827F7F80813D
:1022A000807E8181807F81817F7F81817F80807F2F
:1022B000807F81817E8081817E8082807F8080801E
:1022C0007F80807F81807F8081808080817F80810E
:1022D0008080808180807F81817F7F81807F8080FE
:1022E0007F80807F817F7F808080818080808180EF
:1022F0008082807F8081817F808080817F81807FDC
:102300008080807F818080807F81817F8081807FCD
:10231000808180807F81817F8080808080808080BC
:102320007F81807F8081807F8080817F80817F7FAF
:1023300081817E81817F7E82817E8081807F81809C
:10234000827E80817F7F81827F81817F7E8281808A
:102350008081807E8081807F81807F7F80807F8080
:102360007F827E7F81817F7F827F8080817F80806E
:1023700080807F8080807F81807F8080818080805E
:10238000817F7F82807F82807F818080808080804B
:102390008080808080807F80807F817F817F7F8040
:1023A000807F808080817F80807F8081808081802D
:1023B00080818180808180808081807F80817F7E1C
:1023C00081817F80827F7E81807F808180807F800D
:1023D00080808081807F81807F8081817F808080FC
:1023E0007F8081807F81807F81808081817F8180EB
:1023F00080808081807F8080807F8080807F8180DE
:102400007F808080808080807F8180807F7F8181CD
:102410007F81817F8081807F81807F7F80817F80BD
:1024200081808081808080817F80818080808080A9
:10243000808081807F81807F8080807F808080809D
:1024400080807F8080807F8081807F80818080808D
:1024500080817F8081807F81807F80808080817F7C
:1024600080808080808080807F8080818180807F6C
:10247000808180808180808081808080807F80805A
:10248000808080807F807F808080808080807F804F
:10249000807F8181807F81817F808180808080803A
:1024A0008080808180808080807F8080807F81812B
:1024B0007F8080807F7F81807F81807F808180801E
:1024C0008080807F80818080808080808080807F0D
:1024D0008080807F8080808080807F8080808080FE
:1024E00081807F808080808080808080807F8080ED
:1024F0007F80817F7F818080808080807F808180DD
:1025000080808080808080817F8080807F808080CC
:10251000808080808080817F8081807F80817F80BB
:1025200080817F7F81807E80817F7F8180808080AD
:1025300080808180807F8080807F80807F80817F9D
:102540007F8080808081807F808081808181808089
:102550008081808081818080808080808080807F79
:102560007F81808080817F7F808080808080807F6D
:102570008081808081807F80808080818080807F5A
:102580008080808081808080808080808180808148
:10259000817F8080817F808080808080808080813A
:1025A0007F7F80808080808080808080808080802D
:1025B000808080808080808080807F807F8080801D
:1025C000808080808180808081808080807F808109
:1025D00080808080807F8080808080817F808080FC
:1025E000808080807F8080808080808080808080EC
:1025F000808081807F81807F8080808080808080DB
:1026000080808080808080808080808080808080CA
:1026100080808080808080808081808080808080B9
:1026200080808080808080808080808080808080AA
:102630008080807F8080808180808080808080809A
:102640008080808080808180808080808080808089
:10265000818080817F7F808080808080808080807A
:10266000808080807F8180808080807F808080806B
:102670008080808080808080818080808080818058
:1026800080817F7F807F808081818080807F80804B
:10269000818080817F80808080808080807F80803A
:1026A0008081807F8080808080808080808080802A
:1026B000808080808080808080808080808080801A
:1026C0008080808080808180808080808080808009
:1026D00080808080808080808080808080808080FA
:1026E0007F808080808080808080808080808080EB
:1026F00080808080808080808080808080808080DA
:1027000080808080808080808080808080808080C9
:10271000808080807F8080808080807F80808080BB
:1027200080808080808080808080808080808080A9
:102730008080808080808080808080808080808099
:102740008080808080808080808080808080808089
:102750008080808080808080808080808080808079
:102760008080808080808080808080808080808069
:102770008080808080808080808080808080808059
:102780008080808080808080808080808080808049
:102790008080808080808080808080808080808039
:1027A0008080808080808080808080808080808029
:1027B0008080808080808080808080808080808019
:1027C0008080808080808080808080808080818008
:1027D000808080807F8080808080808080808080FA
:1027E00080808080808080808080808080808080E9
:1027F00080808080808080808080808080808080D9
:1028000080808080808080808080808080808080C8
:1028100080808080808080808080808080808080B8
:1028200080808080808080808080808080808080A8
:102830008080808080808080808080808080808098
:102840008080808080808080808080808080808088
:102850008080808080808180808080808080808077
:102860008080808080808080808080808080808068
:102870008080808080808080808080808080808058
:102880008080808080808080808080808080808048
:102890008080808080808080808080808080808038
:1028A0008080808080808080808080808080808028
:1028B0008080808080808080808080808080808018
:1028C0008080808080808080808080808080808008
:1028D00080808080808080808080808080808080F8
:1028E00080808080808080808080808080808080E8
:1028F00080808080808080808080808080808080D8
:1029000080808080808080808080808080808080C7
:1029100080808080808080808080808080808080B7
:1029200080808080808080808080808080808080A7
:102930008080808080808080808080808080808097
:102940008080808080808080808080808080808087
:102950008080808080807F7F797477787276847BB6
:1029600077766B5E5D6C7069596E695368695970F2
:1029700072625B67787C6C7C8B72987E989085998C
:10298000808AB2848BAF7F9AC58598A59A9D96AEB2
:102990005AB8848EA58F917E9E9073956D9B837897
:1029A0008E5D9E708F609B3D9C775798666A7A8398
:1029B0004B7F578B7C419738859021BD3354986A63
:1029C00057786673665A7A6A3DAA2D8A662CCF11AB
:1029D00084903F71B9019D6560887350A66B56C4A1
:1029E0006171A2816CC240DD4EA990A18E85A0814B
:1029F000BB849B95918AA3819779A580A978A683AA
:102A00009B7E64A77879A649AD8E49999E7C46D174
:102A100056A97264858D6EA65D7E818CBA38AE77BC
:102A20007D87C54D7AA681A5744EC27A54B298644A
:102A300082C652AD7378966B978F7E68838F7A9437
:102A400087956D8C9E849C7881977E849F988C78E6
:102A5000B994AE7296A075988C9A927B92B27C993A
:102A60007B808D9E808499699296838E867F8483F5
:102A70009191888078977985917D84818F859681E1
:102A8000759A857899718E6E748B887D61906D8949
:102A900075847F797C768377837681747C767C7F7E
:102AA0006E797281857E8189827A8F7B7B7F80803F
:102AB000868C8488898E9488819289847F8F88818E
:102AC000858389847D8C868480857F8284728977E2
:102AD0007E7E7A7F7E7C758279717F747A7A897A3C
:102AE0007C807784797D797B727A7E727A79707650
:102AF0006E7B777B747E757B7774796C7C6B7D7075
:102B00007474776C807C6F836F777D76767678804F
:102B100071817E7C807F807882757F817C83727BEF
:102B2000766A7D687479677A73726F726F746D6C90
:102B30006E6E6E696B6A6B656D65726B6C766E67D7
:102B4000746F69736A6F6E706F7075787378717671
:102B500078707D767A767B79777C70816F788074F7
:102B60007C747A7A757C737C7B7981787D787B78CC
:102B70007B827A7E8178877C7D847D7F81807C7B6F
:102B80007D8478837E817C7D817B7E7B7F787C7D6C
:102B9000757672727E75757C7879797875777772CB
:102BA0007A767778767B777A75797E7A7C80787E8C
:102BB0007C7A807A807D847C84877F89818481810E
:102BC0008082837F838285818985818A80878483CF
:102BD0008581848485808085848680838682857FC4
:102BE000828186848680848483888089818D87879A
:102BF0008881827B847D86817E84818881848581B1
:102C0000868380807E827E847B7E7F818181817DC0
:102C1000827F827D827F858083827B837F7F8482A7
:102C20007F82807F8183807F83827F858385838588
:102C30008785838580838482838484838380848161
:102C40008382858180808181808280818181808171
:102C5000808281818080808081818181827F818268
:102C60008181828280827E81818082818182818055
:102C70008180807F827F8080808080817F80818151
:102C80008180808180807E807F8080808181808043
:102C90008180807F81817F8080807F818080818032
:102CA000827F807F7F7F7E7F7E7F7E7F7E7E7E7E37
:102CB0007E7F7E7F7E7D7E7D7E7D7D7E7E7E7E7E36
:102CC0007E7E7F7E7E7F7E7F7E7F7E7F7F7F7F7E1C
:102CD0007F80807F7F7F7F7F7F7E7E7E7F7E7F7E07
:102CE0007F7F7E7F7E7F7E7E7E7F7E7E7E7E7F7FFD
:102CF0007E7F7F7F7F7F7F7F7F7F7F7F7F7F7F7FE5
:102D00007F7F7F7F7F7F7F7F7F7F7F7F7F7F7F7FD3
:102D1000807F807F7F807F7F807F7F7F80807F7FBD
:102D20007F7F7F7F7F7F7F807F80807F7F808080AD
:102D30007F7F7F80807F8080808080808080808097
:102D40008080808080808080808080808080808083
:102D50008080808080808080808080808080808073
:102D60008080808080808080808080808080808063
:102D70008080808080808080808080808080808053
:102D80008080808080808080808080808080808043
:102D90008080808080808080808080808080808033
:102DA0008080808080808080808080808080808023
:102DB0008080808080808080808080808080808013
:102DC0008080808080808080808080808080808003
:102DD00080808080808080808080808080808080F3
:102DE00080808080808080808080808080808080E3
:102DF00080808080808080808080808080808080D3
:102E000080808080808080808080808080808080C2
:102E100080808080808080808080808080808080B2
:102E200080808080808080808080808080808080A2
:102E30008080808080808080808080808080808092
:102E40008080808080808080808080808080808082
:102E50008080808080808080808080808080808072
:102E60008080808080808080808080808080808062
:102E70008080808080808080808080808080808052
:102E80008080808080808080808080808080808042
:102E90008080808080808080808080808080808032
:102EA000838682807D7D8083807E7D83837B7E7F21
:102EB0007F7E7B828A867F7F83867E7B7B7E817E10
:102EC0007E7F837C7B828F726D8E8F8C7D6D717522
:102ED000698BAD7D96BAA2966D60666754817E4E11
:102EE00064727B494C819ACBEAFFDE945962825925
:102EF0007D774F78886B382B5B6F58799BA67F9DC9
:102F0000E4BAA1B8C9B3735A5C4C5466755E5C4DA3
:102F1000495B59A6BB8DA0A5BD8E566AA9DBA6B894
:102F2000837C9852422B333B506D74AEA3B7D3BF12
:102F3000B17C73798C7D714B374B444B4E82B7CF4C
:102F4000D9E6D195A27F6952215249475364788CC2
:102F5000B1A59C92A2C5A59BA3A598606B54464DB4
:102F6000363C4B7977929C87B4A6979F9AA3A294FC
:102F70008B836D5F6866605E627F8393947F7D89DB
:102F8000997C6E8898857E824D6F988E898A959BF4
:102F9000AB897F533A5E71666977878B7FA6A49D64
:102FA0009DAAA68394826E63696244606272806E99
:102FB0007B9696978A85979590877D7C877D78818B
:102FC0008E86837F78807181817178767379827C37
:102FD000807F8486838C81858B7B808D83828982B0
:102FE000787C817D7C6F78807381826F7477817D3E
:102FF0008A9D8F99909C948B967F7C74764B3F4FE3
:10300000506C70848D8C98B6ABA6C7C7B8967A669C
:1030100049515D3620506F5064879294ABC7A7A288
:10302000B6B9957C898173687B6368806A7F7577A0
:10303000887971867F6A7B766F8179857E7A9B86B7
:103040008491978283918D918A947772857D6D5951
:10305000686D6B64758795A4A4AC9CB0A78C776AE7
:10306000573941424B3D587E88A9BCC2B6BDBC9E73
:103070009790816E727269686A756570796C6F81FC
:103080007F707E757E8A839B8C809580818D8D87F5
:103090007484887A7F8A816F837D7C7F7F87708943
:1030A00080787F7D8977857F7F787B837583848136
:1030B0007C868782817F92847C817F7E7C797A7B0B
:1030C0007C8B817783807F8A8985837F7C7B7E80F0
:1030D0007B7B928178827D7F6E7A82767E8E817410
:1030E000878B8E848A927D7B7E7D76767673757FE4
:1030F000817A848C8D868285878A89827C7B7373B2
:103100007B8283827D807B7A80828B807D808081C0
:10311000838380827C7A777B807C81828281888CA9
:103120008985888580827C77737977747D8B8E879B
:1031300085807C7A7D7B78787978757F888C8C8B9C
:103140008B8F8B838578747473797A81887F7A8288
:103150008383878D8F888078717376787C7C848177
:103160007C7C7A7F7E86908F8C8682817F8184832F
:10317000887E767672787D8387807A797D82827F79
:103180007C7A7E7D808D8B88817A7F81898C858118
:10319000797A7C7B8582797B8187857C7A74757A64
:1031A0007A87928D867A787D80828384817B7C7C0D
:1031B0007D8785838985888985877F71707372761D
:1031C00074777A7E85899190908E8884847E736CE2
:1031D0006E757681888887868185888385807C80E6
:1031E000838586807B7873787F75747C7577848817
:1031F0009297968D858073676A778083848B8E948F
:10320000968F8D897F6E656464697672727F808E19
:103210009EA2A09C90847D6E6867646C777B858B92
:103220008C9694909197957F706E605B6068808BB0
:103230008A8D91918D7F7F83837F7C827F7A797164
:103240007681808B9892897E777472767B82827F7A
:1032500083867E7C848E94928C837A70706D686B8A
:103260006D7074757E8D989C9C9B9E9B8E878A87C3
:103270007968636B6B6B727B7E7E82878A857572E1
:103280006F7078808C8F8C857F828E99A9B5AD9276
:10329000796865635A595D64737C858E83838B86F8
:1032A0008A8F8A8A796E737F94979896867E7D7FBF
:1032B000857E746C69686877878C8A7E767B879454
:1032C0009A958A7A6F6D788B8E8A77676C717C930A
:1032D000A1A59780797A8889756B6658535C708A46
:1032E00099999BA7A4989894806D5C5E676C7174A3
:1032F000727A8B9FA9AA9C8178706F75786D6772BE
:103300007480959CA8A28D7F70716D6A6A60605F01
:103310005F748FA2A9ABA79F998E8E978F7B6E6CDF
:10332000737871636163626775787A7E848D95982E
:103330009EA090817F8083928F868381818783790D
:103340006D6559545C5F748796A0A7A4A5A0918B66
:103350007666626B74797D807E817973817D7A7DFA
:1033600087898F9388888486918D84776761656C5F
:103370006F7B878B8F8F8F898581838E89828381F5
:103380007E7E8080797469646969676F7F8E9FA98A
:10339000AEABA69B8F8476665E5F636C6A6D706E63
:1033A00071777E8B8E929B9D9F9A9C95897F726888
:1033B000696768757B8181838A847C78777B7A8171
:1033C0009192918C8B8E847D7A7A7A7A79726D6EF5
:1033D000707074747B85858A969EA4A2A29C8A7B59
:1033E00067615C57646D78838C999D9F97867F7821
:1033F00077776E71716C727686928F8D8480817B07
:10340000848A85867E848B88877F80786C75797CBA
:10341000807C7C7D7D7D818985817B70757E898FB7
:103420008F8D8A8D8A8E9083776E6D6F757D7B818F
:10343000807D8383827E7E7B77807A79807E8382A3
:1034400087898A8E87909088877F7D78746F6B6C70
:103450006B70767E8788898C92908C8A8686828132
:103460008486867E7C7872716D73727075768186C3
:103470008989878F919498928F877D7A79757370F7
:1034800071717275767B7F84898A88878887868345
:1034900081838485888886827F7E7D7D7773706C4A
:1034A0006F7275797F848A8F919495928D8B8580C8
:1034B0007C7773747474787A7D7F818384827F7E55
:1034C0007C7C7F81838483858687878484838380D3
:1034D0007B7B797A78787C7A79797C7F8082858A1F
:1034E0008C8D8F8D8C847F7C767574767A7B7F7FD4
:1034F00081817F807C7A7A7A7C80878C8D8D8A86A8
:1035000083827F7E7E7C7D7E7F7F7D7A7A7B7C80DE
:10351000807E7C7B7E808486878785858382827E91
:103520007F7F7E7F7F7E7C7C7C7B7C7C80818081BA
:10353000848787878785817F7D7C7B797A7C7C7E89
:103540007E828385888485847F7E7B7A79797C7E80
:1035500081848587888685827E7D7A78787A7D7F6A
:10356000838584858382828281807F7C7C7B7E8050
:103570008184858686858582807B79787477787A60
:103580007D808486898989898583827F7E7D7B7A17
:103590007B7C7D7F82828281807E7C7A7C7F808240
:1035A000828383838383848382838281807F7D7B04
:1035B000797A7A7A7D7F818485858483838281800C
:1035C000808080807F80807E7E7F7E7F80807F7F06
:1035D0007F808080818281828382818180808080DF
:1035E0007F7E7D7C7E7F80808080808082828281E1
:1035F00081828181817F7E7D7D7D7D7F80808183D1
:103600008483838180807F7E7F7F7E7F7F7F8080B9
:103610007F80807F7F7F808283828283828281809D
:103620007F7F7E7D7E7F7E7E7F80808180808180A7
:103630008081818182818181818080807F7F7E7E87
:103640007E7F808081818081818281818080818173
:10365000807F7E7F7F7F7F7F7F7F7F818181818170
:103660008080808080807F80808080818180808059
:10367000808080808180818180808080807F7F7F4A
:103680007F7F808080808080808080818080818139
:1036900081808080807F80807F807F808080807F2D
:1036A00080808081818181808180807F7F7F7F7F1A
:1036B0007F8080808080818080808080808080800A
:1036C00080808180808080807F7F7F7F80808080FD
:1036D00080808080808081808080808080808080E9
:1036E0008080808080808080808080807F7F8080DC
:1036F00080808080808080808080808080808080CA
:1037000080808080808080808080808080808080B9
:1037100080808080808080808080808080808080A9
:103720008080808080808080808080808080808099
:103730008080808080808080808080808080808089
:103740008080808080808080808080808080808079
:103750008080808080808080808080808080808069
:103760008080808080808080808080808080808059
:103770008080808080808080808080808080808049
:103780008080808080808080808080808080808039
:103790008080808080808080808080808080808029
:1037A0008080808080808080808080808080808019
:1037B0008080808080808080808080808080808009
:1037C00080808080808080808080808080808080F9
:1037D00080808080808080808080808080808080E9
:1037E00080808080808080808080808080808080D9
:1037F00080808080808080808080808080808080C9
:1038000080808080808080808080808080808080B8
:1038100080808080808080808080808080808080A8
:103820008080808080808080808080808080808098
:103830008080808080808080808080808080808088
:103840008080808080808080808080808080808078
:103850008080808080808080808080808080808068
:103860008080808080808080808080808080808058
:103870008080808080808080808080808080808048
:103880008080808080808080808080808080808038
:103890008080808080808080808080808080808028
:1038A0008080808080808080808080808080808018
:1038B0008080808080808080808080808080808008
:1038C00080808080808080808080808080808080F8
:1038D00080808080807E7F818082817F7E7D8083EA
:1038E000817E827C7F807F7E7F8681747F7C7887EB
:1038F0007B8380777F76807D7F80788A75807E7CF1
:10390000827A8B79867C74857A837A83827D8972C8
:103910007D84717991807C817E846D8A7975885AE5
:103920009D75859B4AA65D789254AB7A61947885A3
:103930007A50A17D788B67B64E898473AD0CD278AE
:1039400055A644BD766EA156789157A5789F7E50B6
:103950009F5B9D6C9B7D628B56CB6473916A927B5F
:1039600095685C9E7A7E836E8A7E8F64969C646185
:103970009B7F9C7440AB769D8C5FA66C817978822E
:103980006BAF43762A998C50B26F6B349E9DA654D0
:1039900089A13B8392769D61A6647DB32ABA67B202
:1039A0003975F61F90B0538A7F827680AD5F9A5B3F
:1039B000A38576A65084A98374A95B8F9342D78987
:1039C0006D7A81A25EA1849A4489959DA33C7C9BDB
:1039D000B33EAB97537C8FD0464BD66F798657B4A6
:1039E0005E9662A0B33782A53D89DE229A777F9BDF
:1039F000745E7FB1618967AF457EC84B8F6E9760FB
:103A00007ACF3C8D7D996D59CB49E9336C787AE258
:103A100026B9945085A577775C9889868A966A8EB0
:103A20007F4ABC676A9C8E9882548FAB7340BE8C71
:103A300071758899A277609746BB769A6764BB6D6B
:103A40007C78A16372A25A8F997B9C757777955980
:103A5000B46A8799609E618F739765B15C88826153
:103A6000729CA47EAA5D7B56A0699B7F8AA2696B2B
:103A70008A86A25C8DAB5285619E46D567998F6F11
:103A80009F40BC1BA4AF51B483808369876AAF3861
:103A90007ACE3ED732C57425EE21DE4E8B966FC8A6
:103AA0001AB7527CAC87747C8D708B855F7D8E6E6F
:103AB000996D8D77817F8D9E01E37A27D26EA36009
:103AC000AF61764DB36E77CC45CA367D7CB36076F8
:103AD000A16F8685975795759469949966B251A19F
:103AE00074698F78807CB17C8D63786CC646AC79C4
:103AF00065C35AB145828A6FB2965FA45C9D7266B7
:103B0000999C8C7F7E727D86819A7E96824EA24F92
:103B1000C95893A78D4A85917A84769668CE408C51
:103B2000986E67BF56917E929758A576A84EB76A51
:103B3000A0897D92777F70B7749D5A8DC134BD7E08
:103B400080946EAD51A461929694898051C06E6D3F
:103B5000BA47A7579D928072A3768A7EA352769821
:103B600062B5838381A2559663AB658C995FBB5B1D
:103B7000B751987C8184689A7EA54BBF4ABB4C7E26
:103B8000B5408A8DAA47C9538779809B5E9E9E6AFD
:103B900088936E758B867C80A17972A169A24C9CFA
:103BA000997D939A67787C8C8C54C461C05E5FBAAF
:103BB0006585819578B46B68B5656D9B9880917DBE
:103BC000838B5B82958778929F84697BA1719674C1
:103BD0008A8A8B8D6FB0609A4EC85C64C949B95BA4
:103BE000B06379868A8B7E866191957D977F679D8C
:103BF000758A64958C768773769D78748A7D8980C2
:103C00008C7B7981538F9D868683838A6968B06EA9
:103C10007187A56C9B67808F727A7FB4618274A86C
:103C2000587E9E857C7E8D68A14A999A7B7E7D7D9B
:103C30006F8D85A368897B6E878A85668A6AA48969
:103C40006CA763887A875F8490889B52A17E6C6B97
:103C5000A07F896B98846C8965AF4FA19268868C30
:103C6000746B83828288A671877E6D7A78957AA339
:103C700065948368A243C2787A8F6DA3686F987C3D
:103C80008E737FB75F7E838576917D7A8978957A0A
:103C90009A5AAD75688D63B6638888957C7981A2E0
:103CA0005192907FA248BD57AD7E6B9D6D756A9312
:103CB000A4789C92569B4F9C9B76A1779D609477AD
:103CC000889B4EAA669D887EA0778369888460A8B9
:103CD0008D848F847C5898759E6A929767828C78C1
:103CE000938A4DA76583838D997E896E72718C8DC1
:103CF000958773945E8D8C669C6C84AE7A768179A0
:103D00009F517E92928F8892747155978AA4758D77
:103D10009D538583808B7E757F928D7B9A718D7B81
:103D20006C897EA68982648E826E84999181867662
:103D300093788882857F808F808C72958D74757A58
:103D4000A6778290776D859A8A8C6A8D867B81882A
:103D50008A69969C7A8674798076A184A27D947D06
:103D6000599274867E9B8A97727A9B76797C7B9631
:103D7000888A956394A2557493907A77A97F977BEC
:103D800069866A7FA68D936687A3607778948C880E
:103D90008A836B7B858F92669372679D879B9071F8
:103DA0006C4C8F9B8F8D69A3865E70828379609F38
:103DB000B5856469936D72769C8D868675806692F2
:103DC00087628A9D9963649883837B6C8A907F80E5
:103DD000937F6286958C767D7E6D918D82868583BC
:103DE0008B6C6F957F7F86918B7B6E888480847AC5
:103DF0008D76A1887C7A5D92858FA17D688476849A
:103E000091828E7E7A867E7F888A877A8B7A7B8A79
:103E10007AA086787E708D828D858378738C8C797C
:103E200079808E867E88868B748F7C7E7C858A8363
:103E300085819175847B8E7F7D9C768F8B74867750
:103E40008982889574878D7C847F91918583788A17
:103E50007B879484857B8B818487808980878B8D09
:103E60007F7D8578888B8B8F7E877A8083848B801B
:103E70008C8286807D85818C8384847F887F848307
:103E8000808781838482857D818082838287828707
:103E900080868280828085838384828382818380FE
:103EA0008581828680868180817D828182828384F1
:103EB0008180807F82858581837F818181888182E5
:103EC0007B8285808481848282817E8280838381DB
:103ED000837F8381808483838384817F807F8380C9
:103EE00080828082828180848182808082808080C2
:103EF00080807F818280818181807F807F808080BF
:103F0000827F808180817E8281818080817F8080AC
:103F10007F7F7F8181818081817E7F80828081829D
:103F2000807F7F8081817E8081807F817E7E817F96
:103F3000817F80837E7F807F84808181808180817A
:103F40007F7F7F817F7F8080808080828181808071
:103F50007F7F7F7F7F7F807E807F7F817F7F807E6E
:103F6000808080807E7F817F7F8280807E807F8056
:103F70007F808180807F7F817F8181808181817F3F
:103F800081808180808080827F817F818280828029
:103F9000828180828281818281807F8180827F8014
:103FA00081818181828181818182828282808181FD
:103FB00080817F83818182808281818181828281EF
:103FC000828381837F8283818183838282828183D2
:103FD00083818382828382828281838284848284B9
:103FE000838282838484838283858283848384849E
:103FF000838481828283828283828282838382829B
:104000008482828281828282828282828281828290
:104010008382838182828182818181828282828283
:104020008181818181828181818181808180818181
:104030008181818181818181818180808081818173
:104040008181818181818181818181818181818061
:104050008181818181818181818181818181818150
:104060008181818181818181808180818180818143
:104070008181818181818081818081808181818133
:104080008180818081808081808180818081808029
:10409000808181808180818080808080808080801C
:1040A0008080808080808080808080808080808010
:1040B0008080808080808080808080808080808000
:1040C00080808080808080808080808080808080F0
:1040D00080808080808080808080808080808080E0
:1042C0008080808080808080808080807F869F82C8
:1042D000798185856F6A60595B7B8E9E947B5A6875
:1042E0007884806B6872978595867C787E8F827BD8
:1042F000897D64646D7A7E8185B3B15F3275ABD49C
:10430000A09B865F7B9DD7858388958A394A499093
:10431000A6F1F7755E4A9F51337291A287AE84A3CE
:10432000C4A3917C6B2F437E6C9A8F8E8B957553B3
:104330006445696C8E57526A8EB57A7C55414F6ED2
:104340007667808F7C693C223A83BB9E8F845A6E4D
:10435000B1BB92511F6AB4AFB0B4CD999DC99BB4A3
:10436000A8420F307AAA908FCCC3C89590979186B7
:10437000B7965A4B29A0C9CB8A898988BBD2B03459
:10438000376A6D6D7B7E86D4BA996339366C93A893
:10439000A68D7B4FA46D566B456A8060543C86ADFC
:1043A00097A36E33014A42568188D0A69B726979E1
:1043B0005557897F8DC6929A7A444F6E8AB2B389D7
:1043C0007B7D8D987D978B555752A5BABB986359C5
:1043D0002C909F8C4C5084B9D77F6F4D816D9AAED5
:1043E0008588A1B880602A5A697E86786168A97E2E
:1043F00087999C7560897793A4C2CD926F0A1F63D9
:1044000099BE7C59578B839C906E537473638CA4B4
:10441000E0A9A384939C86765C6D9EDFF09B598413
:10442000BBCEBFB25D5E7E8D78937877A9B9AC467E
:104430004A606CA8AF9C878B8A8495656554706DC3
:10444000736C5F576EAA6A7C60453E43786366571B
:104450005F62649178958B72635D4F36583F3F354C
:10446000556C749775627997854E4772825F87D2D3
:10447000B77E7E996F566BB993847B87A39FB38F6A
:10448000AE9A998DA5C6B79A9EADE0C6BDBEC4A52D
:1044900072B8BABAA3D89A76B8A19095907E96AC25
:1044A00091805788AFC5E9A5623F62505542666565
:1044B00065664A845C6B48523D2F5227555E716C8D
:1044C00074674749415D637B644941626E61706511
:1044D0005B525F5B402D3C8D978BA7908E72776B04
:1044E000868B62716E939CB89D61488F9881AD9464
:1044F0009086A9B0BDB4B9B99CB69A99B5B7B3D3F3
:10450000BCAFC3CFB7A2AA889699C4D6997F8EB202
:10451000B1CDD1BA73788B8982586957AA898B97A4
:104520008E7E5CA37C270C483944605F717E6F5897
:104530005E705E4E41424A54706573827A574E4CAB
:10454000503F44707A8F8C8A7D76595E86555C6DBB
:1045500086807E7475A5937C7B8883ADAD756AA9D2
:1045600095919E91887E949C9081736BA0898272B4
:1045700097919DB1A1B89CB79FA0ADB6BE89769327
:10458000ADA2979E7378B9AB6572736B76A8BAA922
:10459000A694866C7081915A575D8A85829B765F5E
:1045A0003753472F4460746F848B7058756E6A82DE
:1045B0004D57686B7497AB9A745B66848296776389
:1045C0006C75A08B8B74B6875E5049626DA78FACFB
:1045D0008A647282805A7B8262808C9E8BA5937AD9
:1045E000775C685E7681908C9591978E93907391AD
:1045F000989BA3A7988B9E8E82868A9094707E84C7
:104600008C7A7584739F7DA754598689B67492926B
:10461000B58757635F755B838F7164778C8D905618
:10462000715E776B66925B6672B49F8C7E6B684B33
:104630006299B19487797B8D8D8E84776D6A83744E
:104640007C82AF99818C6A6674998481837F6D8046
:104650009C9E957B81747C80897885ACA18B5E74EF
:1046600080868F6D57576B8FA796888B6E667B7190
:104670007F8C7E747F87838698979291746251763F
:104680007A88907278718F856B58839579838E8E36
:104690008B8B898C82767B7F8C9874859289899CA0
:1046A000744E6B86787189635F6BA78F5D7E8A9885
:1046B0009C956E6077818A95A185767682917E81C0
:1046C0006C606D858981777D838B8573776E78705B
:1046D000969782848985786F516B7E8D8477777EFB
:1046E0008E97957C7478877B6D737182808A908EAB
:1046F000918E918268667F828C868E8077908A9B6D
:104700009395938D85759192A27F6C727494859622
:104710007982878D8585A37768666E6688979FA363
:1047200087818A91796871765B5D575D729393801A
:10473000845E546B817A7C83766A6E7A82929D8FD6
:104740007C6F7986857C6F74797E5E6486868592BF
:1047500096766B77767E8A7E607DA69B8D958A6D38
:1047600085927E737E8B877B88776670838A99A219
:10477000746F83968A968A857A7D908A99847F77EA
:104780007E898C907A81807B837D76667C7F847B3A
:1047900083A6938A85807D7981797D7C7B877B80E8
:1047A0008E91848181816F6F675E75777F7886894E
:1047B0008C86737D8379716F687E7F829599847B07
:1047C0008077808D82766E6F808B8484948C7B6EF4
:1047D0007C716D8B917D7B8582848A8A80767278EC
:1047E00082868074758C8F908C77666C67687795FD
:1047F0008384998C8C888C78776F6B81837B7A9596
:10480000A2888B9188716C837B75717879778A8C9B
:104810008A8587827572798682877272838C938D7E
:104820008E7F7C8083827B878677748082889D934D
:104830007C787A6A626F7F818488858583817F7DB9
:104840007073777F8588867A8980808683887A836B
:10485000877F7B818A808185858582818B99847A17
:104860007A74787A8A8A86867E808185827B838341
:104870007C7F84808A8C7B6668726F83928A7D6D70
:10488000738482736F72828787898384777F7B7F4B
:104890007F767A7A767B7D797D817B707D7A7B7C71
:1048A000827F838A7C7E80807E87868485808187E4
:1048B000887C848888897E878283858781797676DB
:1048C0008F8F8A85867E7B89877D7C746C738B8EC7
:1048D000848A7B808F8782807E7D777D7F898884B4
:1048E0007875747C8C87807B7B757E8580838882DD
:1048F0007E7C82888B827A7F817783857073787CD7
:1049000081857B78777D77807F7A7F898882887BB5
:1049100081837E757B7977767D908E7D7B7C7D87AC
:104920008889807D8081868B898082807D7E828758
:1049300083847D7A767A8586847F84858283868265
:104940007F8081818584827B7A717A89898B7C8062
:10495000817E7D857A74828F8882817C847E807B53
:104960007A7772758290857F81807A7A807C7E806A
:1049700081848184817E787A7980837E7D7D807E4A
:104980008586837D7D8080818183858481827F8807
:10499000887D7D837C747778818A86857D7778822F
:1049A00088827F7B7D7D80858883827F8285847CF1
:1049B0007A7D7D7E8388828382818583817D817EED
:1049C00078807D828890857E7A777579827E847CF6
:1049D000838083817E7D7A7C797C7F8283828382DF
:1049E0007D7D818481807B7D81807E7D82828682C7
:1049F000858084848080797E7986867F7B80877CB1
:104A000083867F78787974818A857F7F7E7B8385B2
:104A1000837B7E7E7D8083837D8282848783878380
:104A2000817D7E7F7F7E7C84858785857B8188866E
:104A3000807B7C797B7D83828386887D7B7F7F7E84
:104A4000827F7B7E82807D837F7C7C808081817F72
:104A50007F7F7F807F807F7B7C81838185827E7C5E
:104A60008080817F7E7B7E808284817F7F85808243
:104A700081807F808082827C7D7D7B7F88857D7F39
:104A80007E808083827E807C828182828483807F1C
:104A90007D80808181808082828284807F80828309
:104AA0007F8080807D828482827F7E7E8180838100
:104AB0007D7C7E808084827F7E7F7F7E7F7F7E8004
:104AC0007E7F7F80817F7E7E8080807D7F808080F2
:104AD00080807D7E7D7F7F80817E7F8082807F7FE2
:104AE00081807F83818080827F7D7F818181827FC1
:104AF0008180817F81807F8080807E8180818183B1
:104B000081808080817F7F7F808181808082817FA2
:104B10008182807F81817F818180808182807F818D
:104B200081808080807F818281818180808081827C
:104B3000828180808080807E81827D8182827F816F
:104B4000817E8181807F80807F81818280807E7C68
:104B50007F8281807F7F7F7F807F7E7E8181818059
:104B60007F80807E80817F7F807F7D818181808149
:104B7000807F7F7E7F807F7F81818180807F7F803B
:104B800081807F80808081807F8082808081808022
:104B90007F80808182808081817F80827F8182800E
:104BA0007F8080808082827F808180808080808002
:104BB00080808181807F818280807F7E7F807F80F6
:104BC0008082807F80817F7F807F807F7F808180E7
:104BD0007E7F7F807F80827F7E7F807F7F82817FDC
:104BE00080808180807F7F81807F7F818080807FC7
:104BF0008082817F7F7F7F8081807F8081828180B2
:104C0000807E80807F808180808180818080807FA5
:104C1000807F808181818080808080808081808091
:104C2000818282807E7E7F8182817F7E808082827F
:104C3000807F7F80808080808181808080807F8075
:104C40007F8080808080818080807F808080808065
:104C50007F7F808081807F7F7F7F80808081817F58
:104C60007F807F808181807F7F7F81808081808045
:104C70007F807F7F80818180807F80818080807F36
:104C80007F808180808080808181807F7F80808024
:104C9000818080807F80818180807E7F8080818113
:104CA00081807F7F80817F8080808181807F7F7F06
:104CB00081817F8080828181807F7F8081818080EF
:104CC000807F80817F808080808081807F80807FE6
:104CD0007F80807F808180807F808181807F7F7ED8
:104CE0007F818180808080808080808081808080C2
:104CF000808180808080807F808182817F7F7F80B3
:104D00007F808180808080808080808080808080A3
:104D100080808081807E7E80818182807F80808093
:104D20007F808080818181808080808081807F8081
:104D300080808180818180807F807F818181807F70
:104D40008080818180807F7F7F81818180807F8062
:104D50008180807F7F808081817F7F7F807F808155
:104D60007F7F808180807F7F808081808080807F46
:104D70007F7F80818080807F808080808081808133
:104D8000807E7F807F808181807F80807F80808027
:104D90008080807F80807F8080808080807F808016
:104DA000808080808080818080807F7F7F7F808204
:104DB0008180808080807F7E7F81818181808081F1
:104DC000808080808080818180807F8080808180E1
:104DD0007F808180807F8080818180807F808181D1
:104DE000807F7F8080818080807F80807F7F8181C5
:104DF00081807F807F808181818080807F80807EB4
:104E000080828080807F7F808180807F7E808080A4
:104E100080817F8080808080817F7F808081808191
:104E20007F7F80818080807E80818282817F7E7F83
:104E3000808180807F808182817F807F808180806F
:104E40008080808181807F80818080807F7F82815F
:104E500080807F808082817F7F7F80808181807F52
:104E60007F7F80808080807F808180807F807E8047
:104E700081818180807F80817F807F7F8081808031
:104E80007F7F8080808080807F7F808080807F7F28
:104E90007F8082807F80807F808080807F80818112
:104EA0007F81817F808181808081807F8081807F00
:104EB0007F7F8181818082807F807F807F818180F0
:104EC000807F80818181807F7D80818181807F7FE3
:104ED00080808081807F80808181807F7F808180D1
:104EE0008080808180807F7E7F80828181808080C1
:104EF00081817F7F7F7F8082807F8081807F8080B3
:104F00008081807F7E808182817F7E7E7F808181A3
:104F1000807F80807F80807F7F807F808081818094
:104F2000817F7E7E7F7F8283807F7F7F7F80808086
:104F3000818181807F8080818080807F808081806E
:104F400080807F7F8181827F807F7F8181817F8060
:104F50007D7E828181817F7F80807F80807F808055
:104F6000818181807F807F7F807F8080818181803F
:104F70007E7F808080808081818080807F7F808133
:104F8000808080818081807F7F7F808080807F7F24
:104F90007F8081807E7F81808182807F7F81808011
:104FA000807F8081808080808081807F7F7F808102
:104FB00081808080818181807F808080817F7F81EE
:104FC000818180807E7F808081807F8080808080E2
:104FD0007F7E807F818281807F807F8081817F80D2
:104FE000807F7F81828080807F7E808181818080C0
:104FF000807F8080808080807F80818080807F7FB4
:10500000807F80808081808180808080807F8080A0
:105010007F81808081807F80807F80808180808090
:105020008181808180808080807F7F7F7F8081827E
:105030008180807E7E7F808180817F80807F818073
:105040008080807F807F7F7F808282807E807F8063
:1050500082827F7F807F808181807F807F8081804E
:1050600080808081807F8080807F8080808082833C
:10507000817F7E7E7F808181817F818282807F7E31
:105080007D7F808182807F80818081827E7D7F8024
:105090008181817F7F81818080807F80808080800E
:1050A00080807F8180808080808081807F7F7F8101
:1050B00081818180808081818080807F7F80807FEE
:1050C0008081818080808080807F7F8080808081DF
:1050D00081808181807F8080807F807F80818181CD
:1050E0008080808081817F7F7F808081817F8080C0
:1050F000808081807F807F818080807F80808180B0
:105100008080807F80808080807F7F8081808080A1
:10511000808180807F7F808181807F7F808080818F
:10512000817F7F808081817F7F8080807F80808081
:1051300080818181807F7F8080808080818080816C
:10514000807F8080807F808080818080807F808061
:105150008080808081808080807F8080808081804E
:1051600080807F7F7E808080818182808080807F40
:105170007F7F7F8081828180807F8080807F7F8031
:1051800080808081808181807F7F7F7F818180801E
:1051900080808080807F80808080808181807F7F10
:1051A000807F7F8181818181807F7F807F807F8000
:1051B00081818181817F7F808080808080808181EA
:1051C00080808080808080807F808181817F807FDF
:1051D00080808081817F7F7F8080808080807F80D1
:1051E00080808080807F7F808180818080808080BF
:1051F0007F8081808081808180808081807F8081AC
:105200008080807F8080808080807F808181807F9F
:105210007F7F808181818180807F7F807F7F80818F
:105220008181818080807F81818080807F80818179
:105230008080808080807E7F80818181807E7F8170
:10524000808080807F808180807F7F808080808060
:1052500080818080807F7F80807F8181807F80804F
:1052600080808080808080808180808080807F803E
:105270007F81818080808080807F8080808081802D
:105280007F807F80818280807F808080808081801D
:10529000807F80808081808080808080818180800C
:1052A000808080808080807F7F81818181818080FB
:1052B000807F7F80808081818081807F80818081EC
:1052C000807F7F80818080808081808080808080DE
:1052D00080807F80807F8080818081817F7F7F80D0
:1052E0008080807F7F80818281807F7F7F7F8080C0
:1052F00080808180808081808080807F80808080AD
:10530000808080808181807F80808080807F80819C
:1053100081807F80808080807F8081807F80807F8F
:1053200080818181807F808080808080808180807A
:105330007F8080808181807F80808080808080806D
:1053400080818181807F7F7F7F808180808180805C
:1053500081807F807F80818080808080808081804C
:105360007F7F808081818080808180807F8080803D
:1053700081807F7F818081827F7E7F807F8181802D
:105380007F81818181807F7F80808080808080801C
:1053900080818180808080807F7F7F81808080800D
:1053A0008080818080807F7F8080808080818081FC
:1053B00081807F80808080808080808080808080ED
:1053C00080808080808080808080808080808080DD
:1053D00080808080808080808080808080808080CD
:1053E00080808080808080808080808080808080BD
:1053F00080808080808080808080808080808080AD
:105650008080808080808080808080808080807D4D
:105660007B7E8181848A837D776F7A786960656CBF
:10567000766E6D706F7B756C70755F507077737F31
:105680006FA5975983AB686D827B8C86B28787BE86
:10569000768CB288A4938F8FBF7B93BF99A78ECE51
:1056A0009A9AA589968B9399839699866ACD906DDF
:1056B000AF5B9F777BA0734D9E876CAD746B9F65CE
:1056C000946F759A368971A82F7A8D5B9E527B876D
:1056D00057486B676351857456949B30A468616C1E
:1056E0003AAC5A7F62A176688A42C74D6DB260B803
:1056F0006C7A8E82A55DC25F70DD5BC4976693CBCA
:10570000B222FF8940EE679083CE6577E158B99861
:105710006E8B8A9980B37975B588BB70905CAA9BB3
:105720006A838E9844DE6C7DA19474BA9F65988ECE
:10573000794CA790848E95AA927AB665A39071BB96
:105740006B7B9B7C90A2886F7AD15EA6A067C38E8C
:105750008C9692A678AA928A9D6BAE6DBB6982CB1D
:1057600052929A77A17B8B689C97809440B46B8A05
:105770009850A47D4C918F884F9C768AB55871B013
:10578000767A8A57A4589C5BAB6F869F68C6609AEE
:105790008C799B888E768B8467A281829B9492AB56
:1057A0007C9080AD6294AC7D8F83C25DB7B78AB7C1
:1057B000A47AC077A6A39F8884C192D791B197B7E6
:1057C000CCA5A7C88EA1C6ADB99CA392B1A4B1C304
:1057D0009DAEC4B1B1ABBCB497B6B1A9B197BF96F9
:1057E000A6B8C0B99EACA1CB8CB2A895B5A4BCABF1
:1057F000B0B59EB2A0A2AC95B2879D998BC27F9B9B
:10580000A08BA3809D888B94819D75818870957AEB
:10581000806F6C725D635D6F666E70646361576309
:105820005E4B57584C46484B4A4D3A4852464946BB
:105830004B413F4E403D473C504243504F584B59DF
:1058400061566363675E697667706F757E897D8771
:1058500085838F95958C8E969D9CA3ABB3ABB6B18B
:10586000B6B6ABC1B1B3C3B2C9B9BEBDB5CEBDCB7F
:10587000C5C6C6CAD3C9CEC1C1C7C9D0C3C3BBC0C0
:10588000BFC7C3C4C0BBBAB1C2B2BEB5B9B6B4B06B
:10589000A8A9A8A8AAAC9EA69597958E9087827E67
:1058A0007678737A69776F67725D6B57605F525D68
:1058B0005355574F5D5752545653504C4D463A3EF0
:1058C0003942353B3439403A3D3233333530322F6B
:1058D0002B2D2E242D292C3030362837302E3126F2
:1058E0002F2F333E3A3E344C45454F425148515A92
:1058F0005A5E646274797C8288848486888C9194F0
:1059000094A599A2A7A6AAABB8B9BABDBEC1C1CC8D
:10591000CBC6CFCBD1D1D5D4D6E2D9E1E4E3E4E50F
:10592000E5E7ECE5ECEBE6E3E9EEEEF1ECEEEFEBD0
:10593000EDE4E5DEDCE0D8D7D3DAD2CDD0B8B7B32A
:10594000A9B2A5A99D9B9F92918881827D7A766D4F
:10595000706A686A67635D5D5E585B5C6157595742
:1059600048504D4C47494A48484A4A4D4F4945429C
:105970004B4B4B4D4E4F4D4A4C514E565750535931
:10598000556060625D58635B62596563646A5A681A
:105990005C605F5E6560645D5A5E5960635C605721
:1059A0005754545D565A5A57616560605E69606E1F
:1059B00070656F6674727E7A7E87868B8C93939FF8
:1059C0009FA0A5AAA5B3B5B0BDBDC0C2CCCCD6DA48
:1059D000DBDFDFDEDBDDE6E3E1ECE7EAF1EFEEF271
:1059E000F1F8F6F6F1EFF2EBE5ECE5E3E2E1E3DB0B
:1059F000DBD8D5CDCFC4BDBEB6A7A79E9F9B909444
:105A00008A867C77747368625F5757534F49494958
:105A1000473F353C2D33332E32272C222B27202491
:105A20001E2426232924272928302C342C333333D1
:105A300034363C353A3C3E40454447474C4C4F5841
:105A40005758565C57565C5B5A5E62595B625F5EA4
:105A500062606067685B5D5C5B6663696D6B67680D
:105A6000686B6B706B696F66706C6C6B68746B7273
:105A7000727276777F7F898085908A928E8E9797D3
:105A80009D9A9EA6A4AEAAABB2B1B6B5B3B4BCC043
:105A9000C5C8C1C5CACDC9D0CECAD1CED1D6D4D839
:105AA000DCDBD8D4D9D7D8D9DAD1D2D1CBC8C2C0CF
:105AB000B9BFB6B9BAB1ADA6A09B98928C88847CC8
:105AC0007C7376726C675D5A535451464644444326
:105AD000443D393E3B3E3437322B29222A29272C9C
:105AE00031312E323539433E40443C3E3E444546FA
:105AF0004C484C5153555B5D5C5E5E5D6367666709
:105B0000606565656E6D6E6C6C6B656160635F5F33
:105B10006164655F6465646A62646360645E626157
:105B200062655B60646565686A6A726F6F737378DB
:105B3000787A807D8281858A888F899394989B9FCB
:105B4000A19EA6A6B1AFB2AFB2BBBCBDBCC0B7BD33
:105B5000C0C4C5C6CACBCDD0CECED1D3D1CBCECA90
:105B6000CECFD1D1CECACCCDC9C4C2C3BDBBB6B3D2
:105B7000B3B1ACA9A39B948E898683807E766C6634
:105B800062635B595B5759534F4D4F4743403A3619
:105B90003D3634332F323133303332322B30312EE5
:105BA0002A31363339383F4144414948484C484A04
:105BB0004749474C4A494C50555555595C525555E3
:105BC000535653555753535B595A5E5E5E5C605B48
:105BD0005755525353514F4E5051545152505354A4
:105BE0004E504E505357575451555B5F5F67686D29
:105BF0006E6B72717574798083838B8C9096949B95
:105C00009FA2A2A0A3AAA9AFB1B2B6B7BBBABDC2A8
:105C1000C3C2C3BFC6CACBC8C7CDCDD0CBCFD0D2ED
:105C2000D6D6D7D3D1CFCCCACAC9C8C7CBCBC7C7A2
:105C3000C4C1B7B7B1A9A6A0A49D9895928D847E42
:105C4000817C77746C6E6A676861575657555052FD
:105C50004C4E504E4A484B474D4A4A4F4B494A4A90
:105C60004A52554F5352515152535759585B595DEF
:105C70005E606065616764666E696B6A696A6E69B9
:105C8000686B6C696D696968686E6E6F6D65616976
:105C9000676963646362625F635C5C5D60626462E7
:105CA00060626768686E6B6B6B6A6C6F7977767829
:105CB000778184878787888C8C8A8F92959A9B9D21
:105CC000A3A9ADB0B1B3B6B4B4B2B8BFC3C5C2C472
:105CD000C6C7CACCCDD0CACBCDD0CBCBD2CECFD1FC
:105CE000D4D1CDCFD2D2D1CCCCC9CCC9C1C1C0C204
:105CF000B9BEBCB7B9B3B1AEAAA49F9D99948D8D1E
:105D000087838C857C82827B79736B66686363652D
:105D10005D5F5A5C585A5A555B545052504F52501E
:105D20004946494A494C4D4D5153545652565A5979
:105D30005B5958595B60635F615F605F5D5A5A5D94
:105D40005C5E5A5A5A60626464605E5A595557568E
:105D50005855545558585B635F59565B575B605BA9
:105D60005F636061615F606264676D6B6B6D7073D0
:105D70006F6D7073757B7F7F81848C8C878D8E9423
:105D800097989A96979B9F9FA4A8A5A8B0ADADABF6
:105D9000ADB6B5B4B8B4B2B7B2B5B9B4B4B4B6B6BA
:105DA000B5B1B7B5B1B7B3B4B1B3AEAFAEAEAEA3E4
:105DB000A7A6A8A29A999A96999B9799999C9A9422
:105DC00094908F8E8E8886868486838481827E7965
:105DD000787B7572726F7271736F726E6A656365CC
:105DE0005D606063615F68656564676B6766636873
:105DF0006466646268666A6869666867696A6B7027
:105E0000676364646461615F62625D636562626569
:105E1000615E5D6062616061646366676B6866664F
:105E20006966626464676A6D6B6C6E6D71737477BA
:105E300078777D837E7D7E818283858688878E903C
:105E40008F9494949195969597979D9C9CA1A1A3CE
:105E5000A2A6A5A6A9A1A3A6A7A5A9ABA7AAAAAED3
:105E6000AAA6A3A0A3A0A0A3A29D9E9D9D9F9FA321
:105E7000A09A989894928E8B8C91938E8B8C898615
:105E8000858286868185847F7F7A7D7B7977787627
:105E9000767272716B6F706E6D6D6C6C6666676931
:105EA0006466696C6B6163646060636060615D5CC3
:105EB0005D63625F5F5D5D595A5C5B5A5E5B56591C
:105EC0005655575655565455595352575453565282
:105ED00054555455565550544F4B5251565754588B
:105EE000565856575B5D5D54575B5C5E5F615D6005
:105EF000635F66626265666968666B6D6967686B39
:105F00007173737876757678797B7B7E7C7D8382FE
:105F100083827F8283868787868585868383868141
:105F200083848600C93511241FBECFEFD8E0DEBFC1
:105F3000CDBF11E0A0E0B1E0ECEFFBE602C00590C0
:105F40000D92A03AB107D9F723E0A0EAB1E001C071
:105F50001D92AB37B207E1F71FE2C3E9DFE204C0ED
:105F60002197FE010E94F635C239D107C9F70E9478
:105F7000AA310C94FC350C940000AF92BF92CF92E2
:105F8000DF92EF92FF920F931F93CF93DF936C01F9
:105F90007B018B01040F151FEB015E01AE18BF08DA
:105FA000C017D10759F06991D601ED91FC9101908C
:105FB000F081E02DC6010995892B79F7C501DF91A4
:105FC000CF911F910F91FF90EF90DF90CF90BF90F6
:105FD000AF900895FC01538D448D252F30E0842F20
:105FE00090E0821B930B541710F0CF960895019701
:105FF0000895FC01918D828D981761F0A28DAE0FEE
:10600000BF2FB11D5D968C91928D9F5F9F73928F74
:1060100090E008958FEF9FEF0895FC01918D828DA0
:10602000981731F0828DE80FF11D858D90E008956D
:106030008FEF9FEF0895FC01918D228D892F90E0C5
:10604000805C9F4F821B91098F73992708958EED75
:1060500092E00E941B3021E0892B09F420E0822F7E
:10606000089580E090E0892B29F00E94273081116B
:106070000C9400000895FC01A48DA80FB92FB11D48
:10608000A35ABF4F2C91848D90E001968F7399276E
:10609000848FA689B7892C93A089B1898C9183704C
:1060A00080648C93938D848D981306C00288F38945
:1060B000E02D80818F7D80830895EF92FF920F9372
:1060C0001F93CF93DF93EC0181E0888F9B8D8C8DA4
:1060D00098131AC0E889F989808185FF15C09FB798
:1060E000F894EE89FF896083E889F989808183705B
:1060F000806480839FBF81E090E0DF91CF911F910A
:106100000F91FF90EF900895F62E0B8D10E00F5F2A
:106110001F4F0F731127E02E8C8D8E110CC00FB600
:1061200007FCFACFE889F989808185FFF5CFCE0198
:106130000E943B30F1CFEB8DEC0FFD2FF11DE35AA8
:10614000FF4FF0829FB7F8940B8FEA89FB8980811B
:106150008062CFCFCF93DF93EC01888D8823B9F095
:10616000AA89BB89E889F9898C9185FD03C0808162
:1061700086FD0DC00FB607FCF7CF8C9185FFF2CFDF
:10618000808185FFEDCFCE010E943B30E9CFDF91CA
:10619000CF910895CF93DF93FC0101900020E9F7A0
:1061A0003197AF01481B590BBC018EED92E00E9464
:1061B000BD2FEC0142E050E06AE171E08EED92E02B
:1061C0000E94BD2F8C0F9D1FDF91CF9108951F92CC
:1061D0000F920FB60F9211242F933F938F939F939B
:1061E000AF93BF938091DA029091DB02A091DC0221
:1061F000B091DD023091D90220E4230F2D3728F031
:1062000023EC230F0196A11DB11D2093D902809389
:10621000DA029093DB02A093DC02B093DD0280915E
:10622000D5029091D602A091D702B091D8020196E2
