:100000000C94452F0C946D2F0C946D2F0C946D2F28
:100010000C946D2F0C946D2F0C946D2F0C946D2FF0
:100020000C946D2F0C946D2F0C946D2F0C94373114
:100030000C946D2F0C946D2F0C946D2F0C946D2FD0
:100040000C9499300C946D2F0C9405310C94DF3086
:100050000C946D2F0C946D2F0C946D2F0C946D2FB0
:100060000C946D2F0C946D2F0C9400000C940000D8
:100070000C9400000C9400000000000025002800F3
:100080002B002E0000000000240027002A002D0075
:10009000040404040404040402020202020203032E
:1000A000030303030505050505050503010204080F
:1000B00010204080010204081020010204081020D2
:1000C00002080104104020407F807F808080808073
:1000D000807F817F827E827C84798D5006403E7F46
:1000E000614AA0BEF4E4FFD7FFC8C2A8615F031C49
:1000F000111E1225087B3880B74C66818A90D48AFD
:10010000C8B7E9E5DFF2D9E7DDCCB3E58064B14BF0
:1001100031622A1D2220191F1E1B2E6DAB6065E562
:100120008E238561BCFAB5B2B2DBD7EEA3AEEAD8B6
:10013000A8DBA2ABC5391F2221363E5894176C604C
:100140003849163216713A3F4F9AC6ABCDB4E8D053
:10015000DBD5D3D7CDDF969A8265A39445212B2991
:1001600040272B365B462B2A4A9B7592A784B5E124
:10017000B7A1D1CDD7C69DDBC5D5A98F5732323BAC
:10018000703F89A9A26C5B4C33323632363B5CAA95
:10019000B3A29499507CADADCDC8CBC5CDB6CAAA9B
:1001A00078B7726A6F5D925D8D71585B34354462C9
:1001B000373D393C424B6584A0AABBCAC1C7C2C205
:1001C000C78EA8AD8B8F83859A7B729681623F49DB
:1001D000483B4C40415293985F7978827F5162A8A6
:1001E000AC95AFA6AC98AE898985779691A694CC4C
:1001F000ADA88E7974545B504243415A53487A6B90
:100200007B908D6D9789989E6E7A8F9AA2B99C9FEC
:10021000BD9DA28670968180687164707C61536018
:100220006F5B4B588E91908D837B878386917892FC
:100230008085957A8E999C788B999799767180763E
:1002400064707780746E838876796F6C80756A735A
:1002500072728B7F868B96958B97919E8E95948BE1
:10026000936D678573766E605F62797586918A9506
:100270008477776D81767F7E838D7C858B8B817B88
:100280008790909E7B797970846D758283908D8C38
:10029000927D767C676562787F767B908C7A6E6FD4
:1002A000897E89959C91877E8689777A7E88887EEB
:1002B00079877E83857D80817E7576706E6E70769F
:1002C0006F7B8A8E888E8F858F90877E83877A70EA
:1002D000767F807E8084908285837C7E7977797634
:1002E0007E8D818879716C7179818588888F86800F
:1002F00088717D80808182858D9586848075837FDD
:100300007C797779737278787F7F7C8B82897D8A1C
:100310008584817D7D728588867F8C7C857F7A87C8
:100320008780797C807B777B77877A7974828381F9
:10033000828088838A8284757C7E7C7779848585B7
:10034000848B7D8584887F7E817D7A787E7E817AAC
:100350007F7D837E7C827C81807F79767D7B8486B5
:10036000898884848784807D838580847B7C7E7F6C
:100370007775757E7D7D86878385818081787F7A9C
:100380007D7E7F83807F8181848180838588867F55
:100390007B7B7C7A7780828486817E82817F7D826E
:1003A0007D7D797C827E7D7C7D7D857F8681848458
:1003B000818382837F857E7E7D7C7A7B8382808041
:1003C0008183817F7F7D79787D7F7F7F8585808236
:1003D0007F828483808381817F797A7B817E818221
:1003E000848681817F7D7E7E7D7F7F82827E817D0E
:1003F000787E7F7F7F828484848383807E7B7D7F01
:100400007E808384838580807E7F817E7E7C7E78F3
:100410007B7D7F827D8382848381818083817E7ED8
:100420008180807F7F817F828080827E7E7F807ED0
:100430007E7F7E7E80807D7D7D80828182828285BE
:1004400083807E7C7D7A7C7C8183858484837F80AD
:100450007E8180807E7F7E7E7F797C7E7F808184AE
:1004600081838180807E7E7E7F8381828080838184
:10047000807F80808280807F7D807E7D7A7B7E8190
:10048000818283828281808081827F7F7D7D808066
:100490007F80838281807F817F807F7E7F7E7E7F61
:1004A0007F7E7E7F828182808181807F7F7F7E814F
:1004B0007F81808081818181808081808080818234
:1004C000807D7C7C7C7D7E80818383818181818035
:1004D0007F7F807F818081808180808180817F7F1C
:1004E00080807F7E7E7F7E7E7E7F80828281817F14
:1004F00080807F7E7F818181807F7F7E7F80818100
:10050000828281808081807E7E7D7D7D7E808082F2
:10051000818281808180807F7F7E7E818081807FDB
:100520008181818080818181807F7F807F7E7D7DD0
:100530007F808181818282807F7E7F8082818180B5
:10054000807F7E7E7F818081818181827F7F7E7DB1
:100550007D7E7F808180828181807F8081807F7F9E
:100560007F81807F7E7F7F80818181818281807F8A
:1005700080807F7E7F7F807F7F7E80818181807F82
:100580007F8080808081807F7F7F8080808181826A
:10059000818182817F7E7E7F7F7F7F80818181805C
:1005A00080808180807F808080807F807E7F7F8050
:1005B0008081828181807F7F7E7F8080808080803B
:1005C0008080808080808080808180807F7F7F7F2E
:1005D0007E7E80818181818181817F7E7E7F807F1F
:1005E00080808080808080808080808080807F7F0D
:1005F0007F808080807F808081818081807F7F7FFD
:100600008080808080807F7F808180807F808181EA
:1006100080807F7F7F7E7E7F7F80808081818181DF
:10062000807F7F7F7F808080818080807F808080CE
:10063000808181807F7F7F807F7F7F7F80808181BD
:100640008180807F80808080808080807F7F8080AC
:100650008080808081818080807F7F7F7F807F809D
:1006600080808081818080807F7F7F7F808080808C
:10067000808080807F80808181808080807F7F7F7C
:10068000807F7F7F8081808080808080808080806C
:1006900080807F8080807F7F80808081818180805A
:1006A0007F7F7F7F7F80808080808080808080804F
:1006B00080808080808080807F7F7F80808080803D
:1006C000808080807F7F808080808080808080802C
:1006D00080808080808080807F808080808080801B
:1006E000808081808080807F7F7F7F80808080800D
:1006F00080808080808080808080808080807F7FFC
:100700007F8080808080808080808080807F8080EB
:100710008080808080808080808080808080807FDA
:100720007F7F7F80808080808080808080808080CC
:100730007F808080808080808080808080808080BA
:1007400080808080807F80808080808080808080AA
:100750008080808080808080808080808080808099
:100760008080808080807F7F7F808080808080808C
:100770008080808080808080808080808080808079
:100780008080808080808080808080808080808069
:100790008080808080808080808080808080808059
:1007A000808080808080808080808080807F7F804B
:1007B0008080808080808080808080808080808039
:1007C0008080808080808080808080808080808029
:1007D00080807F808080808080808080808080801A
:1007E0008080808080808080808080808080808009
:1007F00080808080808080808080808080808080F9
:1008000080808080808080808080808080808080E8
:1008100080808080808080808080808080808080D8
:100C80008080808080807F817E827F857F85798162
:100C9000837B837B89758B78827F7A8875867B825C
:100CA0007F827D837E8082817F7F837B8677847C49
:100CB0007F817D827C847C847D837F7E7F80817D3B
:100CC000817C847A847C807C7F837D7E83817A862C
:100CD000798976867E837A857A827E827A81867326
:100CE0008A7F796FA944BA52978062AE51AF49ADFD
:100CF00066838B7290628E9C4B9E836F91758C6520
:100D0000A85A997A7993699772896F976D89970133
:100D1000C97E6A94758E739070AC1887B256957FB1
:100D200077887C7B8B73898079936E8F79828575C8
:100D3000906D936698698E7E77926B9172936992AB
:100D4000797F81827A857F7A8E6B907B7C867E7BB1
:100D50008A758B788280837C7F8479867C837E7D94
:100D6000857D7F7D7E89738D758977887B827A8783
:100D70007B87798185768D708C788A758D768B7579
:100D80008A798580798D7582857983817D85768E56
:100D900074877E847C8680817B89738A7E7D828154
:100DA000807A867B85758E738A7C828081817E8342
:100DB0007B857B867C82847A8778897A85807E852C
:100DC0007A8E74897A80837D857C808579857F7D24
:100DD00086798978887B80827D857B867A857C850B
:100DE0007F7D857C837F837C867A83837A8B788200
:100DF00087758E768685778C78887B867B857B84E5
:100E000084788680808281817E7E857C8679887ADE
:100E10008977897C807F8187758C76887B84807DCB
:100E2000867B8483798A79837F837B887B828776BC
:100E3000897A86788C798286788C77887F7B8B77A5
:100E4000867F827D81847A847E827E857D82808297
:100E50007D847E7F847C867A84807F8181827F838B
:100E60007C83827C867B818182827A887C7F877783
:100E7000897B82847A877B84817C84807D847D8267
:100E8000807F817F837F817F837F7F857B83827C5F
:100E9000867B857E7F86788A7A8387758F74878143
:100EA000798B7A81827E7E8A709271888473917048
:100EB000877F80827F7F857B847F8378877C838127
:100EC0007B88778B76887D81818081827E82817C20
:100ED000887B837C877884817C87798978877F7D0C
:100EE0008778887A857E7D8679867E7F837F7F81FD
:100EF000817C877B8086778B7587807A8976897AF3
:100F000082827C867D8180817F7F837D837D857FDA
:100F10007F827E81807C867B8185778C7686807DD2
:100F2000867B847E81807F827D837E7F837B867BC0
:100F300084807E837F8081807F837B857B82817DAF
:100F4000837F827F818080827D837F7F847B847E9C
:100F50007E81807F80817D827F817E81817D837F94
:100F600080817D81837C847D81817D837D837E8181
:100F7000817D837E7F837C847D81817D847B837E74
:100F8000817F80807F827E837C847C82817D837F61
:100F90007F81807E827D8080807E837C847F7E8551
:100FA0007B847E80817E81807D837E80817E827E47
:100FB00080817D837D827F7E827D837D837E818033
:100FC0007E827D817F7F817D827E80817D837C8129
:100FD000807E827D81807E827F80817F817F7F8114
:100FE0007D827E80817E827E827F7F817E817F8006
:100FF000807F817F808080817F808080807F8080F3
:101000007F807F808080807F7F80807F807F8080E6
:101010007F817F808080807F80808080807F817FD3
:10102000817F80807F807F807F80808080807F80C4
:101030007F807F80807F807F8080807F807F8080B6
:101040007F808080807F807F807F807F80807F81A5
:101050007F807F807F807F807F80807F817E817F97
:10106000808080807F817F80808080807F817F7F83
:10107000817D827E80827D827F7F817E81807F8173
:101080007E80807F817F7F817F80807F817F808065
:101090007F807F80807F807F80807F807F807F8156
:1010A0007F817F80807F817E817F7F807F80807F46
:1010B0008080807F807F807F80807F817F817F8034
:1010C0008080807F80807F807F80807F807F808025
:1010D00080807F817F80807F817F80807F807F8014
:1010E000807F807F80807F807F807F807F807F8007
:1010F000807F817F808080808080808080807F80F2
:101100007F808080807F80808080808080808080E1
:10111000808080808080808080807F807F807F80D2
:1011200080808080807F8080807F807F80808080C2
:10113000807F817F7F817E817E817F80807F817EB5
:10114000817E81807F817F807F807F7F807F817FA4
:10115000808080807F817F817F8080808080807F91
:10116000807F807F8080808080807F807F80808083
:101170008080808080808080807F80807F807F8072
:1011800080808080808080807F807F80807F807F63
:10119000807F808080807F817F8080808080808051
:1011A0008080807F80808080808080808080808040
:1011B000807F80807F807F80808080808080807F33
:1011C000807F80807F80807F817F80807F817F8023
:1011D0007F80807F808080807F8080808080807F13
:1011E000817F80807F807F8080808080807F808002
:1011F0007F807F80808080808080807F80808080F2
:1012000080808080808080808080808080808080DE
:10121000808080807F807F80807F807F80808080D2
:1012200080808080808080808080808080808080BE
:101230007F808080808080808080808080808080AF
:10124000808080808080808080808080808080809E
:1012500080808080808080808080807F80807F8090
:101260008080807F80807F80808080808080808080
:10127000808080808080807F807F80807F807F8072
:10128000808080808080808080808080807F80805F
:101290007F807F808080807F808080808080808051
:1012A000808080808080808080808080808080803E
:1012B000808080808080808080808080808080802E
:1012C000808080808080808080808080808080801E
:1012D000808080808080808080808080808080800E
:1012E00080808080808080808080808080808080FE
:1012F00080808080808080808080808080808080EE
:1013000080808080808080808080808080808080DD
:101310008080807F807F808080807F8080808080D0
:1013200080808080808080808080808080808080BD
:10133000808080808080807F808080807F808080AF
:10134000808080808080808080808080808080809D
:10135000808080808080808080808080808080808D
:10136000808080808080808080808080808080807D
:10137000808080808080808080808080808080806D
:101830008080808080808080807F807F807F807EAD
:10184000818080817D827E82847E7E887982767F9F
:101850007E73917C88828385757B786D8375858A9C
:101860006B8E788F8D858E659695589664798B658D
:10187000B25D6C915096806EAD65BD7869B36C9821
:101880006764806AA28854A566A1AF83B267579146
:10189000516288509F5DAC8B7ABB518F6F7E7E8981
:1018A000B9725B6D6DA0887EA1907D99794E7B5059
:1018B000809D77A29663848A9C6E878B3282825E3B
:1018C000747985A0A0C183808F52AB56A0AD3D9F97
:1018D0003C505F5A876C949FBC9EA1A18FA77BBB95
:1018E000686E4A373C2B9A469B81A8B085B1988593
:1018F000828F7761826832A828839C70BD6491775B
:10190000719E7D7AB3539F8C7F935C88699174A29A
:1019100071537C894DA0984EB36D997868A38273FA
:10192000BC87A16B6E77246B4E845AAC849091ABCC
:10193000A8B29490C53CBC42531A7790427B7694EF
:101940006F9CB4BA93E0A0B5878C7E01A86B13811D
:101950003B647A72A49ABDB4D5DAB28383736B33D5
:10196000889A236D656C4A6FA86DBFE392A4BB7E15
:101970008A5A808364616BB7885D83786EAA83BA64
:1019800092C48471C29ABAABA856606B9E435F3F03
:101990006E8176A365BD70DCA889E9C4809280B3AE
:1019A000AB567420845B85888395A4DAEAB3AAD009
:1019B00056884F9850658D3A716B906D85A4BC9494
:1019C0009587A5836FBF6F949E67546077655E8629
:1019D0008E75A29BBB6CA1BC7E9B61AB8562854A68
:1019E000618546836D6FB77CA99CA7B8AAD0718723
:1019F00093908C27636772827C8FA687B1989999A0
:101A000096C941807266767B975C5EDB6973BB49E1
:101A1000B141B08C63978B9467B7A37175AE489F43
:101A2000667C5D53A660A583A28D877DB27595A265
:101A30005A8A6E9C468E715EB664AF87699F5D88D8
:101A40009582B4559B8E43C84F6F8F68A56B9F5B83
:101A5000589D638CAF79BE7B7DC14BA17E557E4383
:101A60008D5E3BB253979AB0D382B97F835D566C3B
:101A70003C5981476AA0648E90858B9FA2798950DA
:101A80008C835776747D5B8EA96089A66D855E8692
:101A9000824F757A6F958B8290879D74A26A658755
:101AA00052726D647450B3AD70DB7BA89873A85DFF
:101AB000666357576474686F9D8EA3A89AB96B824A
:101AC000AA5A835074534CAB5C8181958093A29D3C
:101AD000777A7E766A59AB487A9C8B9B84957B7328
:101AE000927E667458854F7E91838995BF6E9B85E3
:101AF00079637485885F7D72668584B276C3748AE3
:101B0000868A7D6B6D627172B02EA67075A273B6F7
:101B1000786F9B8462956B825B967A669D6F8A581C
:101B2000928E82AA82617F779487689C8A64968F5E
:101B30005D866E8D5D7B8B6F6C79A0587D82758A1A
:101B400088A1787094557D6F7D74579073808A83D7
:101B500088898EA3619E8A5C93637B7F68867B53B2
:101B60009C4B9A8B63A861AB7E817D826287857571
:101B70007B5D9166868A79857E8A935DA47A65907D
:101B80006D916D7E8A6767A489A372809169A87739
:101B9000787B85628A717F7472886E957193697A99
:101BA000788878867D7589809A75876E7E6A877356
:101BB0007377737E7F7E908D759D6D9D7681786540
:101BC0007C79748078649065A37B8D8F6C9F7B8C0F
:101BD000826F8462718E6181697E89829A827F863A
:101BE000796E8E6E82666E8480867E867F8B828D15
:101BF0007574687B698579848B70A1779782857607
:101C00006687716E7A647B7D7D9E6F898C7F8D91F6
:101C10007A8C6D7D8555675B77717F758D80868B3E
:101C20008097818F7D806D6C6E6E69747B7F8993E8
:101C300085628D8A7B857D7673617C776C878578FC
:101C400087907C946A8B76699E697F6D797E768BAE
:101C50008574858A798780847386787C7D7F7872A5
:101C60007484817596737D85857F827A846F85887B
:101C70007281807A798E6792667F7A6E897C816EB6
:101C80008B7A8E888B7F7B7B87727D78707A748E5F
:101C90006A8776887B7E9679838879808577926457
:101CA000817A6D807E767883808A759C6E888A754D
:101CB0008774826C737B7A7C877B8B778A90738B3B
:101CC0007872797E78737481767D8E82808A7D8742
:101CD0008176846E78797D748A7E7A8A7E8D788723
:101CE0007E7A7E7980767982758A80828174887A1C
:101CF0007881826F8D708680708F7381887D7B87FD
:101D00007686788A807C8076877181727E7E817B00
:101D100080847C857A8C8079887278836D807F75E9
:101D20008481848B797F827E8279827A78807A80BE
:101D30007F807C818481847D7C7E7F76857D7484B8
:101D40007B7C797F7F7F7C84847B8B7B7F7A7C83A9
:101D5000787C7F7279827B877E85857F84807C7C9E
:101D6000767B80798674807D7C8F7D88837B7F7392
:101D7000827A75867382857F84827C828881807A6C
:101D80007D757A7B7D7A7C867882838581748F7974
:101D90007A887A7A74847D79827E7B7C7E8B768069
:101DA0008F70847C828476877D74857D7E81748C3F
:101DB00078818778827A887E80847781797A89753C
:101DC000818378837A7D7D7D808181857C83817B21
:101DD0007E8483718974757F7A857C7D8A827B8E0F
:101DE00078827C7F83708A757A7C78847585807A26
:101DF000857D8784788C807C8A7A7F7B7A7C787CEE
:101E00007D807A81817F83887F818281807A8472DC
:101E10007F7E78837A7F7C7D847D837A7E89748CD3
:101E20007C7B847C857C827D7D7C84757F7A7B84D1
:101E300075867D827F83818083847C8080798275B2
:101E400081797C7F7C827E7F837E8582808578839A
:101E50007A7E7D7A817B80827B83817B8877868195
:101E60007B837585787B8678827E7D8477857F7C91
:101E7000877B867D7F8574827F7D8377827C7C7F74
:101E80007F807B80837F81847B857E847D7D83745E
:101E900080787B807681817E897D87847B86798549
:101EA0007B7A8273807E7B857D84827B89797F7F4C
:101EB0007785787F8379817F7E887A867F7A83763B
:101EC0008477828178867F83807D857D80837A8117
:101ED000797E7F7A7F7F807B82817E82837D827F15
:101EE00080847686787E827885797E827A84807F07
:101EF000857A847F8081798578808179827C7D82F2
:101F00007D80827C837B83807C847A817D7F827AE2
:101F100083807E817C857B7F8578847D7F807A81CC
:101F20007C81827D827F7D847A82817A847A827DBF
:101F30007C847983807C847D7C8379857C7E8478B5
:101F4000847D7F817E817F7D857C7E817E807D8496
:101F50007B817D7D817E82817E80817E817E827C8F
:101F600080817D827A7F7E7D807D7F817C857C8083
:101F70008778867E7E817C7F7E7D7E7E7F817E826D
:101F80007F82817F827D7E7E7D807B807E7B847D63
:101F90008082818180837F827E7F827A827E7A8145
:101FA0007C7F807F827E81837E81817E807E7F7D3B
:101FB0007D807B807F81827D857C7D857B807F7E2F
:101FC000817C80817D8081807F7E817D7D7F7F7F20
:101FD0007C837D7F827E818080837E7E817F7E7E0A
:101FE000817C7F807F807E81817E827F7E847B82F8
:101FF0007E7D837C807E7E817E80807E807D837EF0
:1020000080817D827D7F817E7E827C837E7F8079E0
:10201000837D807E807F7E8080817E80827F7E84C3
:102020007B7F807C807C80807D81807F827F8380BD
:102030007F807E817D7F7E7C827E80817C857E7FAD
:10204000847B807E7E807D7F807E827F8181808296
:102050007E807F7E7E7E7E7E7E817C82807E818091
:10206000817E827E7F7E7F7E7F7E7F7F80827E8379
:102070007E82807E827D7E817C80807D827F827F69
:1020800080827E81817C807E7E7F7C827B81817E5E
:10209000837E81817E837E7E817D807D7F7E7F8049
:1020A0007F817F80808080807E807E7F7E7E817E3B
:1020B00080817F818080817D817E807E7D817B8229
:1020C000817F818081817E827E7E817C807D7F8018
:1020D0007D80817F8180807F80827E817E7F7F7F07
:1020E000807E7E817F808080817F817F7F7F807EF8
:1020F0007F807F7F818081807E847D81807D807EE6
:10210000807E7E7F7F7F8280818080817D807F7FD7
:102110007F7E817E7F827D81817F8180807E7E7FC8
:10212000807E807E7F7F808080817E827E81807EB7
:10213000807E7F807F7F807E8180818081817F82A1
:102140007E7F7F7D817D7F817D817F7F817F81809B
:102150007F817E7F807F807E807F81807E817E7F89
:10216000817E80807E817F7F807E80807F817E8176
:102170007F80807F807D827E80817E82807F817F64
:1021800080817D817F7F807F817E81807E817F8055
:10219000807F817E81817D817D80817E817E7E7F49
:1021A0007F807F7F8080808080807F80807F807F35
:1021B0007F7F80807E81807F807F807F81807F8124
:1021C0007F817F807F7E7F807E807F7F817E817F19
:1021D00080827F81807F817E7F807E807F807F7F05
:1021E000817F80807F817F80807F807F7F807F80F4
:1021F0007F7F807F80807F8080807F807F80807EE7
:10220000818080817F807F80807F807F7F807F7FD3
:102210008080817F818080817E807E7F807F7F80C3
:102220007F808180807F808080807F7F7F7F7F80B4
:102230007F80807F7F807F7F807F807F80808080A5
:102240007F80807F807F807F7F817F80807F817F94
:1022500080807E807F7F817F817F7F8180807F8083
:10226000807F807F7F807F807F80807F8080808074
:1022700080808080807F7F7F7F7F80807F80807F65
:102280008080808080817F7F807F807F80807F8052
:102290007F7F8080818080817F80807F807F807F42
:1022A0007F807F80807F807F80807F807F7F807F36
:1022B00080807F8180808080807F7F7F807F807F23
:1022C000808080808080808080807F807F80808010
:1022D000807F80807F80807F807F80807F80807F04
:1022E000808080807F807F8080808080807F7F80F2
:1022F000807F807F808080807F807F8080807F80E3
:102300007F80808080808080807F807F7F7F7F80D3
:102310007F808080808080808080807F7F7F807FC2
:10232000808080808080807F80807F807F807F7FB2
:1023300080807F808080808080807F7F807F7F80A2
:102340007F8080808080808080808080807F7F8090
:102350007F80807F80807F80807F807F8080807F83
:1023600080808080808080807F8080807F80807F70
:10237000808080808080808080808080807F80805E
:102380007F80808080807F8080808080807F808050
:102390008080808080808080808080807F8080803E
:1023A0007F7F80807F808080808080808080807F31
:1023B000808080807F80807F80807F808080808020
:1023C000808080808080808080808080808080800D
:1023D000807F8080808080807F80808080808080FF
:1023E0008080807F808080808080808080808080EE
:1023F00080808080818181818181818181828282CE
:1024000082828282828282828283828282828281AC
:1024100081828282818080818282828281808082A8
:10242000848686848384858889898989898989893C
:10243000898A8A8B8A8B8B8B8A8A888A898C878007
:102440009092867C79979F846C74B39667B0AF96B0
:102450004A0156A9D1A3AE9F975A08398CDFBFC84D
:102460008C619852084283C6B6DF7B1F6966A7BCA1
:10247000815DD2C75F3F4B4064886584BE732C3357
:102480000388F6D3C4DABA9BBD272B4F6C862D8CFC
:102490007EA2834195EAB6B89064EDB566455F715A
:1024A0004D4C264C7A4A3C47A26CBBAD6C9E90CFFB
:1024B000B598839194CD8788A99FC09BAEB2BEB3D7
:1024C00077937DA4C76D32387361554856167B509B
:1024D00063B5A2A6858D7ACDC58957BC6DAE731F35
:1024E000635EA18B283C9F989B21ABB66ECC837416
:1024F000CB689E79566B74DB4B46816498962B5F54
:102500006B956E467B6767872A639C4395688780D7
:1025100088936ABC808ED69BA0C08586A07D6266AB
:10252000756E5F8A614C936DCCA47AAAA04E518ED1
:102530005FA36A40A0AA9E9193A56AB988648E475A
:10254000549C4C31AB8D997A78BCC6BE7F9BD5AF7D
:10255000AE6C43699D69226E315A935E4E72786CFF
:1025600095668BA8AF673BBC97A89223AFACA990A8
:102570006F98A779638794CF307F866C956A8B506C
:10258000428A975D6958936863689187735D41815A
:1025900089863F6064856E8158519B7C9C8632A8F9
:1025A000A386875C8258A16A5A6FAC69744532E091
:1025B00088644477B08E845A75B05B778380AD9C15
:1025C000523881A4907E783C807E64A377626E70DE
:1025D0007766B34647802C71849B8A6540887AB7BA
:1025E0008F5CAB309A7C58B8706B786B87AE9D97D8
:1025F000A07B9C889E8B6E916E83715062936F7DE1
:102600008991AA9B7A9BAB977D739A83A36153525E
:102610004E6C919D976957A7978A8C9D99634B82C1
:1026200093964F483884965D9C60908A6B8C958811
:102630009C3D6F84818E356C596F8A865F8869886E
:1026400082678F81895C768D93835E4291A67B5EE3
:102650006E7B868F6E6EAE8570805EA294996A5A8C
:102660006E74A289436F8A7E77535FA86247753B79
:10267000B39168516A9A8955679B9DA55D6A6BA85D
:102680009F817891A98F5D767B97AE3D5D829E8913
:102690005C6598A07C6880A29A9A694899B09B97DB
:1026A000707798A36E777695A2724466B1877B5B4C
:1026B000639B977A4F7A987B91505B9D9172736F71
:1026C0007BA0734F6AB68865604C9DAC7B63628566
:1026D0008AA45868B381686B8278B47459838991ED
:1026E000896049999D83768A8B9A9A6A6F908E9CAD
:1026F000807597A17738689FAF9C665A9B816F7DE4
:102700007D9D836D5C679B8A7B674F87A0A68575DF
:102710007A818394889796777B6098A07A6C697C9D
:10272000A17A776F7A8274996275A48C71827D9B8D
:102730008E797D76AD7C6E8064C092599581938B45
:10274000877C859A7E638D9D91A75A678A958E8234
:10275000726BA17F77919C84758685979C836F7A35
:102760007987A9887F737796958A8086887D779404
:102770008B9076627A91919D945F6E8A989B9D80F2
:102780007F82978896AD77807E718F9777857985E0
:10279000867F9A7A7C86638A97718A71767C737950
:1027A0007F8C7D718D837E836F7D9297858A807DFE
:1027B0008383768B8B867C6C82869C816C878C7EF7
:1027C0008E817A8A7074787E868E907370858B91F4
:1027D00094807D8D78807E808366868290997379DF
:1027E0007573889B99877A826F737A799E8B7365EC
:1027F000748C848D72868E777577878278647B7807
:102800008D92707361728388908281866B758C94CF
:102810008D76707C889B8A787D7183878E9589867A
:102820007D6F8594979678777E897E7985808B7C7D
:1028300079878D9680717487998B8A817B8D776C6F
:102840008B9494826F758793847889837F8E7B8540
:102850009282766B7B95978B7C7A82838D837F9136
:102860008D827D798991866877977F847E74878D44
:102870007D7076928D8E7E628E80808B668098834E
:1028800076758E91897F5B83A2808A7C70897F6652
:102890007CA1857884687798806F6D708A91776263
:1028A0007886707D726E9F83646E7A8E8D87687C69
:1028B00097807D7C73849D7B6D8289898881678CFC
:1028C000987174757C8D7C6473898B84696A858E3C
:1028D00077678487887B60688A8E75716A80958344
:1028E00068728389806E73869B7F676B7C968A7023
:1028F000707C938C6F6C77928668737C8A9173700E
:102900007982917B72788A8F6E6C777B8D7C717AFD
:1029100084916C6678869678738285907E6A7882D8
:102920008C7B6B7C7F8F7C697A8385836C6C858ADA
:102930008360757B7687636D828183756B798D8407
:10294000726F8581857B6D87817981737D88847BBA
:10295000758E848585728695837477738393887961
:10296000768482837D7591867471738A8E7C716D95
:10297000788E87867D7E8B747E8885918A7C787F31
:1029800086868179798A898184818488827A8A8C11
:102990008988827A7E82818A85867B7D7E7A8F8213
:1029A000898273808A93887E7F7D878979888780F2
:1029B00083797F8A938C6F7A8486927F81777A8CF1
:1029C0007A7C877D837976817F89817C7E77877E1B
:1029D0007588828D7A717A778E81787E7983877710
:1029E0007B8C8A81757B898C8B6E6F7E868D7E7DDC
:1029F00081887F6E7A8C898C76718A8988807681CD
:102A000086807A748B887F776E8391857B777886D2
:102A1000817D74818579806F7A91887B7C7F8381C9
:102A20007F78828D828079768C8F7B747A8B8D858E
:102A3000737586867E7F7D838D8070798487857BA4
:102A40007C828981777B838887797885887B797C8C
:102A50008A89837C7688888A7D7686887E7D7A7F5F
:102A60008A7F77788289807779788C867E807B846C
:102A7000837D7A81888679757B888B7F7E7F858947
:102A80007E7B838B827E807E8787807D82858A881D
:102A9000818487867E7C858F8D817A7F8581827B0C
:102AA0007E89807E7C8287807E797F8B8684837816
:102AB000838587847E8A8483797A878B857C7F83EC
:102AC0008A827A7F828788807E88867A7D7E8188E6
:102AD0008980808980857F7C848C8B807F808684C0
:102AE0007E7A858A7C7F7E7C8581797D84868880DC
:102AF000787C81807B83807E847A77807E7E7D7EF9
:102B00007C86857A7B797C7D857F7D847C79827EDD
:102B10007E847D7D828482807E7B7F857F80827EB5
:102B200080808080818080808080808080808080A4
:102B30008080808080808080808080808080808095
:102B40008080808080808080808080808080808085
:102B50008080808080808080808080808080808075
:102B60008080808080808080808080808080808065
:102FA00080808080808080807E827E837D84779A0E
:102FB000F4EFE52B0D464263201C9BA94568128760
:102FC000B20972DDF2E6EDE4D5B79F5929015AA5A1
:102FD000775595FC4C151D534E49892C1720314BC4
:102FE00079A1C6D7E9DF5A7BD67552C2F0816597C1
:102FF000846AADA8472723746B1642727F807F9244
:10300000D7AF351B2D6738216A8FCED4ADCFDDD831
:10301000DAD7D4D2771B576B4F2C342E292750A0E8
:1030200056273085C7A991A2CDD9D4D4C69ECFA7A3
:103030004A253BAAAA797EB4ADB0C9AABB8D6A4D18
:10304000373829353865615477969B92857A828A1C
:10305000B0CFCECFC6B3B5B8B89D93A7914A2B3D9C
:1030600034405D7B7949498C90656B756C7A9DAE77
:10307000B6B8BCAAA9BBC7C79D7B64463B436B9D42
:10308000BD91709F99817D969372503A3A3A7394AC
:103090008C71798A7CA09D9DABACBDADB7BEBFBB2A
:1030A000937860787560553B3F3C405D78919DBB5F
:1030B000A89DAC7D95A39B7D597788848A8A74816D
:1030C00098A6988790946E5C748795929D8F6251B4
:1030D00061736C5C557562577487AAB0B0958B9F0D
:1030E000A39C80727A878F818E8D837F726B6975C6
:1030F0006E6E504149577B93A5B3B69A8B8D8879F4
:103100006D7B8877837F6F81928975828E8A9181AA
:103110006266848B948A84826D6C575E6872565A9C
:10312000716F7E90A19AB3B8B09C858A8379666AE4
:1031300076656A737B78766E6F7B89837D73677E35
:1031400066768AA8A995A17C6B716E727787878352
:103150007676868B9A8E7F8D8F79665662736F73C3
:1031600086999177666665757F8B997F7A928B8554
:103170009EA39D989486716C60676C676C6F7C9160
:103180008876767A84878A8180806B7B83969A8A18
:103190009A8A70667071858675888979838D878E25
:1031A0008683827E79696159616F7B8D8789868389
:1031B0008174899C9581777A8691928990928072A8
:1031C0006E6862636771757F8A8785868C8A888D51
:1031D0007C8183757170787F87928E82807F7E7804
:1031E00075828C7E7D82838B827879837D73797AF8
:1031F0007265676F7E8D98898293878285797D84D9
:103200007F857C74778693837B7E857E6F6C7179F6
:103210007B73758C968E878883787B7A73777B7ABD
:103220007879817B88948E8A828A7A767E797F7497
:103230007C848780767E86806F75857D70747D7CCA
:1032400086858F9B93917D787A7E75656679848378
:103250007E8288878686847E837D79727A7D808966
:10326000837E8A8D78777B7D747378787C87878678
:103270008E938C817776767275777A7F8C9394862D
:10328000797C7E817D7C7D7A77767983888C8C834E
:1032900083837D757275757B808587888A7F81843D
:1032A0007F82858479787E787D878B89857F777723
:1032B000767C7E79767D7F7C82848D8C878A848102
:1032C00081797270757D878A878B857A7B83827816
:1032D0007D8181797F827C848688837D797A797902
:1032E000797F837F828485898D857E83817D7C77CC
:1032F000768080797E868B858082837C76797C7CE3
:10330000838481827F85878080817C7C817B7A7CBD
:103310007A807E83898988827D7B7F7C767C827EB1
:103320007C848A848586827A7B77797E7B827D81A4
:103330008786878583807E807C7A7D79797C7F8390
:1033400083878A8784827D767E86837C7F87837B62
:103350007E837D77747C7E7D7E80838385888C8769
:103360008685847C767B7A79787F817E80827F7E79
:10337000848984807F80807C7C7C7E82848582813D
:10338000817C7E7D7D82827C7F8686848080817F39
:103390007A7D7E7B7B83827E818486807F7F818134
:1033A0007F7D7D8082828283828287837C7A7B7B21
:1033B000787D80807F84837E7F8081838383858204
:1033C000817E7F7F7F8180827F7B7D807E7B7E840C
:1033D000828381838283847E7F7E807F7B7D7C7EEF
:1033E0008081807F8584837E7D7F81817E808384D0
:1033F0007F7C7D7E828482807D7F817F7F818485CA
:10340000807D7D82857E7B7E82807E81807D7B7DCE
:10341000808181828184807D7D7E80838382817EA4
:10342000838381818081817E7E7F7E7E7A7C7F81A5
:103430008280807E828381808281817F7C80818383
:10344000807E8082807F7E7F83848382817D7D7D7C
:103450007D7B7B7E7F8181817E7D7D7F8585838471
:10346000848180807F7F8081807E7D81817C7D8062
:103470008283817F80807F7D7B7D7D7E81817E8058
:10348000818182838485817F8382828181807B7C2C
:103490007D7D7E81837E7C7F817F7D7E7F81807F3D
:1034A000808282818182808082828080807F808110
:1034B00084827F807E7B7A7D80817F81817E808017
:1034C0007F81817F7E7F807F7F7D7F8183848181FB
:1034D000828281808080807F7E7F7E8082817C7DF1
:1034E0007F7E7D7C8081828281818383807F7F7EDD
:1034F0007F808081807F807E7F82828281807F7ECC
:103500007E80807F7F7F8182807F807F7F7E7E7FC5
:10351000808080828281818281807F7F7F7F7E7FA9
:103520008080807E80807F8081817F80807F7F809F
:103530007F7E808181807F7F7F80807F8181807F8F
:103540007F8181808182817F7F7F7F7F7F7F80807D
:1035500081807E7F807F7E7F80818181808081816C
:103560008081817F7F80807D7E7F7F807F7F7F8065
:103570008181818181807F807F7F7F7F7F7F80804D
:103580007E7F807F7F7F808181818080808180803D
:103590008081807F7E7D7E7F808080808081808032
:1035A00081818181808080807E7E7F80808081801B
:1035B00080807F7F7F80807F7F808081818080810D
:1035C000807F7F7F7F7F7F7F808080818080808001
:1035D0008080807F7E7E7F808080808181817F7EF1
:1035E0007F7F7F80808080818180808081808080DB
:1035F0007F7F7E7E7E7F808180807F7F7F80807FD7
:1036000081828281808181817F7F80807F7E7E7EBA
:103610007F7F80818181818180808080807F7F7FAA
:103620007F7F7F808080808080818080808080809C
:1036300080808080807F7E7E7F7F7F7F7F7F808095
:10364000808181818181807F7F7F7F7F808080807A
:10365000808080807F7F7F7F7F7F7F808080808071
:10366000808181808080807F7F7F7F8080807F7F5E
:103670008081807F7F807F7F808080807F8080804E
:10368000807F807F7F7F7F7F80808080818181803D
:1036900080807F7F7F7F7F7F7F7F7F808080808033
:1036A0008080808080808080808080818080808019
:1036B0007F7F7F7F808080808080808080807F7F10
:1036C0007F7F7F7F7F7F8080808181808080807FFF
:1036D0007F7F7F7F808080808080807F7F80807FF1
:1036E0007F8080808080808080807F7F7F7F7F7FE1
:1036F000808080808080808080807F7F7F7F7F80CF
:10370000808080808080807F7F807F7F7F7F8080BF
:103710008080808080808080807F7F7F80808080AC
:1037200080807F808080808080807F80808080809B
:103730008080807F7F7F7F7F7F808080808080808F
:1037400080808080807F7F7F7F807F7F808080807F
:1037500080808080807F808080808080808080806A
:103760008080808080808080808080808080808059
:1037700080807F7F807F7F7F80808080808080804E
:103780008080808080808080808080808080808039
:10379000807F7F7F7F80808080808080807F80802E
:1037A0008080808080808080808080808080807F1A
:1037B0007F8080808080808080807F8080807F800C
:1037C00080808080808080808080808080808080F9
:1037D000808080807F8080808080807F7F808080EC
:1037E00080808080808080808080808080808080D9
:1037F0008080808080808080807F807F80808080CB
:1038000080808080808080808080808080808080B8
:1038100080808080808080808080807F80808080A9
:103820008080808080808080808080808080808098
:103830008080808080808080808080808080808088
:103840008080807F80807F8080808080808080807A
:103850008080808080808080808080808080808068
:103860008080808080808080808080808080808058
:103870008080808080808080808080808080808048
:103880008080808080808080808080808080808038
:103B60007E827E827D837C847C847C847C837F7D5A
:103B70009C59B7768BD84468956D4265FC7A45A60A
:103B800021CD7001D18A536F934D9DA8728259A3A4
:103B90004EAA86686B63AD63A12CC49412BB55B06A
:103BA0008136A65FAF60554893D93F7E26B1BE18D7
:103BB0009EB662524AE24380C637AC209CB7994F0A
:103BC00067C62AB158A09136B2958D51A25A639E0C
:103BD000837A5A83969BA347748B7DA0517E7B9FEB
:103BE000856B7D7E966D5A819E97666B6A7A83801F
:103BF0009575894DB95278954AA6739E4D8B6A7713
:103C0000A2825E8B96398AAE88568D866D747B7ED5
:103C10007EA389645D80AB796760A48384905176CC
:103C200092A066778A568BA280727085729760A484
:103C3000847477529A9D7F648C737D7C8B827B66C3
:103C40009A7E5AA8996272827B888178986C6DA955
:103C5000698198747495717BA29058778B8F7F815E
:103C6000736DAB61768F89957B5A789A976F76A33F
:103C70004697996A8064A37A957D5E75A97B7B8B54
:103C800064946CA95C99756BB954917B8E61859C29
:103C9000507C9C9467817684887A776DA37975A42B
:103CA00065629E689A8D7B79748F5C9A6792956342
:103CB0008195697EA1627E7A9E7681905C859891DD
:103CC0006A6297A969718F8B7C5FAC81828653840D
:103CD000A48E627D948D597B8EA27E60958A7E78BB
:103CE000968A805F90916B907D8E76807E8A7365D8
:103CF0009F809A7E616F9C8C69887C8B6B887374C3
:103D0000A26F8F7B8884618B89927D7B6C8A898A84
:103D10008E6679888C79848B82798B766E84A76F96
:103D20007191866882997C7B6BA16A8C71839264A5
:103D3000887C8986737D8B8E6A799B709376728579
:103D40008F8C77658897847D6F717F9B8E78639366
:103D50008D6F78888989817B7A7B848B788789735A
:103D60007D8F7D81926B7F7F8C7E7D89857A8D783A
:103D700072957F798B846897827483828288737E40
:103D8000927D7B75877E858A868071828280808A1B
:103D90008174897D84817D82827F7D8283847D7E22
:103DA0007A8B807883867B887C7492728E846F860F
:103DB00086827D806F8990887F6F867F79897E85F6
:103DC0008776847F7B8587737E8E7B8080867E84EA
:103DD0007B7D8580847985837F7A857B84888083D9
:103DE000797D84818586797F7F7D7F8A8482797ED3
:103DF000857E84867E7A8581837D7F7C87887C7DB5
:103E00007D8682827F807C7F8A7E7F807E827C82AC
:103E1000877F7E7F7F83867D7F7E80857C81848295
:103E20008180787E887F807F7F8683807C7C80878E
:103E3000867E7E7F80827D7F84818081817F807E7F
:103E400086807B817F857E7F81818183817A81816C
:103E500082808482817F7982828082828082817E58
:103E6000817F7E858083807F807D82837E7F847E4C
:103E7000828180817F7E84827D7F848280807F8436
:103E80007C82827F7F7F8183837F7F80808180802F
:103E900082817F80807F7F818181837E808181811B
:103EA0008180807F8082808181817F8180837E7D0F
:103EB0008082847F7E7F82837E7D7F818381817EFD
:103EC0007D818182837E7E818181818181817F7FED
:103ED0007F828281837E7E7F8283808080808181D9
:103EE00080817F818081807F8181808080808181CD
:103EF0008080808082808080808181817E7E8181BF
:103F0000828180807F808081817F7E8081828180AC
:103F100080808080808082827E80807F818080809F
:103F2000818080808181807F81818080808080818C
:103F30008080807F8080808180807F80807F808083
:103F4000818081808080808080808080818180806D
:103F500081807F818080818080808080818181805C
:103F60008080818081817F80808081818081807F4D
:103F70008081818080807F8081818080808080803E
:103F8000808081808081808080808180808080802E
:103F9000808180818080808080808180808081801D
:103FA000808080818180808080818080808080800E
:103FB0008080808080808080808080808080808001
:103FC00080808080808080808080808080808080F1
:103FD00080808080808080808080808080808080E1
:103FE00080808080808080808080808080808080D1
:104710008080808080808080807F817F817E817D9D
:104720008271404E657B84767799E7E4DFCDC5B52D
:10473000A08F3C1220212C37447D84E0DCE8743FBC
:10474000E1BCB9AB888A6A515D1B676A11888F6FBB
:104750000484D66AA33D83ABA69B232D5259656C76
:1047600084A4CBE8E7DBDB9AC6C363B5BB5C149FCC
:10477000621D6B8C343A7372825FA74C70E09CB000
:10478000F1D06F2961695E8B905ECFEABEC5A9B397
:10479000508050093B976B0E461F6F947E9D794267
:1047A000628A778D92664EAEFF80777669776782F0
:1047B00042A4DFBAA9AB734A30384B40485E7F7BD6
:1047C000A1BFA2A0DFBD91999ECEAF4F674B5CAC5D
:1047D000A24268B38A955D845E64C2898E887B3408
:1047E000535C545D396985A5B9D9CCBEB0CA8E87F2
:1047F000B57337365E6673966C74A65485B78F7240
:104800006D8AA990AA84547C504742506C7BA2E8E0
:10481000CEB0B9B89F705E294F6E42415D7C629404
:104820009180A4A8AB7EA090AC8A86A03A5C706010
:10483000422C3B5861AFB474BBD7D8B39B5566B517
:10484000493C5F554F846C567E8DD0AFADA07C8BBC
:10485000AF73657A516D535490586B9C729BA7A3AC
:1048600099BAB0897D6F685851635E83845AA7A353
:104870008E8BB2A08982758051655C64696AAE8C4A
:1048800070737FB08C89918CADAB977F654E5F590B
:104890006D6E4B6CA2A59BA09BAC9E836E6D695305
:1048A00070654A5D6F8D95AF7F979D96AD899D86AA
:1048B0008A92754B5D785E517A6A717DACAA8EA33F
:1048C000A09E84935E69768070506A67799F957820
:1048D00092AEB68D95816374675D6071765B6A8F09
:1048E000727D9598A1A7A693959C6E61666B656A8B
:1048F00071457C8A83A19D8F959B8FA281674C5CBB
:104900006D6073667F6B70998896A891A6A7999A37
:10491000668780515A5E6B6B676C7AA99289A68212
:104920007F878985736B827D797E7F747E938F9478
:104930009194938D877A71775E6A79596470717FEB
:1049400073949B969F9792787F6F717C5C60708068
:10495000837284929792A69C8C92837F6B5C59752C
:104960006565717D7D87948F9488AA9599977B89D9
:1049700072837A75725D737985858B859699949922
:1049800079897868756B616B73727B82828191948F
:10499000948C82918076766E7C726E666D74768170
:1049A00082897E89948C8E9177748888746D6C7CF2
:1049B00078738C8C9399939C907D8E72726B6F6BD5
:1049C0006D67707F658283818FA1868C8F919177CF
:1049D000808077777E7472807B818B8393927F8BCC
:1049E0008D7A716C7C776F737E7C818E7E8E8E8AE1
:1049F0008F8C867A7F827B757E7D707B7D757A82D7
:104A000082788188817F8F83787D7E6F727D6E78DA
:104A10007F8483898F8A8790837B828A79767A756F
:104A2000787C8B7D82828A878A9183838484838445
:104A300078767573787873737F82838A8C877E7CAF
:104A400087766D756D707779777F858E9290879276
:104A50008D7D867F737E82827B717E7A807D807E73
:104A6000808C888482807F827776797F8079838842
:104A700088858C8E858A8E8882808077757B727619
:104A8000797B807D8B80758E8A7B857F7C7E777D30
:104A90007C7D78778281828489897C8B86818C82F7
:104AA0007B7E817A78727975797E797F7E85847C48
:104AB00084828B898380848D787B817D7D818188D0
:104AC0008485847F87847D787B747775737A777B20
:104AD000798183848C818B878288828385827D80A3
:104AE0008280787E7E83897D7D767B797B7D7678FA
:104AF0007B7E7F8483878181898786847F81818390
:104B00007F7D81817D81807B7F7D7A76807A7D81CA
:104B10007B7E868B888A8681848789887F8583804F
:104B2000838584847C7A827A7B797C777677777CBC
:104B30007F887F7F86877F84827E8082827D827E5F
:104B40007C7D80868180817E827C797A77737377A1
:104B5000777E7E7C7E8488858B89878B7E85898124
:104B60007C7B817A7B7F787A7D7C807C817F84826C
:104B7000828781817F807F7F7F818588858386830F
:104B80007F8182807C7D7D7C7A76807D7B7C7C7D54
:104B900088888285848886888984808084807F7FD5
:104BA000818280827F7E7C7B7D7A7C787A7A7D7E32
:104BB000797B808581868784888C8A8488878086B3
:104BC000867B7B7874767779777C7E7D7D80827C2E
:104BD0008180828386887E7F83807C7D84828082C0
:104BE000827F827E797A787C7B7B78807E7A7D7FFB
:104BF00080848985818288837C7D7D807E7E8281A0
:104C000085868282827E8182827F7C7D7C7D7F7EA2
:104C10008084847D818382857E8384828685808171
:104C20007F7F7D7C7B7C7D7D7F7D817E7F7F868697
:104C30007F817E828380807E7F8081817E7E7E8177
:104C40007D7B7F7A7C81807F7E7E847D7E82808575
:104C500083817D8082827D7A7D7E7E7D7E7F837F63
:104C60007E827E8182838281847D8284828482832B
:104C7000828180808083847F807F8182817E7D7A33
:104C80007D7D7C817F7B78807D7D8283828682852D
:104C90008985828283808081837E82827D7E7E7E02
:104CA000817F80807F817E7E7A80807F8082838307
:104CB0008985838384817F807D7E807A777C7A7CFE
:104CC0007E7B7F7F7C82827F8083818081837D7AEF
:104CD000807D7C7F8181848783828281827D8082C6
:104CE0007A7D807E7A7D807C817E7F8383828381D2
:104CF0008380818483877F8082817D7E7F7D7A7EB1
:104D00007D7D847F827E7E80807F7F7D7D81827EAF
:104D10008285838482848282828081827F80828372
:104D2000837F8080818284807F8382807F817B7784
:104D30007A7E7C7D817E7E86857F84827E7E807F7A
:104D40007A7D7D7D7D7E8283828583817F7F847D68
:104D50007D807F7E7E7F7C82808085828181808253
:104D600082807E80807E80807F827E7F8283818041
:104D700083827F7F7E7B807E797C7E7E7C7F7C7C55
:104D80007F83818283818684828384818281817F03
:104D90007D7D7F827E818281817F7F7D7D7C7C7E27
:104DA0007D7F7F81808383808584858484868285DE
:104DB000847E82807D7F7C7B7D7E7C8184818384F8
:104DC0008381817D7D7E7E7D7C82828182807E83E7
:104DD00085807F818082817F7E7A7A7E7B7B7D7CED
:104DE0007B7F84818485858382827E7D7B7A7A7BCA
:104DF0007A7E7F7D7F7F82837F7E81857E808080BB
:104E00008080827D7F83818183838485868683847D
:104E1000827E7D7C7B77797E7F828281818485859D
:104E2000828684838483817F817F827E7C7E7E8074
:104E300082817F81808180817C7B7C797B7A7D7E91
:104E400081828383838988857F82817F7F7B7C7D4C
:104E50007F7F7E8081828082827F808082817E7D52
:104E60007D7B7F7C7C7F807F7F8282838482808049
:104E70007C7C7B7D7D7C7C7E81828483818186813C
:104E8000818183838083807E807E7A7F7E7D7D8129
:104E900082848380827E807D7B7D7E7D7B7E808020
:104EA000868685848686838482817F7F7D7E7E7CE4
:104EB0007F7E7F7D7D808283848283817F81807EEF
:104EC0007B808081827E80858484838382828281CC
:104ED0007E7C7B7C7F7D8080828081847E848481D7
:104EE0007F828180817D7B7B7A797B7B7D7C7D81EC
:104EF0008080818181817D7B7D7E7D7D7D818284BD
:104F0000858483858480837F807E7E7E7F7F797C9D
:104F10007E7D7C8083838385828488848281828075
:104F20007E81807F8181818283828181807E7E7D7E
:104F30007B7A7B797B7C7D7D7E8383828385838680
:104F40008381818081807D7F817D80817E8283825B
:104F50007F838481807E7F7C7E817D7D807F818454
:104F600086858281828382817E7D7E7C7C7E7D7E41
:104F70007F7D7C8182838382818183827F7E7E7E2E
:104F80007E7F7E7C7D7E8080807F8182828080802B
:104F90007D807F7B7C7D7E7C7D7D80828585848419
:104FA00081828081817D7B7C7E7D7C7D7E7E817E19
:104FB0007E7F808180807E7F7F7E838481838385E6
:104FC00088848585878480817E81807D7B7D807FCC
:104FD0007E808181808083838283838183827F7FBF
:104FE0008380808081808083807F81807D7F7D7CC5
:104FF0007E807F7B7C7E7D7E7E7F7F8283818280C0
:10500000817F7F7D7C7D7D7E7E7E7C7E80808080BA
:105010008080808080808080808080808080808090
:105020008080808080808080808080808080808080
:105030008080808080808080808080808080808070
:105040008080808080808080808080808080808060
:1052D000807F807F80808080808077757679777E00
:1052E00083828189848C8E90898A91868AB3CFE764
:1052F000FFAE9C8C828277706A6B564F3229221ED9
:105300001D1B1A1F222E3640484C575C656C758257
:10531000909FACB4B9C1CAC8C9BCB8B2ADA899987D
:105320008F897D72645247403C3A3836393B424857
:105330005254555D616968747A85949BAAB0B8BD72
:10534000C1CDD0D4CFC6C5BBB9B5B2A79C9C918DF9
:105350008273665D554F4B474540413F4649505328
:10536000595C5E64686E6F787B868B97A0A8AFB33C
:10537000BCBFC7CACFCCC9C5BEB9B5B3B1ABA59E7A
:1053800098938B887E736B5F5954504D4B494747B8
:1053900045484B4E5257585B5D6066696B7073763B
:1053A0007E848C919B9DA3A8ACB2B4B9BBBDBDBD9E
:1053B000B7B6B0AEABA9A7A49F9895918E89867F0A
:1053C000787068645D5B595553524F4F4E4D4D4F49
:1053D000515458585C5F5E6264666A6D707275788D
:1053E0007C82878C91959A9EA0A3A7A9ADAFB1B4FA
:1053F000B3B4B2AFACAAA7A6A5A2A09F999693906A
:105400008D8986847F79756F6A65625F5D5B5958A7
:10541000565554535253535456585A5C5E60616308
:105420006566696C6E717275787A7C8083878B8E05
:105430009396999C9EA0A2A5A8A9AAADAEAFAFAF26
:10544000AEACABA8A6A5A3A19F9E9C9B9893928E61
:105450008C8A8786827F7C7974706C696562605EF5
:105460005D5C5A5958575756555556565658595BBC
:105470005D5F6062636567686A6C6F717375777989
:105480007B7C7F808486898D8F929598999C9E9F46
:10549000A2A3A5A6A7A9ABABACACADADACACA9A87B
:1054A000A6A4A2A19F9E9C9B99989695928F8D8A67
:1054B00089868482807E7B797673716D6B67656384
:1054C00061605E5C5C5B5A5958585758575758573B
:1054D0005859595B5C5D606162646667696A6C6EAD
:1054E0006F70737577797B7C7E8081838487898BED
:1054F0008D8F92949698999C9D9EA0A1A2A3A4A5FD
:10550000A6A6A7A8A9A9A9A9AAA9A8A7A5A4A2A12E
:105510009F9E9D9B999896959392918F8E8C8B8848
:10552000868482807F7D7B7A7877757372706D6CEC
:105530006A686664636261605F5E5E5D5D5D5C5D5E
:105540005C5C5C5D5D5D5E5E5F5F61616264656663
:10555000686A6B6D6E6F707273757677787A7C7D22
:105560007F80818384858687898A8B8C8D8F9091BB
:10557000939495979898999A9B9C9C9D9D9E9E9F8D
:105580009F9FA0A0A0A0A09F9F9E9E9E9D9C9B9B36
:105590009998979695949391908F8E8D8C8A8988FF
:1055A000878685848381807F7D7C7B7A7978777616
:1055B0007574737271706F6E6D6C6B6A6968676712
:1055C0006666656565656565656565656566666686
:1055D0006767686869696A6B6C6D6D6F707172730B
:1055E0007475767778797A7B7C7D7E7F8080828304
:1055F00084848586878888898A8A8B8C8C8D8E8E18
:105600008F90919192929394949495959595969666
:105610009696969696969696969695959595949432
:10562000939392929191908F8E8E8D8C8B8A898894
:105630008887868585848382828180807F7E7E7D47
:105640007C7B7A79797878777676757574747373EC
:105650007272717170706F6F6E6E6D6D6D6D6D6D5C
:105660006C6D6D6D6D6D6D6D6E6E6E6E6F6F70705D
:105670007071717272737374757576777778797AE1
:105680007A7B7C7D7D7E7E7F808081818282838328
:10569000848585868687878888888989898A8A8A91
:1056A0008B8B8B8C8C8C8D8D8D8E8E8E8E8F8F8F29
:1056B0008F8F8F8F8F8F8F8F8F8F8F8F8E8E8E8EFE
:1056C0008D8D8D8D8C8C8C8B8B8B8A8A898988882B
:1056D0008787868685858484838382828181808092
:1056E0007F7F7F7E7E7D7D7D7C7C7B7B7A7A7A79F5
:1056F000797978787877777777767676767675753C
:105700007574747474747373737373737373737461
:105710007474747474757575757676767777777733
:1057200078787979797A7A7B7B7B7C7C7D7D7E7ECB
:105730007F7F7F8080818181828282838383848452
:1057400084858585858686868686878787878787F9
:1057500088888888888889898989898989898989BF
:1057600089898989898989898989898989898988AA
:1057700088888888888787878787868686868585BC
:1057800085848484838383828282818181818080F5
:10579000807F7F7F7F7E7E7E7E7D7D7D7D7D7C7C2C
:1057A0007C7C7B7B7B7B7B7B7A7A7A7A7A7A7A7A4F
:1057B0007979797979797979787878787878787861
:1057C000787878787878797979797979797A7A7A4C
:1057D0007A7A7A7B7B7B7B7B7C7C7C7C7D7D7D7D10
:1057E0007E7E7E7E7F7F7F808080808181818181BF
:1057F0008282828282838383838383848484848479
:10580000848484848585858585858585858585854C
:10581000858586868686868686868686868686862A
:10582000868585858585858585858585848484842B
:105830008484848483838383838383828282828239
:1058400081818181818080808080807F7F7F7F7F58
:105850007F7E7E7E7E7E7E7E7E7E7D7D7D7D7D7D6D
:105860007D7D7D7C7C7C7C7C7C7C7C7C7C7C7C7C75
:105870007C7C7C7C7B7B7B7B7B7B7B7B7B7B7B7B74
:105880007C7C7C7C7C7C7C7C7C7C7C7C7D7D7D7D54
:105890007D7D7D7D7E7E7E7E7E7E7E7F7F7F7F7F27
:1058A0007F808080808080808081818181818181F2
:1058B00081828282828282828282828282838383C6
:1058C00083838383838383838383838383838383A8
:1058D0008383838383838383838383838383838398
:1058E000838383838383838383838282828282828E
:1058F0008282828282828181818181818181818192
:10590000808080808080808080807F7F7F7F7F7F9D
:105910007F7F7F7F7F7F7F7F7E7E7E7E7E7E7E7E9F
:105920007E7E7E7E7E7E7E7E7E7E7E7E7E7E7E7D98
:105930007D7D7D7D7D7D7D7D7D7D7D7D7D7D7D7D97
:105940007D7E7E7E7E7E7E7E7E7E7E7E7E7E7E7E78
:105950007E7E7F7F7F7F7F7F7F7F7F7F7F7F808057
:105960008080808080808080808081818181818131
:105970008181818181818181818181818181818117
:1059800082828282828282828282828282828282F7
:1059900082828282828282828282828282828282E7
:1059A00082828282828281818181818181818181E1
:1059B00081818181818181818181808080808080DD
:1059C000808080808080808080808080807F7F7FDA
:1059D0007F7F7F7F7F7F7F7F7F7F7F7F7F7F7F7FD7
:1059E0007F7F7F7F7F7F7F7F7F7F7F7F7F7F7F7FC7
:1059F0007F7F7F7F7F7F7F7F7F7F7F7F7F7F7F7FB7
:105A00007F7F7F7F7F7F7F7F7F7F7F7F7F7F7F7FA6
:105A10007F7F7F7F7F7F7F7F7F808080808080808F
:105A20008080808080808080808080808080808076
:105A30008080808181818181818181818181818159
:105A40008181818181818181818181818181818146
:105A50008181818181818181818181818181818136
:105A60008181818181818181818181818181818027
:105A70008080808080808080808080808080808026
:105A80008080808080808080808080808080808016
:105A9000808080808080807F7F7F7F7F7F7F7F7F0F
:105AA0007F7F7F7F7F7F7F7F7F7F7F7F7F7F7F7F06
:105AB0007F7F7F7F7F7F7F7F7F7F7F7F7F7F7F7FF6
:105AC0007F7F7F7F7F7F7F7F7F7F7F7F7F808080E3
:105AD00080808080808080808080808080808080C6
:105AE00080808080808080808080808080808080B6
:105AF00080808080808080808080808080808080A6
:105B00008080808080808080808080808080808095
:105E80008080808080808080283511241FBECFEFE5
:105E9000D8E0DEBFCDBF11E0A0E0B1E0EAEBFAE66A
:105EA00002C005900D92AE31B107D9F722E0AEE104
:105EB000B1E001C01D92A93FB207E1F71FE2C5E4BE
:105EC000DFE204C02197FE010E945535C434D1079A
:105ED000C9F70E945C310C945B350C940000AF92C2
:105EE000BF92CF92DF92EF92FF920F931F93CF93C7
:105EF000DF936C017B018B01040F151FEB015E0129
:105F0000AE18BF08C017D10759F06991D601ED91BD
:105F1000FC910190F081E02DC6010995892B79F75C
:105F2000C501DF91CF911F910F91FF90EF90DF900E
:105F3000CF90BF90AF900895FC01538D448D252FD5
:105F400030E0842F90E0821B930B541710F0CF9613
:105F5000089501970895FC01918D828D981761F045
:105F6000A28DAE0FBF2FB11D5D968C91928D9F5F5C
:105F70009F73928F90E008958FEF9FEF0895FC013B
:105F8000918D828D981731F0828DE80FF11D858DEE
:105F900090E008958FEF9FEF0895FC01918D228D81
:105FA000892F90E0805C9F4F821B91098F73992706
:105FB00008958CE592E00E94CD2F21E0892B09F411
:105FC00020E0822F089580E090E0892B29F00E9444
:105FD000D92F81110C9400000895FC01A48DA80F05
:105FE000B92FB11DA35ABF4F2C91848D90E001961B
:105FF0008F739927848FA689B7892C93A089B1893B
:106000008C91837080648C93938D848D981306C0DB
:106010000288F389E02D80818F7D80830895EF923F
:10602000FF920F931F93CF93DF93EC0181E0888F52
:106030009B8D8C8D98131AC0E889F989808185FF22
:1060400015C09FB7F894EE89FF896083E889F989C4
:1060500080818370806480839FBF81E090E0DF91C6
:10606000CF911F910F91FF90EF900895F62E0B8D19
:1060700010E00F5F1F4F0F731127E02E8C8D8E11D4
:106080000CC00FB607FCFACFE889F989808185FF3B
:10609000F5CFCE010E94ED2FF1CFEB8DEC0FFD2F50
:1060A000F11DE35AFF4FF0829FB7F8940B8FEA89F6
:1060B000FB8980818062CFCFCF93DF93EC01888D05
:1060C0008823B9F0AA89BB89E889F9898C9185FD73
:1060D00003C0808186FD0DC00FB607FCF7CF8C9101
:1060E00085FFF2CF808185FFEDCFCE010E94ED2F9D
:1060F000E9CFDF91CF910895CF93DF93FC01019019
:106100000020E9F73197AF01481B590BBC018CE522
:1061100092E00E946F2FEC0142E050E06AE171E0F2
:106120008CE592E00E946F2F8C0F9D1FDF91CF9125
:1061300008951F920F920FB60F9211242F933F9341
:106140008F939F93AF93BF93809158029091590280
:10615000A0915A02B0915B023091570220E4230FC4
:106160002D3728F023EC230F0196A11DB11D20939C
:1061700057028093580290935902A0935A02B09309
:106180005B028091530290915402A0915502B0910C
:1061900056020196A11DB11D8093530290935402A3
:1061A000A0935502B0935602BF91AF919F918F91EA
:1061B0003F912F910F900FBE0F901F9018951F9237
:1061C0000F920FB60F9211242F933F934F935F932B
:1061D0006F937F938F939F93AF93BF93EF93FF93AF
:1061E0008CE592E00E94ED2FFF91EF91BF91AF916E
:1061F0009F918F917F916F915F914F913F912F91DF
:106200000F900FBE0F901F9018951F920F920FB610
:106210000F9211242F938F939F93EF93FF93E0910D
:106220006C02F0916D028081E0917202F091730234
:1062300082FD1BC09081809175028F5F8F732091CA
:106240007602821741F0E0917502F0E0E45AFD4FCA
:10625000958F80937502FF91EF919F918F912F9170
:106260000F900FBE0F901F9018958081F4CF1F9252
:106270000F920FB60F9211248F93EF93FF9380919B
:106280005202882389F0E0911E0181E08E0F8093F5
:106290001E01F0E0E95DFE4F80818093B3008091A4
:1062A0005202815080935202FF91EF918F910F9093
:1062B0000FBE0F901F901895CF93DF93CDB7DEB729
:1062C00028970FB6F894DEBF0FBECDBF8091F200C5
:1062D00080618EBB80E88093F2009EB39093F200C1
:1062E0008093610091E0909361009091F2009F791A
:1062F0009EBB8093F2009EB39093F2009091F200C7
:106300009B7F9EBB8093F2009EB39093F20080939C
:10631000610010926100789484B5826084BD84B578
:10632000816084BD85B5826085BD85B5816085BD90
:1063300080916E00816080936E0010928100809148
:1063400081008260809381008091810081608093D0
:106350008100809180008160809380008091B100F5
:1063600084608093B1008091B00081608093B00020
:106370008091910082608093910080919100816072
:106380008093910080919000816080939000809133
:106390007A00846080937A0080917A008D7F809368
:1063A0007A0080917A008E7F80937A0080917A00C3
:1063B000806880937A001092C1008FEF809366000E
:1063C00028E131E0A2E1B1E010E85FEF03E06D9178
:1063D000862F90E0FC01E455FF4F449180579F4F7A
:1063E000FC018491643009F091C20093A0008823DD
:1063F000C9F090E0880F991FFC01EC57FF4F6591A1
:106400007491FC01E858FF4F85919491FFB6F89480
:10641000FB01E0804095E422E082FC01608146239C
:106420004083FFBE2A173B0791F6E7EBF0E024918B
:10643000EBE9F0E08491882399F090E0880F991FB0
:10644000FC01EC57FF4FA591B491FC01E858FF4FB8
:10645000859194918FB7F894EC91E22BEC938FBFD8
:10646000F89480918100877E88608093810080917C
:1064700080008C7F8093800080918100887F816084
:106480008093810080916F00826080936F0080E92B
:1064900091E090938900809388008091B6008F7975
:1064A0008093B6008091B00083608093B0008091AB
:1064B000B100877F8093B1008091B0008F7B8068AE
:1064C0008093B0008091B0008F7C8093B000809169
:1064D000B100887F81608093B10080E88093B30031
:1064E00014BC15BC16BC8FEF87BD84B5826084BD1B
:1064F00085B5856085BD10926E0080917A00887F99
:1065000080937A0080917A00876080937A0080E49B
:1065100080937C0080917A00806480937A007894E4
:106520005AE1E52E51E0F52E9924939460E0C62EB1
:1065300060E0D62EAA24AA94B12C08EB1BE080912F
:1065400052028F3F09F45DC1109251021092500225
:1065500040914E0250914F0220914C0230914D02D9
:1065600042175307A0F480914B02865E87FDE2C17B
:1065700080934B02E0914E02F0914F02E053FD4AAE
:10658000E491E058FF0BF0935102E09350024091E8
:10659000490250914A022091470230914802421725
:1065A0005307D0F480914602845E87FDD3C1809367
:1065B0004602E0914902F0914A02E85EF84BE4910C
:1065C000E058FF0B8091500290915102E80FF91FA3
:1065D000F0935102E09350024091440250914502E1
:1065E000209142023091430242175307D0F4809128
:1065F0004102845E87FDBEC180934102E091440266
:10660000F0914502E05AF44CE491E058FF0B809180
:10661000500290915102E80FF91FF0935102E0935C
:10662000500240913F025091400220913D02309132
:106630003E0242175307D0F480913C02845E87FDEE
:10664000A9C180933C02E0913F02F0914002E855DD
:10665000F04DE491E058FF0B80915002909151026F
:10666000E80FF91FF0935102E093500240913A0273
:1066700050913B0220913802309139024217530762
:10668000D0F480913702845E87FD94C180933702F5
:10669000E0913A02F0913B02E051FC4DE491E05868
:1066A000FF0B8091500290915102E80FF91FF09377
:1066B0005102E093500240913502509136022091F0
:1066C00033023091340242175307D0F480913202E2
:1066D000845E87FD7FC180933202E0913502F091A4
:1066E0003602E85CF74EE491E058FF0B80915002CF
:1066F00090915102E80FF91FF0935102E09350027C
:10670000409130025091310220912E0230912F029F
:1067100042175307D0F480912D02845E87FD6AC131
:1067200080932D02E0913002F0913102E058F34F56
:10673000E491E058FF0B8091500290915102E80FD4
:10674000F91FF0935102E093500240912B025091B7
:106750002C022091290230912A0242175307D0F4CB
:1067600080912802845E87FD55C180932802E091C4
:106770002B02F0912C02E853FF4FE491E058FF0BFD
:106780008091500290915102E80FF91FF09351024D
:10679000E093500280915002909151029C013595F6
:1067A000279530935102209350021A9908C095956D
:1067B000879595958795909351028093500280918B
:1067C00050029091510280589F4F8F3F910511F0D8
:1067D0000CF030C19093510280935002F894809154
:1067E0002702E82FF0E0E95DFE4F90915002908380
:1067F0008F5F80932702809152028F5F80935202B5
:1068000078949E012F5F3F4FAFE1B1E062E171E00C
:10681000FB014191BF014E3008F411C186B190E0F7
:106820004E5002C0959587954A95E2F7817090E0A9
:1068300011F09C919925F90191939F018D93E61692
:10684000F70631F78981882341F010924F021092A8
:106850004E0210934D0200934C028A81882341F02E
:1068600010924A0210924902109348020093470284
:106870008B81882341F010923B0210923A021093D0
:106880003902009338028C81882341F0109236023D
:106890001092350210933402009333028D818823C5
:1068A00041F01092400210923F0210933E0200937A
:1068B0003D028E81882341F01092450210924402DD
:1068C00010934302009342028F81882341F010927B
:1068D0002C0210922B0210932A0200932902888521
:1068E000882341F0109231021092300210932F024F
:1068F00000932E02C114D10409F421CE0E94D92F95
:10690000882309F41CCE0E94000019CE9AEE960F3F
:10691000923018F454BF54BF6ACD693109F067CD85
:106920009091F00092609EBB1093F0009EB3909304
:10693000F0005DCD8F7780934B024F5F5F4F509398
:106940004F0240934E022150310930934D02209363
:106950004C0210CE8F77809346024F5F5F4F50936B
:106960004A02409349022150310930934802209352
:1069700047021FCE8F77809341024F5F5F4F509346
:106980004502409344022150310930934302209341
:10699000420234CE8F7780933C024F5F5F4F50931B
:1069A000400240933F022150310930933E02209330
:1069B0003D0249CE8F77809337024F5F5F4F5093F0
:1069C0003B0240933A02215031093093390220931F
:1069D00038025ECE8F77809332024F5F5F4F5093C5
:1069E000360240933502215031093093340220930E
:1069F000330273CE8F7780932D024F5F5F4F50939A
:106A00003102409330022150310930932F022093FC
:106A10002E0288CE8F77809328024F5F5F4F50936E
:106A20002C0240932B022150310930932A022093EB
:106A300029029DCEB0925102A0925002CFCE483092
:106A400020F083B190E04850ECCE89B190E0E9CEDF
:106A5000ECE5F2E01382128288EE93E0A0E0B0E071
:106A600084839583A683B78384E091E091838083B8
:106A700085EC90E09587848784EC90E09787868703
:106A800080EC90E0918B808B81EC90E0938B828BFB
:106A900082EC90E0958B848B86EC90E0978B868BD4
:106AA000118E128E138E148E0895EE0FFF1F059017
:0A6AB000F491E02D0994F894FFCF53
:106ABA00000000000F306F2F9C2F5C30CD2FAB2FC2
:0E6ACA00BF2F02030405060708090D0A00008D
:00000001FF
